{
	"solidity_Lects/RealProjects/InheritanceProject/regularTeam.sol": {
		"regularTeam": {
			"abi": [
				{
					"inputs": [
						{
							"internalType": "string",
							"name": "",
							"type": "string"
						}
					],
					"name": "NameToTask",
					"outputs": [
						{
							"internalType": "string",
							"name": "Team_Name",
							"type": "string"
						},
						{
							"internalType": "string",
							"name": "task_name",
							"type": "string"
						},
						{
							"internalType": "string",
							"name": "member_name",
							"type": "string"
						},
						{
							"internalType": "uint256",
							"name": "task_count",
							"type": "uint256"
						},
						{
							"internalType": "uint256",
							"name": "Team_Reputation",
							"type": "uint256"
						}
					],
					"stateMutability": "view",
					"type": "function"
				},
				{
					"inputs": [
						{
							"internalType": "string",
							"name": "",
							"type": "string"
						}
					],
					"name": "NameToTeam",
					"outputs": [
						{
							"internalType": "string",
							"name": "Team_Name",
							"type": "string"
						},
						{
							"internalType": "uint256",
							"name": "Number_Of_Members",
							"type": "uint256"
						}
					],
					"stateMutability": "view",
					"type": "function"
				},
				{
					"inputs": [
						{
							"internalType": "string",
							"name": "tName",
							"type": "string"
						},
						{
							"internalType": "string",
							"name": "TaskName",
							"type": "string"
						},
						{
							"internalType": "string",
							"name": "memName",
							"type": "string"
						}
					],
					"name": "task_register",
					"outputs": [],
					"stateMutability": "nonpayable",
					"type": "function"
				},
				{
					"inputs": [
						{
							"internalType": "string",
							"name": "tName",
							"type": "string"
						},
						{
							"internalType": "uint256",
							"name": "NuMem",
							"type": "uint256"
						}
					],
					"name": "team_register",
					"outputs": [],
					"stateMutability": "nonpayable",
					"type": "function"
				}
			],
			"devdoc": {
				"kind": "dev",
				"methods": {},
				"version": 1
			},
			"evm": {
				"assembly": "    /* \"solidity_Lects/RealProjects/InheritanceProject/regularTeam.sol\":539:1634  contract regularTeam{... */\n  mstore(0x40, 0x80)\n  callvalue\n  dup1\n  iszero\n  tag_1\n  jumpi\n  revert(0x00, 0x00)\ntag_1:\n  pop\n  dataSize(sub_0)\n  dup1\n  dataOffset(sub_0)\n  0x00\n  codecopy\n  0x00\n  return\nstop\n\nsub_0: assembly {\n        /* \"solidity_Lects/RealProjects/InheritanceProject/regularTeam.sol\":539:1634  contract regularTeam{... */\n      mstore(0x40, 0x80)\n      callvalue\n      dup1\n      iszero\n      tag_1\n      jumpi\n      revert(0x00, 0x00)\n    tag_1:\n      pop\n      jumpi(tag_2, lt(calldatasize, 0x04))\n      shr(0xe0, calldataload(0x00))\n      dup1\n      0x79e238b7\n      eq\n      tag_3\n      jumpi\n      dup1\n      0xa1636430\n      eq\n      tag_4\n      jumpi\n      dup1\n      0xa1d3460b\n      eq\n      tag_5\n      jumpi\n      dup1\n      0xa4a36876\n      eq\n      tag_6\n      jumpi\n    tag_2:\n      revert(0x00, 0x00)\n        /* \"solidity_Lects/RealProjects/InheritanceProject/regularTeam.sol\":1016:1188  function team_register(string memory tName, uint NuMem) public {... */\n    tag_3:\n      tag_7\n      0x04\n      dup1\n      calldatasize\n      sub\n      dup2\n      add\n      swap1\n      tag_8\n      swap2\n      swap1\n      tag_9\n      jump\t// in\n    tag_8:\n      tag_10\n      jump\t// in\n    tag_7:\n      stop\n        /* \"solidity_Lects/RealProjects/InheritanceProject/regularTeam.sol\":1200:1623  function task_register(string memory tName, string memory TaskName, string memory memName) public{... */\n    tag_4:\n      tag_11\n      0x04\n      dup1\n      calldatasize\n      sub\n      dup2\n      add\n      swap1\n      tag_12\n      swap2\n      swap1\n      tag_13\n      jump\t// in\n    tag_12:\n      tag_14\n      jump\t// in\n    tag_11:\n      stop\n        /* \"solidity_Lects/RealProjects/InheritanceProject/regularTeam.sol\":895:940  mapping(string=> task_info) public NameToTask */\n    tag_5:\n      tag_15\n      0x04\n      dup1\n      calldatasize\n      sub\n      dup2\n      add\n      swap1\n      tag_16\n      swap2\n      swap1\n      tag_17\n      jump\t// in\n    tag_16:\n      tag_18\n      jump\t// in\n    tag_15:\n      mload(0x40)\n      tag_19\n      swap6\n      swap5\n      swap4\n      swap3\n      swap2\n      swap1\n      tag_20\n      jump\t// in\n    tag_19:\n      mload(0x40)\n      dup1\n      swap2\n      sub\n      swap1\n      return\n        /* \"solidity_Lects/RealProjects/InheritanceProject/regularTeam.sol\":842:888  mapping(string => team_info) public NameToTeam */\n    tag_6:\n      tag_21\n      0x04\n      dup1\n      calldatasize\n      sub\n      dup2\n      add\n      swap1\n      tag_22\n      swap2\n      swap1\n      tag_17\n      jump\t// in\n    tag_22:\n      tag_23\n      jump\t// in\n    tag_21:\n      mload(0x40)\n      tag_24\n      swap3\n      swap2\n      swap1\n      tag_25\n      jump\t// in\n    tag_24:\n      mload(0x40)\n      dup1\n      swap2\n      sub\n      swap1\n      return\n        /* \"solidity_Lects/RealProjects/InheritanceProject/regularTeam.sol\":1016:1188  function team_register(string memory tName, uint NuMem) public {... */\n    tag_10:\n        /* \"solidity_Lects/RealProjects/InheritanceProject/regularTeam.sol\":1090:1114  team_info memory NewTeam */\n      0x00\n        /* \"solidity_Lects/RealProjects/InheritanceProject/regularTeam.sol\":1117:1140  team_info(tName, NuMem) */\n      mload(0x40)\n      dup1\n      0x40\n      add\n      0x40\n      mstore\n      dup1\n        /* \"solidity_Lects/RealProjects/InheritanceProject/regularTeam.sol\":1127:1132  tName */\n      dup5\n        /* \"solidity_Lects/RealProjects/InheritanceProject/regularTeam.sol\":1117:1140  team_info(tName, NuMem) */\n      dup2\n      mstore\n      0x20\n      add\n        /* \"solidity_Lects/RealProjects/InheritanceProject/regularTeam.sol\":1134:1139  NuMem */\n      dup4\n        /* \"solidity_Lects/RealProjects/InheritanceProject/regularTeam.sol\":1117:1140  team_info(tName, NuMem) */\n      dup2\n      mstore\n      pop\n        /* \"solidity_Lects/RealProjects/InheritanceProject/regularTeam.sol\":1090:1140  team_info memory NewTeam = team_info(tName, NuMem) */\n      swap1\n      pop\n        /* \"solidity_Lects/RealProjects/InheritanceProject/regularTeam.sol\":1171:1178  NewTeam */\n      dup1\n        /* \"solidity_Lects/RealProjects/InheritanceProject/regularTeam.sol\":1151:1161  NameToTeam */\n      0x00\n        /* \"solidity_Lects/RealProjects/InheritanceProject/regularTeam.sol\":1162:1167  tName */\n      dup5\n        /* \"solidity_Lects/RealProjects/InheritanceProject/regularTeam.sol\":1151:1168  NameToTeam[tName] */\n      mload(0x40)\n      tag_27\n      swap2\n      swap1\n      tag_28\n      jump\t// in\n    tag_27:\n      swap1\n      dup2\n      mstore\n      0x20\n      add\n      mload(0x40)\n      dup1\n      swap2\n      sub\n      swap1\n      keccak256\n        /* \"solidity_Lects/RealProjects/InheritanceProject/regularTeam.sol\":1151:1178  NameToTeam[tName] = NewTeam */\n      0x00\n      dup3\n      add\n      mload\n      dup2\n      0x00\n      add\n      swap1\n      dup2\n      tag_29\n      swap2\n      swap1\n      tag_30\n      jump\t// in\n    tag_29:\n      pop\n      0x20\n      dup3\n      add\n      mload\n      dup2\n      0x01\n      add\n      sstore\n      swap1\n      pop\n      pop\n        /* \"solidity_Lects/RealProjects/InheritanceProject/regularTeam.sol\":1079:1188  {... */\n      pop\n        /* \"solidity_Lects/RealProjects/InheritanceProject/regularTeam.sol\":1016:1188  function team_register(string memory tName, uint NuMem) public {... */\n      pop\n      pop\n      jump\t// out\n        /* \"solidity_Lects/RealProjects/InheritanceProject/regularTeam.sol\":1200:1623  function task_register(string memory tName, string memory TaskName, string memory memName) public{... */\n    tag_14:\n        /* \"solidity_Lects/RealProjects/InheritanceProject/regularTeam.sol\":1318:1328  NameToTask */\n      0x01\n        /* \"solidity_Lects/RealProjects/InheritanceProject/regularTeam.sol\":1329:1334  tName */\n      dup4\n        /* \"solidity_Lects/RealProjects/InheritanceProject/regularTeam.sol\":1318:1335  NameToTask[tName] */\n      mload(0x40)\n      tag_32\n      swap2\n      swap1\n      tag_28\n      jump\t// in\n    tag_32:\n      swap1\n      dup2\n      mstore\n      0x20\n      add\n      mload(0x40)\n      dup1\n      swap2\n      sub\n      swap1\n      keccak256\n        /* \"solidity_Lects/RealProjects/InheritanceProject/regularTeam.sol\":1318:1346  NameToTask[tName].task_count */\n      0x03\n      add\n      0x00\n        /* \"solidity_Lects/RealProjects/InheritanceProject/regularTeam.sol\":1318:1348  NameToTask[tName].task_count++ */\n      dup2\n      sload\n      dup1\n      swap3\n      swap2\n      swap1\n      tag_33\n      swap1\n      tag_34\n      jump\t// in\n    tag_33:\n      swap2\n      swap1\n      pop\n      sstore\n      pop\n        /* \"solidity_Lects/RealProjects/InheritanceProject/regularTeam.sol\":1431:1433  10 */\n      0x0a\n        /* \"solidity_Lects/RealProjects/InheritanceProject/regularTeam.sol\":1395:1405  NameToTask */\n      0x01\n        /* \"solidity_Lects/RealProjects/InheritanceProject/regularTeam.sol\":1406:1411  tName */\n      dup5\n        /* \"solidity_Lects/RealProjects/InheritanceProject/regularTeam.sol\":1395:1412  NameToTask[tName] */\n      mload(0x40)\n      tag_35\n      swap2\n      swap1\n      tag_28\n      jump\t// in\n    tag_35:\n      swap1\n      dup2\n      mstore\n      0x20\n      add\n      mload(0x40)\n      dup1\n      swap2\n      sub\n      swap1\n      keccak256\n        /* \"solidity_Lects/RealProjects/InheritanceProject/regularTeam.sol\":1395:1428  NameToTask[tName].Team_Reputation */\n      0x04\n      add\n      sload\n        /* \"solidity_Lects/RealProjects/InheritanceProject/regularTeam.sol\":1395:1433  NameToTask[tName].Team_Reputation + 10 */\n      tag_36\n      swap2\n      swap1\n      tag_37\n      jump\t// in\n    tag_36:\n        /* \"solidity_Lects/RealProjects/InheritanceProject/regularTeam.sol\":1359:1369  NameToTask */\n      0x01\n        /* \"solidity_Lects/RealProjects/InheritanceProject/regularTeam.sol\":1370:1375  tName */\n      dup5\n        /* \"solidity_Lects/RealProjects/InheritanceProject/regularTeam.sol\":1359:1376  NameToTask[tName] */\n      mload(0x40)\n      tag_38\n      swap2\n      swap1\n      tag_28\n      jump\t// in\n    tag_38:\n      swap1\n      dup2\n      mstore\n      0x20\n      add\n      mload(0x40)\n      dup1\n      swap2\n      sub\n      swap1\n      keccak256\n        /* \"solidity_Lects/RealProjects/InheritanceProject/regularTeam.sol\":1359:1392  NameToTask[tName].Team_Reputation */\n      0x04\n      add\n        /* \"solidity_Lects/RealProjects/InheritanceProject/regularTeam.sol\":1359:1433  NameToTask[tName].Team_Reputation = NameToTask[tName].Team_Reputation + 10 */\n      dup2\n      swap1\n      sstore\n      pop\n        /* \"solidity_Lects/RealProjects/InheritanceProject/regularTeam.sol\":1448:1472  task_info memory NewTask */\n      0x00\n        /* \"solidity_Lects/RealProjects/InheritanceProject/regularTeam.sol\":1475:1575  task_info(tName, TaskName, memName, NameToTask[tName].task_count, NameToTask[tName].Team_Reputation) */\n      mload(0x40)\n      dup1\n      0xa0\n      add\n      0x40\n      mstore\n      dup1\n        /* \"solidity_Lects/RealProjects/InheritanceProject/regularTeam.sol\":1485:1490  tName */\n      dup6\n        /* \"solidity_Lects/RealProjects/InheritanceProject/regularTeam.sol\":1475:1575  task_info(tName, TaskName, memName, NameToTask[tName].task_count, NameToTask[tName].Team_Reputation) */\n      dup2\n      mstore\n      0x20\n      add\n        /* \"solidity_Lects/RealProjects/InheritanceProject/regularTeam.sol\":1492:1500  TaskName */\n      dup5\n        /* \"solidity_Lects/RealProjects/InheritanceProject/regularTeam.sol\":1475:1575  task_info(tName, TaskName, memName, NameToTask[tName].task_count, NameToTask[tName].Team_Reputation) */\n      dup2\n      mstore\n      0x20\n      add\n        /* \"solidity_Lects/RealProjects/InheritanceProject/regularTeam.sol\":1502:1509  memName */\n      dup4\n        /* \"solidity_Lects/RealProjects/InheritanceProject/regularTeam.sol\":1475:1575  task_info(tName, TaskName, memName, NameToTask[tName].task_count, NameToTask[tName].Team_Reputation) */\n      dup2\n      mstore\n      0x20\n      add\n        /* \"solidity_Lects/RealProjects/InheritanceProject/regularTeam.sol\":1511:1521  NameToTask */\n      0x01\n        /* \"solidity_Lects/RealProjects/InheritanceProject/regularTeam.sol\":1522:1527  tName */\n      dup7\n        /* \"solidity_Lects/RealProjects/InheritanceProject/regularTeam.sol\":1511:1528  NameToTask[tName] */\n      mload(0x40)\n      tag_39\n      swap2\n      swap1\n      tag_28\n      jump\t// in\n    tag_39:\n      swap1\n      dup2\n      mstore\n      0x20\n      add\n      mload(0x40)\n      dup1\n      swap2\n      sub\n      swap1\n      keccak256\n        /* \"solidity_Lects/RealProjects/InheritanceProject/regularTeam.sol\":1511:1539  NameToTask[tName].task_count */\n      0x03\n      add\n      sload\n        /* \"solidity_Lects/RealProjects/InheritanceProject/regularTeam.sol\":1475:1575  task_info(tName, TaskName, memName, NameToTask[tName].task_count, NameToTask[tName].Team_Reputation) */\n      dup2\n      mstore\n      0x20\n      add\n        /* \"solidity_Lects/RealProjects/InheritanceProject/regularTeam.sol\":1541:1551  NameToTask */\n      0x01\n        /* \"solidity_Lects/RealProjects/InheritanceProject/regularTeam.sol\":1552:1557  tName */\n      dup7\n        /* \"solidity_Lects/RealProjects/InheritanceProject/regularTeam.sol\":1541:1558  NameToTask[tName] */\n      mload(0x40)\n      tag_40\n      swap2\n      swap1\n      tag_28\n      jump\t// in\n    tag_40:\n      swap1\n      dup2\n      mstore\n      0x20\n      add\n      mload(0x40)\n      dup1\n      swap2\n      sub\n      swap1\n      keccak256\n        /* \"solidity_Lects/RealProjects/InheritanceProject/regularTeam.sol\":1541:1574  NameToTask[tName].Team_Reputation */\n      0x04\n      add\n      sload\n        /* \"solidity_Lects/RealProjects/InheritanceProject/regularTeam.sol\":1475:1575  task_info(tName, TaskName, memName, NameToTask[tName].task_count, NameToTask[tName].Team_Reputation) */\n      dup2\n      mstore\n      pop\n        /* \"solidity_Lects/RealProjects/InheritanceProject/regularTeam.sol\":1448:1575  task_info memory NewTask = task_info(tName, TaskName, memName, NameToTask[tName].task_count, NameToTask[tName].Team_Reputation) */\n      swap1\n      pop\n        /* \"solidity_Lects/RealProjects/InheritanceProject/regularTeam.sol\":1606:1613  NewTask */\n      dup1\n        /* \"solidity_Lects/RealProjects/InheritanceProject/regularTeam.sol\":1586:1596  NameToTask */\n      0x01\n        /* \"solidity_Lects/RealProjects/InheritanceProject/regularTeam.sol\":1597:1602  tName */\n      dup6\n        /* \"solidity_Lects/RealProjects/InheritanceProject/regularTeam.sol\":1586:1603  NameToTask[tName] */\n      mload(0x40)\n      tag_41\n      swap2\n      swap1\n      tag_28\n      jump\t// in\n    tag_41:\n      swap1\n      dup2\n      mstore\n      0x20\n      add\n      mload(0x40)\n      dup1\n      swap2\n      sub\n      swap1\n      keccak256\n        /* \"solidity_Lects/RealProjects/InheritanceProject/regularTeam.sol\":1586:1613  NameToTask[tName] = NewTask */\n      0x00\n      dup3\n      add\n      mload\n      dup2\n      0x00\n      add\n      swap1\n      dup2\n      tag_42\n      swap2\n      swap1\n      tag_30\n      jump\t// in\n    tag_42:\n      pop\n      0x20\n      dup3\n      add\n      mload\n      dup2\n      0x01\n      add\n      swap1\n      dup2\n      tag_43\n      swap2\n      swap1\n      tag_30\n      jump\t// in\n    tag_43:\n      pop\n      0x40\n      dup3\n      add\n      mload\n      dup2\n      0x02\n      add\n      swap1\n      dup2\n      tag_44\n      swap2\n      swap1\n      tag_30\n      jump\t// in\n    tag_44:\n      pop\n      0x60\n      dup3\n      add\n      mload\n      dup2\n      0x03\n      add\n      sstore\n      0x80\n      dup3\n      add\n      mload\n      dup2\n      0x04\n      add\n      sstore\n      swap1\n      pop\n      pop\n        /* \"solidity_Lects/RealProjects/InheritanceProject/regularTeam.sol\":1297:1623  {... */\n      pop\n        /* \"solidity_Lects/RealProjects/InheritanceProject/regularTeam.sol\":1200:1623  function task_register(string memory tName, string memory TaskName, string memory memName) public{... */\n      pop\n      pop\n      pop\n      jump\t// out\n        /* \"solidity_Lects/RealProjects/InheritanceProject/regularTeam.sol\":895:940  mapping(string=> task_info) public NameToTask */\n    tag_18:\n      0x01\n      dup2\n      dup1\n      mload\n      0x20\n      dup2\n      add\n      dup3\n      add\n      dup1\n      mload\n      dup5\n      dup3\n      mstore\n      0x20\n      dup4\n      add\n      0x20\n      dup6\n      add\n      keccak256\n      dup2\n      dup4\n      mstore\n      dup1\n      swap6\n      pop\n      pop\n      pop\n      pop\n      pop\n      pop\n      0x00\n      swap2\n      pop\n      swap1\n      pop\n      dup1\n      0x00\n      add\n      dup1\n      sload\n      tag_45\n      swap1\n      tag_46\n      jump\t// in\n    tag_45:\n      dup1\n      0x1f\n      add\n      0x20\n      dup1\n      swap2\n      div\n      mul\n      0x20\n      add\n      mload(0x40)\n      swap1\n      dup2\n      add\n      0x40\n      mstore\n      dup1\n      swap3\n      swap2\n      swap1\n      dup2\n      dup2\n      mstore\n      0x20\n      add\n      dup3\n      dup1\n      sload\n      tag_47\n      swap1\n      tag_46\n      jump\t// in\n    tag_47:\n      dup1\n      iszero\n      tag_48\n      jumpi\n      dup1\n      0x1f\n      lt\n      tag_49\n      jumpi\n      0x0100\n      dup1\n      dup4\n      sload\n      div\n      mul\n      dup4\n      mstore\n      swap2\n      0x20\n      add\n      swap2\n      jump(tag_48)\n    tag_49:\n      dup3\n      add\n      swap2\n      swap1\n      0x00\n      mstore\n      keccak256(0x00, 0x20)\n      swap1\n    tag_50:\n      dup2\n      sload\n      dup2\n      mstore\n      swap1\n      0x01\n      add\n      swap1\n      0x20\n      add\n      dup1\n      dup4\n      gt\n      tag_50\n      jumpi\n      dup3\n      swap1\n      sub\n      0x1f\n      and\n      dup3\n      add\n      swap2\n    tag_48:\n      pop\n      pop\n      pop\n      pop\n      pop\n      swap1\n      dup1\n      0x01\n      add\n      dup1\n      sload\n      tag_51\n      swap1\n      tag_46\n      jump\t// in\n    tag_51:\n      dup1\n      0x1f\n      add\n      0x20\n      dup1\n      swap2\n      div\n      mul\n      0x20\n      add\n      mload(0x40)\n      swap1\n      dup2\n      add\n      0x40\n      mstore\n      dup1\n      swap3\n      swap2\n      swap1\n      dup2\n      dup2\n      mstore\n      0x20\n      add\n      dup3\n      dup1\n      sload\n      tag_52\n      swap1\n      tag_46\n      jump\t// in\n    tag_52:\n      dup1\n      iszero\n      tag_53\n      jumpi\n      dup1\n      0x1f\n      lt\n      tag_54\n      jumpi\n      0x0100\n      dup1\n      dup4\n      sload\n      div\n      mul\n      dup4\n      mstore\n      swap2\n      0x20\n      add\n      swap2\n      jump(tag_53)\n    tag_54:\n      dup3\n      add\n      swap2\n      swap1\n      0x00\n      mstore\n      keccak256(0x00, 0x20)\n      swap1\n    tag_55:\n      dup2\n      sload\n      dup2\n      mstore\n      swap1\n      0x01\n      add\n      swap1\n      0x20\n      add\n      dup1\n      dup4\n      gt\n      tag_55\n      jumpi\n      dup3\n      swap1\n      sub\n      0x1f\n      and\n      dup3\n      add\n      swap2\n    tag_53:\n      pop\n      pop\n      pop\n      pop\n      pop\n      swap1\n      dup1\n      0x02\n      add\n      dup1\n      sload\n      tag_56\n      swap1\n      tag_46\n      jump\t// in\n    tag_56:\n      dup1\n      0x1f\n      add\n      0x20\n      dup1\n      swap2\n      div\n      mul\n      0x20\n      add\n      mload(0x40)\n      swap1\n      dup2\n      add\n      0x40\n      mstore\n      dup1\n      swap3\n      swap2\n      swap1\n      dup2\n      dup2\n      mstore\n      0x20\n      add\n      dup3\n      dup1\n      sload\n      tag_57\n      swap1\n      tag_46\n      jump\t// in\n    tag_57:\n      dup1\n      iszero\n      tag_58\n      jumpi\n      dup1\n      0x1f\n      lt\n      tag_59\n      jumpi\n      0x0100\n      dup1\n      dup4\n      sload\n      div\n      mul\n      dup4\n      mstore\n      swap2\n      0x20\n      add\n      swap2\n      jump(tag_58)\n    tag_59:\n      dup3\n      add\n      swap2\n      swap1\n      0x00\n      mstore\n      keccak256(0x00, 0x20)\n      swap1\n    tag_60:\n      dup2\n      sload\n      dup2\n      mstore\n      swap1\n      0x01\n      add\n      swap1\n      0x20\n      add\n      dup1\n      dup4\n      gt\n      tag_60\n      jumpi\n      dup3\n      swap1\n      sub\n      0x1f\n      and\n      dup3\n      add\n      swap2\n    tag_58:\n      pop\n      pop\n      pop\n      pop\n      pop\n      swap1\n      dup1\n      0x03\n      add\n      sload\n      swap1\n      dup1\n      0x04\n      add\n      sload\n      swap1\n      pop\n      dup6\n      jump\t// out\n        /* \"solidity_Lects/RealProjects/InheritanceProject/regularTeam.sol\":842:888  mapping(string => team_info) public NameToTeam */\n    tag_23:\n      0x00\n      dup2\n      dup1\n      mload\n      0x20\n      dup2\n      add\n      dup3\n      add\n      dup1\n      mload\n      dup5\n      dup3\n      mstore\n      0x20\n      dup4\n      add\n      0x20\n      dup6\n      add\n      keccak256\n      dup2\n      dup4\n      mstore\n      dup1\n      swap6\n      pop\n      pop\n      pop\n      pop\n      pop\n      pop\n      0x00\n      swap2\n      pop\n      swap1\n      pop\n      dup1\n      0x00\n      add\n      dup1\n      sload\n      tag_61\n      swap1\n      tag_46\n      jump\t// in\n    tag_61:\n      dup1\n      0x1f\n      add\n      0x20\n      dup1\n      swap2\n      div\n      mul\n      0x20\n      add\n      mload(0x40)\n      swap1\n      dup2\n      add\n      0x40\n      mstore\n      dup1\n      swap3\n      swap2\n      swap1\n      dup2\n      dup2\n      mstore\n      0x20\n      add\n      dup3\n      dup1\n      sload\n      tag_62\n      swap1\n      tag_46\n      jump\t// in\n    tag_62:\n      dup1\n      iszero\n      tag_63\n      jumpi\n      dup1\n      0x1f\n      lt\n      tag_64\n      jumpi\n      0x0100\n      dup1\n      dup4\n      sload\n      div\n      mul\n      dup4\n      mstore\n      swap2\n      0x20\n      add\n      swap2\n      jump(tag_63)\n    tag_64:\n      dup3\n      add\n      swap2\n      swap1\n      0x00\n      mstore\n      keccak256(0x00, 0x20)\n      swap1\n    tag_65:\n      dup2\n      sload\n      dup2\n      mstore\n      swap1\n      0x01\n      add\n      swap1\n      0x20\n      add\n      dup1\n      dup4\n      gt\n      tag_65\n      jumpi\n      dup3\n      swap1\n      sub\n      0x1f\n      and\n      dup3\n      add\n      swap2\n    tag_63:\n      pop\n      pop\n      pop\n      pop\n      pop\n      swap1\n      dup1\n      0x01\n      add\n      sload\n      swap1\n      pop\n      dup3\n      jump\t// out\n        /* \"#utility.yul\":7:82   */\n    tag_66:\n        /* \"#utility.yul\":40:46   */\n      0x00\n        /* \"#utility.yul\":73:75   */\n      0x40\n        /* \"#utility.yul\":67:76   */\n      mload\n        /* \"#utility.yul\":57:76   */\n      swap1\n      pop\n        /* \"#utility.yul\":7:82   */\n      swap1\n      jump\t// out\n        /* \"#utility.yul\":88:205   */\n    tag_67:\n        /* \"#utility.yul\":197:198   */\n      0x00\n        /* \"#utility.yul\":194:195   */\n      0x00\n        /* \"#utility.yul\":187:199   */\n      revert\n        /* \"#utility.yul\":211:328   */\n    tag_68:\n        /* \"#utility.yul\":320:321   */\n      0x00\n        /* \"#utility.yul\":317:318   */\n      0x00\n        /* \"#utility.yul\":310:322   */\n      revert\n        /* \"#utility.yul\":334:451   */\n    tag_69:\n        /* \"#utility.yul\":443:444   */\n      0x00\n        /* \"#utility.yul\":440:441   */\n      0x00\n        /* \"#utility.yul\":433:445   */\n      revert\n        /* \"#utility.yul\":457:574   */\n    tag_70:\n        /* \"#utility.yul\":566:567   */\n      0x00\n        /* \"#utility.yul\":563:564   */\n      0x00\n        /* \"#utility.yul\":556:568   */\n      revert\n        /* \"#utility.yul\":580:682   */\n    tag_71:\n        /* \"#utility.yul\":621:627   */\n      0x00\n        /* \"#utility.yul\":672:674   */\n      0x1f\n        /* \"#utility.yul\":668:675   */\n      not\n        /* \"#utility.yul\":663:665   */\n      0x1f\n        /* \"#utility.yul\":656:661   */\n      dup4\n        /* \"#utility.yul\":652:666   */\n      add\n        /* \"#utility.yul\":648:676   */\n      and\n        /* \"#utility.yul\":638:676   */\n      swap1\n      pop\n        /* \"#utility.yul\":580:682   */\n      swap2\n      swap1\n      pop\n      jump\t// out\n        /* \"#utility.yul\":688:868   */\n    tag_72:\n        /* \"#utility.yul\":736:813   */\n      0x4e487b7100000000000000000000000000000000000000000000000000000000\n        /* \"#utility.yul\":733:734   */\n      0x00\n        /* \"#utility.yul\":726:814   */\n      mstore\n        /* \"#utility.yul\":833:837   */\n      0x41\n        /* \"#utility.yul\":830:831   */\n      0x04\n        /* \"#utility.yul\":823:838   */\n      mstore\n        /* \"#utility.yul\":857:861   */\n      0x24\n        /* \"#utility.yul\":854:855   */\n      0x00\n        /* \"#utility.yul\":847:862   */\n      revert\n        /* \"#utility.yul\":874:1155   */\n    tag_73:\n        /* \"#utility.yul\":957:984   */\n      tag_115\n        /* \"#utility.yul\":979:983   */\n      dup3\n        /* \"#utility.yul\":957:984   */\n      tag_71\n      jump\t// in\n    tag_115:\n        /* \"#utility.yul\":949:955   */\n      dup2\n        /* \"#utility.yul\":945:985   */\n      add\n        /* \"#utility.yul\":1087:1093   */\n      dup2\n        /* \"#utility.yul\":1075:1085   */\n      dup2\n        /* \"#utility.yul\":1072:1094   */\n      lt\n        /* \"#utility.yul\":1051:1069   */\n      0xffffffffffffffff\n        /* \"#utility.yul\":1039:1049   */\n      dup3\n        /* \"#utility.yul\":1036:1070   */\n      gt\n        /* \"#utility.yul\":1033:1095   */\n      or\n        /* \"#utility.yul\":1030:1118   */\n      iszero\n      tag_116\n      jumpi\n        /* \"#utility.yul\":1098:1116   */\n      tag_117\n      tag_72\n      jump\t// in\n    tag_117:\n        /* \"#utility.yul\":1030:1118   */\n    tag_116:\n        /* \"#utility.yul\":1138:1148   */\n      dup1\n        /* \"#utility.yul\":1134:1136   */\n      0x40\n        /* \"#utility.yul\":1127:1149   */\n      mstore\n        /* \"#utility.yul\":917:1155   */\n      pop\n        /* \"#utility.yul\":874:1155   */\n      pop\n      pop\n      jump\t// out\n        /* \"#utility.yul\":1161:1290   */\n    tag_74:\n        /* \"#utility.yul\":1195:1201   */\n      0x00\n        /* \"#utility.yul\":1222:1242   */\n      tag_119\n      tag_66\n      jump\t// in\n    tag_119:\n        /* \"#utility.yul\":1212:1242   */\n      swap1\n      pop\n        /* \"#utility.yul\":1251:1284   */\n      tag_120\n        /* \"#utility.yul\":1279:1283   */\n      dup3\n        /* \"#utility.yul\":1271:1277   */\n      dup3\n        /* \"#utility.yul\":1251:1284   */\n      tag_73\n      jump\t// in\n    tag_120:\n        /* \"#utility.yul\":1161:1290   */\n      swap2\n      swap1\n      pop\n      jump\t// out\n        /* \"#utility.yul\":1296:1604   */\n    tag_75:\n        /* \"#utility.yul\":1358:1362   */\n      0x00\n        /* \"#utility.yul\":1448:1466   */\n      0xffffffffffffffff\n        /* \"#utility.yul\":1440:1446   */\n      dup3\n        /* \"#utility.yul\":1437:1467   */\n      gt\n        /* \"#utility.yul\":1434:1490   */\n      iszero\n      tag_122\n      jumpi\n        /* \"#utility.yul\":1470:1488   */\n      tag_123\n      tag_72\n      jump\t// in\n    tag_123:\n        /* \"#utility.yul\":1434:1490   */\n    tag_122:\n        /* \"#utility.yul\":1508:1537   */\n      tag_124\n        /* \"#utility.yul\":1530:1536   */\n      dup3\n        /* \"#utility.yul\":1508:1537   */\n      tag_71\n      jump\t// in\n    tag_124:\n        /* \"#utility.yul\":1500:1537   */\n      swap1\n      pop\n        /* \"#utility.yul\":1592:1596   */\n      0x20\n        /* \"#utility.yul\":1586:1590   */\n      dup2\n        /* \"#utility.yul\":1582:1597   */\n      add\n        /* \"#utility.yul\":1574:1597   */\n      swap1\n      pop\n        /* \"#utility.yul\":1296:1604   */\n      swap2\n      swap1\n      pop\n      jump\t// out\n        /* \"#utility.yul\":1610:1758   */\n    tag_76:\n        /* \"#utility.yul\":1708:1714   */\n      dup3\n        /* \"#utility.yul\":1703:1706   */\n      dup2\n        /* \"#utility.yul\":1698:1701   */\n      dup4\n        /* \"#utility.yul\":1685:1715   */\n      calldatacopy\n        /* \"#utility.yul\":1749:1750   */\n      0x00\n        /* \"#utility.yul\":1740:1746   */\n      dup4\n        /* \"#utility.yul\":1735:1738   */\n      dup4\n        /* \"#utility.yul\":1731:1747   */\n      add\n        /* \"#utility.yul\":1724:1751   */\n      mstore\n        /* \"#utility.yul\":1610:1758   */\n      pop\n      pop\n      pop\n      jump\t// out\n        /* \"#utility.yul\":1764:2189   */\n    tag_77:\n        /* \"#utility.yul\":1842:1847   */\n      0x00\n        /* \"#utility.yul\":1867:1933   */\n      tag_127\n        /* \"#utility.yul\":1883:1932   */\n      tag_128\n        /* \"#utility.yul\":1925:1931   */\n      dup5\n        /* \"#utility.yul\":1883:1932   */\n      tag_75\n      jump\t// in\n    tag_128:\n        /* \"#utility.yul\":1867:1933   */\n      tag_74\n      jump\t// in\n    tag_127:\n        /* \"#utility.yul\":1858:1933   */\n      swap1\n      pop\n        /* \"#utility.yul\":1956:1962   */\n      dup3\n        /* \"#utility.yul\":1949:1954   */\n      dup2\n        /* \"#utility.yul\":1942:1963   */\n      mstore\n        /* \"#utility.yul\":1994:1998   */\n      0x20\n        /* \"#utility.yul\":1987:1992   */\n      dup2\n        /* \"#utility.yul\":1983:1999   */\n      add\n        /* \"#utility.yul\":2032:2035   */\n      dup5\n        /* \"#utility.yul\":2023:2029   */\n      dup5\n        /* \"#utility.yul\":2018:2021   */\n      dup5\n        /* \"#utility.yul\":2014:2030   */\n      add\n        /* \"#utility.yul\":2011:2036   */\n      gt\n        /* \"#utility.yul\":2008:2120   */\n      iszero\n      tag_129\n      jumpi\n        /* \"#utility.yul\":2039:2118   */\n      tag_130\n      tag_70\n      jump\t// in\n    tag_130:\n        /* \"#utility.yul\":2008:2120   */\n    tag_129:\n        /* \"#utility.yul\":2129:2183   */\n      tag_131\n        /* \"#utility.yul\":2176:2182   */\n      dup5\n        /* \"#utility.yul\":2171:2174   */\n      dup3\n        /* \"#utility.yul\":2166:2169   */\n      dup6\n        /* \"#utility.yul\":2129:2183   */\n      tag_76\n      jump\t// in\n    tag_131:\n        /* \"#utility.yul\":1848:2189   */\n      pop\n        /* \"#utility.yul\":1764:2189   */\n      swap4\n      swap3\n      pop\n      pop\n      pop\n      jump\t// out\n        /* \"#utility.yul\":2209:2549   */\n    tag_78:\n        /* \"#utility.yul\":2265:2270   */\n      0x00\n        /* \"#utility.yul\":2314:2317   */\n      dup3\n        /* \"#utility.yul\":2307:2311   */\n      0x1f\n        /* \"#utility.yul\":2299:2305   */\n      dup4\n        /* \"#utility.yul\":2295:2312   */\n      add\n        /* \"#utility.yul\":2291:2318   */\n      slt\n        /* \"#utility.yul\":2281:2403   */\n      tag_133\n      jumpi\n        /* \"#utility.yul\":2322:2401   */\n      tag_134\n      tag_69\n      jump\t// in\n    tag_134:\n        /* \"#utility.yul\":2281:2403   */\n    tag_133:\n        /* \"#utility.yul\":2439:2445   */\n      dup2\n        /* \"#utility.yul\":2426:2446   */\n      calldataload\n        /* \"#utility.yul\":2464:2543   */\n      tag_135\n        /* \"#utility.yul\":2539:2542   */\n      dup5\n        /* \"#utility.yul\":2531:2537   */\n      dup3\n        /* \"#utility.yul\":2524:2528   */\n      0x20\n        /* \"#utility.yul\":2516:2522   */\n      dup7\n        /* \"#utility.yul\":2512:2529   */\n      add\n        /* \"#utility.yul\":2464:2543   */\n      tag_77\n      jump\t// in\n    tag_135:\n        /* \"#utility.yul\":2455:2543   */\n      swap2\n      pop\n        /* \"#utility.yul\":2271:2549   */\n      pop\n        /* \"#utility.yul\":2209:2549   */\n      swap3\n      swap2\n      pop\n      pop\n      jump\t// out\n        /* \"#utility.yul\":2555:2632   */\n    tag_79:\n        /* \"#utility.yul\":2592:2599   */\n      0x00\n        /* \"#utility.yul\":2621:2626   */\n      dup2\n        /* \"#utility.yul\":2610:2626   */\n      swap1\n      pop\n        /* \"#utility.yul\":2555:2632   */\n      swap2\n      swap1\n      pop\n      jump\t// out\n        /* \"#utility.yul\":2638:2760   */\n    tag_80:\n        /* \"#utility.yul\":2711:2735   */\n      tag_138\n        /* \"#utility.yul\":2729:2734   */\n      dup2\n        /* \"#utility.yul\":2711:2735   */\n      tag_79\n      jump\t// in\n    tag_138:\n        /* \"#utility.yul\":2704:2709   */\n      dup2\n        /* \"#utility.yul\":2701:2736   */\n      eq\n        /* \"#utility.yul\":2691:2754   */\n      tag_139\n      jumpi\n        /* \"#utility.yul\":2750:2751   */\n      0x00\n        /* \"#utility.yul\":2747:2748   */\n      0x00\n        /* \"#utility.yul\":2740:2752   */\n      revert\n        /* \"#utility.yul\":2691:2754   */\n    tag_139:\n        /* \"#utility.yul\":2638:2760   */\n      pop\n      jump\t// out\n        /* \"#utility.yul\":2766:2905   */\n    tag_81:\n        /* \"#utility.yul\":2812:2817   */\n      0x00\n        /* \"#utility.yul\":2850:2856   */\n      dup2\n        /* \"#utility.yul\":2837:2857   */\n      calldataload\n        /* \"#utility.yul\":2828:2857   */\n      swap1\n      pop\n        /* \"#utility.yul\":2866:2899   */\n      tag_141\n        /* \"#utility.yul\":2893:2898   */\n      dup2\n        /* \"#utility.yul\":2866:2899   */\n      tag_80\n      jump\t// in\n    tag_141:\n        /* \"#utility.yul\":2766:2905   */\n      swap3\n      swap2\n      pop\n      pop\n      jump\t// out\n        /* \"#utility.yul\":2911:3565   */\n    tag_9:\n        /* \"#utility.yul\":2989:2995   */\n      0x00\n        /* \"#utility.yul\":2997:3003   */\n      0x00\n        /* \"#utility.yul\":3046:3048   */\n      0x40\n        /* \"#utility.yul\":3034:3043   */\n      dup4\n        /* \"#utility.yul\":3025:3032   */\n      dup6\n        /* \"#utility.yul\":3021:3044   */\n      sub\n        /* \"#utility.yul\":3017:3049   */\n      slt\n        /* \"#utility.yul\":3014:3133   */\n      iszero\n      tag_143\n      jumpi\n        /* \"#utility.yul\":3052:3131   */\n      tag_144\n      tag_67\n      jump\t// in\n    tag_144:\n        /* \"#utility.yul\":3014:3133   */\n    tag_143:\n        /* \"#utility.yul\":3200:3201   */\n      0x00\n        /* \"#utility.yul\":3189:3198   */\n      dup4\n        /* \"#utility.yul\":3185:3202   */\n      add\n        /* \"#utility.yul\":3172:3203   */\n      calldataload\n        /* \"#utility.yul\":3230:3248   */\n      0xffffffffffffffff\n        /* \"#utility.yul\":3222:3228   */\n      dup2\n        /* \"#utility.yul\":3219:3249   */\n      gt\n        /* \"#utility.yul\":3216:3333   */\n      iszero\n      tag_145\n      jumpi\n        /* \"#utility.yul\":3252:3331   */\n      tag_146\n      tag_68\n      jump\t// in\n    tag_146:\n        /* \"#utility.yul\":3216:3333   */\n    tag_145:\n        /* \"#utility.yul\":3357:3420   */\n      tag_147\n        /* \"#utility.yul\":3412:3419   */\n      dup6\n        /* \"#utility.yul\":3403:3409   */\n      dup3\n        /* \"#utility.yul\":3392:3401   */\n      dup7\n        /* \"#utility.yul\":3388:3410   */\n      add\n        /* \"#utility.yul\":3357:3420   */\n      tag_78\n      jump\t// in\n    tag_147:\n        /* \"#utility.yul\":3347:3420   */\n      swap3\n      pop\n        /* \"#utility.yul\":3143:3430   */\n      pop\n        /* \"#utility.yul\":3469:3471   */\n      0x20\n        /* \"#utility.yul\":3495:3548   */\n      tag_148\n        /* \"#utility.yul\":3540:3547   */\n      dup6\n        /* \"#utility.yul\":3531:3537   */\n      dup3\n        /* \"#utility.yul\":3520:3529   */\n      dup7\n        /* \"#utility.yul\":3516:3538   */\n      add\n        /* \"#utility.yul\":3495:3548   */\n      tag_81\n      jump\t// in\n    tag_148:\n        /* \"#utility.yul\":3485:3548   */\n      swap2\n      pop\n        /* \"#utility.yul\":3440:3558   */\n      pop\n        /* \"#utility.yul\":2911:3565   */\n      swap3\n      pop\n      swap3\n      swap1\n      pop\n      jump\t// out\n        /* \"#utility.yul\":3571:4730   */\n    tag_13:\n        /* \"#utility.yul\":3678:3684   */\n      0x00\n        /* \"#utility.yul\":3686:3692   */\n      0x00\n        /* \"#utility.yul\":3694:3700   */\n      0x00\n        /* \"#utility.yul\":3743:3745   */\n      0x60\n        /* \"#utility.yul\":3731:3740   */\n      dup5\n        /* \"#utility.yul\":3722:3729   */\n      dup7\n        /* \"#utility.yul\":3718:3741   */\n      sub\n        /* \"#utility.yul\":3714:3746   */\n      slt\n        /* \"#utility.yul\":3711:3830   */\n      iszero\n      tag_150\n      jumpi\n        /* \"#utility.yul\":3749:3828   */\n      tag_151\n      tag_67\n      jump\t// in\n    tag_151:\n        /* \"#utility.yul\":3711:3830   */\n    tag_150:\n        /* \"#utility.yul\":3897:3898   */\n      0x00\n        /* \"#utility.yul\":3886:3895   */\n      dup5\n        /* \"#utility.yul\":3882:3899   */\n      add\n        /* \"#utility.yul\":3869:3900   */\n      calldataload\n        /* \"#utility.yul\":3927:3945   */\n      0xffffffffffffffff\n        /* \"#utility.yul\":3919:3925   */\n      dup2\n        /* \"#utility.yul\":3916:3946   */\n      gt\n        /* \"#utility.yul\":3913:4030   */\n      iszero\n      tag_152\n      jumpi\n        /* \"#utility.yul\":3949:4028   */\n      tag_153\n      tag_68\n      jump\t// in\n    tag_153:\n        /* \"#utility.yul\":3913:4030   */\n    tag_152:\n        /* \"#utility.yul\":4054:4117   */\n      tag_154\n        /* \"#utility.yul\":4109:4116   */\n      dup7\n        /* \"#utility.yul\":4100:4106   */\n      dup3\n        /* \"#utility.yul\":4089:4098   */\n      dup8\n        /* \"#utility.yul\":4085:4107   */\n      add\n        /* \"#utility.yul\":4054:4117   */\n      tag_78\n      jump\t// in\n    tag_154:\n        /* \"#utility.yul\":4044:4117   */\n      swap4\n      pop\n        /* \"#utility.yul\":3840:4127   */\n      pop\n        /* \"#utility.yul\":4194:4196   */\n      0x20\n        /* \"#utility.yul\":4183:4192   */\n      dup5\n        /* \"#utility.yul\":4179:4197   */\n      add\n        /* \"#utility.yul\":4166:4198   */\n      calldataload\n        /* \"#utility.yul\":4225:4243   */\n      0xffffffffffffffff\n        /* \"#utility.yul\":4217:4223   */\n      dup2\n        /* \"#utility.yul\":4214:4244   */\n      gt\n        /* \"#utility.yul\":4211:4328   */\n      iszero\n      tag_155\n      jumpi\n        /* \"#utility.yul\":4247:4326   */\n      tag_156\n      tag_68\n      jump\t// in\n    tag_156:\n        /* \"#utility.yul\":4211:4328   */\n    tag_155:\n        /* \"#utility.yul\":4352:4415   */\n      tag_157\n        /* \"#utility.yul\":4407:4414   */\n      dup7\n        /* \"#utility.yul\":4398:4404   */\n      dup3\n        /* \"#utility.yul\":4387:4396   */\n      dup8\n        /* \"#utility.yul\":4383:4405   */\n      add\n        /* \"#utility.yul\":4352:4415   */\n      tag_78\n      jump\t// in\n    tag_157:\n        /* \"#utility.yul\":4342:4415   */\n      swap3\n      pop\n        /* \"#utility.yul\":4137:4425   */\n      pop\n        /* \"#utility.yul\":4492:4494   */\n      0x40\n        /* \"#utility.yul\":4481:4490   */\n      dup5\n        /* \"#utility.yul\":4477:4495   */\n      add\n        /* \"#utility.yul\":4464:4496   */\n      calldataload\n        /* \"#utility.yul\":4523:4541   */\n      0xffffffffffffffff\n        /* \"#utility.yul\":4515:4521   */\n      dup2\n        /* \"#utility.yul\":4512:4542   */\n      gt\n        /* \"#utility.yul\":4509:4626   */\n      iszero\n      tag_158\n      jumpi\n        /* \"#utility.yul\":4545:4624   */\n      tag_159\n      tag_68\n      jump\t// in\n    tag_159:\n        /* \"#utility.yul\":4509:4626   */\n    tag_158:\n        /* \"#utility.yul\":4650:4713   */\n      tag_160\n        /* \"#utility.yul\":4705:4712   */\n      dup7\n        /* \"#utility.yul\":4696:4702   */\n      dup3\n        /* \"#utility.yul\":4685:4694   */\n      dup8\n        /* \"#utility.yul\":4681:4703   */\n      add\n        /* \"#utility.yul\":4650:4713   */\n      tag_78\n      jump\t// in\n    tag_160:\n        /* \"#utility.yul\":4640:4713   */\n      swap2\n      pop\n        /* \"#utility.yul\":4435:4723   */\n      pop\n        /* \"#utility.yul\":3571:4730   */\n      swap3\n      pop\n      swap3\n      pop\n      swap3\n      jump\t// out\n        /* \"#utility.yul\":4736:5245   */\n    tag_17:\n        /* \"#utility.yul\":4805:4811   */\n      0x00\n        /* \"#utility.yul\":4854:4856   */\n      0x20\n        /* \"#utility.yul\":4842:4851   */\n      dup3\n        /* \"#utility.yul\":4833:4840   */\n      dup5\n        /* \"#utility.yul\":4829:4852   */\n      sub\n        /* \"#utility.yul\":4825:4857   */\n      slt\n        /* \"#utility.yul\":4822:4941   */\n      iszero\n      tag_162\n      jumpi\n        /* \"#utility.yul\":4860:4939   */\n      tag_163\n      tag_67\n      jump\t// in\n    tag_163:\n        /* \"#utility.yul\":4822:4941   */\n    tag_162:\n        /* \"#utility.yul\":5008:5009   */\n      0x00\n        /* \"#utility.yul\":4997:5006   */\n      dup3\n        /* \"#utility.yul\":4993:5010   */\n      add\n        /* \"#utility.yul\":4980:5011   */\n      calldataload\n        /* \"#utility.yul\":5038:5056   */\n      0xffffffffffffffff\n        /* \"#utility.yul\":5030:5036   */\n      dup2\n        /* \"#utility.yul\":5027:5057   */\n      gt\n        /* \"#utility.yul\":5024:5141   */\n      iszero\n      tag_164\n      jumpi\n        /* \"#utility.yul\":5060:5139   */\n      tag_165\n      tag_68\n      jump\t// in\n    tag_165:\n        /* \"#utility.yul\":5024:5141   */\n    tag_164:\n        /* \"#utility.yul\":5165:5228   */\n      tag_166\n        /* \"#utility.yul\":5220:5227   */\n      dup5\n        /* \"#utility.yul\":5211:5217   */\n      dup3\n        /* \"#utility.yul\":5200:5209   */\n      dup6\n        /* \"#utility.yul\":5196:5218   */\n      add\n        /* \"#utility.yul\":5165:5228   */\n      tag_78\n      jump\t// in\n    tag_166:\n        /* \"#utility.yul\":5155:5228   */\n      swap2\n      pop\n        /* \"#utility.yul\":4951:5238   */\n      pop\n        /* \"#utility.yul\":4736:5245   */\n      swap3\n      swap2\n      pop\n      pop\n      jump\t// out\n        /* \"#utility.yul\":5251:5350   */\n    tag_82:\n        /* \"#utility.yul\":5303:5309   */\n      0x00\n        /* \"#utility.yul\":5337:5342   */\n      dup2\n        /* \"#utility.yul\":5331:5343   */\n      mload\n        /* \"#utility.yul\":5321:5343   */\n      swap1\n      pop\n        /* \"#utility.yul\":5251:5350   */\n      swap2\n      swap1\n      pop\n      jump\t// out\n        /* \"#utility.yul\":5356:5525   */\n    tag_83:\n        /* \"#utility.yul\":5440:5451   */\n      0x00\n        /* \"#utility.yul\":5474:5480   */\n      dup3\n        /* \"#utility.yul\":5469:5472   */\n      dup3\n        /* \"#utility.yul\":5462:5481   */\n      mstore\n        /* \"#utility.yul\":5514:5518   */\n      0x20\n        /* \"#utility.yul\":5509:5512   */\n      dup3\n        /* \"#utility.yul\":5505:5519   */\n      add\n        /* \"#utility.yul\":5490:5519   */\n      swap1\n      pop\n        /* \"#utility.yul\":5356:5525   */\n      swap3\n      swap2\n      pop\n      pop\n      jump\t// out\n        /* \"#utility.yul\":5531:5670   */\n    tag_84:\n        /* \"#utility.yul\":5620:5626   */\n      dup3\n        /* \"#utility.yul\":5615:5618   */\n      dup2\n        /* \"#utility.yul\":5610:5613   */\n      dup4\n        /* \"#utility.yul\":5604:5627   */\n      mcopy\n        /* \"#utility.yul\":5661:5662   */\n      0x00\n        /* \"#utility.yul\":5652:5658   */\n      dup4\n        /* \"#utility.yul\":5647:5650   */\n      dup4\n        /* \"#utility.yul\":5643:5659   */\n      add\n        /* \"#utility.yul\":5636:5663   */\n      mstore\n        /* \"#utility.yul\":5531:5670   */\n      pop\n      pop\n      pop\n      jump\t// out\n        /* \"#utility.yul\":5676:6053   */\n    tag_85:\n        /* \"#utility.yul\":5764:5767   */\n      0x00\n        /* \"#utility.yul\":5792:5831   */\n      tag_171\n        /* \"#utility.yul\":5825:5830   */\n      dup3\n        /* \"#utility.yul\":5792:5831   */\n      tag_82\n      jump\t// in\n    tag_171:\n        /* \"#utility.yul\":5847:5918   */\n      tag_172\n        /* \"#utility.yul\":5911:5917   */\n      dup2\n        /* \"#utility.yul\":5906:5909   */\n      dup6\n        /* \"#utility.yul\":5847:5918   */\n      tag_83\n      jump\t// in\n    tag_172:\n        /* \"#utility.yul\":5840:5918   */\n      swap4\n      pop\n        /* \"#utility.yul\":5927:5992   */\n      tag_173\n        /* \"#utility.yul\":5985:5991   */\n      dup2\n        /* \"#utility.yul\":5980:5983   */\n      dup6\n        /* \"#utility.yul\":5973:5977   */\n      0x20\n        /* \"#utility.yul\":5966:5971   */\n      dup7\n        /* \"#utility.yul\":5962:5978   */\n      add\n        /* \"#utility.yul\":5927:5992   */\n      tag_84\n      jump\t// in\n    tag_173:\n        /* \"#utility.yul\":6017:6046   */\n      tag_174\n        /* \"#utility.yul\":6039:6045   */\n      dup2\n        /* \"#utility.yul\":6017:6046   */\n      tag_71\n      jump\t// in\n    tag_174:\n        /* \"#utility.yul\":6012:6015   */\n      dup5\n        /* \"#utility.yul\":6008:6047   */\n      add\n        /* \"#utility.yul\":6001:6047   */\n      swap2\n      pop\n        /* \"#utility.yul\":5768:6053   */\n      pop\n        /* \"#utility.yul\":5676:6053   */\n      swap3\n      swap2\n      pop\n      pop\n      jump\t// out\n        /* \"#utility.yul\":6059:6177   */\n    tag_86:\n        /* \"#utility.yul\":6146:6170   */\n      tag_176\n        /* \"#utility.yul\":6164:6169   */\n      dup2\n        /* \"#utility.yul\":6146:6170   */\n      tag_79\n      jump\t// in\n    tag_176:\n        /* \"#utility.yul\":6141:6144   */\n      dup3\n        /* \"#utility.yul\":6134:6171   */\n      mstore\n        /* \"#utility.yul\":6059:6177   */\n      pop\n      pop\n      jump\t// out\n        /* \"#utility.yul\":6183:7120   */\n    tag_20:\n        /* \"#utility.yul\":6448:6452   */\n      0x00\n        /* \"#utility.yul\":6486:6489   */\n      0xa0\n        /* \"#utility.yul\":6475:6484   */\n      dup3\n        /* \"#utility.yul\":6471:6490   */\n      add\n        /* \"#utility.yul\":6463:6490   */\n      swap1\n      pop\n        /* \"#utility.yul\":6536:6545   */\n      dup2\n        /* \"#utility.yul\":6530:6534   */\n      dup2\n        /* \"#utility.yul\":6526:6546   */\n      sub\n        /* \"#utility.yul\":6522:6523   */\n      0x00\n        /* \"#utility.yul\":6511:6520   */\n      dup4\n        /* \"#utility.yul\":6507:6524   */\n      add\n        /* \"#utility.yul\":6500:6547   */\n      mstore\n        /* \"#utility.yul\":6564:6642   */\n      tag_178\n        /* \"#utility.yul\":6637:6641   */\n      dup2\n        /* \"#utility.yul\":6628:6634   */\n      dup9\n        /* \"#utility.yul\":6564:6642   */\n      tag_85\n      jump\t// in\n    tag_178:\n        /* \"#utility.yul\":6556:6642   */\n      swap1\n      pop\n        /* \"#utility.yul\":6689:6698   */\n      dup2\n        /* \"#utility.yul\":6683:6687   */\n      dup2\n        /* \"#utility.yul\":6679:6699   */\n      sub\n        /* \"#utility.yul\":6674:6676   */\n      0x20\n        /* \"#utility.yul\":6663:6672   */\n      dup4\n        /* \"#utility.yul\":6659:6677   */\n      add\n        /* \"#utility.yul\":6652:6700   */\n      mstore\n        /* \"#utility.yul\":6717:6795   */\n      tag_179\n        /* \"#utility.yul\":6790:6794   */\n      dup2\n        /* \"#utility.yul\":6781:6787   */\n      dup8\n        /* \"#utility.yul\":6717:6795   */\n      tag_85\n      jump\t// in\n    tag_179:\n        /* \"#utility.yul\":6709:6795   */\n      swap1\n      pop\n        /* \"#utility.yul\":6842:6851   */\n      dup2\n        /* \"#utility.yul\":6836:6840   */\n      dup2\n        /* \"#utility.yul\":6832:6852   */\n      sub\n        /* \"#utility.yul\":6827:6829   */\n      0x40\n        /* \"#utility.yul\":6816:6825   */\n      dup4\n        /* \"#utility.yul\":6812:6830   */\n      add\n        /* \"#utility.yul\":6805:6853   */\n      mstore\n        /* \"#utility.yul\":6870:6948   */\n      tag_180\n        /* \"#utility.yul\":6943:6947   */\n      dup2\n        /* \"#utility.yul\":6934:6940   */\n      dup7\n        /* \"#utility.yul\":6870:6948   */\n      tag_85\n      jump\t// in\n    tag_180:\n        /* \"#utility.yul\":6862:6948   */\n      swap1\n      pop\n        /* \"#utility.yul\":6958:7030   */\n      tag_181\n        /* \"#utility.yul\":7026:7028   */\n      0x60\n        /* \"#utility.yul\":7015:7024   */\n      dup4\n        /* \"#utility.yul\":7011:7029   */\n      add\n        /* \"#utility.yul\":7002:7008   */\n      dup6\n        /* \"#utility.yul\":6958:7030   */\n      tag_86\n      jump\t// in\n    tag_181:\n        /* \"#utility.yul\":7040:7113   */\n      tag_182\n        /* \"#utility.yul\":7108:7111   */\n      0x80\n        /* \"#utility.yul\":7097:7106   */\n      dup4\n        /* \"#utility.yul\":7093:7112   */\n      add\n        /* \"#utility.yul\":7084:7090   */\n      dup5\n        /* \"#utility.yul\":7040:7113   */\n      tag_86\n      jump\t// in\n    tag_182:\n        /* \"#utility.yul\":6183:7120   */\n      swap7\n      swap6\n      pop\n      pop\n      pop\n      pop\n      pop\n      pop\n      jump\t// out\n        /* \"#utility.yul\":7126:7549   */\n    tag_25:\n        /* \"#utility.yul\":7267:7271   */\n      0x00\n        /* \"#utility.yul\":7305:7307   */\n      0x40\n        /* \"#utility.yul\":7294:7303   */\n      dup3\n        /* \"#utility.yul\":7290:7308   */\n      add\n        /* \"#utility.yul\":7282:7308   */\n      swap1\n      pop\n        /* \"#utility.yul\":7354:7363   */\n      dup2\n        /* \"#utility.yul\":7348:7352   */\n      dup2\n        /* \"#utility.yul\":7344:7364   */\n      sub\n        /* \"#utility.yul\":7340:7341   */\n      0x00\n        /* \"#utility.yul\":7329:7338   */\n      dup4\n        /* \"#utility.yul\":7325:7342   */\n      add\n        /* \"#utility.yul\":7318:7365   */\n      mstore\n        /* \"#utility.yul\":7382:7460   */\n      tag_184\n        /* \"#utility.yul\":7455:7459   */\n      dup2\n        /* \"#utility.yul\":7446:7452   */\n      dup6\n        /* \"#utility.yul\":7382:7460   */\n      tag_85\n      jump\t// in\n    tag_184:\n        /* \"#utility.yul\":7374:7460   */\n      swap1\n      pop\n        /* \"#utility.yul\":7470:7542   */\n      tag_185\n        /* \"#utility.yul\":7538:7540   */\n      0x20\n        /* \"#utility.yul\":7527:7536   */\n      dup4\n        /* \"#utility.yul\":7523:7541   */\n      add\n        /* \"#utility.yul\":7514:7520   */\n      dup5\n        /* \"#utility.yul\":7470:7542   */\n      tag_86\n      jump\t// in\n    tag_185:\n        /* \"#utility.yul\":7126:7549   */\n      swap4\n      swap3\n      pop\n      pop\n      pop\n      jump\t// out\n        /* \"#utility.yul\":7555:7703   */\n    tag_87:\n        /* \"#utility.yul\":7657:7668   */\n      0x00\n        /* \"#utility.yul\":7694:7697   */\n      dup2\n        /* \"#utility.yul\":7679:7697   */\n      swap1\n      pop\n        /* \"#utility.yul\":7555:7703   */\n      swap3\n      swap2\n      pop\n      pop\n      jump\t// out\n        /* \"#utility.yul\":7709:8099   */\n    tag_88:\n        /* \"#utility.yul\":7815:7818   */\n      0x00\n        /* \"#utility.yul\":7843:7882   */\n      tag_188\n        /* \"#utility.yul\":7876:7881   */\n      dup3\n        /* \"#utility.yul\":7843:7882   */\n      tag_82\n      jump\t// in\n    tag_188:\n        /* \"#utility.yul\":7898:7987   */\n      tag_189\n        /* \"#utility.yul\":7980:7986   */\n      dup2\n        /* \"#utility.yul\":7975:7978   */\n      dup6\n        /* \"#utility.yul\":7898:7987   */\n      tag_87\n      jump\t// in\n    tag_189:\n        /* \"#utility.yul\":7891:7987   */\n      swap4\n      pop\n        /* \"#utility.yul\":7996:8061   */\n      tag_190\n        /* \"#utility.yul\":8054:8060   */\n      dup2\n        /* \"#utility.yul\":8049:8052   */\n      dup6\n        /* \"#utility.yul\":8042:8046   */\n      0x20\n        /* \"#utility.yul\":8035:8040   */\n      dup7\n        /* \"#utility.yul\":8031:8047   */\n      add\n        /* \"#utility.yul\":7996:8061   */\n      tag_84\n      jump\t// in\n    tag_190:\n        /* \"#utility.yul\":8086:8092   */\n      dup1\n        /* \"#utility.yul\":8081:8084   */\n      dup5\n        /* \"#utility.yul\":8077:8093   */\n      add\n        /* \"#utility.yul\":8070:8093   */\n      swap2\n      pop\n        /* \"#utility.yul\":7819:8099   */\n      pop\n        /* \"#utility.yul\":7709:8099   */\n      swap3\n      swap2\n      pop\n      pop\n      jump\t// out\n        /* \"#utility.yul\":8105:8380   */\n    tag_28:\n        /* \"#utility.yul\":8237:8240   */\n      0x00\n        /* \"#utility.yul\":8259:8354   */\n      tag_192\n        /* \"#utility.yul\":8350:8353   */\n      dup3\n        /* \"#utility.yul\":8341:8347   */\n      dup5\n        /* \"#utility.yul\":8259:8354   */\n      tag_88\n      jump\t// in\n    tag_192:\n        /* \"#utility.yul\":8252:8354   */\n      swap2\n      pop\n        /* \"#utility.yul\":8371:8374   */\n      dup2\n        /* \"#utility.yul\":8364:8374   */\n      swap1\n      pop\n        /* \"#utility.yul\":8105:8380   */\n      swap3\n      swap2\n      pop\n      pop\n      jump\t// out\n        /* \"#utility.yul\":8386:8566   */\n    tag_89:\n        /* \"#utility.yul\":8434:8511   */\n      0x4e487b7100000000000000000000000000000000000000000000000000000000\n        /* \"#utility.yul\":8431:8432   */\n      0x00\n        /* \"#utility.yul\":8424:8512   */\n      mstore\n        /* \"#utility.yul\":8531:8535   */\n      0x22\n        /* \"#utility.yul\":8528:8529   */\n      0x04\n        /* \"#utility.yul\":8521:8536   */\n      mstore\n        /* \"#utility.yul\":8555:8559   */\n      0x24\n        /* \"#utility.yul\":8552:8553   */\n      0x00\n        /* \"#utility.yul\":8545:8560   */\n      revert\n        /* \"#utility.yul\":8572:8892   */\n    tag_46:\n        /* \"#utility.yul\":8616:8622   */\n      0x00\n        /* \"#utility.yul\":8653:8654   */\n      0x02\n        /* \"#utility.yul\":8647:8651   */\n      dup3\n        /* \"#utility.yul\":8643:8655   */\n      div\n        /* \"#utility.yul\":8633:8655   */\n      swap1\n      pop\n        /* \"#utility.yul\":8700:8701   */\n      0x01\n        /* \"#utility.yul\":8694:8698   */\n      dup3\n        /* \"#utility.yul\":8690:8702   */\n      and\n        /* \"#utility.yul\":8721:8739   */\n      dup1\n        /* \"#utility.yul\":8711:8792   */\n      tag_195\n      jumpi\n        /* \"#utility.yul\":8777:8781   */\n      0x7f\n        /* \"#utility.yul\":8769:8775   */\n      dup3\n        /* \"#utility.yul\":8765:8782   */\n      and\n        /* \"#utility.yul\":8755:8782   */\n      swap2\n      pop\n        /* \"#utility.yul\":8711:8792   */\n    tag_195:\n        /* \"#utility.yul\":8839:8841   */\n      0x20\n        /* \"#utility.yul\":8831:8837   */\n      dup3\n        /* \"#utility.yul\":8828:8842   */\n      lt\n        /* \"#utility.yul\":8808:8826   */\n      dup2\n        /* \"#utility.yul\":8805:8843   */\n      sub\n        /* \"#utility.yul\":8802:8886   */\n      tag_196\n      jumpi\n        /* \"#utility.yul\":8858:8876   */\n      tag_197\n      tag_89\n      jump\t// in\n    tag_197:\n        /* \"#utility.yul\":8802:8886   */\n    tag_196:\n        /* \"#utility.yul\":8623:8892   */\n      pop\n        /* \"#utility.yul\":8572:8892   */\n      swap2\n      swap1\n      pop\n      jump\t// out\n        /* \"#utility.yul\":8898:9039   */\n    tag_90:\n        /* \"#utility.yul\":8947:8951   */\n      0x00\n        /* \"#utility.yul\":8970:8973   */\n      dup2\n        /* \"#utility.yul\":8962:8973   */\n      swap1\n      pop\n        /* \"#utility.yul\":8993:8996   */\n      dup2\n        /* \"#utility.yul\":8990:8991   */\n      0x00\n        /* \"#utility.yul\":8983:8997   */\n      mstore\n        /* \"#utility.yul\":9027:9031   */\n      0x20\n        /* \"#utility.yul\":9024:9025   */\n      0x00\n        /* \"#utility.yul\":9014:9032   */\n      keccak256\n        /* \"#utility.yul\":9006:9032   */\n      swap1\n      pop\n        /* \"#utility.yul\":8898:9039   */\n      swap2\n      swap1\n      pop\n      jump\t// out\n        /* \"#utility.yul\":9045:9138   */\n    tag_91:\n        /* \"#utility.yul\":9082:9088   */\n      0x00\n        /* \"#utility.yul\":9129:9131   */\n      0x20\n        /* \"#utility.yul\":9124:9126   */\n      0x1f\n        /* \"#utility.yul\":9117:9122   */\n      dup4\n        /* \"#utility.yul\":9113:9127   */\n      add\n        /* \"#utility.yul\":9109:9132   */\n      div\n        /* \"#utility.yul\":9099:9132   */\n      swap1\n      pop\n        /* \"#utility.yul\":9045:9138   */\n      swap2\n      swap1\n      pop\n      jump\t// out\n        /* \"#utility.yul\":9144:9251   */\n    tag_92:\n        /* \"#utility.yul\":9188:9196   */\n      0x00\n        /* \"#utility.yul\":9238:9243   */\n      dup3\n        /* \"#utility.yul\":9232:9236   */\n      dup3\n        /* \"#utility.yul\":9228:9244   */\n      shl\n        /* \"#utility.yul\":9207:9244   */\n      swap1\n      pop\n        /* \"#utility.yul\":9144:9251   */\n      swap3\n      swap2\n      pop\n      pop\n      jump\t// out\n        /* \"#utility.yul\":9257:9650   */\n    tag_93:\n        /* \"#utility.yul\":9326:9332   */\n      0x00\n        /* \"#utility.yul\":9376:9377   */\n      0x08\n        /* \"#utility.yul\":9364:9374   */\n      dup4\n        /* \"#utility.yul\":9360:9378   */\n      mul\n        /* \"#utility.yul\":9399:9496   */\n      tag_202\n        /* \"#utility.yul\":9429:9495   */\n      0xffffffffffffffffffffffffffffffffffffffffffffffffffffffffffffffff\n        /* \"#utility.yul\":9418:9427   */\n      dup3\n        /* \"#utility.yul\":9399:9496   */\n      tag_92\n      jump\t// in\n    tag_202:\n        /* \"#utility.yul\":9517:9556   */\n      tag_203\n        /* \"#utility.yul\":9547:9555   */\n      dup7\n        /* \"#utility.yul\":9536:9545   */\n      dup4\n        /* \"#utility.yul\":9517:9556   */\n      tag_92\n      jump\t// in\n    tag_203:\n        /* \"#utility.yul\":9505:9556   */\n      swap6\n      pop\n        /* \"#utility.yul\":9589:9593   */\n      dup1\n        /* \"#utility.yul\":9585:9594   */\n      not\n        /* \"#utility.yul\":9578:9583   */\n      dup5\n        /* \"#utility.yul\":9574:9595   */\n      and\n        /* \"#utility.yul\":9565:9595   */\n      swap4\n      pop\n        /* \"#utility.yul\":9638:9642   */\n      dup1\n        /* \"#utility.yul\":9628:9636   */\n      dup7\n        /* \"#utility.yul\":9624:9643   */\n      and\n        /* \"#utility.yul\":9617:9622   */\n      dup5\n        /* \"#utility.yul\":9614:9644   */\n      or\n        /* \"#utility.yul\":9604:9644   */\n      swap3\n      pop\n        /* \"#utility.yul\":9333:9650   */\n      pop\n      pop\n        /* \"#utility.yul\":9257:9650   */\n      swap4\n      swap3\n      pop\n      pop\n      pop\n      jump\t// out\n        /* \"#utility.yul\":9656:9716   */\n    tag_94:\n        /* \"#utility.yul\":9684:9687   */\n      0x00\n        /* \"#utility.yul\":9705:9710   */\n      dup2\n        /* \"#utility.yul\":9698:9710   */\n      swap1\n      pop\n        /* \"#utility.yul\":9656:9716   */\n      swap2\n      swap1\n      pop\n      jump\t// out\n        /* \"#utility.yul\":9722:9864   */\n    tag_95:\n        /* \"#utility.yul\":9772:9781   */\n      0x00\n        /* \"#utility.yul\":9805:9858   */\n      tag_206\n        /* \"#utility.yul\":9823:9857   */\n      tag_207\n        /* \"#utility.yul\":9832:9856   */\n      tag_208\n        /* \"#utility.yul\":9850:9855   */\n      dup5\n        /* \"#utility.yul\":9832:9856   */\n      tag_79\n      jump\t// in\n    tag_208:\n        /* \"#utility.yul\":9823:9857   */\n      tag_94\n      jump\t// in\n    tag_207:\n        /* \"#utility.yul\":9805:9858   */\n      tag_79\n      jump\t// in\n    tag_206:\n        /* \"#utility.yul\":9792:9858   */\n      swap1\n      pop\n        /* \"#utility.yul\":9722:9864   */\n      swap2\n      swap1\n      pop\n      jump\t// out\n        /* \"#utility.yul\":9870:9945   */\n    tag_96:\n        /* \"#utility.yul\":9913:9916   */\n      0x00\n        /* \"#utility.yul\":9934:9939   */\n      dup2\n        /* \"#utility.yul\":9927:9939   */\n      swap1\n      pop\n        /* \"#utility.yul\":9870:9945   */\n      swap2\n      swap1\n      pop\n      jump\t// out\n        /* \"#utility.yul\":9951:10220   */\n    tag_97:\n        /* \"#utility.yul\":10061:10100   */\n      tag_211\n        /* \"#utility.yul\":10092:10099   */\n      dup4\n        /* \"#utility.yul\":10061:10100   */\n      tag_95\n      jump\t// in\n    tag_211:\n        /* \"#utility.yul\":10122:10213   */\n      tag_212\n        /* \"#utility.yul\":10171:10212   */\n      tag_213\n        /* \"#utility.yul\":10195:10211   */\n      dup3\n        /* \"#utility.yul\":10171:10212   */\n      tag_96\n      jump\t// in\n    tag_213:\n        /* \"#utility.yul\":10163:10169   */\n      dup5\n        /* \"#utility.yul\":10156:10160   */\n      dup5\n        /* \"#utility.yul\":10150:10161   */\n      sload\n        /* \"#utility.yul\":10122:10213   */\n      tag_93\n      jump\t// in\n    tag_212:\n        /* \"#utility.yul\":10116:10120   */\n      dup3\n        /* \"#utility.yul\":10109:10214   */\n      sstore\n        /* \"#utility.yul\":10027:10220   */\n      pop\n        /* \"#utility.yul\":9951:10220   */\n      pop\n      pop\n      pop\n      jump\t// out\n        /* \"#utility.yul\":10226:10299   */\n    tag_98:\n        /* \"#utility.yul\":10271:10274   */\n      0x00\n        /* \"#utility.yul\":10292:10293   */\n      0x00\n        /* \"#utility.yul\":10285:10293   */\n      swap1\n      pop\n        /* \"#utility.yul\":10226:10299   */\n      swap1\n      jump\t// out\n        /* \"#utility.yul\":10305:10494   */\n    tag_99:\n        /* \"#utility.yul\":10382:10414   */\n      tag_216\n      tag_98\n      jump\t// in\n    tag_216:\n        /* \"#utility.yul\":10423:10488   */\n      tag_217\n        /* \"#utility.yul\":10481:10487   */\n      dup2\n        /* \"#utility.yul\":10473:10479   */\n      dup5\n        /* \"#utility.yul\":10467:10471   */\n      dup5\n        /* \"#utility.yul\":10423:10488   */\n      tag_97\n      jump\t// in\n    tag_217:\n        /* \"#utility.yul\":10358:10494   */\n      pop\n        /* \"#utility.yul\":10305:10494   */\n      pop\n      pop\n      jump\t// out\n        /* \"#utility.yul\":10500:10686   */\n    tag_100:\n        /* \"#utility.yul\":10560:10680   */\n    tag_219:\n        /* \"#utility.yul\":10577:10580   */\n      dup2\n        /* \"#utility.yul\":10570:10575   */\n      dup2\n        /* \"#utility.yul\":10567:10581   */\n      lt\n        /* \"#utility.yul\":10560:10680   */\n      iszero\n      tag_221\n      jumpi\n        /* \"#utility.yul\":10631:10670   */\n      tag_222\n        /* \"#utility.yul\":10668:10669   */\n      0x00\n        /* \"#utility.yul\":10661:10666   */\n      dup3\n        /* \"#utility.yul\":10631:10670   */\n      tag_99\n      jump\t// in\n    tag_222:\n        /* \"#utility.yul\":10604:10605   */\n      0x01\n        /* \"#utility.yul\":10597:10602   */\n      dup2\n        /* \"#utility.yul\":10593:10606   */\n      add\n        /* \"#utility.yul\":10584:10606   */\n      swap1\n      pop\n        /* \"#utility.yul\":10560:10680   */\n      jump(tag_219)\n    tag_221:\n        /* \"#utility.yul\":10500:10686   */\n      pop\n      pop\n      jump\t// out\n        /* \"#utility.yul\":10692:11235   */\n    tag_101:\n        /* \"#utility.yul\":10793:10795   */\n      0x1f\n        /* \"#utility.yul\":10788:10791   */\n      dup3\n        /* \"#utility.yul\":10785:10796   */\n      gt\n        /* \"#utility.yul\":10782:11228   */\n      iszero\n      tag_224\n      jumpi\n        /* \"#utility.yul\":10827:10865   */\n      tag_225\n        /* \"#utility.yul\":10859:10864   */\n      dup2\n        /* \"#utility.yul\":10827:10865   */\n      tag_90\n      jump\t// in\n    tag_225:\n        /* \"#utility.yul\":10911:10940   */\n      tag_226\n        /* \"#utility.yul\":10929:10939   */\n      dup5\n        /* \"#utility.yul\":10911:10940   */\n      tag_91\n      jump\t// in\n    tag_226:\n        /* \"#utility.yul\":10901:10909   */\n      dup2\n        /* \"#utility.yul\":10897:10941   */\n      add\n        /* \"#utility.yul\":11094:11096   */\n      0x20\n        /* \"#utility.yul\":11082:11092   */\n      dup6\n        /* \"#utility.yul\":11079:11097   */\n      lt\n        /* \"#utility.yul\":11076:11125   */\n      iszero\n      tag_227\n      jumpi\n        /* \"#utility.yul\":11115:11123   */\n      dup2\n        /* \"#utility.yul\":11100:11123   */\n      swap1\n      pop\n        /* \"#utility.yul\":11076:11125   */\n    tag_227:\n        /* \"#utility.yul\":11138:11218   */\n      tag_228\n        /* \"#utility.yul\":11194:11216   */\n      tag_229\n        /* \"#utility.yul\":11212:11215   */\n      dup6\n        /* \"#utility.yul\":11194:11216   */\n      tag_91\n      jump\t// in\n    tag_229:\n        /* \"#utility.yul\":11184:11192   */\n      dup4\n        /* \"#utility.yul\":11180:11217   */\n      add\n        /* \"#utility.yul\":11167:11178   */\n      dup3\n        /* \"#utility.yul\":11138:11218   */\n      tag_100\n      jump\t// in\n    tag_228:\n        /* \"#utility.yul\":10797:11228   */\n      pop\n      pop\n        /* \"#utility.yul\":10782:11228   */\n    tag_224:\n        /* \"#utility.yul\":10692:11235   */\n      pop\n      pop\n      pop\n      jump\t// out\n        /* \"#utility.yul\":11241:11358   */\n    tag_102:\n        /* \"#utility.yul\":11295:11303   */\n      0x00\n        /* \"#utility.yul\":11345:11350   */\n      dup3\n        /* \"#utility.yul\":11339:11343   */\n      dup3\n        /* \"#utility.yul\":11335:11351   */\n      shr\n        /* \"#utility.yul\":11314:11351   */\n      swap1\n      pop\n        /* \"#utility.yul\":11241:11358   */\n      swap3\n      swap2\n      pop\n      pop\n      jump\t// out\n        /* \"#utility.yul\":11364:11533   */\n    tag_103:\n        /* \"#utility.yul\":11408:11414   */\n      0x00\n        /* \"#utility.yul\":11441:11492   */\n      tag_232\n        /* \"#utility.yul\":11489:11490   */\n      0x00\n        /* \"#utility.yul\":11485:11491   */\n      not\n        /* \"#utility.yul\":11477:11482   */\n      dup5\n        /* \"#utility.yul\":11474:11475   */\n      0x08\n        /* \"#utility.yul\":11470:11483   */\n      mul\n        /* \"#utility.yul\":11441:11492   */\n      tag_102\n      jump\t// in\n    tag_232:\n        /* \"#utility.yul\":11437:11493   */\n      not\n        /* \"#utility.yul\":11522:11526   */\n      dup1\n        /* \"#utility.yul\":11516:11520   */\n      dup4\n        /* \"#utility.yul\":11512:11527   */\n      and\n        /* \"#utility.yul\":11502:11527   */\n      swap2\n      pop\n        /* \"#utility.yul\":11415:11533   */\n      pop\n        /* \"#utility.yul\":11364:11533   */\n      swap3\n      swap2\n      pop\n      pop\n      jump\t// out\n        /* \"#utility.yul\":11538:11833   */\n    tag_104:\n        /* \"#utility.yul\":11614:11618   */\n      0x00\n        /* \"#utility.yul\":11760:11789   */\n      tag_234\n        /* \"#utility.yul\":11785:11788   */\n      dup4\n        /* \"#utility.yul\":11779:11783   */\n      dup4\n        /* \"#utility.yul\":11760:11789   */\n      tag_103\n      jump\t// in\n    tag_234:\n        /* \"#utility.yul\":11752:11789   */\n      swap2\n      pop\n        /* \"#utility.yul\":11822:11825   */\n      dup3\n        /* \"#utility.yul\":11819:11820   */\n      0x02\n        /* \"#utility.yul\":11815:11826   */\n      mul\n        /* \"#utility.yul\":11809:11813   */\n      dup3\n        /* \"#utility.yul\":11806:11827   */\n      or\n        /* \"#utility.yul\":11798:11827   */\n      swap1\n      pop\n        /* \"#utility.yul\":11538:11833   */\n      swap3\n      swap2\n      pop\n      pop\n      jump\t// out\n        /* \"#utility.yul\":11838:13233   */\n    tag_30:\n        /* \"#utility.yul\":11955:11992   */\n      tag_236\n        /* \"#utility.yul\":11988:11991   */\n      dup3\n        /* \"#utility.yul\":11955:11992   */\n      tag_82\n      jump\t// in\n    tag_236:\n        /* \"#utility.yul\":12057:12075   */\n      0xffffffffffffffff\n        /* \"#utility.yul\":12049:12055   */\n      dup2\n        /* \"#utility.yul\":12046:12076   */\n      gt\n        /* \"#utility.yul\":12043:12099   */\n      iszero\n      tag_237\n      jumpi\n        /* \"#utility.yul\":12079:12097   */\n      tag_238\n      tag_72\n      jump\t// in\n    tag_238:\n        /* \"#utility.yul\":12043:12099   */\n    tag_237:\n        /* \"#utility.yul\":12123:12161   */\n      tag_239\n        /* \"#utility.yul\":12155:12159   */\n      dup3\n        /* \"#utility.yul\":12149:12160   */\n      sload\n        /* \"#utility.yul\":12123:12161   */\n      tag_46\n      jump\t// in\n    tag_239:\n        /* \"#utility.yul\":12208:12275   */\n      tag_240\n        /* \"#utility.yul\":12268:12274   */\n      dup3\n        /* \"#utility.yul\":12260:12266   */\n      dup3\n        /* \"#utility.yul\":12254:12258   */\n      dup6\n        /* \"#utility.yul\":12208:12275   */\n      tag_101\n      jump\t// in\n    tag_240:\n        /* \"#utility.yul\":12302:12303   */\n      0x00\n        /* \"#utility.yul\":12326:12330   */\n      0x20\n        /* \"#utility.yul\":12313:12330   */\n      swap1\n      pop\n        /* \"#utility.yul\":12358:12360   */\n      0x1f\n        /* \"#utility.yul\":12350:12356   */\n      dup4\n        /* \"#utility.yul\":12347:12361   */\n      gt\n        /* \"#utility.yul\":12375:12376   */\n      0x01\n        /* \"#utility.yul\":12370:12988   */\n      dup2\n      eq\n      tag_242\n      jumpi\n        /* \"#utility.yul\":13032:13033   */\n      0x00\n        /* \"#utility.yul\":13049:13055   */\n      dup5\n        /* \"#utility.yul\":13046:13123   */\n      iszero\n      tag_243\n      jumpi\n        /* \"#utility.yul\":13098:13107   */\n      dup3\n        /* \"#utility.yul\":13093:13096   */\n      dup8\n        /* \"#utility.yul\":13089:13108   */\n      add\n        /* \"#utility.yul\":13083:13109   */\n      mload\n        /* \"#utility.yul\":13074:13109   */\n      swap1\n      pop\n        /* \"#utility.yul\":13046:13123   */\n    tag_243:\n        /* \"#utility.yul\":13149:13216   */\n      tag_244\n        /* \"#utility.yul\":13209:13215   */\n      dup6\n        /* \"#utility.yul\":13202:13207   */\n      dup3\n        /* \"#utility.yul\":13149:13216   */\n      tag_104\n      jump\t// in\n    tag_244:\n        /* \"#utility.yul\":13143:13147   */\n      dup7\n        /* \"#utility.yul\":13136:13217   */\n      sstore\n        /* \"#utility.yul\":13005:13227   */\n      pop\n        /* \"#utility.yul\":12340:13227   */\n      jump(tag_241)\n        /* \"#utility.yul\":12370:12988   */\n    tag_242:\n        /* \"#utility.yul\":12422:12426   */\n      0x1f\n        /* \"#utility.yul\":12418:12427   */\n      not\n        /* \"#utility.yul\":12410:12416   */\n      dup5\n        /* \"#utility.yul\":12406:12428   */\n      and\n        /* \"#utility.yul\":12456:12493   */\n      tag_245\n        /* \"#utility.yul\":12488:12492   */\n      dup7\n        /* \"#utility.yul\":12456:12493   */\n      tag_90\n      jump\t// in\n    tag_245:\n        /* \"#utility.yul\":12515:12516   */\n      0x00\n        /* \"#utility.yul\":12529:12737   */\n    tag_246:\n        /* \"#utility.yul\":12543:12550   */\n      dup3\n        /* \"#utility.yul\":12540:12541   */\n      dup2\n        /* \"#utility.yul\":12537:12551   */\n      lt\n        /* \"#utility.yul\":12529:12737   */\n      iszero\n      tag_248\n      jumpi\n        /* \"#utility.yul\":12622:12631   */\n      dup5\n        /* \"#utility.yul\":12617:12620   */\n      dup10\n        /* \"#utility.yul\":12613:12632   */\n      add\n        /* \"#utility.yul\":12607:12633   */\n      mload\n        /* \"#utility.yul\":12599:12605   */\n      dup3\n        /* \"#utility.yul\":12592:12634   */\n      sstore\n        /* \"#utility.yul\":12673:12674   */\n      0x01\n        /* \"#utility.yul\":12665:12671   */\n      dup3\n        /* \"#utility.yul\":12661:12675   */\n      add\n        /* \"#utility.yul\":12651:12675   */\n      swap2\n      pop\n        /* \"#utility.yul\":12720:12722   */\n      0x20\n        /* \"#utility.yul\":12709:12718   */\n      dup6\n        /* \"#utility.yul\":12705:12723   */\n      add\n        /* \"#utility.yul\":12692:12723   */\n      swap5\n      pop\n        /* \"#utility.yul\":12566:12570   */\n      0x20\n        /* \"#utility.yul\":12563:12564   */\n      dup2\n        /* \"#utility.yul\":12559:12571   */\n      add\n        /* \"#utility.yul\":12554:12571   */\n      swap1\n      pop\n        /* \"#utility.yul\":12529:12737   */\n      jump(tag_246)\n    tag_248:\n        /* \"#utility.yul\":12765:12771   */\n      dup7\n        /* \"#utility.yul\":12756:12763   */\n      dup4\n        /* \"#utility.yul\":12753:12772   */\n      lt\n        /* \"#utility.yul\":12750:12929   */\n      iszero\n      tag_249\n      jumpi\n        /* \"#utility.yul\":12823:12832   */\n      dup5\n        /* \"#utility.yul\":12818:12821   */\n      dup10\n        /* \"#utility.yul\":12814:12833   */\n      add\n        /* \"#utility.yul\":12808:12834   */\n      mload\n        /* \"#utility.yul\":12866:12914   */\n      tag_250\n        /* \"#utility.yul\":12908:12912   */\n      0x1f\n        /* \"#utility.yul\":12900:12906   */\n      dup10\n        /* \"#utility.yul\":12896:12913   */\n      and\n        /* \"#utility.yul\":12885:12894   */\n      dup3\n        /* \"#utility.yul\":12866:12914   */\n      tag_103\n      jump\t// in\n    tag_250:\n        /* \"#utility.yul\":12858:12864   */\n      dup4\n        /* \"#utility.yul\":12851:12915   */\n      sstore\n        /* \"#utility.yul\":12773:12929   */\n      pop\n        /* \"#utility.yul\":12750:12929   */\n    tag_249:\n        /* \"#utility.yul\":12975:12976   */\n      0x01\n        /* \"#utility.yul\":12971:12972   */\n      0x02\n        /* \"#utility.yul\":12963:12969   */\n      dup9\n        /* \"#utility.yul\":12959:12973   */\n      mul\n        /* \"#utility.yul\":12955:12977   */\n      add\n        /* \"#utility.yul\":12949:12953   */\n      dup9\n        /* \"#utility.yul\":12942:12978   */\n      sstore\n        /* \"#utility.yul\":12377:12988   */\n      pop\n      pop\n      pop\n        /* \"#utility.yul\":12340:13227   */\n    tag_241:\n      pop\n        /* \"#utility.yul\":11930:13233   */\n      pop\n      pop\n      pop\n        /* \"#utility.yul\":11838:13233   */\n      pop\n      pop\n      jump\t// out\n        /* \"#utility.yul\":13239:13419   */\n    tag_105:\n        /* \"#utility.yul\":13287:13364   */\n      0x4e487b7100000000000000000000000000000000000000000000000000000000\n        /* \"#utility.yul\":13284:13285   */\n      0x00\n        /* \"#utility.yul\":13277:13365   */\n      mstore\n        /* \"#utility.yul\":13384:13388   */\n      0x11\n        /* \"#utility.yul\":13381:13382   */\n      0x04\n        /* \"#utility.yul\":13374:13389   */\n      mstore\n        /* \"#utility.yul\":13408:13412   */\n      0x24\n        /* \"#utility.yul\":13405:13406   */\n      0x00\n        /* \"#utility.yul\":13398:13413   */\n      revert\n        /* \"#utility.yul\":13425:13658   */\n    tag_34:\n        /* \"#utility.yul\":13464:13467   */\n      0x00\n        /* \"#utility.yul\":13487:13511   */\n      tag_253\n        /* \"#utility.yul\":13505:13510   */\n      dup3\n        /* \"#utility.yul\":13487:13511   */\n      tag_79\n      jump\t// in\n    tag_253:\n        /* \"#utility.yul\":13478:13511   */\n      swap2\n      pop\n        /* \"#utility.yul\":13533:13599   */\n      0xffffffffffffffffffffffffffffffffffffffffffffffffffffffffffffffff\n        /* \"#utility.yul\":13526:13531   */\n      dup3\n        /* \"#utility.yul\":13523:13600   */\n      sub\n        /* \"#utility.yul\":13520:13623   */\n      tag_254\n      jumpi\n        /* \"#utility.yul\":13603:13621   */\n      tag_255\n      tag_105\n      jump\t// in\n    tag_255:\n        /* \"#utility.yul\":13520:13623   */\n    tag_254:\n        /* \"#utility.yul\":13650:13651   */\n      0x01\n        /* \"#utility.yul\":13643:13648   */\n      dup3\n        /* \"#utility.yul\":13639:13652   */\n      add\n        /* \"#utility.yul\":13632:13652   */\n      swap1\n      pop\n        /* \"#utility.yul\":13425:13658   */\n      swap2\n      swap1\n      pop\n      jump\t// out\n        /* \"#utility.yul\":13664:13855   */\n    tag_37:\n        /* \"#utility.yul\":13704:13707   */\n      0x00\n        /* \"#utility.yul\":13723:13743   */\n      tag_257\n        /* \"#utility.yul\":13741:13742   */\n      dup3\n        /* \"#utility.yul\":13723:13743   */\n      tag_79\n      jump\t// in\n    tag_257:\n        /* \"#utility.yul\":13718:13743   */\n      swap2\n      pop\n        /* \"#utility.yul\":13757:13777   */\n      tag_258\n        /* \"#utility.yul\":13775:13776   */\n      dup4\n        /* \"#utility.yul\":13757:13777   */\n      tag_79\n      jump\t// in\n    tag_258:\n        /* \"#utility.yul\":13752:13777   */\n      swap3\n      pop\n        /* \"#utility.yul\":13800:13801   */\n      dup3\n        /* \"#utility.yul\":13797:13798   */\n      dup3\n        /* \"#utility.yul\":13793:13802   */\n      add\n        /* \"#utility.yul\":13786:13802   */\n      swap1\n      pop\n        /* \"#utility.yul\":13821:13824   */\n      dup1\n        /* \"#utility.yul\":13818:13819   */\n      dup3\n        /* \"#utility.yul\":13815:13825   */\n      gt\n        /* \"#utility.yul\":13812:13848   */\n      iszero\n      tag_259\n      jumpi\n        /* \"#utility.yul\":13828:13846   */\n      tag_260\n      tag_105\n      jump\t// in\n    tag_260:\n        /* \"#utility.yul\":13812:13848   */\n    tag_259:\n        /* \"#utility.yul\":13664:13855   */\n      swap3\n      swap2\n      pop\n      pop\n      jump\t// out\n\n    auxdata: 0xa26469706673582212201ba29dc7d16af6204cac0e388458902ad9dc334cb3e989e39e379991f4db381064736f6c634300081e0033\n}\n",
				"bytecode": {
					"linkReferences": {},
					"object": "6080604052348015600e575f5ffd5b50610d128061001c5f395ff3fe608060405234801561000f575f5ffd5b506004361061004a575f3560e01c806379e238b71461004e578063a16364301461006a578063a1d3460b14610086578063a4a36876146100ba575b5f5ffd5b610068600480360381019061006391906106d1565b6100eb565b005b610084600480360381019061007f919061072b565b610147565b005b6100a0600480360381019061009b91906107cf565b6102b8565b6040516100b1959493929190610885565b60405180910390f35b6100d460048036038101906100cf91906107cf565b610494565b6040516100e29291906108eb565b60405180910390f35b5f6040518060400160405280848152602001838152509050805f846040516101139190610953565b90815260200160405180910390205f820151815f0190816101349190610b66565b5060208201518160010155905050505050565b6001836040516101579190610953565b90815260200160405180910390206003015f81548092919061017890610c62565b9190505550600a60018460405161018f9190610953565b9081526020016040518091039020600401546101ab9190610ca9565b6001846040516101bb9190610953565b9081526020016040518091039020600401819055505f6040518060a001604052808581526020018481526020018381526020016001866040516101fe9190610953565b90815260200160405180910390206003015481526020016001866040516102259190610953565b90815260200160405180910390206004015481525090508060018560405161024d9190610953565b90815260200160405180910390205f820151815f01908161026e9190610b66565b5060208201518160010190816102849190610b66565b50604082015181600201908161029a9190610b66565b50606082015181600301556080820151816004015590505050505050565b6001818051602081018201805184825260208301602085012081835280955050505050505f91509050805f0180546102ef90610996565b80601f016020809104026020016040519081016040528092919081815260200182805461031b90610996565b80156103665780601f1061033d57610100808354040283529160200191610366565b820191905f5260205f20905b81548152906001019060200180831161034957829003601f168201915b50505050509080600101805461037b90610996565b80601f01602080910402602001604051908101604052809291908181526020018280546103a790610996565b80156103f25780601f106103c9576101008083540402835291602001916103f2565b820191905f5260205f20905b8154815290600101906020018083116103d557829003601f168201915b50505050509080600201805461040790610996565b80601f016020809104026020016040519081016040528092919081815260200182805461043390610996565b801561047e5780601f106104555761010080835404028352916020019161047e565b820191905f5260205f20905b81548152906001019060200180831161046157829003601f168201915b5050505050908060030154908060040154905085565b5f818051602081018201805184825260208301602085012081835280955050505050505f91509050805f0180546104ca90610996565b80601f01602080910402602001604051908101604052809291908181526020018280546104f690610996565b80156105415780601f1061051857610100808354040283529160200191610541565b820191905f5260205f20905b81548152906001019060200180831161052457829003601f168201915b5050505050908060010154905082565b5f604051905090565b5f5ffd5b5f5ffd5b5f5ffd5b5f5ffd5b5f601f19601f8301169050919050565b7f4e487b71000000000000000000000000000000000000000000000000000000005f52604160045260245ffd5b6105b08261056a565b810181811067ffffffffffffffff821117156105cf576105ce61057a565b5b80604052505050565b5f6105e1610551565b90506105ed82826105a7565b919050565b5f67ffffffffffffffff82111561060c5761060b61057a565b5b6106158261056a565b9050602081019050919050565b828183375f83830152505050565b5f61064261063d846105f2565b6105d8565b90508281526020810184848401111561065e5761065d610566565b5b610669848285610622565b509392505050565b5f82601f83011261068557610684610562565b5b8135610695848260208601610630565b91505092915050565b5f819050919050565b6106b08161069e565b81146106ba575f5ffd5b50565b5f813590506106cb816106a7565b92915050565b5f5f604083850312156106e7576106e661055a565b5b5f83013567ffffffffffffffff8111156107045761070361055e565b5b61071085828601610671565b9250506020610721858286016106bd565b9150509250929050565b5f5f5f606084860312156107425761074161055a565b5b5f84013567ffffffffffffffff81111561075f5761075e61055e565b5b61076b86828701610671565b935050602084013567ffffffffffffffff81111561078c5761078b61055e565b5b61079886828701610671565b925050604084013567ffffffffffffffff8111156107b9576107b861055e565b5b6107c586828701610671565b9150509250925092565b5f602082840312156107e4576107e361055a565b5b5f82013567ffffffffffffffff8111156108015761080061055e565b5b61080d84828501610671565b91505092915050565b5f81519050919050565b5f82825260208201905092915050565b8281835e5f83830152505050565b5f61084882610816565b6108528185610820565b9350610862818560208601610830565b61086b8161056a565b840191505092915050565b61087f8161069e565b82525050565b5f60a0820190508181035f83015261089d818861083e565b905081810360208301526108b1818761083e565b905081810360408301526108c5818661083e565b90506108d46060830185610876565b6108e16080830184610876565b9695505050505050565b5f6040820190508181035f830152610903818561083e565b90506109126020830184610876565b9392505050565b5f81905092915050565b5f61092d82610816565b6109378185610919565b9350610947818560208601610830565b80840191505092915050565b5f61095e8284610923565b915081905092915050565b7f4e487b71000000000000000000000000000000000000000000000000000000005f52602260045260245ffd5b5f60028204905060018216806109ad57607f821691505b6020821081036109c0576109bf610969565b5b50919050565b5f819050815f5260205f209050919050565b5f6020601f8301049050919050565b5f82821b905092915050565b5f60088302610a227fffffffffffffffffffffffffffffffffffffffffffffffffffffffffffffffff826109e7565b610a2c86836109e7565b95508019841693508086168417925050509392505050565b5f819050919050565b5f610a67610a62610a5d8461069e565b610a44565b61069e565b9050919050565b5f819050919050565b610a8083610a4d565b610a94610a8c82610a6e565b8484546109f3565b825550505050565b5f5f905090565b610aab610a9c565b610ab6818484610a77565b505050565b5b81811015610ad957610ace5f82610aa3565b600181019050610abc565b5050565b601f821115610b1e57610aef816109c6565b610af8846109d8565b81016020851015610b07578190505b610b1b610b13856109d8565b830182610abb565b50505b505050565b5f82821c905092915050565b5f610b3e5f1984600802610b23565b1980831691505092915050565b5f610b568383610b2f565b9150826002028217905092915050565b610b6f82610816565b67ffffffffffffffff811115610b8857610b8761057a565b5b610b928254610996565b610b9d828285610add565b5f60209050601f831160018114610bce575f8415610bbc578287015190505b610bc68582610b4b565b865550610c2d565b601f198416610bdc866109c6565b5f5b82811015610c0357848901518255600182019150602085019450602081019050610bde565b86831015610c205784890151610c1c601f891682610b2f565b8355505b6001600288020188555050505b505050505050565b7f4e487b71000000000000000000000000000000000000000000000000000000005f52601160045260245ffd5b5f610c6c8261069e565b91507fffffffffffffffffffffffffffffffffffffffffffffffffffffffffffffffff8203610c9e57610c9d610c35565b5b600182019050919050565b5f610cb38261069e565b9150610cbe8361069e565b9250828201905080821115610cd657610cd5610c35565b5b9291505056fea26469706673582212201ba29dc7d16af6204cac0e388458902ad9dc334cb3e989e39e379991f4db381064736f6c634300081e0033",
					"opcodes": "PUSH1 0x80 PUSH1 0x40 MSTORE CALLVALUE DUP1 ISZERO PUSH1 0xE JUMPI PUSH0 PUSH0 REVERT JUMPDEST POP PUSH2 0xD12 DUP1 PUSH2 0x1C PUSH0 CODECOPY PUSH0 RETURN INVALID PUSH1 0x80 PUSH1 0x40 MSTORE CALLVALUE DUP1 ISZERO PUSH2 0xF JUMPI PUSH0 PUSH0 REVERT JUMPDEST POP PUSH1 0x4 CALLDATASIZE LT PUSH2 0x4A JUMPI PUSH0 CALLDATALOAD PUSH1 0xE0 SHR DUP1 PUSH4 0x79E238B7 EQ PUSH2 0x4E JUMPI DUP1 PUSH4 0xA1636430 EQ PUSH2 0x6A JUMPI DUP1 PUSH4 0xA1D3460B EQ PUSH2 0x86 JUMPI DUP1 PUSH4 0xA4A36876 EQ PUSH2 0xBA JUMPI JUMPDEST PUSH0 PUSH0 REVERT JUMPDEST PUSH2 0x68 PUSH1 0x4 DUP1 CALLDATASIZE SUB DUP2 ADD SWAP1 PUSH2 0x63 SWAP2 SWAP1 PUSH2 0x6D1 JUMP JUMPDEST PUSH2 0xEB JUMP JUMPDEST STOP JUMPDEST PUSH2 0x84 PUSH1 0x4 DUP1 CALLDATASIZE SUB DUP2 ADD SWAP1 PUSH2 0x7F SWAP2 SWAP1 PUSH2 0x72B JUMP JUMPDEST PUSH2 0x147 JUMP JUMPDEST STOP JUMPDEST PUSH2 0xA0 PUSH1 0x4 DUP1 CALLDATASIZE SUB DUP2 ADD SWAP1 PUSH2 0x9B SWAP2 SWAP1 PUSH2 0x7CF JUMP JUMPDEST PUSH2 0x2B8 JUMP JUMPDEST PUSH1 0x40 MLOAD PUSH2 0xB1 SWAP6 SWAP5 SWAP4 SWAP3 SWAP2 SWAP1 PUSH2 0x885 JUMP JUMPDEST PUSH1 0x40 MLOAD DUP1 SWAP2 SUB SWAP1 RETURN JUMPDEST PUSH2 0xD4 PUSH1 0x4 DUP1 CALLDATASIZE SUB DUP2 ADD SWAP1 PUSH2 0xCF SWAP2 SWAP1 PUSH2 0x7CF JUMP JUMPDEST PUSH2 0x494 JUMP JUMPDEST PUSH1 0x40 MLOAD PUSH2 0xE2 SWAP3 SWAP2 SWAP1 PUSH2 0x8EB JUMP JUMPDEST PUSH1 0x40 MLOAD DUP1 SWAP2 SUB SWAP1 RETURN JUMPDEST PUSH0 PUSH1 0x40 MLOAD DUP1 PUSH1 0x40 ADD PUSH1 0x40 MSTORE DUP1 DUP5 DUP2 MSTORE PUSH1 0x20 ADD DUP4 DUP2 MSTORE POP SWAP1 POP DUP1 PUSH0 DUP5 PUSH1 0x40 MLOAD PUSH2 0x113 SWAP2 SWAP1 PUSH2 0x953 JUMP JUMPDEST SWAP1 DUP2 MSTORE PUSH1 0x20 ADD PUSH1 0x40 MLOAD DUP1 SWAP2 SUB SWAP1 KECCAK256 PUSH0 DUP3 ADD MLOAD DUP2 PUSH0 ADD SWAP1 DUP2 PUSH2 0x134 SWAP2 SWAP1 PUSH2 0xB66 JUMP JUMPDEST POP PUSH1 0x20 DUP3 ADD MLOAD DUP2 PUSH1 0x1 ADD SSTORE SWAP1 POP POP POP POP POP JUMP JUMPDEST PUSH1 0x1 DUP4 PUSH1 0x40 MLOAD PUSH2 0x157 SWAP2 SWAP1 PUSH2 0x953 JUMP JUMPDEST SWAP1 DUP2 MSTORE PUSH1 0x20 ADD PUSH1 0x40 MLOAD DUP1 SWAP2 SUB SWAP1 KECCAK256 PUSH1 0x3 ADD PUSH0 DUP2 SLOAD DUP1 SWAP3 SWAP2 SWAP1 PUSH2 0x178 SWAP1 PUSH2 0xC62 JUMP JUMPDEST SWAP2 SWAP1 POP SSTORE POP PUSH1 0xA PUSH1 0x1 DUP5 PUSH1 0x40 MLOAD PUSH2 0x18F SWAP2 SWAP1 PUSH2 0x953 JUMP JUMPDEST SWAP1 DUP2 MSTORE PUSH1 0x20 ADD PUSH1 0x40 MLOAD DUP1 SWAP2 SUB SWAP1 KECCAK256 PUSH1 0x4 ADD SLOAD PUSH2 0x1AB SWAP2 SWAP1 PUSH2 0xCA9 JUMP JUMPDEST PUSH1 0x1 DUP5 PUSH1 0x40 MLOAD PUSH2 0x1BB SWAP2 SWAP1 PUSH2 0x953 JUMP JUMPDEST SWAP1 DUP2 MSTORE PUSH1 0x20 ADD PUSH1 0x40 MLOAD DUP1 SWAP2 SUB SWAP1 KECCAK256 PUSH1 0x4 ADD DUP2 SWAP1 SSTORE POP PUSH0 PUSH1 0x40 MLOAD DUP1 PUSH1 0xA0 ADD PUSH1 0x40 MSTORE DUP1 DUP6 DUP2 MSTORE PUSH1 0x20 ADD DUP5 DUP2 MSTORE PUSH1 0x20 ADD DUP4 DUP2 MSTORE PUSH1 0x20 ADD PUSH1 0x1 DUP7 PUSH1 0x40 MLOAD PUSH2 0x1FE SWAP2 SWAP1 PUSH2 0x953 JUMP JUMPDEST SWAP1 DUP2 MSTORE PUSH1 0x20 ADD PUSH1 0x40 MLOAD DUP1 SWAP2 SUB SWAP1 KECCAK256 PUSH1 0x3 ADD SLOAD DUP2 MSTORE PUSH1 0x20 ADD PUSH1 0x1 DUP7 PUSH1 0x40 MLOAD PUSH2 0x225 SWAP2 SWAP1 PUSH2 0x953 JUMP JUMPDEST SWAP1 DUP2 MSTORE PUSH1 0x20 ADD PUSH1 0x40 MLOAD DUP1 SWAP2 SUB SWAP1 KECCAK256 PUSH1 0x4 ADD SLOAD DUP2 MSTORE POP SWAP1 POP DUP1 PUSH1 0x1 DUP6 PUSH1 0x40 MLOAD PUSH2 0x24D SWAP2 SWAP1 PUSH2 0x953 JUMP JUMPDEST SWAP1 DUP2 MSTORE PUSH1 0x20 ADD PUSH1 0x40 MLOAD DUP1 SWAP2 SUB SWAP1 KECCAK256 PUSH0 DUP3 ADD MLOAD DUP2 PUSH0 ADD SWAP1 DUP2 PUSH2 0x26E SWAP2 SWAP1 PUSH2 0xB66 JUMP JUMPDEST POP PUSH1 0x20 DUP3 ADD MLOAD DUP2 PUSH1 0x1 ADD SWAP1 DUP2 PUSH2 0x284 SWAP2 SWAP1 PUSH2 0xB66 JUMP JUMPDEST POP PUSH1 0x40 DUP3 ADD MLOAD DUP2 PUSH1 0x2 ADD SWAP1 DUP2 PUSH2 0x29A SWAP2 SWAP1 PUSH2 0xB66 JUMP JUMPDEST POP PUSH1 0x60 DUP3 ADD MLOAD DUP2 PUSH1 0x3 ADD SSTORE PUSH1 0x80 DUP3 ADD MLOAD DUP2 PUSH1 0x4 ADD SSTORE SWAP1 POP POP POP POP POP POP JUMP JUMPDEST PUSH1 0x1 DUP2 DUP1 MLOAD PUSH1 0x20 DUP2 ADD DUP3 ADD DUP1 MLOAD DUP5 DUP3 MSTORE PUSH1 0x20 DUP4 ADD PUSH1 0x20 DUP6 ADD KECCAK256 DUP2 DUP4 MSTORE DUP1 SWAP6 POP POP POP POP POP POP PUSH0 SWAP2 POP SWAP1 POP DUP1 PUSH0 ADD DUP1 SLOAD PUSH2 0x2EF SWAP1 PUSH2 0x996 JUMP JUMPDEST DUP1 PUSH1 0x1F ADD PUSH1 0x20 DUP1 SWAP2 DIV MUL PUSH1 0x20 ADD PUSH1 0x40 MLOAD SWAP1 DUP2 ADD PUSH1 0x40 MSTORE DUP1 SWAP3 SWAP2 SWAP1 DUP2 DUP2 MSTORE PUSH1 0x20 ADD DUP3 DUP1 SLOAD PUSH2 0x31B SWAP1 PUSH2 0x996 JUMP JUMPDEST DUP1 ISZERO PUSH2 0x366 JUMPI DUP1 PUSH1 0x1F LT PUSH2 0x33D JUMPI PUSH2 0x100 DUP1 DUP4 SLOAD DIV MUL DUP4 MSTORE SWAP2 PUSH1 0x20 ADD SWAP2 PUSH2 0x366 JUMP JUMPDEST DUP3 ADD SWAP2 SWAP1 PUSH0 MSTORE PUSH1 0x20 PUSH0 KECCAK256 SWAP1 JUMPDEST DUP2 SLOAD DUP2 MSTORE SWAP1 PUSH1 0x1 ADD SWAP1 PUSH1 0x20 ADD DUP1 DUP4 GT PUSH2 0x349 JUMPI DUP3 SWAP1 SUB PUSH1 0x1F AND DUP3 ADD SWAP2 JUMPDEST POP POP POP POP POP SWAP1 DUP1 PUSH1 0x1 ADD DUP1 SLOAD PUSH2 0x37B SWAP1 PUSH2 0x996 JUMP JUMPDEST DUP1 PUSH1 0x1F ADD PUSH1 0x20 DUP1 SWAP2 DIV MUL PUSH1 0x20 ADD PUSH1 0x40 MLOAD SWAP1 DUP2 ADD PUSH1 0x40 MSTORE DUP1 SWAP3 SWAP2 SWAP1 DUP2 DUP2 MSTORE PUSH1 0x20 ADD DUP3 DUP1 SLOAD PUSH2 0x3A7 SWAP1 PUSH2 0x996 JUMP JUMPDEST DUP1 ISZERO PUSH2 0x3F2 JUMPI DUP1 PUSH1 0x1F LT PUSH2 0x3C9 JUMPI PUSH2 0x100 DUP1 DUP4 SLOAD DIV MUL DUP4 MSTORE SWAP2 PUSH1 0x20 ADD SWAP2 PUSH2 0x3F2 JUMP JUMPDEST DUP3 ADD SWAP2 SWAP1 PUSH0 MSTORE PUSH1 0x20 PUSH0 KECCAK256 SWAP1 JUMPDEST DUP2 SLOAD DUP2 MSTORE SWAP1 PUSH1 0x1 ADD SWAP1 PUSH1 0x20 ADD DUP1 DUP4 GT PUSH2 0x3D5 JUMPI DUP3 SWAP1 SUB PUSH1 0x1F AND DUP3 ADD SWAP2 JUMPDEST POP POP POP POP POP SWAP1 DUP1 PUSH1 0x2 ADD DUP1 SLOAD PUSH2 0x407 SWAP1 PUSH2 0x996 JUMP JUMPDEST DUP1 PUSH1 0x1F ADD PUSH1 0x20 DUP1 SWAP2 DIV MUL PUSH1 0x20 ADD PUSH1 0x40 MLOAD SWAP1 DUP2 ADD PUSH1 0x40 MSTORE DUP1 SWAP3 SWAP2 SWAP1 DUP2 DUP2 MSTORE PUSH1 0x20 ADD DUP3 DUP1 SLOAD PUSH2 0x433 SWAP1 PUSH2 0x996 JUMP JUMPDEST DUP1 ISZERO PUSH2 0x47E JUMPI DUP1 PUSH1 0x1F LT PUSH2 0x455 JUMPI PUSH2 0x100 DUP1 DUP4 SLOAD DIV MUL DUP4 MSTORE SWAP2 PUSH1 0x20 ADD SWAP2 PUSH2 0x47E JUMP JUMPDEST DUP3 ADD SWAP2 SWAP1 PUSH0 MSTORE PUSH1 0x20 PUSH0 KECCAK256 SWAP1 JUMPDEST DUP2 SLOAD DUP2 MSTORE SWAP1 PUSH1 0x1 ADD SWAP1 PUSH1 0x20 ADD DUP1 DUP4 GT PUSH2 0x461 JUMPI DUP3 SWAP1 SUB PUSH1 0x1F AND DUP3 ADD SWAP2 JUMPDEST POP POP POP POP POP SWAP1 DUP1 PUSH1 0x3 ADD SLOAD SWAP1 DUP1 PUSH1 0x4 ADD SLOAD SWAP1 POP DUP6 JUMP JUMPDEST PUSH0 DUP2 DUP1 MLOAD PUSH1 0x20 DUP2 ADD DUP3 ADD DUP1 MLOAD DUP5 DUP3 MSTORE PUSH1 0x20 DUP4 ADD PUSH1 0x20 DUP6 ADD KECCAK256 DUP2 DUP4 MSTORE DUP1 SWAP6 POP POP POP POP POP POP PUSH0 SWAP2 POP SWAP1 POP DUP1 PUSH0 ADD DUP1 SLOAD PUSH2 0x4CA SWAP1 PUSH2 0x996 JUMP JUMPDEST DUP1 PUSH1 0x1F ADD PUSH1 0x20 DUP1 SWAP2 DIV MUL PUSH1 0x20 ADD PUSH1 0x40 MLOAD SWAP1 DUP2 ADD PUSH1 0x40 MSTORE DUP1 SWAP3 SWAP2 SWAP1 DUP2 DUP2 MSTORE PUSH1 0x20 ADD DUP3 DUP1 SLOAD PUSH2 0x4F6 SWAP1 PUSH2 0x996 JUMP JUMPDEST DUP1 ISZERO PUSH2 0x541 JUMPI DUP1 PUSH1 0x1F LT PUSH2 0x518 JUMPI PUSH2 0x100 DUP1 DUP4 SLOAD DIV MUL DUP4 MSTORE SWAP2 PUSH1 0x20 ADD SWAP2 PUSH2 0x541 JUMP JUMPDEST DUP3 ADD SWAP2 SWAP1 PUSH0 MSTORE PUSH1 0x20 PUSH0 KECCAK256 SWAP1 JUMPDEST DUP2 SLOAD DUP2 MSTORE SWAP1 PUSH1 0x1 ADD SWAP1 PUSH1 0x20 ADD DUP1 DUP4 GT PUSH2 0x524 JUMPI DUP3 SWAP1 SUB PUSH1 0x1F AND DUP3 ADD SWAP2 JUMPDEST POP POP POP POP POP SWAP1 DUP1 PUSH1 0x1 ADD SLOAD SWAP1 POP DUP3 JUMP JUMPDEST PUSH0 PUSH1 0x40 MLOAD SWAP1 POP SWAP1 JUMP JUMPDEST PUSH0 PUSH0 REVERT JUMPDEST PUSH0 PUSH0 REVERT JUMPDEST PUSH0 PUSH0 REVERT JUMPDEST PUSH0 PUSH0 REVERT JUMPDEST PUSH0 PUSH1 0x1F NOT PUSH1 0x1F DUP4 ADD AND SWAP1 POP SWAP2 SWAP1 POP JUMP JUMPDEST PUSH32 0x4E487B7100000000000000000000000000000000000000000000000000000000 PUSH0 MSTORE PUSH1 0x41 PUSH1 0x4 MSTORE PUSH1 0x24 PUSH0 REVERT JUMPDEST PUSH2 0x5B0 DUP3 PUSH2 0x56A JUMP JUMPDEST DUP2 ADD DUP2 DUP2 LT PUSH8 0xFFFFFFFFFFFFFFFF DUP3 GT OR ISZERO PUSH2 0x5CF JUMPI PUSH2 0x5CE PUSH2 0x57A JUMP JUMPDEST JUMPDEST DUP1 PUSH1 0x40 MSTORE POP POP POP JUMP JUMPDEST PUSH0 PUSH2 0x5E1 PUSH2 0x551 JUMP JUMPDEST SWAP1 POP PUSH2 0x5ED DUP3 DUP3 PUSH2 0x5A7 JUMP JUMPDEST SWAP2 SWAP1 POP JUMP JUMPDEST PUSH0 PUSH8 0xFFFFFFFFFFFFFFFF DUP3 GT ISZERO PUSH2 0x60C JUMPI PUSH2 0x60B PUSH2 0x57A JUMP JUMPDEST JUMPDEST PUSH2 0x615 DUP3 PUSH2 0x56A JUMP JUMPDEST SWAP1 POP PUSH1 0x20 DUP2 ADD SWAP1 POP SWAP2 SWAP1 POP JUMP JUMPDEST DUP3 DUP2 DUP4 CALLDATACOPY PUSH0 DUP4 DUP4 ADD MSTORE POP POP POP JUMP JUMPDEST PUSH0 PUSH2 0x642 PUSH2 0x63D DUP5 PUSH2 0x5F2 JUMP JUMPDEST PUSH2 0x5D8 JUMP JUMPDEST SWAP1 POP DUP3 DUP2 MSTORE PUSH1 0x20 DUP2 ADD DUP5 DUP5 DUP5 ADD GT ISZERO PUSH2 0x65E JUMPI PUSH2 0x65D PUSH2 0x566 JUMP JUMPDEST JUMPDEST PUSH2 0x669 DUP5 DUP3 DUP6 PUSH2 0x622 JUMP JUMPDEST POP SWAP4 SWAP3 POP POP POP JUMP JUMPDEST PUSH0 DUP3 PUSH1 0x1F DUP4 ADD SLT PUSH2 0x685 JUMPI PUSH2 0x684 PUSH2 0x562 JUMP JUMPDEST JUMPDEST DUP2 CALLDATALOAD PUSH2 0x695 DUP5 DUP3 PUSH1 0x20 DUP7 ADD PUSH2 0x630 JUMP JUMPDEST SWAP2 POP POP SWAP3 SWAP2 POP POP JUMP JUMPDEST PUSH0 DUP2 SWAP1 POP SWAP2 SWAP1 POP JUMP JUMPDEST PUSH2 0x6B0 DUP2 PUSH2 0x69E JUMP JUMPDEST DUP2 EQ PUSH2 0x6BA JUMPI PUSH0 PUSH0 REVERT JUMPDEST POP JUMP JUMPDEST PUSH0 DUP2 CALLDATALOAD SWAP1 POP PUSH2 0x6CB DUP2 PUSH2 0x6A7 JUMP JUMPDEST SWAP3 SWAP2 POP POP JUMP JUMPDEST PUSH0 PUSH0 PUSH1 0x40 DUP4 DUP6 SUB SLT ISZERO PUSH2 0x6E7 JUMPI PUSH2 0x6E6 PUSH2 0x55A JUMP JUMPDEST JUMPDEST PUSH0 DUP4 ADD CALLDATALOAD PUSH8 0xFFFFFFFFFFFFFFFF DUP2 GT ISZERO PUSH2 0x704 JUMPI PUSH2 0x703 PUSH2 0x55E JUMP JUMPDEST JUMPDEST PUSH2 0x710 DUP6 DUP3 DUP7 ADD PUSH2 0x671 JUMP JUMPDEST SWAP3 POP POP PUSH1 0x20 PUSH2 0x721 DUP6 DUP3 DUP7 ADD PUSH2 0x6BD JUMP JUMPDEST SWAP2 POP POP SWAP3 POP SWAP3 SWAP1 POP JUMP JUMPDEST PUSH0 PUSH0 PUSH0 PUSH1 0x60 DUP5 DUP7 SUB SLT ISZERO PUSH2 0x742 JUMPI PUSH2 0x741 PUSH2 0x55A JUMP JUMPDEST JUMPDEST PUSH0 DUP5 ADD CALLDATALOAD PUSH8 0xFFFFFFFFFFFFFFFF DUP2 GT ISZERO PUSH2 0x75F JUMPI PUSH2 0x75E PUSH2 0x55E JUMP JUMPDEST JUMPDEST PUSH2 0x76B DUP7 DUP3 DUP8 ADD PUSH2 0x671 JUMP JUMPDEST SWAP4 POP POP PUSH1 0x20 DUP5 ADD CALLDATALOAD PUSH8 0xFFFFFFFFFFFFFFFF DUP2 GT ISZERO PUSH2 0x78C JUMPI PUSH2 0x78B PUSH2 0x55E JUMP JUMPDEST JUMPDEST PUSH2 0x798 DUP7 DUP3 DUP8 ADD PUSH2 0x671 JUMP JUMPDEST SWAP3 POP POP PUSH1 0x40 DUP5 ADD CALLDATALOAD PUSH8 0xFFFFFFFFFFFFFFFF DUP2 GT ISZERO PUSH2 0x7B9 JUMPI PUSH2 0x7B8 PUSH2 0x55E JUMP JUMPDEST JUMPDEST PUSH2 0x7C5 DUP7 DUP3 DUP8 ADD PUSH2 0x671 JUMP JUMPDEST SWAP2 POP POP SWAP3 POP SWAP3 POP SWAP3 JUMP JUMPDEST PUSH0 PUSH1 0x20 DUP3 DUP5 SUB SLT ISZERO PUSH2 0x7E4 JUMPI PUSH2 0x7E3 PUSH2 0x55A JUMP JUMPDEST JUMPDEST PUSH0 DUP3 ADD CALLDATALOAD PUSH8 0xFFFFFFFFFFFFFFFF DUP2 GT ISZERO PUSH2 0x801 JUMPI PUSH2 0x800 PUSH2 0x55E JUMP JUMPDEST JUMPDEST PUSH2 0x80D DUP5 DUP3 DUP6 ADD PUSH2 0x671 JUMP JUMPDEST SWAP2 POP POP SWAP3 SWAP2 POP POP JUMP JUMPDEST PUSH0 DUP2 MLOAD SWAP1 POP SWAP2 SWAP1 POP JUMP JUMPDEST PUSH0 DUP3 DUP3 MSTORE PUSH1 0x20 DUP3 ADD SWAP1 POP SWAP3 SWAP2 POP POP JUMP JUMPDEST DUP3 DUP2 DUP4 MCOPY PUSH0 DUP4 DUP4 ADD MSTORE POP POP POP JUMP JUMPDEST PUSH0 PUSH2 0x848 DUP3 PUSH2 0x816 JUMP JUMPDEST PUSH2 0x852 DUP2 DUP6 PUSH2 0x820 JUMP JUMPDEST SWAP4 POP PUSH2 0x862 DUP2 DUP6 PUSH1 0x20 DUP7 ADD PUSH2 0x830 JUMP JUMPDEST PUSH2 0x86B DUP2 PUSH2 0x56A JUMP JUMPDEST DUP5 ADD SWAP2 POP POP SWAP3 SWAP2 POP POP JUMP JUMPDEST PUSH2 0x87F DUP2 PUSH2 0x69E JUMP JUMPDEST DUP3 MSTORE POP POP JUMP JUMPDEST PUSH0 PUSH1 0xA0 DUP3 ADD SWAP1 POP DUP2 DUP2 SUB PUSH0 DUP4 ADD MSTORE PUSH2 0x89D DUP2 DUP9 PUSH2 0x83E JUMP JUMPDEST SWAP1 POP DUP2 DUP2 SUB PUSH1 0x20 DUP4 ADD MSTORE PUSH2 0x8B1 DUP2 DUP8 PUSH2 0x83E JUMP JUMPDEST SWAP1 POP DUP2 DUP2 SUB PUSH1 0x40 DUP4 ADD MSTORE PUSH2 0x8C5 DUP2 DUP7 PUSH2 0x83E JUMP JUMPDEST SWAP1 POP PUSH2 0x8D4 PUSH1 0x60 DUP4 ADD DUP6 PUSH2 0x876 JUMP JUMPDEST PUSH2 0x8E1 PUSH1 0x80 DUP4 ADD DUP5 PUSH2 0x876 JUMP JUMPDEST SWAP7 SWAP6 POP POP POP POP POP POP JUMP JUMPDEST PUSH0 PUSH1 0x40 DUP3 ADD SWAP1 POP DUP2 DUP2 SUB PUSH0 DUP4 ADD MSTORE PUSH2 0x903 DUP2 DUP6 PUSH2 0x83E JUMP JUMPDEST SWAP1 POP PUSH2 0x912 PUSH1 0x20 DUP4 ADD DUP5 PUSH2 0x876 JUMP JUMPDEST SWAP4 SWAP3 POP POP POP JUMP JUMPDEST PUSH0 DUP2 SWAP1 POP SWAP3 SWAP2 POP POP JUMP JUMPDEST PUSH0 PUSH2 0x92D DUP3 PUSH2 0x816 JUMP JUMPDEST PUSH2 0x937 DUP2 DUP6 PUSH2 0x919 JUMP JUMPDEST SWAP4 POP PUSH2 0x947 DUP2 DUP6 PUSH1 0x20 DUP7 ADD PUSH2 0x830 JUMP JUMPDEST DUP1 DUP5 ADD SWAP2 POP POP SWAP3 SWAP2 POP POP JUMP JUMPDEST PUSH0 PUSH2 0x95E DUP3 DUP5 PUSH2 0x923 JUMP JUMPDEST SWAP2 POP DUP2 SWAP1 POP SWAP3 SWAP2 POP POP JUMP JUMPDEST PUSH32 0x4E487B7100000000000000000000000000000000000000000000000000000000 PUSH0 MSTORE PUSH1 0x22 PUSH1 0x4 MSTORE PUSH1 0x24 PUSH0 REVERT JUMPDEST PUSH0 PUSH1 0x2 DUP3 DIV SWAP1 POP PUSH1 0x1 DUP3 AND DUP1 PUSH2 0x9AD JUMPI PUSH1 0x7F DUP3 AND SWAP2 POP JUMPDEST PUSH1 0x20 DUP3 LT DUP2 SUB PUSH2 0x9C0 JUMPI PUSH2 0x9BF PUSH2 0x969 JUMP JUMPDEST JUMPDEST POP SWAP2 SWAP1 POP JUMP JUMPDEST PUSH0 DUP2 SWAP1 POP DUP2 PUSH0 MSTORE PUSH1 0x20 PUSH0 KECCAK256 SWAP1 POP SWAP2 SWAP1 POP JUMP JUMPDEST PUSH0 PUSH1 0x20 PUSH1 0x1F DUP4 ADD DIV SWAP1 POP SWAP2 SWAP1 POP JUMP JUMPDEST PUSH0 DUP3 DUP3 SHL SWAP1 POP SWAP3 SWAP2 POP POP JUMP JUMPDEST PUSH0 PUSH1 0x8 DUP4 MUL PUSH2 0xA22 PUSH32 0xFFFFFFFFFFFFFFFFFFFFFFFFFFFFFFFFFFFFFFFFFFFFFFFFFFFFFFFFFFFFFFFF DUP3 PUSH2 0x9E7 JUMP JUMPDEST PUSH2 0xA2C DUP7 DUP4 PUSH2 0x9E7 JUMP JUMPDEST SWAP6 POP DUP1 NOT DUP5 AND SWAP4 POP DUP1 DUP7 AND DUP5 OR SWAP3 POP POP POP SWAP4 SWAP3 POP POP POP JUMP JUMPDEST PUSH0 DUP2 SWAP1 POP SWAP2 SWAP1 POP JUMP JUMPDEST PUSH0 PUSH2 0xA67 PUSH2 0xA62 PUSH2 0xA5D DUP5 PUSH2 0x69E JUMP JUMPDEST PUSH2 0xA44 JUMP JUMPDEST PUSH2 0x69E JUMP JUMPDEST SWAP1 POP SWAP2 SWAP1 POP JUMP JUMPDEST PUSH0 DUP2 SWAP1 POP SWAP2 SWAP1 POP JUMP JUMPDEST PUSH2 0xA80 DUP4 PUSH2 0xA4D JUMP JUMPDEST PUSH2 0xA94 PUSH2 0xA8C DUP3 PUSH2 0xA6E JUMP JUMPDEST DUP5 DUP5 SLOAD PUSH2 0x9F3 JUMP JUMPDEST DUP3 SSTORE POP POP POP POP JUMP JUMPDEST PUSH0 PUSH0 SWAP1 POP SWAP1 JUMP JUMPDEST PUSH2 0xAAB PUSH2 0xA9C JUMP JUMPDEST PUSH2 0xAB6 DUP2 DUP5 DUP5 PUSH2 0xA77 JUMP JUMPDEST POP POP POP JUMP JUMPDEST JUMPDEST DUP2 DUP2 LT ISZERO PUSH2 0xAD9 JUMPI PUSH2 0xACE PUSH0 DUP3 PUSH2 0xAA3 JUMP JUMPDEST PUSH1 0x1 DUP2 ADD SWAP1 POP PUSH2 0xABC JUMP JUMPDEST POP POP JUMP JUMPDEST PUSH1 0x1F DUP3 GT ISZERO PUSH2 0xB1E JUMPI PUSH2 0xAEF DUP2 PUSH2 0x9C6 JUMP JUMPDEST PUSH2 0xAF8 DUP5 PUSH2 0x9D8 JUMP JUMPDEST DUP2 ADD PUSH1 0x20 DUP6 LT ISZERO PUSH2 0xB07 JUMPI DUP2 SWAP1 POP JUMPDEST PUSH2 0xB1B PUSH2 0xB13 DUP6 PUSH2 0x9D8 JUMP JUMPDEST DUP4 ADD DUP3 PUSH2 0xABB JUMP JUMPDEST POP POP JUMPDEST POP POP POP JUMP JUMPDEST PUSH0 DUP3 DUP3 SHR SWAP1 POP SWAP3 SWAP2 POP POP JUMP JUMPDEST PUSH0 PUSH2 0xB3E PUSH0 NOT DUP5 PUSH1 0x8 MUL PUSH2 0xB23 JUMP JUMPDEST NOT DUP1 DUP4 AND SWAP2 POP POP SWAP3 SWAP2 POP POP JUMP JUMPDEST PUSH0 PUSH2 0xB56 DUP4 DUP4 PUSH2 0xB2F JUMP JUMPDEST SWAP2 POP DUP3 PUSH1 0x2 MUL DUP3 OR SWAP1 POP SWAP3 SWAP2 POP POP JUMP JUMPDEST PUSH2 0xB6F DUP3 PUSH2 0x816 JUMP JUMPDEST PUSH8 0xFFFFFFFFFFFFFFFF DUP2 GT ISZERO PUSH2 0xB88 JUMPI PUSH2 0xB87 PUSH2 0x57A JUMP JUMPDEST JUMPDEST PUSH2 0xB92 DUP3 SLOAD PUSH2 0x996 JUMP JUMPDEST PUSH2 0xB9D DUP3 DUP3 DUP6 PUSH2 0xADD JUMP JUMPDEST PUSH0 PUSH1 0x20 SWAP1 POP PUSH1 0x1F DUP4 GT PUSH1 0x1 DUP2 EQ PUSH2 0xBCE JUMPI PUSH0 DUP5 ISZERO PUSH2 0xBBC JUMPI DUP3 DUP8 ADD MLOAD SWAP1 POP JUMPDEST PUSH2 0xBC6 DUP6 DUP3 PUSH2 0xB4B JUMP JUMPDEST DUP7 SSTORE POP PUSH2 0xC2D JUMP JUMPDEST PUSH1 0x1F NOT DUP5 AND PUSH2 0xBDC DUP7 PUSH2 0x9C6 JUMP JUMPDEST PUSH0 JUMPDEST DUP3 DUP2 LT ISZERO PUSH2 0xC03 JUMPI DUP5 DUP10 ADD MLOAD DUP3 SSTORE PUSH1 0x1 DUP3 ADD SWAP2 POP PUSH1 0x20 DUP6 ADD SWAP5 POP PUSH1 0x20 DUP2 ADD SWAP1 POP PUSH2 0xBDE JUMP JUMPDEST DUP7 DUP4 LT ISZERO PUSH2 0xC20 JUMPI DUP5 DUP10 ADD MLOAD PUSH2 0xC1C PUSH1 0x1F DUP10 AND DUP3 PUSH2 0xB2F JUMP JUMPDEST DUP4 SSTORE POP JUMPDEST PUSH1 0x1 PUSH1 0x2 DUP9 MUL ADD DUP9 SSTORE POP POP POP JUMPDEST POP POP POP POP POP POP JUMP JUMPDEST PUSH32 0x4E487B7100000000000000000000000000000000000000000000000000000000 PUSH0 MSTORE PUSH1 0x11 PUSH1 0x4 MSTORE PUSH1 0x24 PUSH0 REVERT JUMPDEST PUSH0 PUSH2 0xC6C DUP3 PUSH2 0x69E JUMP JUMPDEST SWAP2 POP PUSH32 0xFFFFFFFFFFFFFFFFFFFFFFFFFFFFFFFFFFFFFFFFFFFFFFFFFFFFFFFFFFFFFFFF DUP3 SUB PUSH2 0xC9E JUMPI PUSH2 0xC9D PUSH2 0xC35 JUMP JUMPDEST JUMPDEST PUSH1 0x1 DUP3 ADD SWAP1 POP SWAP2 SWAP1 POP JUMP JUMPDEST PUSH0 PUSH2 0xCB3 DUP3 PUSH2 0x69E JUMP JUMPDEST SWAP2 POP PUSH2 0xCBE DUP4 PUSH2 0x69E JUMP JUMPDEST SWAP3 POP DUP3 DUP3 ADD SWAP1 POP DUP1 DUP3 GT ISZERO PUSH2 0xCD6 JUMPI PUSH2 0xCD5 PUSH2 0xC35 JUMP JUMPDEST JUMPDEST SWAP3 SWAP2 POP POP JUMP INVALID LOG2 PUSH5 0x6970667358 0x22 SLT KECCAK256 SHL LOG2 SWAP14 0xC7 DATALOADN 0x6AF6 KECCAK256 0x4C 0xAC 0xE CODESIZE DUP5 PC SWAP1 0x2A 0xD9 0xDC CALLER 0x4C 0xB3 0xE9 DUP10 CALLF 0x9E37 SWAP10 SWAP2 DELEGATECALL 0xDB CODESIZE LT PUSH5 0x736F6C6343 STOP ADDMOD 0x1E STOP CALLER "
				},
				"gasEstimates": {
					"creation": {
						"codeDepositCost": "669200",
						"executionCost": "700",
						"totalCost": "669900"
					},
					"external": {
						"NameToTask(string)": "infinite",
						"NameToTeam(string)": "infinite",
						"task_register(string,string,string)": "infinite",
						"team_register(string,uint256)": "infinite"
					}
				},
				"methodIdentifiers": {
					"NameToTask(string)": "a1d3460b",
					"NameToTeam(string)": "a4a36876",
					"task_register(string,string,string)": "a1636430",
					"team_register(string,uint256)": "79e238b7"
				}
			},
			"storageLayout": {
				"storage": [
					{
						"astId": 22,
						"contract": "solidity_Lects/RealProjects/InheritanceProject/regularTeam.sol:regularTeam",
						"label": "NameToTeam",
						"offset": 0,
						"slot": "0",
						"type": "t_mapping(t_string_memory_ptr,t_struct(team_info)6_storage)"
					},
					{
						"astId": 27,
						"contract": "solidity_Lects/RealProjects/InheritanceProject/regularTeam.sol:regularTeam",
						"label": "NameToTask",
						"offset": 0,
						"slot": "1",
						"type": "t_mapping(t_string_memory_ptr,t_struct(task_info)17_storage)"
					}
				],
				"types": {
					"t_mapping(t_string_memory_ptr,t_struct(task_info)17_storage)": {
						"encoding": "mapping",
						"key": "t_string_memory_ptr",
						"label": "mapping(string => struct regularTeam.task_info)",
						"numberOfBytes": "32",
						"value": "t_struct(task_info)17_storage"
					},
					"t_mapping(t_string_memory_ptr,t_struct(team_info)6_storage)": {
						"encoding": "mapping",
						"key": "t_string_memory_ptr",
						"label": "mapping(string => struct regularTeam.team_info)",
						"numberOfBytes": "32",
						"value": "t_struct(team_info)6_storage"
					},
					"t_string_memory_ptr": {
						"encoding": "bytes",
						"label": "string",
						"numberOfBytes": "32"
					},
					"t_string_storage": {
						"encoding": "bytes",
						"label": "string",
						"numberOfBytes": "32"
					},
					"t_struct(task_info)17_storage": {
						"encoding": "inplace",
						"label": "struct regularTeam.task_info",
						"members": [
							{
								"astId": 8,
								"contract": "solidity_Lects/RealProjects/InheritanceProject/regularTeam.sol:regularTeam",
								"label": "Team_Name",
								"offset": 0,
								"slot": "0",
								"type": "t_string_storage"
							},
							{
								"astId": 10,
								"contract": "solidity_Lects/RealProjects/InheritanceProject/regularTeam.sol:regularTeam",
								"label": "task_name",
								"offset": 0,
								"slot": "1",
								"type": "t_string_storage"
							},
							{
								"astId": 12,
								"contract": "solidity_Lects/RealProjects/InheritanceProject/regularTeam.sol:regularTeam",
								"label": "member_name",
								"offset": 0,
								"slot": "2",
								"type": "t_string_storage"
							},
							{
								"astId": 14,
								"contract": "solidity_Lects/RealProjects/InheritanceProject/regularTeam.sol:regularTeam",
								"label": "task_count",
								"offset": 0,
								"slot": "3",
								"type": "t_uint256"
							},
							{
								"astId": 16,
								"contract": "solidity_Lects/RealProjects/InheritanceProject/regularTeam.sol:regularTeam",
								"label": "Team_Reputation",
								"offset": 0,
								"slot": "4",
								"type": "t_uint256"
							}
						],
						"numberOfBytes": "160"
					},
					"t_struct(team_info)6_storage": {
						"encoding": "inplace",
						"label": "struct regularTeam.team_info",
						"members": [
							{
								"astId": 3,
								"contract": "solidity_Lects/RealProjects/InheritanceProject/regularTeam.sol:regularTeam",
								"label": "Team_Name",
								"offset": 0,
								"slot": "0",
								"type": "t_string_storage"
							},
							{
								"astId": 5,
								"contract": "solidity_Lects/RealProjects/InheritanceProject/regularTeam.sol:regularTeam",
								"label": "Number_Of_Members",
								"offset": 0,
								"slot": "1",
								"type": "t_uint256"
							}
						],
						"numberOfBytes": "64"
					},
					"t_uint256": {
						"encoding": "inplace",
						"label": "uint256",
						"numberOfBytes": "32"
					}
				}
			},
			"userdoc": {
				"kind": "user",
				"methods": {},
				"version": 1
			}
		}
	}
}