{
	"solidity_Lects/ChainLink.sol/Gas_Efficient.sol": {
		"fundMe": {
			"abi": [
				{
					"inputs": [],
					"stateMutability": "nonpayable",
					"type": "constructor"
				},
				{
					"inputs": [],
					"name": "Insuff_amount",
					"type": "error"
				},
				{
					"inputs": [],
					"name": "NotOwner",
					"type": "error"
				},
				{
					"inputs": [],
					"name": "Withdraw_failed",
					"type": "error"
				},
				{
					"inputs": [
						{
							"internalType": "uint256",
							"name": "",
							"type": "uint256"
						}
					],
					"name": "Sender_contract",
					"outputs": [
						{
							"internalType": "address",
							"name": "",
							"type": "address"
						}
					],
					"stateMutability": "view",
					"type": "function"
				},
				{
					"inputs": [
						{
							"internalType": "uint256",
							"name": "eth_amt",
							"type": "uint256"
						}
					],
					"name": "conversion",
					"outputs": [
						{
							"internalType": "uint256",
							"name": "",
							"type": "uint256"
						}
					],
					"stateMutability": "view",
					"type": "function"
				},
				{
					"inputs": [],
					"name": "fetch_price",
					"outputs": [
						{
							"internalType": "uint256",
							"name": "",
							"type": "uint256"
						}
					],
					"stateMutability": "view",
					"type": "function"
				},
				{
					"inputs": [],
					"name": "get_fund",
					"outputs": [],
					"stateMutability": "payable",
					"type": "function"
				},
				{
					"inputs": [],
					"name": "withdraw",
					"outputs": [],
					"stateMutability": "payable",
					"type": "function"
				}
			],
			"devdoc": {
				"kind": "dev",
				"methods": {},
				"version": 1
			},
			"evm": {
				"assembly": "    /* \"solidity_Lects/ChainLink.sol/Gas_Efficient.sol\":673:2295  contract fundMe{... */\n  mstore(0x40, 0xa0)\n    /* \"solidity_Lects/ChainLink.sol/Gas_Efficient.sol\":1689:1740  constructor(){ ... */\n  callvalue\n  dup1\n  iszero\n  tag_1\n  jumpi\n  revert(0x00, 0x00)\ntag_1:\n  pop\n    /* \"solidity_Lects/ChainLink.sol/Gas_Efficient.sol\":1722:1732  msg.sender */\n  caller\n    /* \"solidity_Lects/ChainLink.sol/Gas_Efficient.sol\":1714:1732  owner = msg.sender */\n  0xffffffffffffffffffffffffffffffffffffffff\n  and\n  0x80\n  dup2\n  0xffffffffffffffffffffffffffffffffffffffff\n  and\n  dup2\n  mstore\n  pop\n  pop\n    /* \"solidity_Lects/ChainLink.sol/Gas_Efficient.sol\":673:2295  contract fundMe{... */\n  mload(0x80)\n  codecopy(0x00, dataOffset(sub_0), dataSize(sub_0))\n  0x00\n  assignImmutable(\"0x7446b42d7fe1689ec32fc1ca65129d9f21f1979742315d34500a6886f6986bea\")\n  return(0x00, dataSize(sub_0))\nstop\n\nsub_0: assembly {\n        /* \"solidity_Lects/ChainLink.sol/Gas_Efficient.sol\":673:2295  contract fundMe{... */\n      mstore(0x40, 0x80)\n      jumpi(tag_1, lt(calldatasize, 0x04))\n      shr(0xe0, calldataload(0x00))\n      dup1\n      0x3ccfd60b\n      eq\n      tag_2\n      jumpi\n      dup1\n      0x5ccf4ee4\n      eq\n      tag_3\n      jumpi\n      dup1\n      0xba4d0c99\n      eq\n      tag_4\n      jumpi\n      dup1\n      0xbe8cbce2\n      eq\n      tag_5\n      jumpi\n      dup1\n      0xbfdc2298\n      eq\n      tag_6\n      jumpi\n    tag_1:\n      revert(0x00, 0x00)\n        /* \"solidity_Lects/ChainLink.sol/Gas_Efficient.sol\":1926:2290  function withdraw() public payable onlyOwner{... */\n    tag_2:\n      tag_7\n      tag_8\n      jump\t// in\n    tag_7:\n      stop\n        /* \"solidity_Lects/ChainLink.sol/Gas_Efficient.sol\":1416:1681  function get_fund() public payable{... */\n    tag_3:\n      tag_9\n      tag_10\n      jump\t// in\n    tag_9:\n      stop\n        /* \"solidity_Lects/ChainLink.sol/Gas_Efficient.sol\":1262:1408  function conversion(uint eth_amt) public view returns(uint){... */\n    tag_4:\n      callvalue\n      dup1\n      iszero\n      tag_11\n      jumpi\n      revert(0x00, 0x00)\n    tag_11:\n      pop\n      tag_12\n      0x04\n      dup1\n      calldatasize\n      sub\n      dup2\n      add\n      swap1\n      tag_13\n      swap2\n      swap1\n      tag_14\n      jump\t// in\n    tag_13:\n      tag_15\n      jump\t// in\n    tag_12:\n      mload(0x40)\n      tag_16\n      swap2\n      swap1\n      tag_17\n      jump\t// in\n    tag_16:\n      mload(0x40)\n      dup1\n      swap2\n      sub\n      swap1\n      return\n        /* \"solidity_Lects/ChainLink.sol/Gas_Efficient.sol\":697:729  address[] public Sender_contract */\n    tag_5:\n      callvalue\n      dup1\n      iszero\n      tag_18\n      jumpi\n      revert(0x00, 0x00)\n    tag_18:\n      pop\n      tag_19\n      0x04\n      dup1\n      calldatasize\n      sub\n      dup2\n      add\n      swap1\n      tag_20\n      swap2\n      swap1\n      tag_14\n      jump\t// in\n    tag_20:\n      tag_21\n      jump\t// in\n    tag_19:\n      mload(0x40)\n      tag_22\n      swap2\n      swap1\n      tag_23\n      jump\t// in\n    tag_22:\n      mload(0x40)\n      dup1\n      swap2\n      sub\n      swap1\n      return\n        /* \"solidity_Lects/ChainLink.sol/Gas_Efficient.sol\":915:1254  function fetch_price() public view returns(uint) {... */\n    tag_6:\n      callvalue\n      dup1\n      iszero\n      tag_24\n      jumpi\n      revert(0x00, 0x00)\n    tag_24:\n      pop\n      tag_25\n      tag_26\n      jump\t// in\n    tag_25:\n      mload(0x40)\n      tag_27\n      swap2\n      swap1\n      tag_17\n      jump\t// in\n    tag_27:\n      mload(0x40)\n      dup1\n      swap2\n      sub\n      swap1\n      return\n        /* \"solidity_Lects/ChainLink.sol/Gas_Efficient.sol\":1926:2290  function withdraw() public payable onlyOwner{... */\n    tag_8:\n        /* \"solidity_Lects/ChainLink.sol/Gas_Efficient.sol\":1849:1854  owner */\n      immutable(\"0x7446b42d7fe1689ec32fc1ca65129d9f21f1979742315d34500a6886f6986bea\")\n        /* \"solidity_Lects/ChainLink.sol/Gas_Efficient.sol\":1835:1854  msg.sender != owner */\n      0xffffffffffffffffffffffffffffffffffffffff\n      and\n        /* \"solidity_Lects/ChainLink.sol/Gas_Efficient.sol\":1835:1845  msg.sender */\n      caller\n        /* \"solidity_Lects/ChainLink.sol/Gas_Efficient.sol\":1835:1854  msg.sender != owner */\n      0xffffffffffffffffffffffffffffffffffffffff\n      and\n      eq\n        /* \"solidity_Lects/ChainLink.sol/Gas_Efficient.sol\":1832:1899  if(msg.sender != owner){... */\n      tag_29\n      jumpi\n        /* \"solidity_Lects/ChainLink.sol/Gas_Efficient.sol\":1877:1887  NotOwner() */\n      mload(0x40)\n      0x30cd747100000000000000000000000000000000000000000000000000000000\n      dup2\n      mstore\n      0x04\n      add\n      mload(0x40)\n      dup1\n      swap2\n      sub\n      swap1\n      revert\n        /* \"solidity_Lects/ChainLink.sol/Gas_Efficient.sol\":1832:1899  if(msg.sender != owner){... */\n    tag_29:\n        /* \"solidity_Lects/ChainLink.sol/Gas_Efficient.sol\":2089:2101  bool success */\n      0x00\n        /* \"solidity_Lects/ChainLink.sol/Gas_Efficient.sol\":2113:2123  msg.sender */\n      caller\n        /* \"solidity_Lects/ChainLink.sol/Gas_Efficient.sol\":2105:2129  payable(msg.sender).call */\n      0xffffffffffffffffffffffffffffffffffffffff\n      and\n        /* \"solidity_Lects/ChainLink.sol/Gas_Efficient.sol\":2137:2158  address(this).balance */\n      selfbalance\n        /* \"solidity_Lects/ChainLink.sol/Gas_Efficient.sol\":2105:2163  payable(msg.sender).call{value: address(this).balance}(\"\") */\n      mload(0x40)\n      tag_31\n      swap1\n      tag_32\n      jump\t// in\n    tag_31:\n      0x00\n      mload(0x40)\n      dup1\n      dup4\n      sub\n      dup2\n      dup6\n      dup8\n      gas\n      call\n      swap3\n      pop\n      pop\n      pop\n      returndatasize\n      dup1\n      0x00\n      dup2\n      eq\n      tag_35\n      jumpi\n      mload(0x40)\n      swap2\n      pop\n      and(add(returndatasize, 0x3f), not(0x1f))\n      dup3\n      add\n      0x40\n      mstore\n      returndatasize\n      dup3\n      mstore\n      returndatasize\n      0x00\n      0x20\n      dup5\n      add\n      returndatacopy\n      jump(tag_34)\n    tag_35:\n      0x60\n      swap2\n      pop\n    tag_34:\n      pop\n        /* \"solidity_Lects/ChainLink.sol/Gas_Efficient.sol\":2088:2163  (bool success,) =payable(msg.sender).call{value: address(this).balance}(\"\") */\n      pop\n      swap1\n      pop\n        /* \"solidity_Lects/ChainLink.sol/Gas_Efficient.sol\":2227:2231  true */\n      0x01\n        /* \"solidity_Lects/ChainLink.sol/Gas_Efficient.sol\":2217:2231  success!= true */\n      iszero\n      iszero\n        /* \"solidity_Lects/ChainLink.sol/Gas_Efficient.sol\":2217:2224  success */\n      dup2\n        /* \"solidity_Lects/ChainLink.sol/Gas_Efficient.sol\":2217:2231  success!= true */\n      iszero\n      iszero\n      eq\n        /* \"solidity_Lects/ChainLink.sol/Gas_Efficient.sol\":2214:2283  if(success!= true){... */\n      tag_36\n      jumpi\n        /* \"solidity_Lects/ChainLink.sol/Gas_Efficient.sol\":2254:2271  Withdraw_failed() */\n      mload(0x40)\n      0x9874167500000000000000000000000000000000000000000000000000000000\n      dup2\n      mstore\n      0x04\n      add\n      mload(0x40)\n      dup1\n      swap2\n      sub\n      swap1\n      revert\n        /* \"solidity_Lects/ChainLink.sol/Gas_Efficient.sol\":2214:2283  if(success!= true){... */\n    tag_36:\n        /* \"solidity_Lects/ChainLink.sol/Gas_Efficient.sol\":1970:2290  {... */\n      pop\n        /* \"solidity_Lects/ChainLink.sol/Gas_Efficient.sol\":1926:2290  function withdraw() public payable onlyOwner{... */\n      jump\t// out\n        /* \"solidity_Lects/ChainLink.sol/Gas_Efficient.sol\":1416:1681  function get_fund() public payable{... */\n    tag_10:\n        /* \"solidity_Lects/ChainLink.sol/Gas_Efficient.sol\":842:846  1e18 */\n      0x0de0b6b3a7640000\n        /* \"solidity_Lects/ChainLink.sol/Gas_Efficient.sol\":1540:1561  conversion(msg.value) */\n      tag_38\n        /* \"solidity_Lects/ChainLink.sol/Gas_Efficient.sol\":1551:1560  msg.value */\n      callvalue\n        /* \"solidity_Lects/ChainLink.sol/Gas_Efficient.sol\":1540:1550  conversion */\n      tag_15\n        /* \"solidity_Lects/ChainLink.sol/Gas_Efficient.sol\":1540:1561  conversion(msg.value) */\n      jump\t// in\n    tag_38:\n        /* \"solidity_Lects/ChainLink.sol/Gas_Efficient.sol\":1540:1571  conversion(msg.value) < min_usd */\n      lt\n        /* \"solidity_Lects/ChainLink.sol/Gas_Efficient.sol\":1537:1621  if(conversion(msg.value) < min_usd){... */\n      iszero\n      tag_39\n      jumpi\n        /* \"solidity_Lects/ChainLink.sol/Gas_Efficient.sol\":1594:1609  Insuff_amount() */\n      mload(0x40)\n      0xb5fd6a9c00000000000000000000000000000000000000000000000000000000\n      dup2\n      mstore\n      0x04\n      add\n      mload(0x40)\n      dup1\n      swap2\n      sub\n      swap1\n      revert\n        /* \"solidity_Lects/ChainLink.sol/Gas_Efficient.sol\":1537:1621  if(conversion(msg.value) < min_usd){... */\n    tag_39:\n        /* \"solidity_Lects/ChainLink.sol/Gas_Efficient.sol\":1641:1656  Sender_contract */\n      0x00\n        /* \"solidity_Lects/ChainLink.sol/Gas_Efficient.sol\":1662:1672  msg.sender */\n      caller\n        /* \"solidity_Lects/ChainLink.sol/Gas_Efficient.sol\":1641:1673  Sender_contract.push(msg.sender) */\n      swap1\n      dup1\n      0x01\n      dup2\n      sload\n      add\n      dup1\n      dup3\n      sstore\n      dup1\n      swap2\n      pop\n      pop\n      0x01\n      swap1\n      sub\n      swap1\n      0x00\n      mstore\n      keccak256(0x00, 0x20)\n      add\n      0x00\n      swap1\n      swap2\n      swap1\n      swap2\n      swap1\n      swap2\n      0x0100\n      exp\n      dup2\n      sload\n      dup2\n      0xffffffffffffffffffffffffffffffffffffffff\n      mul\n      not\n      and\n      swap1\n      dup4\n      0xffffffffffffffffffffffffffffffffffffffff\n      and\n      mul\n      or\n      swap1\n      sstore\n      pop\n        /* \"solidity_Lects/ChainLink.sol/Gas_Efficient.sol\":1416:1681  function get_fund() public payable{... */\n      jump\t// out\n        /* \"solidity_Lects/ChainLink.sol/Gas_Efficient.sol\":1262:1408  function conversion(uint eth_amt) public view returns(uint){... */\n    tag_15:\n        /* \"solidity_Lects/ChainLink.sol/Gas_Efficient.sol\":1316:1320  uint */\n      0x00\n        /* \"solidity_Lects/ChainLink.sol/Gas_Efficient.sol\":1332:1343  uint result */\n      0x00\n        /* \"solidity_Lects/ChainLink.sol/Gas_Efficient.sol\":1372:1376  1e18 */\n      0x0de0b6b3a7640000\n        /* \"solidity_Lects/ChainLink.sol/Gas_Efficient.sol\":1357:1370  fetch_price() */\n      tag_42\n        /* \"solidity_Lects/ChainLink.sol/Gas_Efficient.sol\":1357:1368  fetch_price */\n      tag_26\n        /* \"solidity_Lects/ChainLink.sol/Gas_Efficient.sol\":1357:1370  fetch_price() */\n      jump\t// in\n    tag_42:\n        /* \"solidity_Lects/ChainLink.sol/Gas_Efficient.sol\":1347:1354  eth_amt */\n      dup5\n        /* \"solidity_Lects/ChainLink.sol/Gas_Efficient.sol\":1347:1370  eth_amt * fetch_price() */\n      tag_43\n      swap2\n      swap1\n      tag_44\n      jump\t// in\n    tag_43:\n        /* \"solidity_Lects/ChainLink.sol/Gas_Efficient.sol\":1346:1376  (eth_amt * fetch_price())/1e18 */\n      tag_45\n      swap2\n      swap1\n      tag_46\n      jump\t// in\n    tag_45:\n        /* \"solidity_Lects/ChainLink.sol/Gas_Efficient.sol\":1332:1376  uint result = (eth_amt * fetch_price())/1e18 */\n      swap1\n      pop\n        /* \"solidity_Lects/ChainLink.sol/Gas_Efficient.sol\":1394:1400  result */\n      dup1\n        /* \"solidity_Lects/ChainLink.sol/Gas_Efficient.sol\":1387:1400  return result */\n      swap2\n      pop\n      pop\n        /* \"solidity_Lects/ChainLink.sol/Gas_Efficient.sol\":1262:1408  function conversion(uint eth_amt) public view returns(uint){... */\n      swap2\n      swap1\n      pop\n      jump\t// out\n        /* \"solidity_Lects/ChainLink.sol/Gas_Efficient.sol\":697:729  address[] public Sender_contract */\n    tag_21:\n      0x00\n      dup2\n      dup2\n      sload\n      dup2\n      lt\n      tag_47\n      jumpi\n      0x00\n      dup1\n      revert\n    tag_47:\n      swap1\n      0x00\n      mstore\n      keccak256(0x00, 0x20)\n      add\n      0x00\n      swap2\n      pop\n      sload\n      swap1\n      0x0100\n      exp\n      swap1\n      div\n      0xffffffffffffffffffffffffffffffffffffffff\n      and\n      dup2\n      jump\t// out\n        /* \"solidity_Lects/ChainLink.sol/Gas_Efficient.sol\":915:1254  function fetch_price() public view returns(uint) {... */\n    tag_26:\n        /* \"solidity_Lects/ChainLink.sol/Gas_Efficient.sol\":958:962  uint */\n      0x00\n        /* \"solidity_Lects/ChainLink.sol/Gas_Efficient.sol\":1054:1085  AggregatorV3Interface priceFeed */\n      0x00\n        /* \"solidity_Lects/ChainLink.sol/Gas_Efficient.sol\":1110:1152  0x694AA1769357215DE4FAC081bf1f309aDC325306 */\n      0x694aa1769357215de4fac081bf1f309adc325306\n        /* \"solidity_Lects/ChainLink.sol/Gas_Efficient.sol\":1054:1153  AggregatorV3Interface priceFeed = AggregatorV3Interface(0x694AA1769357215DE4FAC081bf1f309aDC325306) */\n      swap1\n      pop\n        /* \"solidity_Lects/ChainLink.sol/Gas_Efficient.sol\":1167:1176  int price */\n      0x00\n        /* \"solidity_Lects/ChainLink.sol/Gas_Efficient.sol\":1183:1192  priceFeed */\n      dup2\n        /* \"solidity_Lects/ChainLink.sol/Gas_Efficient.sol\":1183:1208  priceFeed.latestRoundData */\n      0xffffffffffffffffffffffffffffffffffffffff\n      and\n      0xfeaf968c\n        /* \"solidity_Lects/ChainLink.sol/Gas_Efficient.sol\":1183:1210  priceFeed.latestRoundData() */\n      mload(0x40)\n      dup2\n      0xffffffff\n      and\n      0xe0\n      shl\n      dup2\n      mstore\n      0x04\n      add\n      0xa0\n      mload(0x40)\n      dup1\n      dup4\n      sub\n      dup2\n      dup7\n      gas\n      staticcall\n      iszero\n      dup1\n      iszero\n      tag_51\n      jumpi\n      returndatacopy(0x00, 0x00, returndatasize)\n      revert(0x00, returndatasize)\n    tag_51:\n      pop\n      pop\n      pop\n      pop\n      mload(0x40)\n      returndatasize\n      not(0x1f)\n      0x1f\n      dup3\n      add\n      and\n      dup3\n      add\n      dup1\n      0x40\n      mstore\n      pop\n      dup2\n      add\n      swap1\n      tag_52\n      swap2\n      swap1\n      tag_53\n      jump\t// in\n    tag_52:\n        /* \"solidity_Lects/ChainLink.sol/Gas_Efficient.sol\":1164:1210  (, int price,,,) = priceFeed.latestRoundData() */\n      pop\n      pop\n      pop\n      swap2\n      pop\n      pop\n        /* \"solidity_Lects/ChainLink.sol/Gas_Efficient.sol\":1241:1245  1e10 */\n      0x02540be400\n        /* \"solidity_Lects/ChainLink.sol/Gas_Efficient.sol\":1235:1240  price */\n      dup2\n        /* \"solidity_Lects/ChainLink.sol/Gas_Efficient.sol\":1235:1245  price*1e10 */\n      tag_54\n      swap2\n      swap1\n      tag_55\n      jump\t// in\n    tag_54:\n        /* \"solidity_Lects/ChainLink.sol/Gas_Efficient.sol\":1223:1246  return uint(price*1e10) */\n      swap3\n      pop\n      pop\n      pop\n        /* \"solidity_Lects/ChainLink.sol/Gas_Efficient.sol\":915:1254  function fetch_price() public view returns(uint) {... */\n      swap1\n      jump\t// out\n        /* \"#utility.yul\":88:205   */\n    tag_57:\n        /* \"#utility.yul\":197:198   */\n      0x00\n        /* \"#utility.yul\":194:195   */\n      0x00\n        /* \"#utility.yul\":187:199   */\n      revert\n        /* \"#utility.yul\":334:411   */\n    tag_59:\n        /* \"#utility.yul\":371:378   */\n      0x00\n        /* \"#utility.yul\":400:405   */\n      dup2\n        /* \"#utility.yul\":389:405   */\n      swap1\n      pop\n        /* \"#utility.yul\":334:411   */\n      swap2\n      swap1\n      pop\n      jump\t// out\n        /* \"#utility.yul\":417:539   */\n    tag_60:\n        /* \"#utility.yul\":490:514   */\n      tag_84\n        /* \"#utility.yul\":508:513   */\n      dup2\n        /* \"#utility.yul\":490:514   */\n      tag_59\n      jump\t// in\n    tag_84:\n        /* \"#utility.yul\":483:488   */\n      dup2\n        /* \"#utility.yul\":480:515   */\n      eq\n        /* \"#utility.yul\":470:533   */\n      tag_85\n      jumpi\n        /* \"#utility.yul\":529:530   */\n      0x00\n        /* \"#utility.yul\":526:527   */\n      0x00\n        /* \"#utility.yul\":519:531   */\n      revert\n        /* \"#utility.yul\":470:533   */\n    tag_85:\n        /* \"#utility.yul\":417:539   */\n      pop\n      jump\t// out\n        /* \"#utility.yul\":545:684   */\n    tag_61:\n        /* \"#utility.yul\":591:596   */\n      0x00\n        /* \"#utility.yul\":629:635   */\n      dup2\n        /* \"#utility.yul\":616:636   */\n      calldataload\n        /* \"#utility.yul\":607:636   */\n      swap1\n      pop\n        /* \"#utility.yul\":645:678   */\n      tag_87\n        /* \"#utility.yul\":672:677   */\n      dup2\n        /* \"#utility.yul\":645:678   */\n      tag_60\n      jump\t// in\n    tag_87:\n        /* \"#utility.yul\":545:684   */\n      swap3\n      swap2\n      pop\n      pop\n      jump\t// out\n        /* \"#utility.yul\":690:1019   */\n    tag_14:\n        /* \"#utility.yul\":749:755   */\n      0x00\n        /* \"#utility.yul\":798:800   */\n      0x20\n        /* \"#utility.yul\":786:795   */\n      dup3\n        /* \"#utility.yul\":777:784   */\n      dup5\n        /* \"#utility.yul\":773:796   */\n      sub\n        /* \"#utility.yul\":769:801   */\n      slt\n        /* \"#utility.yul\":766:885   */\n      iszero\n      tag_89\n      jumpi\n        /* \"#utility.yul\":804:883   */\n      tag_90\n      tag_57\n      jump\t// in\n    tag_90:\n        /* \"#utility.yul\":766:885   */\n    tag_89:\n        /* \"#utility.yul\":924:925   */\n      0x00\n        /* \"#utility.yul\":949:1002   */\n      tag_91\n        /* \"#utility.yul\":994:1001   */\n      dup5\n        /* \"#utility.yul\":985:991   */\n      dup3\n        /* \"#utility.yul\":974:983   */\n      dup6\n        /* \"#utility.yul\":970:992   */\n      add\n        /* \"#utility.yul\":949:1002   */\n      tag_61\n      jump\t// in\n    tag_91:\n        /* \"#utility.yul\":939:1002   */\n      swap2\n      pop\n        /* \"#utility.yul\":895:1012   */\n      pop\n        /* \"#utility.yul\":690:1019   */\n      swap3\n      swap2\n      pop\n      pop\n      jump\t// out\n        /* \"#utility.yul\":1025:1143   */\n    tag_62:\n        /* \"#utility.yul\":1112:1136   */\n      tag_93\n        /* \"#utility.yul\":1130:1135   */\n      dup2\n        /* \"#utility.yul\":1112:1136   */\n      tag_59\n      jump\t// in\n    tag_93:\n        /* \"#utility.yul\":1107:1110   */\n      dup3\n        /* \"#utility.yul\":1100:1137   */\n      mstore\n        /* \"#utility.yul\":1025:1143   */\n      pop\n      pop\n      jump\t// out\n        /* \"#utility.yul\":1149:1371   */\n    tag_17:\n        /* \"#utility.yul\":1242:1246   */\n      0x00\n        /* \"#utility.yul\":1280:1282   */\n      0x20\n        /* \"#utility.yul\":1269:1278   */\n      dup3\n        /* \"#utility.yul\":1265:1283   */\n      add\n        /* \"#utility.yul\":1257:1283   */\n      swap1\n      pop\n        /* \"#utility.yul\":1293:1364   */\n      tag_95\n        /* \"#utility.yul\":1361:1362   */\n      0x00\n        /* \"#utility.yul\":1350:1359   */\n      dup4\n        /* \"#utility.yul\":1346:1363   */\n      add\n        /* \"#utility.yul\":1337:1343   */\n      dup5\n        /* \"#utility.yul\":1293:1364   */\n      tag_62\n      jump\t// in\n    tag_95:\n        /* \"#utility.yul\":1149:1371   */\n      swap3\n      swap2\n      pop\n      pop\n      jump\t// out\n        /* \"#utility.yul\":1377:1503   */\n    tag_63:\n        /* \"#utility.yul\":1414:1421   */\n      0x00\n        /* \"#utility.yul\":1454:1496   */\n      0xffffffffffffffffffffffffffffffffffffffff\n        /* \"#utility.yul\":1447:1452   */\n      dup3\n        /* \"#utility.yul\":1443:1497   */\n      and\n        /* \"#utility.yul\":1432:1497   */\n      swap1\n      pop\n        /* \"#utility.yul\":1377:1503   */\n      swap2\n      swap1\n      pop\n      jump\t// out\n        /* \"#utility.yul\":1509:1605   */\n    tag_64:\n        /* \"#utility.yul\":1546:1553   */\n      0x00\n        /* \"#utility.yul\":1575:1599   */\n      tag_98\n        /* \"#utility.yul\":1593:1598   */\n      dup3\n        /* \"#utility.yul\":1575:1599   */\n      tag_63\n      jump\t// in\n    tag_98:\n        /* \"#utility.yul\":1564:1599   */\n      swap1\n      pop\n        /* \"#utility.yul\":1509:1605   */\n      swap2\n      swap1\n      pop\n      jump\t// out\n        /* \"#utility.yul\":1611:1729   */\n    tag_65:\n        /* \"#utility.yul\":1698:1722   */\n      tag_100\n        /* \"#utility.yul\":1716:1721   */\n      dup2\n        /* \"#utility.yul\":1698:1722   */\n      tag_64\n      jump\t// in\n    tag_100:\n        /* \"#utility.yul\":1693:1696   */\n      dup3\n        /* \"#utility.yul\":1686:1723   */\n      mstore\n        /* \"#utility.yul\":1611:1729   */\n      pop\n      pop\n      jump\t// out\n        /* \"#utility.yul\":1735:1957   */\n    tag_23:\n        /* \"#utility.yul\":1828:1832   */\n      0x00\n        /* \"#utility.yul\":1866:1868   */\n      0x20\n        /* \"#utility.yul\":1855:1864   */\n      dup3\n        /* \"#utility.yul\":1851:1869   */\n      add\n        /* \"#utility.yul\":1843:1869   */\n      swap1\n      pop\n        /* \"#utility.yul\":1879:1950   */\n      tag_102\n        /* \"#utility.yul\":1947:1948   */\n      0x00\n        /* \"#utility.yul\":1936:1945   */\n      dup4\n        /* \"#utility.yul\":1932:1949   */\n      add\n        /* \"#utility.yul\":1923:1929   */\n      dup5\n        /* \"#utility.yul\":1879:1950   */\n      tag_65\n      jump\t// in\n    tag_102:\n        /* \"#utility.yul\":1735:1957   */\n      swap3\n      swap2\n      pop\n      pop\n      jump\t// out\n        /* \"#utility.yul\":1963:2110   */\n    tag_66:\n        /* \"#utility.yul\":2064:2075   */\n      0x00\n        /* \"#utility.yul\":2101:2104   */\n      dup2\n        /* \"#utility.yul\":2086:2104   */\n      swap1\n      pop\n        /* \"#utility.yul\":1963:2110   */\n      swap3\n      swap2\n      pop\n      pop\n      jump\t// out\n        /* \"#utility.yul\":2116:2230   */\n    tag_67:\n      pop\n      jump\t// out\n        /* \"#utility.yul\":2236:2634   */\n    tag_68:\n        /* \"#utility.yul\":2395:2398   */\n      0x00\n        /* \"#utility.yul\":2416:2499   */\n      tag_106\n        /* \"#utility.yul\":2497:2498   */\n      0x00\n        /* \"#utility.yul\":2492:2495   */\n      dup4\n        /* \"#utility.yul\":2416:2499   */\n      tag_66\n      jump\t// in\n    tag_106:\n        /* \"#utility.yul\":2409:2499   */\n      swap2\n      pop\n        /* \"#utility.yul\":2508:2601   */\n      tag_107\n        /* \"#utility.yul\":2597:2600   */\n      dup3\n        /* \"#utility.yul\":2508:2601   */\n      tag_67\n      jump\t// in\n    tag_107:\n        /* \"#utility.yul\":2626:2627   */\n      0x00\n        /* \"#utility.yul\":2621:2624   */\n      dup3\n        /* \"#utility.yul\":2617:2628   */\n      add\n        /* \"#utility.yul\":2610:2628   */\n      swap1\n      pop\n        /* \"#utility.yul\":2236:2634   */\n      swap2\n      swap1\n      pop\n      jump\t// out\n        /* \"#utility.yul\":2640:3019   */\n    tag_32:\n        /* \"#utility.yul\":2824:2827   */\n      0x00\n        /* \"#utility.yul\":2846:2993   */\n      tag_109\n        /* \"#utility.yul\":2989:2992   */\n      dup3\n        /* \"#utility.yul\":2846:2993   */\n      tag_68\n      jump\t// in\n    tag_109:\n        /* \"#utility.yul\":2839:2993   */\n      swap2\n      pop\n        /* \"#utility.yul\":3010:3013   */\n      dup2\n        /* \"#utility.yul\":3003:3013   */\n      swap1\n      pop\n        /* \"#utility.yul\":2640:3019   */\n      swap2\n      swap1\n      pop\n      jump\t// out\n        /* \"#utility.yul\":3025:3205   */\n    tag_69:\n        /* \"#utility.yul\":3073:3150   */\n      0x4e487b7100000000000000000000000000000000000000000000000000000000\n        /* \"#utility.yul\":3070:3071   */\n      0x00\n        /* \"#utility.yul\":3063:3151   */\n      mstore\n        /* \"#utility.yul\":3170:3174   */\n      0x11\n        /* \"#utility.yul\":3167:3168   */\n      0x04\n        /* \"#utility.yul\":3160:3175   */\n      mstore\n        /* \"#utility.yul\":3194:3198   */\n      0x24\n        /* \"#utility.yul\":3191:3192   */\n      0x00\n        /* \"#utility.yul\":3184:3199   */\n      revert\n        /* \"#utility.yul\":3211:3621   */\n    tag_44:\n        /* \"#utility.yul\":3251:3258   */\n      0x00\n        /* \"#utility.yul\":3274:3294   */\n      tag_112\n        /* \"#utility.yul\":3292:3293   */\n      dup3\n        /* \"#utility.yul\":3274:3294   */\n      tag_59\n      jump\t// in\n    tag_112:\n        /* \"#utility.yul\":3269:3294   */\n      swap2\n      pop\n        /* \"#utility.yul\":3308:3328   */\n      tag_113\n        /* \"#utility.yul\":3326:3327   */\n      dup4\n        /* \"#utility.yul\":3308:3328   */\n      tag_59\n      jump\t// in\n    tag_113:\n        /* \"#utility.yul\":3303:3328   */\n      swap3\n      pop\n        /* \"#utility.yul\":3363:3364   */\n      dup3\n        /* \"#utility.yul\":3360:3361   */\n      dup3\n        /* \"#utility.yul\":3356:3365   */\n      mul\n        /* \"#utility.yul\":3385:3415   */\n      tag_114\n        /* \"#utility.yul\":3403:3414   */\n      dup2\n        /* \"#utility.yul\":3385:3415   */\n      tag_59\n      jump\t// in\n    tag_114:\n        /* \"#utility.yul\":3374:3415   */\n      swap2\n      pop\n        /* \"#utility.yul\":3564:3565   */\n      dup3\n        /* \"#utility.yul\":3555:3562   */\n      dup3\n        /* \"#utility.yul\":3551:3566   */\n      div\n        /* \"#utility.yul\":3548:3549   */\n      dup5\n        /* \"#utility.yul\":3545:3567   */\n      eq\n        /* \"#utility.yul\":3525:3526   */\n      dup4\n        /* \"#utility.yul\":3518:3527   */\n      iszero\n        /* \"#utility.yul\":3498:3581   */\n      or\n        /* \"#utility.yul\":3475:3614   */\n      tag_115\n      jumpi\n        /* \"#utility.yul\":3594:3612   */\n      tag_116\n      tag_69\n      jump\t// in\n    tag_116:\n        /* \"#utility.yul\":3475:3614   */\n    tag_115:\n        /* \"#utility.yul\":3259:3621   */\n      pop\n        /* \"#utility.yul\":3211:3621   */\n      swap3\n      swap2\n      pop\n      pop\n      jump\t// out\n        /* \"#utility.yul\":3627:3807   */\n    tag_70:\n        /* \"#utility.yul\":3675:3752   */\n      0x4e487b7100000000000000000000000000000000000000000000000000000000\n        /* \"#utility.yul\":3672:3673   */\n      0x00\n        /* \"#utility.yul\":3665:3753   */\n      mstore\n        /* \"#utility.yul\":3772:3776   */\n      0x12\n        /* \"#utility.yul\":3769:3770   */\n      0x04\n        /* \"#utility.yul\":3762:3777   */\n      mstore\n        /* \"#utility.yul\":3796:3800   */\n      0x24\n        /* \"#utility.yul\":3793:3794   */\n      0x00\n        /* \"#utility.yul\":3786:3801   */\n      revert\n        /* \"#utility.yul\":3813:3998   */\n    tag_46:\n        /* \"#utility.yul\":3853:3854   */\n      0x00\n        /* \"#utility.yul\":3870:3890   */\n      tag_119\n        /* \"#utility.yul\":3888:3889   */\n      dup3\n        /* \"#utility.yul\":3870:3890   */\n      tag_59\n      jump\t// in\n    tag_119:\n        /* \"#utility.yul\":3865:3890   */\n      swap2\n      pop\n        /* \"#utility.yul\":3904:3924   */\n      tag_120\n        /* \"#utility.yul\":3922:3923   */\n      dup4\n        /* \"#utility.yul\":3904:3924   */\n      tag_59\n      jump\t// in\n    tag_120:\n        /* \"#utility.yul\":3899:3924   */\n      swap3\n      pop\n        /* \"#utility.yul\":3943:3944   */\n      dup3\n        /* \"#utility.yul\":3933:3968   */\n      tag_121\n      jumpi\n        /* \"#utility.yul\":3948:3966   */\n      tag_122\n      tag_70\n      jump\t// in\n    tag_122:\n        /* \"#utility.yul\":3933:3968   */\n    tag_121:\n        /* \"#utility.yul\":3990:3991   */\n      dup3\n        /* \"#utility.yul\":3987:3988   */\n      dup3\n        /* \"#utility.yul\":3983:3992   */\n      div\n        /* \"#utility.yul\":3978:3992   */\n      swap1\n      pop\n        /* \"#utility.yul\":3813:3998   */\n      swap3\n      swap2\n      pop\n      pop\n      jump\t// out\n        /* \"#utility.yul\":4004:4109   */\n    tag_71:\n        /* \"#utility.yul\":4040:4047   */\n      0x00\n        /* \"#utility.yul\":4080:4102   */\n      0xffffffffffffffffffff\n        /* \"#utility.yul\":4073:4078   */\n      dup3\n        /* \"#utility.yul\":4069:4103   */\n      and\n        /* \"#utility.yul\":4058:4103   */\n      swap1\n      pop\n        /* \"#utility.yul\":4004:4109   */\n      swap2\n      swap1\n      pop\n      jump\t// out\n        /* \"#utility.yul\":4115:4235   */\n    tag_72:\n        /* \"#utility.yul\":4187:4210   */\n      tag_125\n        /* \"#utility.yul\":4204:4209   */\n      dup2\n        /* \"#utility.yul\":4187:4210   */\n      tag_71\n      jump\t// in\n    tag_125:\n        /* \"#utility.yul\":4180:4185   */\n      dup2\n        /* \"#utility.yul\":4177:4211   */\n      eq\n        /* \"#utility.yul\":4167:4229   */\n      tag_126\n      jumpi\n        /* \"#utility.yul\":4225:4226   */\n      0x00\n        /* \"#utility.yul\":4222:4223   */\n      0x00\n        /* \"#utility.yul\":4215:4227   */\n      revert\n        /* \"#utility.yul\":4167:4229   */\n    tag_126:\n        /* \"#utility.yul\":4115:4235   */\n      pop\n      jump\t// out\n        /* \"#utility.yul\":4241:4382   */\n    tag_73:\n        /* \"#utility.yul\":4297:4302   */\n      0x00\n        /* \"#utility.yul\":4328:4334   */\n      dup2\n        /* \"#utility.yul\":4322:4335   */\n      mload\n        /* \"#utility.yul\":4313:4335   */\n      swap1\n      pop\n        /* \"#utility.yul\":4344:4376   */\n      tag_128\n        /* \"#utility.yul\":4370:4375   */\n      dup2\n        /* \"#utility.yul\":4344:4376   */\n      tag_72\n      jump\t// in\n    tag_128:\n        /* \"#utility.yul\":4241:4382   */\n      swap3\n      swap2\n      pop\n      pop\n      jump\t// out\n        /* \"#utility.yul\":4388:4464   */\n    tag_74:\n        /* \"#utility.yul\":4424:4431   */\n      0x00\n        /* \"#utility.yul\":4453:4458   */\n      dup2\n        /* \"#utility.yul\":4442:4458   */\n      swap1\n      pop\n        /* \"#utility.yul\":4388:4464   */\n      swap2\n      swap1\n      pop\n      jump\t// out\n        /* \"#utility.yul\":4470:4590   */\n    tag_75:\n        /* \"#utility.yul\":4542:4565   */\n      tag_131\n        /* \"#utility.yul\":4559:4564   */\n      dup2\n        /* \"#utility.yul\":4542:4565   */\n      tag_74\n      jump\t// in\n    tag_131:\n        /* \"#utility.yul\":4535:4540   */\n      dup2\n        /* \"#utility.yul\":4532:4566   */\n      eq\n        /* \"#utility.yul\":4522:4584   */\n      tag_132\n      jumpi\n        /* \"#utility.yul\":4580:4581   */\n      0x00\n        /* \"#utility.yul\":4577:4578   */\n      0x00\n        /* \"#utility.yul\":4570:4582   */\n      revert\n        /* \"#utility.yul\":4522:4584   */\n    tag_132:\n        /* \"#utility.yul\":4470:4590   */\n      pop\n      jump\t// out\n        /* \"#utility.yul\":4596:4737   */\n    tag_76:\n        /* \"#utility.yul\":4652:4657   */\n      0x00\n        /* \"#utility.yul\":4683:4689   */\n      dup2\n        /* \"#utility.yul\":4677:4690   */\n      mload\n        /* \"#utility.yul\":4668:4690   */\n      swap1\n      pop\n        /* \"#utility.yul\":4699:4731   */\n      tag_134\n        /* \"#utility.yul\":4725:4730   */\n      dup2\n        /* \"#utility.yul\":4699:4731   */\n      tag_75\n      jump\t// in\n    tag_134:\n        /* \"#utility.yul\":4596:4737   */\n      swap3\n      swap2\n      pop\n      pop\n      jump\t// out\n        /* \"#utility.yul\":4743:4886   */\n    tag_77:\n        /* \"#utility.yul\":4800:4805   */\n      0x00\n        /* \"#utility.yul\":4831:4837   */\n      dup2\n        /* \"#utility.yul\":4825:4838   */\n      mload\n        /* \"#utility.yul\":4816:4838   */\n      swap1\n      pop\n        /* \"#utility.yul\":4847:4880   */\n      tag_136\n        /* \"#utility.yul\":4874:4879   */\n      dup2\n        /* \"#utility.yul\":4847:4880   */\n      tag_60\n      jump\t// in\n    tag_136:\n        /* \"#utility.yul\":4743:4886   */\n      swap3\n      swap2\n      pop\n      pop\n      jump\t// out\n        /* \"#utility.yul\":4892:5863   */\n    tag_53:\n        /* \"#utility.yul\":4995:5001   */\n      0x00\n        /* \"#utility.yul\":5003:5009   */\n      0x00\n        /* \"#utility.yul\":5011:5017   */\n      0x00\n        /* \"#utility.yul\":5019:5025   */\n      0x00\n        /* \"#utility.yul\":5027:5033   */\n      0x00\n        /* \"#utility.yul\":5076:5079   */\n      0xa0\n        /* \"#utility.yul\":5064:5073   */\n      dup7\n        /* \"#utility.yul\":5055:5062   */\n      dup9\n        /* \"#utility.yul\":5051:5074   */\n      sub\n        /* \"#utility.yul\":5047:5080   */\n      slt\n        /* \"#utility.yul\":5044:5164   */\n      iszero\n      tag_138\n      jumpi\n        /* \"#utility.yul\":5083:5162   */\n      tag_139\n      tag_57\n      jump\t// in\n    tag_139:\n        /* \"#utility.yul\":5044:5164   */\n    tag_138:\n        /* \"#utility.yul\":5203:5204   */\n      0x00\n        /* \"#utility.yul\":5228:5291   */\n      tag_140\n        /* \"#utility.yul\":5283:5290   */\n      dup9\n        /* \"#utility.yul\":5274:5280   */\n      dup3\n        /* \"#utility.yul\":5263:5272   */\n      dup10\n        /* \"#utility.yul\":5259:5281   */\n      add\n        /* \"#utility.yul\":5228:5291   */\n      tag_73\n      jump\t// in\n    tag_140:\n        /* \"#utility.yul\":5218:5291   */\n      swap6\n      pop\n        /* \"#utility.yul\":5174:5301   */\n      pop\n        /* \"#utility.yul\":5340:5342   */\n      0x20\n        /* \"#utility.yul\":5366:5429   */\n      tag_141\n        /* \"#utility.yul\":5421:5428   */\n      dup9\n        /* \"#utility.yul\":5412:5418   */\n      dup3\n        /* \"#utility.yul\":5401:5410   */\n      dup10\n        /* \"#utility.yul\":5397:5419   */\n      add\n        /* \"#utility.yul\":5366:5429   */\n      tag_76\n      jump\t// in\n    tag_141:\n        /* \"#utility.yul\":5356:5429   */\n      swap5\n      pop\n        /* \"#utility.yul\":5311:5439   */\n      pop\n        /* \"#utility.yul\":5478:5480   */\n      0x40\n        /* \"#utility.yul\":5504:5568   */\n      tag_142\n        /* \"#utility.yul\":5560:5567   */\n      dup9\n        /* \"#utility.yul\":5551:5557   */\n      dup3\n        /* \"#utility.yul\":5540:5549   */\n      dup10\n        /* \"#utility.yul\":5536:5558   */\n      add\n        /* \"#utility.yul\":5504:5568   */\n      tag_77\n      jump\t// in\n    tag_142:\n        /* \"#utility.yul\":5494:5568   */\n      swap4\n      pop\n        /* \"#utility.yul\":5449:5578   */\n      pop\n        /* \"#utility.yul\":5617:5619   */\n      0x60\n        /* \"#utility.yul\":5643:5707   */\n      tag_143\n        /* \"#utility.yul\":5699:5706   */\n      dup9\n        /* \"#utility.yul\":5690:5696   */\n      dup3\n        /* \"#utility.yul\":5679:5688   */\n      dup10\n        /* \"#utility.yul\":5675:5697   */\n      add\n        /* \"#utility.yul\":5643:5707   */\n      tag_77\n      jump\t// in\n    tag_143:\n        /* \"#utility.yul\":5633:5707   */\n      swap3\n      pop\n        /* \"#utility.yul\":5588:5717   */\n      pop\n        /* \"#utility.yul\":5756:5759   */\n      0x80\n        /* \"#utility.yul\":5783:5846   */\n      tag_144\n        /* \"#utility.yul\":5838:5845   */\n      dup9\n        /* \"#utility.yul\":5829:5835   */\n      dup3\n        /* \"#utility.yul\":5818:5827   */\n      dup10\n        /* \"#utility.yul\":5814:5836   */\n      add\n        /* \"#utility.yul\":5783:5846   */\n      tag_73\n      jump\t// in\n    tag_144:\n        /* \"#utility.yul\":5773:5846   */\n      swap2\n      pop\n        /* \"#utility.yul\":5727:5856   */\n      pop\n        /* \"#utility.yul\":4892:5863   */\n      swap3\n      swap6\n      pop\n      swap3\n      swap6\n      swap1\n      swap4\n      pop\n      jump\t// out\n        /* \"#utility.yul\":5869:6425   */\n    tag_55:\n        /* \"#utility.yul\":5908:5915   */\n      0x00\n        /* \"#utility.yul\":5931:5950   */\n      tag_146\n        /* \"#utility.yul\":5948:5949   */\n      dup3\n        /* \"#utility.yul\":5931:5950   */\n      tag_74\n      jump\t// in\n    tag_146:\n        /* \"#utility.yul\":5926:5950   */\n      swap2\n      pop\n        /* \"#utility.yul\":5964:5983   */\n      tag_147\n        /* \"#utility.yul\":5981:5982   */\n      dup4\n        /* \"#utility.yul\":5964:5983   */\n      tag_74\n      jump\t// in\n    tag_147:\n        /* \"#utility.yul\":5959:5983   */\n      swap3\n      pop\n        /* \"#utility.yul\":6018:6019   */\n      dup3\n        /* \"#utility.yul\":6015:6016   */\n      dup3\n        /* \"#utility.yul\":6011:6020   */\n      mul\n        /* \"#utility.yul\":6040:6069   */\n      tag_148\n        /* \"#utility.yul\":6057:6068   */\n      dup2\n        /* \"#utility.yul\":6040:6069   */\n      tag_74\n      jump\t// in\n    tag_148:\n        /* \"#utility.yul\":6029:6069   */\n      swap2\n      pop\n        /* \"#utility.yul\":6127:6193   */\n      0x8000000000000000000000000000000000000000000000000000000000000000\n        /* \"#utility.yul\":6124:6125   */\n      dup5\n        /* \"#utility.yul\":6121:6194   */\n      eq\n        /* \"#utility.yul\":6117:6118   */\n      0x00\n        /* \"#utility.yul\":6114:6115   */\n      dup5\n        /* \"#utility.yul\":6110:6119   */\n      slt\n        /* \"#utility.yul\":6106:6195   */\n      and\n        /* \"#utility.yul\":6103:6218   */\n      iszero\n      tag_149\n      jumpi\n        /* \"#utility.yul\":6198:6216   */\n      tag_150\n      tag_69\n      jump\t// in\n    tag_150:\n        /* \"#utility.yul\":6103:6218   */\n    tag_149:\n        /* \"#utility.yul\":6368:6369   */\n      dup3\n        /* \"#utility.yul\":6359:6366   */\n      dup3\n        /* \"#utility.yul\":6354:6370   */\n      sdiv\n        /* \"#utility.yul\":6351:6352   */\n      dup5\n        /* \"#utility.yul\":6348:6371   */\n      eq\n        /* \"#utility.yul\":6328:6329   */\n      dup4\n        /* \"#utility.yul\":6321:6330   */\n      iszero\n        /* \"#utility.yul\":6301:6385   */\n      or\n        /* \"#utility.yul\":6278:6418   */\n      tag_151\n      jumpi\n        /* \"#utility.yul\":6398:6416   */\n      tag_152\n      tag_69\n      jump\t// in\n    tag_152:\n        /* \"#utility.yul\":6278:6418   */\n    tag_151:\n        /* \"#utility.yul\":5916:6425   */\n      pop\n        /* \"#utility.yul\":5869:6425   */\n      swap3\n      swap2\n      pop\n      pop\n      jump\t// out\n\n    auxdata: 0xa264697066735822122063035950749fb736b3bddd1525f4ff87bd85af99b175ea90bb3541e9a213fdb664736f6c634300081e0033\n}\n",
				"bytecode": {
					"linkReferences": {},
					"object": "60a0604052348015600e575f5ffd5b503373ffffffffffffffffffffffffffffffffffffffff1660808173ffffffffffffffffffffffffffffffffffffffff168152505060805161078561005b5f395f61010501526107855ff3fe608060405260043610610049575f3560e01c80633ccfd60b1461004d5780635ccf4ee414610057578063ba4d0c9914610061578063be8cbce21461009d578063bfdc2298146100d9575b5f5ffd5b610055610103565b005b61005f610231565b005b34801561006c575f5ffd5b5061008760048036038101906100829190610425565b6102dc565b604051610094919061045f565b60405180910390f35b3480156100a8575f5ffd5b506100c360048036038101906100be9190610425565b61030f565b6040516100d091906104b7565b60405180910390f35b3480156100e4575f5ffd5b506100ed610349565b6040516100fa919061045f565b60405180910390f35b7f000000000000000000000000000000000000000000000000000000000000000073ffffffffffffffffffffffffffffffffffffffff163373ffffffffffffffffffffffffffffffffffffffff1614610188576040517f30cd747100000000000000000000000000000000000000000000000000000000815260040160405180910390fd5b5f3373ffffffffffffffffffffffffffffffffffffffff16476040516101ad906104fd565b5f6040518083038185875af1925050503d805f81146101e7576040519150601f19603f3d011682016040523d82523d5f602084013e6101ec565b606091505b50509050600115158115151461022e576040517f9874167500000000000000000000000000000000000000000000000000000000815260040160405180910390fd5b50565b670de0b6b3a7640000610243346102dc565b101561027b576040517fb5fd6a9c00000000000000000000000000000000000000000000000000000000815260040160405180910390fd5b5f33908060018154018082558091505060019003905f5260205f20015f9091909190916101000a81548173ffffffffffffffffffffffffffffffffffffffff021916908373ffffffffffffffffffffffffffffffffffffffff160217905550565b5f5f670de0b6b3a76400006102ef610349565b846102fa919061053e565b61030491906105ac565b905080915050919050565b5f818154811061031d575f80fd5b905f5260205f20015f915054906101000a900473ffffffffffffffffffffffffffffffffffffffff1681565b5f5f73694aa1769357215de4fac081bf1f309adc32530690505f8173ffffffffffffffffffffffffffffffffffffffff1663feaf968c6040518163ffffffff1660e01b815260040160a060405180830381865afa1580156103ac573d5f5f3e3d5ffd5b505050506040513d601f19601f820116820180604052508101906103d09190610662565b5050509150506402540be400816103e791906106d9565b9250505090565b5f5ffd5b5f819050919050565b610404816103f2565b811461040e575f5ffd5b50565b5f8135905061041f816103fb565b92915050565b5f6020828403121561043a576104396103ee565b5b5f61044784828501610411565b91505092915050565b610459816103f2565b82525050565b5f6020820190506104725f830184610450565b92915050565b5f73ffffffffffffffffffffffffffffffffffffffff82169050919050565b5f6104a182610478565b9050919050565b6104b181610497565b82525050565b5f6020820190506104ca5f8301846104a8565b92915050565b5f81905092915050565b50565b5f6104e85f836104d0565b91506104f3826104da565b5f82019050919050565b5f610507826104dd565b9150819050919050565b7f4e487b71000000000000000000000000000000000000000000000000000000005f52601160045260245ffd5b5f610548826103f2565b9150610553836103f2565b9250828202610561816103f2565b9150828204841483151761057857610577610511565b5b5092915050565b7f4e487b71000000000000000000000000000000000000000000000000000000005f52601260045260245ffd5b5f6105b6826103f2565b91506105c1836103f2565b9250826105d1576105d061057f565b5b828204905092915050565b5f69ffffffffffffffffffff82169050919050565b6105fa816105dc565b8114610604575f5ffd5b50565b5f81519050610615816105f1565b92915050565b5f819050919050565b61062d8161061b565b8114610637575f5ffd5b50565b5f8151905061064881610624565b92915050565b5f8151905061065c816103fb565b92915050565b5f5f5f5f5f60a0868803121561067b5761067a6103ee565b5b5f61068888828901610607565b95505060206106998882890161063a565b94505060406106aa8882890161064e565b93505060606106bb8882890161064e565b92505060806106cc88828901610607565b9150509295509295909350565b5f6106e38261061b565b91506106ee8361061b565b92508282026106fc8161061b565b91507f800000000000000000000000000000000000000000000000000000000000000084145f8412161561073357610732610511565b5b828205841483151761074857610747610511565b5b509291505056fea264697066735822122063035950749fb736b3bddd1525f4ff87bd85af99b175ea90bb3541e9a213fdb664736f6c634300081e0033",
					"opcodes": "PUSH1 0xA0 PUSH1 0x40 MSTORE CALLVALUE DUP1 ISZERO PUSH1 0xE JUMPI PUSH0 PUSH0 REVERT JUMPDEST POP CALLER PUSH20 0xFFFFFFFFFFFFFFFFFFFFFFFFFFFFFFFFFFFFFFFF AND PUSH1 0x80 DUP2 PUSH20 0xFFFFFFFFFFFFFFFFFFFFFFFFFFFFFFFFFFFFFFFF AND DUP2 MSTORE POP POP PUSH1 0x80 MLOAD PUSH2 0x785 PUSH2 0x5B PUSH0 CODECOPY PUSH0 PUSH2 0x105 ADD MSTORE PUSH2 0x785 PUSH0 RETURN INVALID PUSH1 0x80 PUSH1 0x40 MSTORE PUSH1 0x4 CALLDATASIZE LT PUSH2 0x49 JUMPI PUSH0 CALLDATALOAD PUSH1 0xE0 SHR DUP1 PUSH4 0x3CCFD60B EQ PUSH2 0x4D JUMPI DUP1 PUSH4 0x5CCF4EE4 EQ PUSH2 0x57 JUMPI DUP1 PUSH4 0xBA4D0C99 EQ PUSH2 0x61 JUMPI DUP1 PUSH4 0xBE8CBCE2 EQ PUSH2 0x9D JUMPI DUP1 PUSH4 0xBFDC2298 EQ PUSH2 0xD9 JUMPI JUMPDEST PUSH0 PUSH0 REVERT JUMPDEST PUSH2 0x55 PUSH2 0x103 JUMP JUMPDEST STOP JUMPDEST PUSH2 0x5F PUSH2 0x231 JUMP JUMPDEST STOP JUMPDEST CALLVALUE DUP1 ISZERO PUSH2 0x6C JUMPI PUSH0 PUSH0 REVERT JUMPDEST POP PUSH2 0x87 PUSH1 0x4 DUP1 CALLDATASIZE SUB DUP2 ADD SWAP1 PUSH2 0x82 SWAP2 SWAP1 PUSH2 0x425 JUMP JUMPDEST PUSH2 0x2DC JUMP JUMPDEST PUSH1 0x40 MLOAD PUSH2 0x94 SWAP2 SWAP1 PUSH2 0x45F JUMP JUMPDEST PUSH1 0x40 MLOAD DUP1 SWAP2 SUB SWAP1 RETURN JUMPDEST CALLVALUE DUP1 ISZERO PUSH2 0xA8 JUMPI PUSH0 PUSH0 REVERT JUMPDEST POP PUSH2 0xC3 PUSH1 0x4 DUP1 CALLDATASIZE SUB DUP2 ADD SWAP1 PUSH2 0xBE SWAP2 SWAP1 PUSH2 0x425 JUMP JUMPDEST PUSH2 0x30F JUMP JUMPDEST PUSH1 0x40 MLOAD PUSH2 0xD0 SWAP2 SWAP1 PUSH2 0x4B7 JUMP JUMPDEST PUSH1 0x40 MLOAD DUP1 SWAP2 SUB SWAP1 RETURN JUMPDEST CALLVALUE DUP1 ISZERO PUSH2 0xE4 JUMPI PUSH0 PUSH0 REVERT JUMPDEST POP PUSH2 0xED PUSH2 0x349 JUMP JUMPDEST PUSH1 0x40 MLOAD PUSH2 0xFA SWAP2 SWAP1 PUSH2 0x45F JUMP JUMPDEST PUSH1 0x40 MLOAD DUP1 SWAP2 SUB SWAP1 RETURN JUMPDEST PUSH32 0x0 PUSH20 0xFFFFFFFFFFFFFFFFFFFFFFFFFFFFFFFFFFFFFFFF AND CALLER PUSH20 0xFFFFFFFFFFFFFFFFFFFFFFFFFFFFFFFFFFFFFFFF AND EQ PUSH2 0x188 JUMPI PUSH1 0x40 MLOAD PUSH32 0x30CD747100000000000000000000000000000000000000000000000000000000 DUP2 MSTORE PUSH1 0x4 ADD PUSH1 0x40 MLOAD DUP1 SWAP2 SUB SWAP1 REVERT JUMPDEST PUSH0 CALLER PUSH20 0xFFFFFFFFFFFFFFFFFFFFFFFFFFFFFFFFFFFFFFFF AND SELFBALANCE PUSH1 0x40 MLOAD PUSH2 0x1AD SWAP1 PUSH2 0x4FD JUMP JUMPDEST PUSH0 PUSH1 0x40 MLOAD DUP1 DUP4 SUB DUP2 DUP6 DUP8 GAS CALL SWAP3 POP POP POP RETURNDATASIZE DUP1 PUSH0 DUP2 EQ PUSH2 0x1E7 JUMPI PUSH1 0x40 MLOAD SWAP2 POP PUSH1 0x1F NOT PUSH1 0x3F RETURNDATASIZE ADD AND DUP3 ADD PUSH1 0x40 MSTORE RETURNDATASIZE DUP3 MSTORE RETURNDATASIZE PUSH0 PUSH1 0x20 DUP5 ADD RETURNDATACOPY PUSH2 0x1EC JUMP JUMPDEST PUSH1 0x60 SWAP2 POP JUMPDEST POP POP SWAP1 POP PUSH1 0x1 ISZERO ISZERO DUP2 ISZERO ISZERO EQ PUSH2 0x22E JUMPI PUSH1 0x40 MLOAD PUSH32 0x9874167500000000000000000000000000000000000000000000000000000000 DUP2 MSTORE PUSH1 0x4 ADD PUSH1 0x40 MLOAD DUP1 SWAP2 SUB SWAP1 REVERT JUMPDEST POP JUMP JUMPDEST PUSH8 0xDE0B6B3A7640000 PUSH2 0x243 CALLVALUE PUSH2 0x2DC JUMP JUMPDEST LT ISZERO PUSH2 0x27B JUMPI PUSH1 0x40 MLOAD PUSH32 0xB5FD6A9C00000000000000000000000000000000000000000000000000000000 DUP2 MSTORE PUSH1 0x4 ADD PUSH1 0x40 MLOAD DUP1 SWAP2 SUB SWAP1 REVERT JUMPDEST PUSH0 CALLER SWAP1 DUP1 PUSH1 0x1 DUP2 SLOAD ADD DUP1 DUP3 SSTORE DUP1 SWAP2 POP POP PUSH1 0x1 SWAP1 SUB SWAP1 PUSH0 MSTORE PUSH1 0x20 PUSH0 KECCAK256 ADD PUSH0 SWAP1 SWAP2 SWAP1 SWAP2 SWAP1 SWAP2 PUSH2 0x100 EXP DUP2 SLOAD DUP2 PUSH20 0xFFFFFFFFFFFFFFFFFFFFFFFFFFFFFFFFFFFFFFFF MUL NOT AND SWAP1 DUP4 PUSH20 0xFFFFFFFFFFFFFFFFFFFFFFFFFFFFFFFFFFFFFFFF AND MUL OR SWAP1 SSTORE POP JUMP JUMPDEST PUSH0 PUSH0 PUSH8 0xDE0B6B3A7640000 PUSH2 0x2EF PUSH2 0x349 JUMP JUMPDEST DUP5 PUSH2 0x2FA SWAP2 SWAP1 PUSH2 0x53E JUMP JUMPDEST PUSH2 0x304 SWAP2 SWAP1 PUSH2 0x5AC JUMP JUMPDEST SWAP1 POP DUP1 SWAP2 POP POP SWAP2 SWAP1 POP JUMP JUMPDEST PUSH0 DUP2 DUP2 SLOAD DUP2 LT PUSH2 0x31D JUMPI PUSH0 DUP1 REVERT JUMPDEST SWAP1 PUSH0 MSTORE PUSH1 0x20 PUSH0 KECCAK256 ADD PUSH0 SWAP2 POP SLOAD SWAP1 PUSH2 0x100 EXP SWAP1 DIV PUSH20 0xFFFFFFFFFFFFFFFFFFFFFFFFFFFFFFFFFFFFFFFF AND DUP2 JUMP JUMPDEST PUSH0 PUSH0 PUSH20 0x694AA1769357215DE4FAC081BF1F309ADC325306 SWAP1 POP PUSH0 DUP2 PUSH20 0xFFFFFFFFFFFFFFFFFFFFFFFFFFFFFFFFFFFFFFFF AND PUSH4 0xFEAF968C PUSH1 0x40 MLOAD DUP2 PUSH4 0xFFFFFFFF AND PUSH1 0xE0 SHL DUP2 MSTORE PUSH1 0x4 ADD PUSH1 0xA0 PUSH1 0x40 MLOAD DUP1 DUP4 SUB DUP2 DUP7 GAS STATICCALL ISZERO DUP1 ISZERO PUSH2 0x3AC JUMPI RETURNDATASIZE PUSH0 PUSH0 RETURNDATACOPY RETURNDATASIZE PUSH0 REVERT JUMPDEST POP POP POP POP PUSH1 0x40 MLOAD RETURNDATASIZE PUSH1 0x1F NOT PUSH1 0x1F DUP3 ADD AND DUP3 ADD DUP1 PUSH1 0x40 MSTORE POP DUP2 ADD SWAP1 PUSH2 0x3D0 SWAP2 SWAP1 PUSH2 0x662 JUMP JUMPDEST POP POP POP SWAP2 POP POP PUSH5 0x2540BE400 DUP2 PUSH2 0x3E7 SWAP2 SWAP1 PUSH2 0x6D9 JUMP JUMPDEST SWAP3 POP POP POP SWAP1 JUMP JUMPDEST PUSH0 PUSH0 REVERT JUMPDEST PUSH0 DUP2 SWAP1 POP SWAP2 SWAP1 POP JUMP JUMPDEST PUSH2 0x404 DUP2 PUSH2 0x3F2 JUMP JUMPDEST DUP2 EQ PUSH2 0x40E JUMPI PUSH0 PUSH0 REVERT JUMPDEST POP JUMP JUMPDEST PUSH0 DUP2 CALLDATALOAD SWAP1 POP PUSH2 0x41F DUP2 PUSH2 0x3FB JUMP JUMPDEST SWAP3 SWAP2 POP POP JUMP JUMPDEST PUSH0 PUSH1 0x20 DUP3 DUP5 SUB SLT ISZERO PUSH2 0x43A JUMPI PUSH2 0x439 PUSH2 0x3EE JUMP JUMPDEST JUMPDEST PUSH0 PUSH2 0x447 DUP5 DUP3 DUP6 ADD PUSH2 0x411 JUMP JUMPDEST SWAP2 POP POP SWAP3 SWAP2 POP POP JUMP JUMPDEST PUSH2 0x459 DUP2 PUSH2 0x3F2 JUMP JUMPDEST DUP3 MSTORE POP POP JUMP JUMPDEST PUSH0 PUSH1 0x20 DUP3 ADD SWAP1 POP PUSH2 0x472 PUSH0 DUP4 ADD DUP5 PUSH2 0x450 JUMP JUMPDEST SWAP3 SWAP2 POP POP JUMP JUMPDEST PUSH0 PUSH20 0xFFFFFFFFFFFFFFFFFFFFFFFFFFFFFFFFFFFFFFFF DUP3 AND SWAP1 POP SWAP2 SWAP1 POP JUMP JUMPDEST PUSH0 PUSH2 0x4A1 DUP3 PUSH2 0x478 JUMP JUMPDEST SWAP1 POP SWAP2 SWAP1 POP JUMP JUMPDEST PUSH2 0x4B1 DUP2 PUSH2 0x497 JUMP JUMPDEST DUP3 MSTORE POP POP JUMP JUMPDEST PUSH0 PUSH1 0x20 DUP3 ADD SWAP1 POP PUSH2 0x4CA PUSH0 DUP4 ADD DUP5 PUSH2 0x4A8 JUMP JUMPDEST SWAP3 SWAP2 POP POP JUMP JUMPDEST PUSH0 DUP2 SWAP1 POP SWAP3 SWAP2 POP POP JUMP JUMPDEST POP JUMP JUMPDEST PUSH0 PUSH2 0x4E8 PUSH0 DUP4 PUSH2 0x4D0 JUMP JUMPDEST SWAP2 POP PUSH2 0x4F3 DUP3 PUSH2 0x4DA JUMP JUMPDEST PUSH0 DUP3 ADD SWAP1 POP SWAP2 SWAP1 POP JUMP JUMPDEST PUSH0 PUSH2 0x507 DUP3 PUSH2 0x4DD JUMP JUMPDEST SWAP2 POP DUP2 SWAP1 POP SWAP2 SWAP1 POP JUMP JUMPDEST PUSH32 0x4E487B7100000000000000000000000000000000000000000000000000000000 PUSH0 MSTORE PUSH1 0x11 PUSH1 0x4 MSTORE PUSH1 0x24 PUSH0 REVERT JUMPDEST PUSH0 PUSH2 0x548 DUP3 PUSH2 0x3F2 JUMP JUMPDEST SWAP2 POP PUSH2 0x553 DUP4 PUSH2 0x3F2 JUMP JUMPDEST SWAP3 POP DUP3 DUP3 MUL PUSH2 0x561 DUP2 PUSH2 0x3F2 JUMP JUMPDEST SWAP2 POP DUP3 DUP3 DIV DUP5 EQ DUP4 ISZERO OR PUSH2 0x578 JUMPI PUSH2 0x577 PUSH2 0x511 JUMP JUMPDEST JUMPDEST POP SWAP3 SWAP2 POP POP JUMP JUMPDEST PUSH32 0x4E487B7100000000000000000000000000000000000000000000000000000000 PUSH0 MSTORE PUSH1 0x12 PUSH1 0x4 MSTORE PUSH1 0x24 PUSH0 REVERT JUMPDEST PUSH0 PUSH2 0x5B6 DUP3 PUSH2 0x3F2 JUMP JUMPDEST SWAP2 POP PUSH2 0x5C1 DUP4 PUSH2 0x3F2 JUMP JUMPDEST SWAP3 POP DUP3 PUSH2 0x5D1 JUMPI PUSH2 0x5D0 PUSH2 0x57F JUMP JUMPDEST JUMPDEST DUP3 DUP3 DIV SWAP1 POP SWAP3 SWAP2 POP POP JUMP JUMPDEST PUSH0 PUSH10 0xFFFFFFFFFFFFFFFFFFFF DUP3 AND SWAP1 POP SWAP2 SWAP1 POP JUMP JUMPDEST PUSH2 0x5FA DUP2 PUSH2 0x5DC JUMP JUMPDEST DUP2 EQ PUSH2 0x604 JUMPI PUSH0 PUSH0 REVERT JUMPDEST POP JUMP JUMPDEST PUSH0 DUP2 MLOAD SWAP1 POP PUSH2 0x615 DUP2 PUSH2 0x5F1 JUMP JUMPDEST SWAP3 SWAP2 POP POP JUMP JUMPDEST PUSH0 DUP2 SWAP1 POP SWAP2 SWAP1 POP JUMP JUMPDEST PUSH2 0x62D DUP2 PUSH2 0x61B JUMP JUMPDEST DUP2 EQ PUSH2 0x637 JUMPI PUSH0 PUSH0 REVERT JUMPDEST POP JUMP JUMPDEST PUSH0 DUP2 MLOAD SWAP1 POP PUSH2 0x648 DUP2 PUSH2 0x624 JUMP JUMPDEST SWAP3 SWAP2 POP POP JUMP JUMPDEST PUSH0 DUP2 MLOAD SWAP1 POP PUSH2 0x65C DUP2 PUSH2 0x3FB JUMP JUMPDEST SWAP3 SWAP2 POP POP JUMP JUMPDEST PUSH0 PUSH0 PUSH0 PUSH0 PUSH0 PUSH1 0xA0 DUP7 DUP9 SUB SLT ISZERO PUSH2 0x67B JUMPI PUSH2 0x67A PUSH2 0x3EE JUMP JUMPDEST JUMPDEST PUSH0 PUSH2 0x688 DUP9 DUP3 DUP10 ADD PUSH2 0x607 JUMP JUMPDEST SWAP6 POP POP PUSH1 0x20 PUSH2 0x699 DUP9 DUP3 DUP10 ADD PUSH2 0x63A JUMP JUMPDEST SWAP5 POP POP PUSH1 0x40 PUSH2 0x6AA DUP9 DUP3 DUP10 ADD PUSH2 0x64E JUMP JUMPDEST SWAP4 POP POP PUSH1 0x60 PUSH2 0x6BB DUP9 DUP3 DUP10 ADD PUSH2 0x64E JUMP JUMPDEST SWAP3 POP POP PUSH1 0x80 PUSH2 0x6CC DUP9 DUP3 DUP10 ADD PUSH2 0x607 JUMP JUMPDEST SWAP2 POP POP SWAP3 SWAP6 POP SWAP3 SWAP6 SWAP1 SWAP4 POP JUMP JUMPDEST PUSH0 PUSH2 0x6E3 DUP3 PUSH2 0x61B JUMP JUMPDEST SWAP2 POP PUSH2 0x6EE DUP4 PUSH2 0x61B JUMP JUMPDEST SWAP3 POP DUP3 DUP3 MUL PUSH2 0x6FC DUP2 PUSH2 0x61B JUMP JUMPDEST SWAP2 POP PUSH32 0x8000000000000000000000000000000000000000000000000000000000000000 DUP5 EQ PUSH0 DUP5 SLT AND ISZERO PUSH2 0x733 JUMPI PUSH2 0x732 PUSH2 0x511 JUMP JUMPDEST JUMPDEST DUP3 DUP3 SDIV DUP5 EQ DUP4 ISZERO OR PUSH2 0x748 JUMPI PUSH2 0x747 PUSH2 0x511 JUMP JUMPDEST JUMPDEST POP SWAP3 SWAP2 POP POP JUMP INVALID LOG2 PUSH5 0x6970667358 0x22 SLT KECCAK256 PUSH4 0x3595074 SWAP16 0xB7 CALLDATASIZE 0xB3 0xBD 0xDD ISZERO 0x25 DELEGATECALL SELFDESTRUCT DUP8 0xBD DUP6 0xAF SWAP10 0xB1 PUSH22 0xEA90BB3541E9A213FDB664736F6C634300081E003300 "
				},
				"gasEstimates": {
					"creation": {
						"codeDepositCost": "385000",
						"executionCost": "infinite",
						"totalCost": "infinite"
					},
					"external": {
						"Sender_contract(uint256)": "4987",
						"conversion(uint256)": "infinite",
						"fetch_price()": "infinite",
						"get_fund()": "infinite",
						"withdraw()": "infinite"
					}
				},
				"methodIdentifiers": {
					"Sender_contract(uint256)": "be8cbce2",
					"conversion(uint256)": "ba4d0c99",
					"fetch_price()": "bfdc2298",
					"get_fund()": "5ccf4ee4",
					"withdraw()": "3ccfd60b"
				}
			},
			"storageLayout": {
				"storage": [
					{
						"astId": 58,
						"contract": "solidity_Lects/ChainLink.sol/Gas_Efficient.sol:fundMe",
						"label": "Sender_contract",
						"offset": 0,
						"slot": "0",
						"type": "t_array(t_address)dyn_storage"
					}
				],
				"types": {
					"t_address": {
						"encoding": "inplace",
						"label": "address",
						"numberOfBytes": "20"
					},
					"t_array(t_address)dyn_storage": {
						"base": "t_address",
						"encoding": "dynamic_array",
						"label": "address[]",
						"numberOfBytes": "32"
					}
				}
			},
			"userdoc": {
				"kind": "user",
				"methods": {},
				"version": 1
			}
		}
	}
}