{
	"solidity_Lects/ChainLink.sol/withdraw.sol": {
		"fundMe": {
			"abi": [
				{
					"inputs": [],
					"stateMutability": "nonpayable",
					"type": "constructor"
				},
				{
					"inputs": [
						{
							"internalType": "uint256",
							"name": "",
							"type": "uint256"
						}
					],
					"name": "Sender_contract",
					"outputs": [
						{
							"internalType": "address",
							"name": "",
							"type": "address"
						}
					],
					"stateMutability": "view",
					"type": "function"
				},
				{
					"inputs": [
						{
							"internalType": "uint256",
							"name": "eth_amt",
							"type": "uint256"
						}
					],
					"name": "conversion",
					"outputs": [
						{
							"internalType": "uint256",
							"name": "",
							"type": "uint256"
						}
					],
					"stateMutability": "view",
					"type": "function"
				},
				{
					"inputs": [],
					"name": "fetch_price",
					"outputs": [
						{
							"internalType": "uint256",
							"name": "",
							"type": "uint256"
						}
					],
					"stateMutability": "view",
					"type": "function"
				},
				{
					"inputs": [],
					"name": "get_fund",
					"outputs": [],
					"stateMutability": "payable",
					"type": "function"
				},
				{
					"inputs": [],
					"name": "withdraw",
					"outputs": [],
					"stateMutability": "payable",
					"type": "function"
				}
			],
			"devdoc": {
				"kind": "dev",
				"methods": {},
				"version": 1
			},
			"evm": {
				"assembly": "    /* \"solidity_Lects/ChainLink.sol/withdraw.sol\":176:1417  contract fundMe{... */\n  mstore(0x40, 0x80)\n    /* \"solidity_Lects/ChainLink.sol/withdraw.sol\":274:275  1 */\n  0x01\n    /* \"solidity_Lects/ChainLink.sol/withdraw.sol\":259:275  uint min_usd = 1 */\n  0x02\n  sstore\n    /* \"solidity_Lects/ChainLink.sol/withdraw.sol\":974:1024  constructor(){... */\n  callvalue\n  dup1\n  iszero\n  tag_1\n  jumpi\n  revert(0x00, 0x00)\ntag_1:\n  pop\n    /* \"solidity_Lects/ChainLink.sol/withdraw.sol\":1006:1016  msg.sender */\n  caller\n    /* \"solidity_Lects/ChainLink.sol/withdraw.sol\":998:1003  owner */\n  0x01\n  0x00\n    /* \"solidity_Lects/ChainLink.sol/withdraw.sol\":998:1016  owner = msg.sender */\n  0x0100\n  exp\n  dup2\n  sload\n  dup2\n  0xffffffffffffffffffffffffffffffffffffffff\n  mul\n  not\n  and\n  swap1\n  dup4\n  0xffffffffffffffffffffffffffffffffffffffff\n  and\n  mul\n  or\n  swap1\n  sstore\n  pop\n    /* \"solidity_Lects/ChainLink.sol/withdraw.sol\":176:1417  contract fundMe{... */\n  dataSize(sub_0)\n  dup1\n  dataOffset(sub_0)\n  0x00\n  codecopy\n  0x00\n  return\nstop\n\nsub_0: assembly {\n        /* \"solidity_Lects/ChainLink.sol/withdraw.sol\":176:1417  contract fundMe{... */\n      mstore(0x40, 0x80)\n      jumpi(tag_1, lt(calldatasize, 0x04))\n      shr(0xe0, calldataload(0x00))\n      dup1\n      0x3ccfd60b\n      eq\n      tag_2\n      jumpi\n      dup1\n      0x5ccf4ee4\n      eq\n      tag_3\n      jumpi\n      dup1\n      0xba4d0c99\n      eq\n      tag_4\n      jumpi\n      dup1\n      0xbe8cbce2\n      eq\n      tag_5\n      jumpi\n      dup1\n      0xbfdc2298\n      eq\n      tag_6\n      jumpi\n    tag_1:\n      revert(0x00, 0x00)\n        /* \"solidity_Lects/ChainLink.sol/withdraw.sol\":1130:1412  function withdraw() public payable onlyOwner{... */\n    tag_2:\n      tag_7\n      tag_8\n      jump\t// in\n    tag_7:\n      stop\n        /* \"solidity_Lects/ChainLink.sol/withdraw.sol\":808:966  function get_fund() public payable{... */\n    tag_3:\n      tag_9\n      tag_10\n      jump\t// in\n    tag_9:\n      stop\n        /* \"solidity_Lects/ChainLink.sol/withdraw.sol\":654:800  function conversion(uint eth_amt) public view returns(uint){... */\n    tag_4:\n      callvalue\n      dup1\n      iszero\n      tag_11\n      jumpi\n      revert(0x00, 0x00)\n    tag_11:\n      pop\n      tag_12\n      0x04\n      dup1\n      calldatasize\n      sub\n      dup2\n      add\n      swap1\n      tag_13\n      swap2\n      swap1\n      tag_14\n      jump\t// in\n    tag_13:\n      tag_15\n      jump\t// in\n    tag_12:\n      mload(0x40)\n      tag_16\n      swap2\n      swap1\n      tag_17\n      jump\t// in\n    tag_16:\n      mload(0x40)\n      dup1\n      swap2\n      sub\n      swap1\n      return\n        /* \"solidity_Lects/ChainLink.sol/withdraw.sol\":200:232  address[] public Sender_contract */\n    tag_5:\n      callvalue\n      dup1\n      iszero\n      tag_18\n      jumpi\n      revert(0x00, 0x00)\n    tag_18:\n      pop\n      tag_19\n      0x04\n      dup1\n      calldatasize\n      sub\n      dup2\n      add\n      swap1\n      tag_20\n      swap2\n      swap1\n      tag_14\n      jump\t// in\n    tag_20:\n      tag_21\n      jump\t// in\n    tag_19:\n      mload(0x40)\n      tag_22\n      swap2\n      swap1\n      tag_23\n      jump\t// in\n    tag_22:\n      mload(0x40)\n      dup1\n      swap2\n      sub\n      swap1\n      return\n        /* \"solidity_Lects/ChainLink.sol/withdraw.sol\":307:646  function fetch_price() public view returns(uint) {... */\n    tag_6:\n      callvalue\n      dup1\n      iszero\n      tag_24\n      jumpi\n      revert(0x00, 0x00)\n    tag_24:\n      pop\n      tag_25\n      tag_26\n      jump\t// in\n    tag_25:\n      mload(0x40)\n      tag_27\n      swap2\n      swap1\n      tag_17\n      jump\t// in\n    tag_27:\n      mload(0x40)\n      dup1\n      swap2\n      sub\n      swap1\n      return\n        /* \"solidity_Lects/ChainLink.sol/withdraw.sol\":1130:1412  function withdraw() public payable onlyOwner{... */\n    tag_8:\n        /* \"solidity_Lects/ChainLink.sol/withdraw.sol\":1083:1088  owner */\n      0x01\n      0x00\n      swap1\n      sload\n      swap1\n      0x0100\n      exp\n      swap1\n      div\n      0xffffffffffffffffffffffffffffffffffffffff\n      and\n        /* \"solidity_Lects/ChainLink.sol/withdraw.sol\":1069:1088  msg.sender == owner */\n      0xffffffffffffffffffffffffffffffffffffffff\n      and\n        /* \"solidity_Lects/ChainLink.sol/withdraw.sol\":1069:1079  msg.sender */\n      caller\n        /* \"solidity_Lects/ChainLink.sol/withdraw.sol\":1069:1088  msg.sender == owner */\n      0xffffffffffffffffffffffffffffffffffffffff\n      and\n      eq\n        /* \"solidity_Lects/ChainLink.sol/withdraw.sol\":1061:1102  require(msg.sender == owner, \"Not Owner\") */\n      tag_29\n      jumpi\n      mload(0x40)\n      0x08c379a000000000000000000000000000000000000000000000000000000000\n      dup2\n      mstore\n      0x04\n      add\n      tag_30\n      swap1\n      tag_31\n      jump\t// in\n    tag_30:\n      mload(0x40)\n      dup1\n      swap2\n      sub\n      swap1\n      revert\n    tag_29:\n        /* \"solidity_Lects/ChainLink.sol/withdraw.sol\":1293:1305  bool success */\n      0x00\n        /* \"solidity_Lects/ChainLink.sol/withdraw.sol\":1317:1327  msg.sender */\n      caller\n        /* \"solidity_Lects/ChainLink.sol/withdraw.sol\":1309:1333  payable(msg.sender).call */\n      0xffffffffffffffffffffffffffffffffffffffff\n      and\n        /* \"solidity_Lects/ChainLink.sol/withdraw.sol\":1341:1362  address(this).balance */\n      selfbalance\n        /* \"solidity_Lects/ChainLink.sol/withdraw.sol\":1309:1367  payable(msg.sender).call{value: address(this).balance}(\"\") */\n      mload(0x40)\n      tag_33\n      swap1\n      tag_34\n      jump\t// in\n    tag_33:\n      0x00\n      mload(0x40)\n      dup1\n      dup4\n      sub\n      dup2\n      dup6\n      dup8\n      gas\n      call\n      swap3\n      pop\n      pop\n      pop\n      returndatasize\n      dup1\n      0x00\n      dup2\n      eq\n      tag_37\n      jumpi\n      mload(0x40)\n      swap2\n      pop\n      and(add(returndatasize, 0x3f), not(0x1f))\n      dup3\n      add\n      0x40\n      mstore\n      returndatasize\n      dup3\n      mstore\n      returndatasize\n      0x00\n      0x20\n      dup5\n      add\n      returndatacopy\n      jump(tag_36)\n    tag_37:\n      0x60\n      swap2\n      pop\n    tag_36:\n      pop\n        /* \"solidity_Lects/ChainLink.sol/withdraw.sol\":1292:1367  (bool success,) =payable(msg.sender).call{value: address(this).balance}(\"\") */\n      pop\n      swap1\n      pop\n        /* \"solidity_Lects/ChainLink.sol/withdraw.sol\":1386:1393  success */\n      dup1\n        /* \"solidity_Lects/ChainLink.sol/withdraw.sol\":1378:1404  require(success, \"failed\") */\n      tag_38\n      jumpi\n      mload(0x40)\n      0x08c379a000000000000000000000000000000000000000000000000000000000\n      dup2\n      mstore\n      0x04\n      add\n      tag_39\n      swap1\n      tag_40\n      jump\t// in\n    tag_39:\n      mload(0x40)\n      dup1\n      swap2\n      sub\n      swap1\n      revert\n    tag_38:\n        /* \"solidity_Lects/ChainLink.sol/withdraw.sol\":1174:1412  {... */\n      pop\n        /* \"solidity_Lects/ChainLink.sol/withdraw.sol\":1130:1412  function withdraw() public payable onlyOwner{... */\n      jump\t// out\n        /* \"solidity_Lects/ChainLink.sol/withdraw.sol\":808:966  function get_fund() public payable{... */\n    tag_10:\n        /* \"solidity_Lects/ChainLink.sol/withdraw.sol\":874:893  conversion(min_usd) */\n      tag_42\n        /* \"solidity_Lects/ChainLink.sol/withdraw.sol\":885:892  min_usd */\n      sload(0x02)\n        /* \"solidity_Lects/ChainLink.sol/withdraw.sol\":874:884  conversion */\n      tag_15\n        /* \"solidity_Lects/ChainLink.sol/withdraw.sol\":874:893  conversion(min_usd) */\n      jump\t// in\n    tag_42:\n        /* \"solidity_Lects/ChainLink.sol/withdraw.sol\":861:870  msg.value */\n      callvalue\n        /* \"solidity_Lects/ChainLink.sol/withdraw.sol\":861:893  msg.value >= conversion(min_usd) */\n      lt\n      iszero\n        /* \"solidity_Lects/ChainLink.sol/withdraw.sol\":853:915  require(msg.value >= conversion(min_usd), \"Not enough emount\") */\n      tag_43\n      jumpi\n      mload(0x40)\n      0x08c379a000000000000000000000000000000000000000000000000000000000\n      dup2\n      mstore\n      0x04\n      add\n      tag_44\n      swap1\n      tag_45\n      jump\t// in\n    tag_44:\n      mload(0x40)\n      dup1\n      swap2\n      sub\n      swap1\n      revert\n    tag_43:\n        /* \"solidity_Lects/ChainLink.sol/withdraw.sol\":926:941  Sender_contract */\n      0x00\n        /* \"solidity_Lects/ChainLink.sol/withdraw.sol\":947:957  msg.sender */\n      caller\n        /* \"solidity_Lects/ChainLink.sol/withdraw.sol\":926:958  Sender_contract.push(msg.sender) */\n      swap1\n      dup1\n      0x01\n      dup2\n      sload\n      add\n      dup1\n      dup3\n      sstore\n      dup1\n      swap2\n      pop\n      pop\n      0x01\n      swap1\n      sub\n      swap1\n      0x00\n      mstore\n      keccak256(0x00, 0x20)\n      add\n      0x00\n      swap1\n      swap2\n      swap1\n      swap2\n      swap1\n      swap2\n      0x0100\n      exp\n      dup2\n      sload\n      dup2\n      0xffffffffffffffffffffffffffffffffffffffff\n      mul\n      not\n      and\n      swap1\n      dup4\n      0xffffffffffffffffffffffffffffffffffffffff\n      and\n      mul\n      or\n      swap1\n      sstore\n      pop\n        /* \"solidity_Lects/ChainLink.sol/withdraw.sol\":808:966  function get_fund() public payable{... */\n      jump\t// out\n        /* \"solidity_Lects/ChainLink.sol/withdraw.sol\":654:800  function conversion(uint eth_amt) public view returns(uint){... */\n    tag_15:\n        /* \"solidity_Lects/ChainLink.sol/withdraw.sol\":708:712  uint */\n      0x00\n        /* \"solidity_Lects/ChainLink.sol/withdraw.sol\":724:735  uint result */\n      0x00\n        /* \"solidity_Lects/ChainLink.sol/withdraw.sol\":764:768  1e18 */\n      0x0de0b6b3a7640000\n        /* \"solidity_Lects/ChainLink.sol/withdraw.sol\":749:762  fetch_price() */\n      tag_48\n        /* \"solidity_Lects/ChainLink.sol/withdraw.sol\":749:760  fetch_price */\n      tag_26\n        /* \"solidity_Lects/ChainLink.sol/withdraw.sol\":749:762  fetch_price() */\n      jump\t// in\n    tag_48:\n        /* \"solidity_Lects/ChainLink.sol/withdraw.sol\":739:746  eth_amt */\n      dup5\n        /* \"solidity_Lects/ChainLink.sol/withdraw.sol\":739:762  eth_amt * fetch_price() */\n      tag_49\n      swap2\n      swap1\n      tag_50\n      jump\t// in\n    tag_49:\n        /* \"solidity_Lects/ChainLink.sol/withdraw.sol\":738:768  (eth_amt * fetch_price())/1e18 */\n      tag_51\n      swap2\n      swap1\n      tag_52\n      jump\t// in\n    tag_51:\n        /* \"solidity_Lects/ChainLink.sol/withdraw.sol\":724:768  uint result = (eth_amt * fetch_price())/1e18 */\n      swap1\n      pop\n        /* \"solidity_Lects/ChainLink.sol/withdraw.sol\":786:792  result */\n      dup1\n        /* \"solidity_Lects/ChainLink.sol/withdraw.sol\":779:792  return result */\n      swap2\n      pop\n      pop\n        /* \"solidity_Lects/ChainLink.sol/withdraw.sol\":654:800  function conversion(uint eth_amt) public view returns(uint){... */\n      swap2\n      swap1\n      pop\n      jump\t// out\n        /* \"solidity_Lects/ChainLink.sol/withdraw.sol\":200:232  address[] public Sender_contract */\n    tag_21:\n      0x00\n      dup2\n      dup2\n      sload\n      dup2\n      lt\n      tag_53\n      jumpi\n      0x00\n      dup1\n      revert\n    tag_53:\n      swap1\n      0x00\n      mstore\n      keccak256(0x00, 0x20)\n      add\n      0x00\n      swap2\n      pop\n      sload\n      swap1\n      0x0100\n      exp\n      swap1\n      div\n      0xffffffffffffffffffffffffffffffffffffffff\n      and\n      dup2\n      jump\t// out\n        /* \"solidity_Lects/ChainLink.sol/withdraw.sol\":307:646  function fetch_price() public view returns(uint) {... */\n    tag_26:\n        /* \"solidity_Lects/ChainLink.sol/withdraw.sol\":350:354  uint */\n      0x00\n        /* \"solidity_Lects/ChainLink.sol/withdraw.sol\":446:477  AggregatorV3Interface priceFeed */\n      0x00\n        /* \"solidity_Lects/ChainLink.sol/withdraw.sol\":502:544  0x694AA1769357215DE4FAC081bf1f309aDC325306 */\n      0x694aa1769357215de4fac081bf1f309adc325306\n        /* \"solidity_Lects/ChainLink.sol/withdraw.sol\":446:545  AggregatorV3Interface priceFeed = AggregatorV3Interface(0x694AA1769357215DE4FAC081bf1f309aDC325306) */\n      swap1\n      pop\n        /* \"solidity_Lects/ChainLink.sol/withdraw.sol\":559:568  int price */\n      0x00\n        /* \"solidity_Lects/ChainLink.sol/withdraw.sol\":575:584  priceFeed */\n      dup2\n        /* \"solidity_Lects/ChainLink.sol/withdraw.sol\":575:600  priceFeed.latestRoundData */\n      0xffffffffffffffffffffffffffffffffffffffff\n      and\n      0xfeaf968c\n        /* \"solidity_Lects/ChainLink.sol/withdraw.sol\":575:602  priceFeed.latestRoundData() */\n      mload(0x40)\n      dup2\n      0xffffffff\n      and\n      0xe0\n      shl\n      dup2\n      mstore\n      0x04\n      add\n      0xa0\n      mload(0x40)\n      dup1\n      dup4\n      sub\n      dup2\n      dup7\n      gas\n      staticcall\n      iszero\n      dup1\n      iszero\n      tag_57\n      jumpi\n      returndatacopy(0x00, 0x00, returndatasize)\n      revert(0x00, returndatasize)\n    tag_57:\n      pop\n      pop\n      pop\n      pop\n      mload(0x40)\n      returndatasize\n      not(0x1f)\n      0x1f\n      dup3\n      add\n      and\n      dup3\n      add\n      dup1\n      0x40\n      mstore\n      pop\n      dup2\n      add\n      swap1\n      tag_58\n      swap2\n      swap1\n      tag_59\n      jump\t// in\n    tag_58:\n        /* \"solidity_Lects/ChainLink.sol/withdraw.sol\":556:602  (, int price,,,) = priceFeed.latestRoundData() */\n      pop\n      pop\n      pop\n      swap2\n      pop\n      pop\n        /* \"solidity_Lects/ChainLink.sol/withdraw.sol\":633:637  1e10 */\n      0x02540be400\n        /* \"solidity_Lects/ChainLink.sol/withdraw.sol\":627:632  price */\n      dup2\n        /* \"solidity_Lects/ChainLink.sol/withdraw.sol\":627:637  price*1e10 */\n      tag_60\n      swap2\n      swap1\n      tag_61\n      jump\t// in\n    tag_60:\n        /* \"solidity_Lects/ChainLink.sol/withdraw.sol\":615:638  return uint(price*1e10) */\n      swap3\n      pop\n      pop\n      pop\n        /* \"solidity_Lects/ChainLink.sol/withdraw.sol\":307:646  function fetch_price() public view returns(uint) {... */\n      swap1\n      jump\t// out\n        /* \"#utility.yul\":88:205   */\n    tag_63:\n        /* \"#utility.yul\":197:198   */\n      0x00\n        /* \"#utility.yul\":194:195   */\n      0x00\n        /* \"#utility.yul\":187:199   */\n      revert\n        /* \"#utility.yul\":334:411   */\n    tag_65:\n        /* \"#utility.yul\":371:378   */\n      0x00\n        /* \"#utility.yul\":400:405   */\n      dup2\n        /* \"#utility.yul\":389:405   */\n      swap1\n      pop\n        /* \"#utility.yul\":334:411   */\n      swap2\n      swap1\n      pop\n      jump\t// out\n        /* \"#utility.yul\":417:539   */\n    tag_66:\n        /* \"#utility.yul\":490:514   */\n      tag_97\n        /* \"#utility.yul\":508:513   */\n      dup2\n        /* \"#utility.yul\":490:514   */\n      tag_65\n      jump\t// in\n    tag_97:\n        /* \"#utility.yul\":483:488   */\n      dup2\n        /* \"#utility.yul\":480:515   */\n      eq\n        /* \"#utility.yul\":470:533   */\n      tag_98\n      jumpi\n        /* \"#utility.yul\":529:530   */\n      0x00\n        /* \"#utility.yul\":526:527   */\n      0x00\n        /* \"#utility.yul\":519:531   */\n      revert\n        /* \"#utility.yul\":470:533   */\n    tag_98:\n        /* \"#utility.yul\":417:539   */\n      pop\n      jump\t// out\n        /* \"#utility.yul\":545:684   */\n    tag_67:\n        /* \"#utility.yul\":591:596   */\n      0x00\n        /* \"#utility.yul\":629:635   */\n      dup2\n        /* \"#utility.yul\":616:636   */\n      calldataload\n        /* \"#utility.yul\":607:636   */\n      swap1\n      pop\n        /* \"#utility.yul\":645:678   */\n      tag_100\n        /* \"#utility.yul\":672:677   */\n      dup2\n        /* \"#utility.yul\":645:678   */\n      tag_66\n      jump\t// in\n    tag_100:\n        /* \"#utility.yul\":545:684   */\n      swap3\n      swap2\n      pop\n      pop\n      jump\t// out\n        /* \"#utility.yul\":690:1019   */\n    tag_14:\n        /* \"#utility.yul\":749:755   */\n      0x00\n        /* \"#utility.yul\":798:800   */\n      0x20\n        /* \"#utility.yul\":786:795   */\n      dup3\n        /* \"#utility.yul\":777:784   */\n      dup5\n        /* \"#utility.yul\":773:796   */\n      sub\n        /* \"#utility.yul\":769:801   */\n      slt\n        /* \"#utility.yul\":766:885   */\n      iszero\n      tag_102\n      jumpi\n        /* \"#utility.yul\":804:883   */\n      tag_103\n      tag_63\n      jump\t// in\n    tag_103:\n        /* \"#utility.yul\":766:885   */\n    tag_102:\n        /* \"#utility.yul\":924:925   */\n      0x00\n        /* \"#utility.yul\":949:1002   */\n      tag_104\n        /* \"#utility.yul\":994:1001   */\n      dup5\n        /* \"#utility.yul\":985:991   */\n      dup3\n        /* \"#utility.yul\":974:983   */\n      dup6\n        /* \"#utility.yul\":970:992   */\n      add\n        /* \"#utility.yul\":949:1002   */\n      tag_67\n      jump\t// in\n    tag_104:\n        /* \"#utility.yul\":939:1002   */\n      swap2\n      pop\n        /* \"#utility.yul\":895:1012   */\n      pop\n        /* \"#utility.yul\":690:1019   */\n      swap3\n      swap2\n      pop\n      pop\n      jump\t// out\n        /* \"#utility.yul\":1025:1143   */\n    tag_68:\n        /* \"#utility.yul\":1112:1136   */\n      tag_106\n        /* \"#utility.yul\":1130:1135   */\n      dup2\n        /* \"#utility.yul\":1112:1136   */\n      tag_65\n      jump\t// in\n    tag_106:\n        /* \"#utility.yul\":1107:1110   */\n      dup3\n        /* \"#utility.yul\":1100:1137   */\n      mstore\n        /* \"#utility.yul\":1025:1143   */\n      pop\n      pop\n      jump\t// out\n        /* \"#utility.yul\":1149:1371   */\n    tag_17:\n        /* \"#utility.yul\":1242:1246   */\n      0x00\n        /* \"#utility.yul\":1280:1282   */\n      0x20\n        /* \"#utility.yul\":1269:1278   */\n      dup3\n        /* \"#utility.yul\":1265:1283   */\n      add\n        /* \"#utility.yul\":1257:1283   */\n      swap1\n      pop\n        /* \"#utility.yul\":1293:1364   */\n      tag_108\n        /* \"#utility.yul\":1361:1362   */\n      0x00\n        /* \"#utility.yul\":1350:1359   */\n      dup4\n        /* \"#utility.yul\":1346:1363   */\n      add\n        /* \"#utility.yul\":1337:1343   */\n      dup5\n        /* \"#utility.yul\":1293:1364   */\n      tag_68\n      jump\t// in\n    tag_108:\n        /* \"#utility.yul\":1149:1371   */\n      swap3\n      swap2\n      pop\n      pop\n      jump\t// out\n        /* \"#utility.yul\":1377:1503   */\n    tag_69:\n        /* \"#utility.yul\":1414:1421   */\n      0x00\n        /* \"#utility.yul\":1454:1496   */\n      0xffffffffffffffffffffffffffffffffffffffff\n        /* \"#utility.yul\":1447:1452   */\n      dup3\n        /* \"#utility.yul\":1443:1497   */\n      and\n        /* \"#utility.yul\":1432:1497   */\n      swap1\n      pop\n        /* \"#utility.yul\":1377:1503   */\n      swap2\n      swap1\n      pop\n      jump\t// out\n        /* \"#utility.yul\":1509:1605   */\n    tag_70:\n        /* \"#utility.yul\":1546:1553   */\n      0x00\n        /* \"#utility.yul\":1575:1599   */\n      tag_111\n        /* \"#utility.yul\":1593:1598   */\n      dup3\n        /* \"#utility.yul\":1575:1599   */\n      tag_69\n      jump\t// in\n    tag_111:\n        /* \"#utility.yul\":1564:1599   */\n      swap1\n      pop\n        /* \"#utility.yul\":1509:1605   */\n      swap2\n      swap1\n      pop\n      jump\t// out\n        /* \"#utility.yul\":1611:1729   */\n    tag_71:\n        /* \"#utility.yul\":1698:1722   */\n      tag_113\n        /* \"#utility.yul\":1716:1721   */\n      dup2\n        /* \"#utility.yul\":1698:1722   */\n      tag_70\n      jump\t// in\n    tag_113:\n        /* \"#utility.yul\":1693:1696   */\n      dup3\n        /* \"#utility.yul\":1686:1723   */\n      mstore\n        /* \"#utility.yul\":1611:1729   */\n      pop\n      pop\n      jump\t// out\n        /* \"#utility.yul\":1735:1957   */\n    tag_23:\n        /* \"#utility.yul\":1828:1832   */\n      0x00\n        /* \"#utility.yul\":1866:1868   */\n      0x20\n        /* \"#utility.yul\":1855:1864   */\n      dup3\n        /* \"#utility.yul\":1851:1869   */\n      add\n        /* \"#utility.yul\":1843:1869   */\n      swap1\n      pop\n        /* \"#utility.yul\":1879:1950   */\n      tag_115\n        /* \"#utility.yul\":1947:1948   */\n      0x00\n        /* \"#utility.yul\":1936:1945   */\n      dup4\n        /* \"#utility.yul\":1932:1949   */\n      add\n        /* \"#utility.yul\":1923:1929   */\n      dup5\n        /* \"#utility.yul\":1879:1950   */\n      tag_71\n      jump\t// in\n    tag_115:\n        /* \"#utility.yul\":1735:1957   */\n      swap3\n      swap2\n      pop\n      pop\n      jump\t// out\n        /* \"#utility.yul\":1963:2132   */\n    tag_72:\n        /* \"#utility.yul\":2047:2058   */\n      0x00\n        /* \"#utility.yul\":2081:2087   */\n      dup3\n        /* \"#utility.yul\":2076:2079   */\n      dup3\n        /* \"#utility.yul\":2069:2088   */\n      mstore\n        /* \"#utility.yul\":2121:2125   */\n      0x20\n        /* \"#utility.yul\":2116:2119   */\n      dup3\n        /* \"#utility.yul\":2112:2126   */\n      add\n        /* \"#utility.yul\":2097:2126   */\n      swap1\n      pop\n        /* \"#utility.yul\":1963:2132   */\n      swap3\n      swap2\n      pop\n      pop\n      jump\t// out\n        /* \"#utility.yul\":2138:2297   */\n    tag_73:\n        /* \"#utility.yul\":2278:2289   */\n      0x4e6f74204f776e65720000000000000000000000000000000000000000000000\n        /* \"#utility.yul\":2274:2275   */\n      0x00\n        /* \"#utility.yul\":2266:2272   */\n      dup3\n        /* \"#utility.yul\":2262:2276   */\n      add\n        /* \"#utility.yul\":2255:2290   */\n      mstore\n        /* \"#utility.yul\":2138:2297   */\n      pop\n      jump\t// out\n        /* \"#utility.yul\":2303:2668   */\n    tag_74:\n        /* \"#utility.yul\":2445:2448   */\n      0x00\n        /* \"#utility.yul\":2466:2532   */\n      tag_119\n        /* \"#utility.yul\":2530:2531   */\n      0x09\n        /* \"#utility.yul\":2525:2528   */\n      dup4\n        /* \"#utility.yul\":2466:2532   */\n      tag_72\n      jump\t// in\n    tag_119:\n        /* \"#utility.yul\":2459:2532   */\n      swap2\n      pop\n        /* \"#utility.yul\":2541:2634   */\n      tag_120\n        /* \"#utility.yul\":2630:2633   */\n      dup3\n        /* \"#utility.yul\":2541:2634   */\n      tag_73\n      jump\t// in\n    tag_120:\n        /* \"#utility.yul\":2659:2661   */\n      0x20\n        /* \"#utility.yul\":2654:2657   */\n      dup3\n        /* \"#utility.yul\":2650:2662   */\n      add\n        /* \"#utility.yul\":2643:2662   */\n      swap1\n      pop\n        /* \"#utility.yul\":2303:2668   */\n      swap2\n      swap1\n      pop\n      jump\t// out\n        /* \"#utility.yul\":2674:3093   */\n    tag_31:\n        /* \"#utility.yul\":2840:2844   */\n      0x00\n        /* \"#utility.yul\":2878:2880   */\n      0x20\n        /* \"#utility.yul\":2867:2876   */\n      dup3\n        /* \"#utility.yul\":2863:2881   */\n      add\n        /* \"#utility.yul\":2855:2881   */\n      swap1\n      pop\n        /* \"#utility.yul\":2927:2936   */\n      dup2\n        /* \"#utility.yul\":2921:2925   */\n      dup2\n        /* \"#utility.yul\":2917:2937   */\n      sub\n        /* \"#utility.yul\":2913:2914   */\n      0x00\n        /* \"#utility.yul\":2902:2911   */\n      dup4\n        /* \"#utility.yul\":2898:2915   */\n      add\n        /* \"#utility.yul\":2891:2938   */\n      mstore\n        /* \"#utility.yul\":2955:3086   */\n      tag_122\n        /* \"#utility.yul\":3081:3085   */\n      dup2\n        /* \"#utility.yul\":2955:3086   */\n      tag_74\n      jump\t// in\n    tag_122:\n        /* \"#utility.yul\":2947:3086   */\n      swap1\n      pop\n        /* \"#utility.yul\":2674:3093   */\n      swap2\n      swap1\n      pop\n      jump\t// out\n        /* \"#utility.yul\":3099:3246   */\n    tag_75:\n        /* \"#utility.yul\":3200:3211   */\n      0x00\n        /* \"#utility.yul\":3237:3240   */\n      dup2\n        /* \"#utility.yul\":3222:3240   */\n      swap1\n      pop\n        /* \"#utility.yul\":3099:3246   */\n      swap3\n      swap2\n      pop\n      pop\n      jump\t// out\n        /* \"#utility.yul\":3252:3366   */\n    tag_76:\n      pop\n      jump\t// out\n        /* \"#utility.yul\":3372:3770   */\n    tag_77:\n        /* \"#utility.yul\":3531:3534   */\n      0x00\n        /* \"#utility.yul\":3552:3635   */\n      tag_126\n        /* \"#utility.yul\":3633:3634   */\n      0x00\n        /* \"#utility.yul\":3628:3631   */\n      dup4\n        /* \"#utility.yul\":3552:3635   */\n      tag_75\n      jump\t// in\n    tag_126:\n        /* \"#utility.yul\":3545:3635   */\n      swap2\n      pop\n        /* \"#utility.yul\":3644:3737   */\n      tag_127\n        /* \"#utility.yul\":3733:3736   */\n      dup3\n        /* \"#utility.yul\":3644:3737   */\n      tag_76\n      jump\t// in\n    tag_127:\n        /* \"#utility.yul\":3762:3763   */\n      0x00\n        /* \"#utility.yul\":3757:3760   */\n      dup3\n        /* \"#utility.yul\":3753:3764   */\n      add\n        /* \"#utility.yul\":3746:3764   */\n      swap1\n      pop\n        /* \"#utility.yul\":3372:3770   */\n      swap2\n      swap1\n      pop\n      jump\t// out\n        /* \"#utility.yul\":3776:4155   */\n    tag_34:\n        /* \"#utility.yul\":3960:3963   */\n      0x00\n        /* \"#utility.yul\":3982:4129   */\n      tag_129\n        /* \"#utility.yul\":4125:4128   */\n      dup3\n        /* \"#utility.yul\":3982:4129   */\n      tag_77\n      jump\t// in\n    tag_129:\n        /* \"#utility.yul\":3975:4129   */\n      swap2\n      pop\n        /* \"#utility.yul\":4146:4149   */\n      dup2\n        /* \"#utility.yul\":4139:4149   */\n      swap1\n      pop\n        /* \"#utility.yul\":3776:4155   */\n      swap2\n      swap1\n      pop\n      jump\t// out\n        /* \"#utility.yul\":4161:4317   */\n    tag_78:\n        /* \"#utility.yul\":4301:4309   */\n      0x6661696c65640000000000000000000000000000000000000000000000000000\n        /* \"#utility.yul\":4297:4298   */\n      0x00\n        /* \"#utility.yul\":4289:4295   */\n      dup3\n        /* \"#utility.yul\":4285:4299   */\n      add\n        /* \"#utility.yul\":4278:4310   */\n      mstore\n        /* \"#utility.yul\":4161:4317   */\n      pop\n      jump\t// out\n        /* \"#utility.yul\":4323:4688   */\n    tag_79:\n        /* \"#utility.yul\":4465:4468   */\n      0x00\n        /* \"#utility.yul\":4486:4552   */\n      tag_132\n        /* \"#utility.yul\":4550:4551   */\n      0x06\n        /* \"#utility.yul\":4545:4548   */\n      dup4\n        /* \"#utility.yul\":4486:4552   */\n      tag_72\n      jump\t// in\n    tag_132:\n        /* \"#utility.yul\":4479:4552   */\n      swap2\n      pop\n        /* \"#utility.yul\":4561:4654   */\n      tag_133\n        /* \"#utility.yul\":4650:4653   */\n      dup3\n        /* \"#utility.yul\":4561:4654   */\n      tag_78\n      jump\t// in\n    tag_133:\n        /* \"#utility.yul\":4679:4681   */\n      0x20\n        /* \"#utility.yul\":4674:4677   */\n      dup3\n        /* \"#utility.yul\":4670:4682   */\n      add\n        /* \"#utility.yul\":4663:4682   */\n      swap1\n      pop\n        /* \"#utility.yul\":4323:4688   */\n      swap2\n      swap1\n      pop\n      jump\t// out\n        /* \"#utility.yul\":4694:5113   */\n    tag_40:\n        /* \"#utility.yul\":4860:4864   */\n      0x00\n        /* \"#utility.yul\":4898:4900   */\n      0x20\n        /* \"#utility.yul\":4887:4896   */\n      dup3\n        /* \"#utility.yul\":4883:4901   */\n      add\n        /* \"#utility.yul\":4875:4901   */\n      swap1\n      pop\n        /* \"#utility.yul\":4947:4956   */\n      dup2\n        /* \"#utility.yul\":4941:4945   */\n      dup2\n        /* \"#utility.yul\":4937:4957   */\n      sub\n        /* \"#utility.yul\":4933:4934   */\n      0x00\n        /* \"#utility.yul\":4922:4931   */\n      dup4\n        /* \"#utility.yul\":4918:4935   */\n      add\n        /* \"#utility.yul\":4911:4958   */\n      mstore\n        /* \"#utility.yul\":4975:5106   */\n      tag_135\n        /* \"#utility.yul\":5101:5105   */\n      dup2\n        /* \"#utility.yul\":4975:5106   */\n      tag_79\n      jump\t// in\n    tag_135:\n        /* \"#utility.yul\":4967:5106   */\n      swap1\n      pop\n        /* \"#utility.yul\":4694:5113   */\n      swap2\n      swap1\n      pop\n      jump\t// out\n        /* \"#utility.yul\":5119:5286   */\n    tag_80:\n        /* \"#utility.yul\":5259:5278   */\n      0x4e6f7420656e6f75676820656d6f756e74000000000000000000000000000000\n        /* \"#utility.yul\":5255:5256   */\n      0x00\n        /* \"#utility.yul\":5247:5253   */\n      dup3\n        /* \"#utility.yul\":5243:5257   */\n      add\n        /* \"#utility.yul\":5236:5279   */\n      mstore\n        /* \"#utility.yul\":5119:5286   */\n      pop\n      jump\t// out\n        /* \"#utility.yul\":5292:5658   */\n    tag_81:\n        /* \"#utility.yul\":5434:5437   */\n      0x00\n        /* \"#utility.yul\":5455:5522   */\n      tag_138\n        /* \"#utility.yul\":5519:5521   */\n      0x11\n        /* \"#utility.yul\":5514:5517   */\n      dup4\n        /* \"#utility.yul\":5455:5522   */\n      tag_72\n      jump\t// in\n    tag_138:\n        /* \"#utility.yul\":5448:5522   */\n      swap2\n      pop\n        /* \"#utility.yul\":5531:5624   */\n      tag_139\n        /* \"#utility.yul\":5620:5623   */\n      dup3\n        /* \"#utility.yul\":5531:5624   */\n      tag_80\n      jump\t// in\n    tag_139:\n        /* \"#utility.yul\":5649:5651   */\n      0x20\n        /* \"#utility.yul\":5644:5647   */\n      dup3\n        /* \"#utility.yul\":5640:5652   */\n      add\n        /* \"#utility.yul\":5633:5652   */\n      swap1\n      pop\n        /* \"#utility.yul\":5292:5658   */\n      swap2\n      swap1\n      pop\n      jump\t// out\n        /* \"#utility.yul\":5664:6083   */\n    tag_45:\n        /* \"#utility.yul\":5830:5834   */\n      0x00\n        /* \"#utility.yul\":5868:5870   */\n      0x20\n        /* \"#utility.yul\":5857:5866   */\n      dup3\n        /* \"#utility.yul\":5853:5871   */\n      add\n        /* \"#utility.yul\":5845:5871   */\n      swap1\n      pop\n        /* \"#utility.yul\":5917:5926   */\n      dup2\n        /* \"#utility.yul\":5911:5915   */\n      dup2\n        /* \"#utility.yul\":5907:5927   */\n      sub\n        /* \"#utility.yul\":5903:5904   */\n      0x00\n        /* \"#utility.yul\":5892:5901   */\n      dup4\n        /* \"#utility.yul\":5888:5905   */\n      add\n        /* \"#utility.yul\":5881:5928   */\n      mstore\n        /* \"#utility.yul\":5945:6076   */\n      tag_141\n        /* \"#utility.yul\":6071:6075   */\n      dup2\n        /* \"#utility.yul\":5945:6076   */\n      tag_81\n      jump\t// in\n    tag_141:\n        /* \"#utility.yul\":5937:6076   */\n      swap1\n      pop\n        /* \"#utility.yul\":5664:6083   */\n      swap2\n      swap1\n      pop\n      jump\t// out\n        /* \"#utility.yul\":6089:6269   */\n    tag_82:\n        /* \"#utility.yul\":6137:6214   */\n      0x4e487b7100000000000000000000000000000000000000000000000000000000\n        /* \"#utility.yul\":6134:6135   */\n      0x00\n        /* \"#utility.yul\":6127:6215   */\n      mstore\n        /* \"#utility.yul\":6234:6238   */\n      0x11\n        /* \"#utility.yul\":6231:6232   */\n      0x04\n        /* \"#utility.yul\":6224:6239   */\n      mstore\n        /* \"#utility.yul\":6258:6262   */\n      0x24\n        /* \"#utility.yul\":6255:6256   */\n      0x00\n        /* \"#utility.yul\":6248:6263   */\n      revert\n        /* \"#utility.yul\":6275:6685   */\n    tag_50:\n        /* \"#utility.yul\":6315:6322   */\n      0x00\n        /* \"#utility.yul\":6338:6358   */\n      tag_144\n        /* \"#utility.yul\":6356:6357   */\n      dup3\n        /* \"#utility.yul\":6338:6358   */\n      tag_65\n      jump\t// in\n    tag_144:\n        /* \"#utility.yul\":6333:6358   */\n      swap2\n      pop\n        /* \"#utility.yul\":6372:6392   */\n      tag_145\n        /* \"#utility.yul\":6390:6391   */\n      dup4\n        /* \"#utility.yul\":6372:6392   */\n      tag_65\n      jump\t// in\n    tag_145:\n        /* \"#utility.yul\":6367:6392   */\n      swap3\n      pop\n        /* \"#utility.yul\":6427:6428   */\n      dup3\n        /* \"#utility.yul\":6424:6425   */\n      dup3\n        /* \"#utility.yul\":6420:6429   */\n      mul\n        /* \"#utility.yul\":6449:6479   */\n      tag_146\n        /* \"#utility.yul\":6467:6478   */\n      dup2\n        /* \"#utility.yul\":6449:6479   */\n      tag_65\n      jump\t// in\n    tag_146:\n        /* \"#utility.yul\":6438:6479   */\n      swap2\n      pop\n        /* \"#utility.yul\":6628:6629   */\n      dup3\n        /* \"#utility.yul\":6619:6626   */\n      dup3\n        /* \"#utility.yul\":6615:6630   */\n      div\n        /* \"#utility.yul\":6612:6613   */\n      dup5\n        /* \"#utility.yul\":6609:6631   */\n      eq\n        /* \"#utility.yul\":6589:6590   */\n      dup4\n        /* \"#utility.yul\":6582:6591   */\n      iszero\n        /* \"#utility.yul\":6562:6645   */\n      or\n        /* \"#utility.yul\":6539:6678   */\n      tag_147\n      jumpi\n        /* \"#utility.yul\":6658:6676   */\n      tag_148\n      tag_82\n      jump\t// in\n    tag_148:\n        /* \"#utility.yul\":6539:6678   */\n    tag_147:\n        /* \"#utility.yul\":6323:6685   */\n      pop\n        /* \"#utility.yul\":6275:6685   */\n      swap3\n      swap2\n      pop\n      pop\n      jump\t// out\n        /* \"#utility.yul\":6691:6871   */\n    tag_83:\n        /* \"#utility.yul\":6739:6816   */\n      0x4e487b7100000000000000000000000000000000000000000000000000000000\n        /* \"#utility.yul\":6736:6737   */\n      0x00\n        /* \"#utility.yul\":6729:6817   */\n      mstore\n        /* \"#utility.yul\":6836:6840   */\n      0x12\n        /* \"#utility.yul\":6833:6834   */\n      0x04\n        /* \"#utility.yul\":6826:6841   */\n      mstore\n        /* \"#utility.yul\":6860:6864   */\n      0x24\n        /* \"#utility.yul\":6857:6858   */\n      0x00\n        /* \"#utility.yul\":6850:6865   */\n      revert\n        /* \"#utility.yul\":6877:7062   */\n    tag_52:\n        /* \"#utility.yul\":6917:6918   */\n      0x00\n        /* \"#utility.yul\":6934:6954   */\n      tag_151\n        /* \"#utility.yul\":6952:6953   */\n      dup3\n        /* \"#utility.yul\":6934:6954   */\n      tag_65\n      jump\t// in\n    tag_151:\n        /* \"#utility.yul\":6929:6954   */\n      swap2\n      pop\n        /* \"#utility.yul\":6968:6988   */\n      tag_152\n        /* \"#utility.yul\":6986:6987   */\n      dup4\n        /* \"#utility.yul\":6968:6988   */\n      tag_65\n      jump\t// in\n    tag_152:\n        /* \"#utility.yul\":6963:6988   */\n      swap3\n      pop\n        /* \"#utility.yul\":7007:7008   */\n      dup3\n        /* \"#utility.yul\":6997:7032   */\n      tag_153\n      jumpi\n        /* \"#utility.yul\":7012:7030   */\n      tag_154\n      tag_83\n      jump\t// in\n    tag_154:\n        /* \"#utility.yul\":6997:7032   */\n    tag_153:\n        /* \"#utility.yul\":7054:7055   */\n      dup3\n        /* \"#utility.yul\":7051:7052   */\n      dup3\n        /* \"#utility.yul\":7047:7056   */\n      div\n        /* \"#utility.yul\":7042:7056   */\n      swap1\n      pop\n        /* \"#utility.yul\":6877:7062   */\n      swap3\n      swap2\n      pop\n      pop\n      jump\t// out\n        /* \"#utility.yul\":7068:7173   */\n    tag_84:\n        /* \"#utility.yul\":7104:7111   */\n      0x00\n        /* \"#utility.yul\":7144:7166   */\n      0xffffffffffffffffffff\n        /* \"#utility.yul\":7137:7142   */\n      dup3\n        /* \"#utility.yul\":7133:7167   */\n      and\n        /* \"#utility.yul\":7122:7167   */\n      swap1\n      pop\n        /* \"#utility.yul\":7068:7173   */\n      swap2\n      swap1\n      pop\n      jump\t// out\n        /* \"#utility.yul\":7179:7299   */\n    tag_85:\n        /* \"#utility.yul\":7251:7274   */\n      tag_157\n        /* \"#utility.yul\":7268:7273   */\n      dup2\n        /* \"#utility.yul\":7251:7274   */\n      tag_84\n      jump\t// in\n    tag_157:\n        /* \"#utility.yul\":7244:7249   */\n      dup2\n        /* \"#utility.yul\":7241:7275   */\n      eq\n        /* \"#utility.yul\":7231:7293   */\n      tag_158\n      jumpi\n        /* \"#utility.yul\":7289:7290   */\n      0x00\n        /* \"#utility.yul\":7286:7287   */\n      0x00\n        /* \"#utility.yul\":7279:7291   */\n      revert\n        /* \"#utility.yul\":7231:7293   */\n    tag_158:\n        /* \"#utility.yul\":7179:7299   */\n      pop\n      jump\t// out\n        /* \"#utility.yul\":7305:7446   */\n    tag_86:\n        /* \"#utility.yul\":7361:7366   */\n      0x00\n        /* \"#utility.yul\":7392:7398   */\n      dup2\n        /* \"#utility.yul\":7386:7399   */\n      mload\n        /* \"#utility.yul\":7377:7399   */\n      swap1\n      pop\n        /* \"#utility.yul\":7408:7440   */\n      tag_160\n        /* \"#utility.yul\":7434:7439   */\n      dup2\n        /* \"#utility.yul\":7408:7440   */\n      tag_85\n      jump\t// in\n    tag_160:\n        /* \"#utility.yul\":7305:7446   */\n      swap3\n      swap2\n      pop\n      pop\n      jump\t// out\n        /* \"#utility.yul\":7452:7528   */\n    tag_87:\n        /* \"#utility.yul\":7488:7495   */\n      0x00\n        /* \"#utility.yul\":7517:7522   */\n      dup2\n        /* \"#utility.yul\":7506:7522   */\n      swap1\n      pop\n        /* \"#utility.yul\":7452:7528   */\n      swap2\n      swap1\n      pop\n      jump\t// out\n        /* \"#utility.yul\":7534:7654   */\n    tag_88:\n        /* \"#utility.yul\":7606:7629   */\n      tag_163\n        /* \"#utility.yul\":7623:7628   */\n      dup2\n        /* \"#utility.yul\":7606:7629   */\n      tag_87\n      jump\t// in\n    tag_163:\n        /* \"#utility.yul\":7599:7604   */\n      dup2\n        /* \"#utility.yul\":7596:7630   */\n      eq\n        /* \"#utility.yul\":7586:7648   */\n      tag_164\n      jumpi\n        /* \"#utility.yul\":7644:7645   */\n      0x00\n        /* \"#utility.yul\":7641:7642   */\n      0x00\n        /* \"#utility.yul\":7634:7646   */\n      revert\n        /* \"#utility.yul\":7586:7648   */\n    tag_164:\n        /* \"#utility.yul\":7534:7654   */\n      pop\n      jump\t// out\n        /* \"#utility.yul\":7660:7801   */\n    tag_89:\n        /* \"#utility.yul\":7716:7721   */\n      0x00\n        /* \"#utility.yul\":7747:7753   */\n      dup2\n        /* \"#utility.yul\":7741:7754   */\n      mload\n        /* \"#utility.yul\":7732:7754   */\n      swap1\n      pop\n        /* \"#utility.yul\":7763:7795   */\n      tag_166\n        /* \"#utility.yul\":7789:7794   */\n      dup2\n        /* \"#utility.yul\":7763:7795   */\n      tag_88\n      jump\t// in\n    tag_166:\n        /* \"#utility.yul\":7660:7801   */\n      swap3\n      swap2\n      pop\n      pop\n      jump\t// out\n        /* \"#utility.yul\":7807:7950   */\n    tag_90:\n        /* \"#utility.yul\":7864:7869   */\n      0x00\n        /* \"#utility.yul\":7895:7901   */\n      dup2\n        /* \"#utility.yul\":7889:7902   */\n      mload\n        /* \"#utility.yul\":7880:7902   */\n      swap1\n      pop\n        /* \"#utility.yul\":7911:7944   */\n      tag_168\n        /* \"#utility.yul\":7938:7943   */\n      dup2\n        /* \"#utility.yul\":7911:7944   */\n      tag_66\n      jump\t// in\n    tag_168:\n        /* \"#utility.yul\":7807:7950   */\n      swap3\n      swap2\n      pop\n      pop\n      jump\t// out\n        /* \"#utility.yul\":7956:8927   */\n    tag_59:\n        /* \"#utility.yul\":8059:8065   */\n      0x00\n        /* \"#utility.yul\":8067:8073   */\n      0x00\n        /* \"#utility.yul\":8075:8081   */\n      0x00\n        /* \"#utility.yul\":8083:8089   */\n      0x00\n        /* \"#utility.yul\":8091:8097   */\n      0x00\n        /* \"#utility.yul\":8140:8143   */\n      0xa0\n        /* \"#utility.yul\":8128:8137   */\n      dup7\n        /* \"#utility.yul\":8119:8126   */\n      dup9\n        /* \"#utility.yul\":8115:8138   */\n      sub\n        /* \"#utility.yul\":8111:8144   */\n      slt\n        /* \"#utility.yul\":8108:8228   */\n      iszero\n      tag_170\n      jumpi\n        /* \"#utility.yul\":8147:8226   */\n      tag_171\n      tag_63\n      jump\t// in\n    tag_171:\n        /* \"#utility.yul\":8108:8228   */\n    tag_170:\n        /* \"#utility.yul\":8267:8268   */\n      0x00\n        /* \"#utility.yul\":8292:8355   */\n      tag_172\n        /* \"#utility.yul\":8347:8354   */\n      dup9\n        /* \"#utility.yul\":8338:8344   */\n      dup3\n        /* \"#utility.yul\":8327:8336   */\n      dup10\n        /* \"#utility.yul\":8323:8345   */\n      add\n        /* \"#utility.yul\":8292:8355   */\n      tag_86\n      jump\t// in\n    tag_172:\n        /* \"#utility.yul\":8282:8355   */\n      swap6\n      pop\n        /* \"#utility.yul\":8238:8365   */\n      pop\n        /* \"#utility.yul\":8404:8406   */\n      0x20\n        /* \"#utility.yul\":8430:8493   */\n      tag_173\n        /* \"#utility.yul\":8485:8492   */\n      dup9\n        /* \"#utility.yul\":8476:8482   */\n      dup3\n        /* \"#utility.yul\":8465:8474   */\n      dup10\n        /* \"#utility.yul\":8461:8483   */\n      add\n        /* \"#utility.yul\":8430:8493   */\n      tag_89\n      jump\t// in\n    tag_173:\n        /* \"#utility.yul\":8420:8493   */\n      swap5\n      pop\n        /* \"#utility.yul\":8375:8503   */\n      pop\n        /* \"#utility.yul\":8542:8544   */\n      0x40\n        /* \"#utility.yul\":8568:8632   */\n      tag_174\n        /* \"#utility.yul\":8624:8631   */\n      dup9\n        /* \"#utility.yul\":8615:8621   */\n      dup3\n        /* \"#utility.yul\":8604:8613   */\n      dup10\n        /* \"#utility.yul\":8600:8622   */\n      add\n        /* \"#utility.yul\":8568:8632   */\n      tag_90\n      jump\t// in\n    tag_174:\n        /* \"#utility.yul\":8558:8632   */\n      swap4\n      pop\n        /* \"#utility.yul\":8513:8642   */\n      pop\n        /* \"#utility.yul\":8681:8683   */\n      0x60\n        /* \"#utility.yul\":8707:8771   */\n      tag_175\n        /* \"#utility.yul\":8763:8770   */\n      dup9\n        /* \"#utility.yul\":8754:8760   */\n      dup3\n        /* \"#utility.yul\":8743:8752   */\n      dup10\n        /* \"#utility.yul\":8739:8761   */\n      add\n        /* \"#utility.yul\":8707:8771   */\n      tag_90\n      jump\t// in\n    tag_175:\n        /* \"#utility.yul\":8697:8771   */\n      swap3\n      pop\n        /* \"#utility.yul\":8652:8781   */\n      pop\n        /* \"#utility.yul\":8820:8823   */\n      0x80\n        /* \"#utility.yul\":8847:8910   */\n      tag_176\n        /* \"#utility.yul\":8902:8909   */\n      dup9\n        /* \"#utility.yul\":8893:8899   */\n      dup3\n        /* \"#utility.yul\":8882:8891   */\n      dup10\n        /* \"#utility.yul\":8878:8900   */\n      add\n        /* \"#utility.yul\":8847:8910   */\n      tag_86\n      jump\t// in\n    tag_176:\n        /* \"#utility.yul\":8837:8910   */\n      swap2\n      pop\n        /* \"#utility.yul\":8791:8920   */\n      pop\n        /* \"#utility.yul\":7956:8927   */\n      swap3\n      swap6\n      pop\n      swap3\n      swap6\n      swap1\n      swap4\n      pop\n      jump\t// out\n        /* \"#utility.yul\":8933:9489   */\n    tag_61:\n        /* \"#utility.yul\":8972:8979   */\n      0x00\n        /* \"#utility.yul\":8995:9014   */\n      tag_178\n        /* \"#utility.yul\":9012:9013   */\n      dup3\n        /* \"#utility.yul\":8995:9014   */\n      tag_87\n      jump\t// in\n    tag_178:\n        /* \"#utility.yul\":8990:9014   */\n      swap2\n      pop\n        /* \"#utility.yul\":9028:9047   */\n      tag_179\n        /* \"#utility.yul\":9045:9046   */\n      dup4\n        /* \"#utility.yul\":9028:9047   */\n      tag_87\n      jump\t// in\n    tag_179:\n        /* \"#utility.yul\":9023:9047   */\n      swap3\n      pop\n        /* \"#utility.yul\":9082:9083   */\n      dup3\n        /* \"#utility.yul\":9079:9080   */\n      dup3\n        /* \"#utility.yul\":9075:9084   */\n      mul\n        /* \"#utility.yul\":9104:9133   */\n      tag_180\n        /* \"#utility.yul\":9121:9132   */\n      dup2\n        /* \"#utility.yul\":9104:9133   */\n      tag_87\n      jump\t// in\n    tag_180:\n        /* \"#utility.yul\":9093:9133   */\n      swap2\n      pop\n        /* \"#utility.yul\":9191:9257   */\n      0x8000000000000000000000000000000000000000000000000000000000000000\n        /* \"#utility.yul\":9188:9189   */\n      dup5\n        /* \"#utility.yul\":9185:9258   */\n      eq\n        /* \"#utility.yul\":9181:9182   */\n      0x00\n        /* \"#utility.yul\":9178:9179   */\n      dup5\n        /* \"#utility.yul\":9174:9183   */\n      slt\n        /* \"#utility.yul\":9170:9259   */\n      and\n        /* \"#utility.yul\":9167:9282   */\n      iszero\n      tag_181\n      jumpi\n        /* \"#utility.yul\":9262:9280   */\n      tag_182\n      tag_82\n      jump\t// in\n    tag_182:\n        /* \"#utility.yul\":9167:9282   */\n    tag_181:\n        /* \"#utility.yul\":9432:9433   */\n      dup3\n        /* \"#utility.yul\":9423:9430   */\n      dup3\n        /* \"#utility.yul\":9418:9434   */\n      sdiv\n        /* \"#utility.yul\":9415:9416   */\n      dup5\n        /* \"#utility.yul\":9412:9435   */\n      eq\n        /* \"#utility.yul\":9392:9393   */\n      dup4\n        /* \"#utility.yul\":9385:9394   */\n      iszero\n        /* \"#utility.yul\":9365:9449   */\n      or\n        /* \"#utility.yul\":9342:9482   */\n      tag_183\n      jumpi\n        /* \"#utility.yul\":9462:9480   */\n      tag_184\n      tag_82\n      jump\t// in\n    tag_184:\n        /* \"#utility.yul\":9342:9482   */\n    tag_183:\n        /* \"#utility.yul\":8980:9489   */\n      pop\n        /* \"#utility.yul\":8933:9489   */\n      swap3\n      swap2\n      pop\n      pop\n      jump\t// out\n\n    auxdata: 0xa2646970667358221220b88601f9d4daaefd9d094eb090ca60d5f320e554ca2791073336d7a01bc2315064736f6c634300081e0033\n}\n",
				"bytecode": {
					"linkReferences": {},
					"object": "608060405260016002553480156013575f5ffd5b503360015f6101000a81548173ffffffffffffffffffffffffffffffffffffffff021916908373ffffffffffffffffffffffffffffffffffffffff1602179055506108dc806100615f395ff3fe608060405260043610610049575f3560e01c80633ccfd60b1461004d5780635ccf4ee414610057578063ba4d0c9914610061578063be8cbce21461009d578063bfdc2298146100d9575b5f5ffd5b610055610103565b005b61005f61023d565b005b34801561006c575f5ffd5b5061008760048036038101906100829190610434565b6102eb565b604051610094919061046e565b60405180910390f35b3480156100a8575f5ffd5b506100c360048036038101906100be9190610434565b61031e565b6040516100d091906104c6565b60405180910390f35b3480156100e4575f5ffd5b506100ed610358565b6040516100fa919061046e565b60405180910390f35b60015f9054906101000a900473ffffffffffffffffffffffffffffffffffffffff1673ffffffffffffffffffffffffffffffffffffffff163373ffffffffffffffffffffffffffffffffffffffff1614610192576040517f08c379a000000000000000000000000000000000000000000000000000000000815260040161018990610539565b60405180910390fd5b5f3373ffffffffffffffffffffffffffffffffffffffff16476040516101b790610584565b5f6040518083038185875af1925050503d805f81146101f1576040519150601f19603f3d011682016040523d82523d5f602084013e6101f6565b606091505b505090508061023a576040517f08c379a0000000000000000000000000000000000000000000000000000000008152600401610231906105e2565b60405180910390fd5b50565b6102486002546102eb565b34101561028a576040517f08c379a00000000000000000000000000000000000000000000000000000000081526004016102819061064a565b60405180910390fd5b5f33908060018154018082558091505060019003905f5260205f20015f9091909190916101000a81548173ffffffffffffffffffffffffffffffffffffffff021916908373ffffffffffffffffffffffffffffffffffffffff160217905550565b5f5f670de0b6b3a76400006102fe610358565b846103099190610695565b6103139190610703565b905080915050919050565b5f818154811061032c575f80fd5b905f5260205f20015f915054906101000a900473ffffffffffffffffffffffffffffffffffffffff1681565b5f5f73694aa1769357215de4fac081bf1f309adc32530690505f8173ffffffffffffffffffffffffffffffffffffffff1663feaf968c6040518163ffffffff1660e01b815260040160a060405180830381865afa1580156103bb573d5f5f3e3d5ffd5b505050506040513d601f19601f820116820180604052508101906103df91906107b9565b5050509150506402540be400816103f69190610830565b9250505090565b5f5ffd5b5f819050919050565b61041381610401565b811461041d575f5ffd5b50565b5f8135905061042e8161040a565b92915050565b5f60208284031215610449576104486103fd565b5b5f61045684828501610420565b91505092915050565b61046881610401565b82525050565b5f6020820190506104815f83018461045f565b92915050565b5f73ffffffffffffffffffffffffffffffffffffffff82169050919050565b5f6104b082610487565b9050919050565b6104c0816104a6565b82525050565b5f6020820190506104d95f8301846104b7565b92915050565b5f82825260208201905092915050565b7f4e6f74204f776e657200000000000000000000000000000000000000000000005f82015250565b5f6105236009836104df565b915061052e826104ef565b602082019050919050565b5f6020820190508181035f83015261055081610517565b9050919050565b5f81905092915050565b50565b5f61056f5f83610557565b915061057a82610561565b5f82019050919050565b5f61058e82610564565b9150819050919050565b7f6661696c656400000000000000000000000000000000000000000000000000005f82015250565b5f6105cc6006836104df565b91506105d782610598565b602082019050919050565b5f6020820190508181035f8301526105f9816105c0565b9050919050565b7f4e6f7420656e6f75676820656d6f756e740000000000000000000000000000005f82015250565b5f6106346011836104df565b915061063f82610600565b602082019050919050565b5f6020820190508181035f83015261066181610628565b9050919050565b7f4e487b71000000000000000000000000000000000000000000000000000000005f52601160045260245ffd5b5f61069f82610401565b91506106aa83610401565b92508282026106b881610401565b915082820484148315176106cf576106ce610668565b5b5092915050565b7f4e487b71000000000000000000000000000000000000000000000000000000005f52601260045260245ffd5b5f61070d82610401565b915061071883610401565b925082610728576107276106d6565b5b828204905092915050565b5f69ffffffffffffffffffff82169050919050565b61075181610733565b811461075b575f5ffd5b50565b5f8151905061076c81610748565b92915050565b5f819050919050565b61078481610772565b811461078e575f5ffd5b50565b5f8151905061079f8161077b565b92915050565b5f815190506107b38161040a565b92915050565b5f5f5f5f5f60a086880312156107d2576107d16103fd565b5b5f6107df8882890161075e565b95505060206107f088828901610791565b9450506040610801888289016107a5565b9350506060610812888289016107a5565b92505060806108238882890161075e565b9150509295509295909350565b5f61083a82610772565b915061084583610772565b925082820261085381610772565b91507f800000000000000000000000000000000000000000000000000000000000000084145f8412161561088a57610889610668565b5b828205841483151761089f5761089e610668565b5b509291505056fea2646970667358221220b88601f9d4daaefd9d094eb090ca60d5f320e554ca2791073336d7a01bc2315064736f6c634300081e0033",
					"opcodes": "PUSH1 0x80 PUSH1 0x40 MSTORE PUSH1 0x1 PUSH1 0x2 SSTORE CALLVALUE DUP1 ISZERO PUSH1 0x13 JUMPI PUSH0 PUSH0 REVERT JUMPDEST POP CALLER PUSH1 0x1 PUSH0 PUSH2 0x100 EXP DUP2 SLOAD DUP2 PUSH20 0xFFFFFFFFFFFFFFFFFFFFFFFFFFFFFFFFFFFFFFFF MUL NOT AND SWAP1 DUP4 PUSH20 0xFFFFFFFFFFFFFFFFFFFFFFFFFFFFFFFFFFFFFFFF AND MUL OR SWAP1 SSTORE POP PUSH2 0x8DC DUP1 PUSH2 0x61 PUSH0 CODECOPY PUSH0 RETURN INVALID PUSH1 0x80 PUSH1 0x40 MSTORE PUSH1 0x4 CALLDATASIZE LT PUSH2 0x49 JUMPI PUSH0 CALLDATALOAD PUSH1 0xE0 SHR DUP1 PUSH4 0x3CCFD60B EQ PUSH2 0x4D JUMPI DUP1 PUSH4 0x5CCF4EE4 EQ PUSH2 0x57 JUMPI DUP1 PUSH4 0xBA4D0C99 EQ PUSH2 0x61 JUMPI DUP1 PUSH4 0xBE8CBCE2 EQ PUSH2 0x9D JUMPI DUP1 PUSH4 0xBFDC2298 EQ PUSH2 0xD9 JUMPI JUMPDEST PUSH0 PUSH0 REVERT JUMPDEST PUSH2 0x55 PUSH2 0x103 JUMP JUMPDEST STOP JUMPDEST PUSH2 0x5F PUSH2 0x23D JUMP JUMPDEST STOP JUMPDEST CALLVALUE DUP1 ISZERO PUSH2 0x6C JUMPI PUSH0 PUSH0 REVERT JUMPDEST POP PUSH2 0x87 PUSH1 0x4 DUP1 CALLDATASIZE SUB DUP2 ADD SWAP1 PUSH2 0x82 SWAP2 SWAP1 PUSH2 0x434 JUMP JUMPDEST PUSH2 0x2EB JUMP JUMPDEST PUSH1 0x40 MLOAD PUSH2 0x94 SWAP2 SWAP1 PUSH2 0x46E JUMP JUMPDEST PUSH1 0x40 MLOAD DUP1 SWAP2 SUB SWAP1 RETURN JUMPDEST CALLVALUE DUP1 ISZERO PUSH2 0xA8 JUMPI PUSH0 PUSH0 REVERT JUMPDEST POP PUSH2 0xC3 PUSH1 0x4 DUP1 CALLDATASIZE SUB DUP2 ADD SWAP1 PUSH2 0xBE SWAP2 SWAP1 PUSH2 0x434 JUMP JUMPDEST PUSH2 0x31E JUMP JUMPDEST PUSH1 0x40 MLOAD PUSH2 0xD0 SWAP2 SWAP1 PUSH2 0x4C6 JUMP JUMPDEST PUSH1 0x40 MLOAD DUP1 SWAP2 SUB SWAP1 RETURN JUMPDEST CALLVALUE DUP1 ISZERO PUSH2 0xE4 JUMPI PUSH0 PUSH0 REVERT JUMPDEST POP PUSH2 0xED PUSH2 0x358 JUMP JUMPDEST PUSH1 0x40 MLOAD PUSH2 0xFA SWAP2 SWAP1 PUSH2 0x46E JUMP JUMPDEST PUSH1 0x40 MLOAD DUP1 SWAP2 SUB SWAP1 RETURN JUMPDEST PUSH1 0x1 PUSH0 SWAP1 SLOAD SWAP1 PUSH2 0x100 EXP SWAP1 DIV PUSH20 0xFFFFFFFFFFFFFFFFFFFFFFFFFFFFFFFFFFFFFFFF AND PUSH20 0xFFFFFFFFFFFFFFFFFFFFFFFFFFFFFFFFFFFFFFFF AND CALLER PUSH20 0xFFFFFFFFFFFFFFFFFFFFFFFFFFFFFFFFFFFFFFFF AND EQ PUSH2 0x192 JUMPI PUSH1 0x40 MLOAD PUSH32 0x8C379A000000000000000000000000000000000000000000000000000000000 DUP2 MSTORE PUSH1 0x4 ADD PUSH2 0x189 SWAP1 PUSH2 0x539 JUMP JUMPDEST PUSH1 0x40 MLOAD DUP1 SWAP2 SUB SWAP1 REVERT JUMPDEST PUSH0 CALLER PUSH20 0xFFFFFFFFFFFFFFFFFFFFFFFFFFFFFFFFFFFFFFFF AND SELFBALANCE PUSH1 0x40 MLOAD PUSH2 0x1B7 SWAP1 PUSH2 0x584 JUMP JUMPDEST PUSH0 PUSH1 0x40 MLOAD DUP1 DUP4 SUB DUP2 DUP6 DUP8 GAS CALL SWAP3 POP POP POP RETURNDATASIZE DUP1 PUSH0 DUP2 EQ PUSH2 0x1F1 JUMPI PUSH1 0x40 MLOAD SWAP2 POP PUSH1 0x1F NOT PUSH1 0x3F RETURNDATASIZE ADD AND DUP3 ADD PUSH1 0x40 MSTORE RETURNDATASIZE DUP3 MSTORE RETURNDATASIZE PUSH0 PUSH1 0x20 DUP5 ADD RETURNDATACOPY PUSH2 0x1F6 JUMP JUMPDEST PUSH1 0x60 SWAP2 POP JUMPDEST POP POP SWAP1 POP DUP1 PUSH2 0x23A JUMPI PUSH1 0x40 MLOAD PUSH32 0x8C379A000000000000000000000000000000000000000000000000000000000 DUP2 MSTORE PUSH1 0x4 ADD PUSH2 0x231 SWAP1 PUSH2 0x5E2 JUMP JUMPDEST PUSH1 0x40 MLOAD DUP1 SWAP2 SUB SWAP1 REVERT JUMPDEST POP JUMP JUMPDEST PUSH2 0x248 PUSH1 0x2 SLOAD PUSH2 0x2EB JUMP JUMPDEST CALLVALUE LT ISZERO PUSH2 0x28A JUMPI PUSH1 0x40 MLOAD PUSH32 0x8C379A000000000000000000000000000000000000000000000000000000000 DUP2 MSTORE PUSH1 0x4 ADD PUSH2 0x281 SWAP1 PUSH2 0x64A JUMP JUMPDEST PUSH1 0x40 MLOAD DUP1 SWAP2 SUB SWAP1 REVERT JUMPDEST PUSH0 CALLER SWAP1 DUP1 PUSH1 0x1 DUP2 SLOAD ADD DUP1 DUP3 SSTORE DUP1 SWAP2 POP POP PUSH1 0x1 SWAP1 SUB SWAP1 PUSH0 MSTORE PUSH1 0x20 PUSH0 KECCAK256 ADD PUSH0 SWAP1 SWAP2 SWAP1 SWAP2 SWAP1 SWAP2 PUSH2 0x100 EXP DUP2 SLOAD DUP2 PUSH20 0xFFFFFFFFFFFFFFFFFFFFFFFFFFFFFFFFFFFFFFFF MUL NOT AND SWAP1 DUP4 PUSH20 0xFFFFFFFFFFFFFFFFFFFFFFFFFFFFFFFFFFFFFFFF AND MUL OR SWAP1 SSTORE POP JUMP JUMPDEST PUSH0 PUSH0 PUSH8 0xDE0B6B3A7640000 PUSH2 0x2FE PUSH2 0x358 JUMP JUMPDEST DUP5 PUSH2 0x309 SWAP2 SWAP1 PUSH2 0x695 JUMP JUMPDEST PUSH2 0x313 SWAP2 SWAP1 PUSH2 0x703 JUMP JUMPDEST SWAP1 POP DUP1 SWAP2 POP POP SWAP2 SWAP1 POP JUMP JUMPDEST PUSH0 DUP2 DUP2 SLOAD DUP2 LT PUSH2 0x32C JUMPI PUSH0 DUP1 REVERT JUMPDEST SWAP1 PUSH0 MSTORE PUSH1 0x20 PUSH0 KECCAK256 ADD PUSH0 SWAP2 POP SLOAD SWAP1 PUSH2 0x100 EXP SWAP1 DIV PUSH20 0xFFFFFFFFFFFFFFFFFFFFFFFFFFFFFFFFFFFFFFFF AND DUP2 JUMP JUMPDEST PUSH0 PUSH0 PUSH20 0x694AA1769357215DE4FAC081BF1F309ADC325306 SWAP1 POP PUSH0 DUP2 PUSH20 0xFFFFFFFFFFFFFFFFFFFFFFFFFFFFFFFFFFFFFFFF AND PUSH4 0xFEAF968C PUSH1 0x40 MLOAD DUP2 PUSH4 0xFFFFFFFF AND PUSH1 0xE0 SHL DUP2 MSTORE PUSH1 0x4 ADD PUSH1 0xA0 PUSH1 0x40 MLOAD DUP1 DUP4 SUB DUP2 DUP7 GAS STATICCALL ISZERO DUP1 ISZERO PUSH2 0x3BB JUMPI RETURNDATASIZE PUSH0 PUSH0 RETURNDATACOPY RETURNDATASIZE PUSH0 REVERT JUMPDEST POP POP POP POP PUSH1 0x40 MLOAD RETURNDATASIZE PUSH1 0x1F NOT PUSH1 0x1F DUP3 ADD AND DUP3 ADD DUP1 PUSH1 0x40 MSTORE POP DUP2 ADD SWAP1 PUSH2 0x3DF SWAP2 SWAP1 PUSH2 0x7B9 JUMP JUMPDEST POP POP POP SWAP2 POP POP PUSH5 0x2540BE400 DUP2 PUSH2 0x3F6 SWAP2 SWAP1 PUSH2 0x830 JUMP JUMPDEST SWAP3 POP POP POP SWAP1 JUMP JUMPDEST PUSH0 PUSH0 REVERT JUMPDEST PUSH0 DUP2 SWAP1 POP SWAP2 SWAP1 POP JUMP JUMPDEST PUSH2 0x413 DUP2 PUSH2 0x401 JUMP JUMPDEST DUP2 EQ PUSH2 0x41D JUMPI PUSH0 PUSH0 REVERT JUMPDEST POP JUMP JUMPDEST PUSH0 DUP2 CALLDATALOAD SWAP1 POP PUSH2 0x42E DUP2 PUSH2 0x40A JUMP JUMPDEST SWAP3 SWAP2 POP POP JUMP JUMPDEST PUSH0 PUSH1 0x20 DUP3 DUP5 SUB SLT ISZERO PUSH2 0x449 JUMPI PUSH2 0x448 PUSH2 0x3FD JUMP JUMPDEST JUMPDEST PUSH0 PUSH2 0x456 DUP5 DUP3 DUP6 ADD PUSH2 0x420 JUMP JUMPDEST SWAP2 POP POP SWAP3 SWAP2 POP POP JUMP JUMPDEST PUSH2 0x468 DUP2 PUSH2 0x401 JUMP JUMPDEST DUP3 MSTORE POP POP JUMP JUMPDEST PUSH0 PUSH1 0x20 DUP3 ADD SWAP1 POP PUSH2 0x481 PUSH0 DUP4 ADD DUP5 PUSH2 0x45F JUMP JUMPDEST SWAP3 SWAP2 POP POP JUMP JUMPDEST PUSH0 PUSH20 0xFFFFFFFFFFFFFFFFFFFFFFFFFFFFFFFFFFFFFFFF DUP3 AND SWAP1 POP SWAP2 SWAP1 POP JUMP JUMPDEST PUSH0 PUSH2 0x4B0 DUP3 PUSH2 0x487 JUMP JUMPDEST SWAP1 POP SWAP2 SWAP1 POP JUMP JUMPDEST PUSH2 0x4C0 DUP2 PUSH2 0x4A6 JUMP JUMPDEST DUP3 MSTORE POP POP JUMP JUMPDEST PUSH0 PUSH1 0x20 DUP3 ADD SWAP1 POP PUSH2 0x4D9 PUSH0 DUP4 ADD DUP5 PUSH2 0x4B7 JUMP JUMPDEST SWAP3 SWAP2 POP POP JUMP JUMPDEST PUSH0 DUP3 DUP3 MSTORE PUSH1 0x20 DUP3 ADD SWAP1 POP SWAP3 SWAP2 POP POP JUMP JUMPDEST PUSH32 0x4E6F74204F776E65720000000000000000000000000000000000000000000000 PUSH0 DUP3 ADD MSTORE POP JUMP JUMPDEST PUSH0 PUSH2 0x523 PUSH1 0x9 DUP4 PUSH2 0x4DF JUMP JUMPDEST SWAP2 POP PUSH2 0x52E DUP3 PUSH2 0x4EF JUMP JUMPDEST PUSH1 0x20 DUP3 ADD SWAP1 POP SWAP2 SWAP1 POP JUMP JUMPDEST PUSH0 PUSH1 0x20 DUP3 ADD SWAP1 POP DUP2 DUP2 SUB PUSH0 DUP4 ADD MSTORE PUSH2 0x550 DUP2 PUSH2 0x517 JUMP JUMPDEST SWAP1 POP SWAP2 SWAP1 POP JUMP JUMPDEST PUSH0 DUP2 SWAP1 POP SWAP3 SWAP2 POP POP JUMP JUMPDEST POP JUMP JUMPDEST PUSH0 PUSH2 0x56F PUSH0 DUP4 PUSH2 0x557 JUMP JUMPDEST SWAP2 POP PUSH2 0x57A DUP3 PUSH2 0x561 JUMP JUMPDEST PUSH0 DUP3 ADD SWAP1 POP SWAP2 SWAP1 POP JUMP JUMPDEST PUSH0 PUSH2 0x58E DUP3 PUSH2 0x564 JUMP JUMPDEST SWAP2 POP DUP2 SWAP1 POP SWAP2 SWAP1 POP JUMP JUMPDEST PUSH32 0x6661696C65640000000000000000000000000000000000000000000000000000 PUSH0 DUP3 ADD MSTORE POP JUMP JUMPDEST PUSH0 PUSH2 0x5CC PUSH1 0x6 DUP4 PUSH2 0x4DF JUMP JUMPDEST SWAP2 POP PUSH2 0x5D7 DUP3 PUSH2 0x598 JUMP JUMPDEST PUSH1 0x20 DUP3 ADD SWAP1 POP SWAP2 SWAP1 POP JUMP JUMPDEST PUSH0 PUSH1 0x20 DUP3 ADD SWAP1 POP DUP2 DUP2 SUB PUSH0 DUP4 ADD MSTORE PUSH2 0x5F9 DUP2 PUSH2 0x5C0 JUMP JUMPDEST SWAP1 POP SWAP2 SWAP1 POP JUMP JUMPDEST PUSH32 0x4E6F7420656E6F75676820656D6F756E74000000000000000000000000000000 PUSH0 DUP3 ADD MSTORE POP JUMP JUMPDEST PUSH0 PUSH2 0x634 PUSH1 0x11 DUP4 PUSH2 0x4DF JUMP JUMPDEST SWAP2 POP PUSH2 0x63F DUP3 PUSH2 0x600 JUMP JUMPDEST PUSH1 0x20 DUP3 ADD SWAP1 POP SWAP2 SWAP1 POP JUMP JUMPDEST PUSH0 PUSH1 0x20 DUP3 ADD SWAP1 POP DUP2 DUP2 SUB PUSH0 DUP4 ADD MSTORE PUSH2 0x661 DUP2 PUSH2 0x628 JUMP JUMPDEST SWAP1 POP SWAP2 SWAP1 POP JUMP JUMPDEST PUSH32 0x4E487B7100000000000000000000000000000000000000000000000000000000 PUSH0 MSTORE PUSH1 0x11 PUSH1 0x4 MSTORE PUSH1 0x24 PUSH0 REVERT JUMPDEST PUSH0 PUSH2 0x69F DUP3 PUSH2 0x401 JUMP JUMPDEST SWAP2 POP PUSH2 0x6AA DUP4 PUSH2 0x401 JUMP JUMPDEST SWAP3 POP DUP3 DUP3 MUL PUSH2 0x6B8 DUP2 PUSH2 0x401 JUMP JUMPDEST SWAP2 POP DUP3 DUP3 DIV DUP5 EQ DUP4 ISZERO OR PUSH2 0x6CF JUMPI PUSH2 0x6CE PUSH2 0x668 JUMP JUMPDEST JUMPDEST POP SWAP3 SWAP2 POP POP JUMP JUMPDEST PUSH32 0x4E487B7100000000000000000000000000000000000000000000000000000000 PUSH0 MSTORE PUSH1 0x12 PUSH1 0x4 MSTORE PUSH1 0x24 PUSH0 REVERT JUMPDEST PUSH0 PUSH2 0x70D DUP3 PUSH2 0x401 JUMP JUMPDEST SWAP2 POP PUSH2 0x718 DUP4 PUSH2 0x401 JUMP JUMPDEST SWAP3 POP DUP3 PUSH2 0x728 JUMPI PUSH2 0x727 PUSH2 0x6D6 JUMP JUMPDEST JUMPDEST DUP3 DUP3 DIV SWAP1 POP SWAP3 SWAP2 POP POP JUMP JUMPDEST PUSH0 PUSH10 0xFFFFFFFFFFFFFFFFFFFF DUP3 AND SWAP1 POP SWAP2 SWAP1 POP JUMP JUMPDEST PUSH2 0x751 DUP2 PUSH2 0x733 JUMP JUMPDEST DUP2 EQ PUSH2 0x75B JUMPI PUSH0 PUSH0 REVERT JUMPDEST POP JUMP JUMPDEST PUSH0 DUP2 MLOAD SWAP1 POP PUSH2 0x76C DUP2 PUSH2 0x748 JUMP JUMPDEST SWAP3 SWAP2 POP POP JUMP JUMPDEST PUSH0 DUP2 SWAP1 POP SWAP2 SWAP1 POP JUMP JUMPDEST PUSH2 0x784 DUP2 PUSH2 0x772 JUMP JUMPDEST DUP2 EQ PUSH2 0x78E JUMPI PUSH0 PUSH0 REVERT JUMPDEST POP JUMP JUMPDEST PUSH0 DUP2 MLOAD SWAP1 POP PUSH2 0x79F DUP2 PUSH2 0x77B JUMP JUMPDEST SWAP3 SWAP2 POP POP JUMP JUMPDEST PUSH0 DUP2 MLOAD SWAP1 POP PUSH2 0x7B3 DUP2 PUSH2 0x40A JUMP JUMPDEST SWAP3 SWAP2 POP POP JUMP JUMPDEST PUSH0 PUSH0 PUSH0 PUSH0 PUSH0 PUSH1 0xA0 DUP7 DUP9 SUB SLT ISZERO PUSH2 0x7D2 JUMPI PUSH2 0x7D1 PUSH2 0x3FD JUMP JUMPDEST JUMPDEST PUSH0 PUSH2 0x7DF DUP9 DUP3 DUP10 ADD PUSH2 0x75E JUMP JUMPDEST SWAP6 POP POP PUSH1 0x20 PUSH2 0x7F0 DUP9 DUP3 DUP10 ADD PUSH2 0x791 JUMP JUMPDEST SWAP5 POP POP PUSH1 0x40 PUSH2 0x801 DUP9 DUP3 DUP10 ADD PUSH2 0x7A5 JUMP JUMPDEST SWAP4 POP POP PUSH1 0x60 PUSH2 0x812 DUP9 DUP3 DUP10 ADD PUSH2 0x7A5 JUMP JUMPDEST SWAP3 POP POP PUSH1 0x80 PUSH2 0x823 DUP9 DUP3 DUP10 ADD PUSH2 0x75E JUMP JUMPDEST SWAP2 POP POP SWAP3 SWAP6 POP SWAP3 SWAP6 SWAP1 SWAP4 POP JUMP JUMPDEST PUSH0 PUSH2 0x83A DUP3 PUSH2 0x772 JUMP JUMPDEST SWAP2 POP PUSH2 0x845 DUP4 PUSH2 0x772 JUMP JUMPDEST SWAP3 POP DUP3 DUP3 MUL PUSH2 0x853 DUP2 PUSH2 0x772 JUMP JUMPDEST SWAP2 POP PUSH32 0x8000000000000000000000000000000000000000000000000000000000000000 DUP5 EQ PUSH0 DUP5 SLT AND ISZERO PUSH2 0x88A JUMPI PUSH2 0x889 PUSH2 0x668 JUMP JUMPDEST JUMPDEST DUP3 DUP3 SDIV DUP5 EQ DUP4 ISZERO OR PUSH2 0x89F JUMPI PUSH2 0x89E PUSH2 0x668 JUMP JUMPDEST JUMPDEST POP SWAP3 SWAP2 POP POP JUMP INVALID LOG2 PUSH5 0x6970667358 0x22 SLT KECCAK256 0xB8 DUP7 ADD EXTDELEGATECALL 0xD4 0xDA 0xAE REVERT SWAP14 MULMOD 0x4E 0xB0 SWAP1 0xCA PUSH1 0xD5 RETURN KECCAK256 JUMPF 0x54CA 0x27 SWAP2 SMOD CALLER CALLDATASIZE 0xD7 LOG0 SHL 0xC2 BALANCE POP PUSH5 0x736F6C6343 STOP ADDMOD 0x1E STOP CALLER "
				},
				"gasEstimates": {
					"creation": {
						"codeDepositCost": "453600",
						"executionCost": "46855",
						"totalCost": "500455"
					},
					"external": {
						"Sender_contract(uint256)": "4987",
						"conversion(uint256)": "infinite",
						"fetch_price()": "infinite",
						"get_fund()": "infinite",
						"withdraw()": "infinite"
					}
				},
				"methodIdentifiers": {
					"Sender_contract(uint256)": "be8cbce2",
					"conversion(uint256)": "ba4d0c99",
					"fetch_price()": "bfdc2298",
					"get_fund()": "5ccf4ee4",
					"withdraw()": "3ccfd60b"
				}
			},
			"storageLayout": {
				"storage": [
					{
						"astId": 52,
						"contract": "solidity_Lects/ChainLink.sol/withdraw.sol:fundMe",
						"label": "Sender_contract",
						"offset": 0,
						"slot": "0",
						"type": "t_array(t_address)dyn_storage"
					},
					{
						"astId": 54,
						"contract": "solidity_Lects/ChainLink.sol/withdraw.sol:fundMe",
						"label": "owner",
						"offset": 0,
						"slot": "1",
						"type": "t_address"
					},
					{
						"astId": 57,
						"contract": "solidity_Lects/ChainLink.sol/withdraw.sol:fundMe",
						"label": "min_usd",
						"offset": 0,
						"slot": "2",
						"type": "t_uint256"
					}
				],
				"types": {
					"t_address": {
						"encoding": "inplace",
						"label": "address",
						"numberOfBytes": "20"
					},
					"t_array(t_address)dyn_storage": {
						"base": "t_address",
						"encoding": "dynamic_array",
						"label": "address[]",
						"numberOfBytes": "32"
					},
					"t_uint256": {
						"encoding": "inplace",
						"label": "uint256",
						"numberOfBytes": "32"
					}
				}
			},
			"userdoc": {
				"kind": "user",
				"methods": {},
				"version": 1
			}
		}
	}
}