{
	"factoryStorage.sol": {
		"contract_factory": {
			"abi": [
				{
					"inputs": [],
					"name": "contract1",
					"outputs": [
						{
							"internalType": "contract simpleStorage",
							"name": "",
							"type": "address"
						}
					],
					"stateMutability": "view",
					"type": "function"
				},
				{
					"inputs": [],
					"name": "contract2",
					"outputs": [
						{
							"internalType": "contract skills",
							"name": "",
							"type": "address"
						}
					],
					"stateMutability": "view",
					"type": "function"
				},
				{
					"inputs": [],
					"name": "deploy",
					"outputs": [],
					"stateMutability": "nonpayable",
					"type": "function"
				}
			],
			"devdoc": {
				"kind": "dev",
				"methods": {},
				"version": 1
			},
			"evm": {
				"assembly": "    /* \"factoryStorage.sol\":153:369  contract contract_factory{... */\n  mstore(0x40, 0x80)\n  callvalue\n  dup1\n  iszero\n  tag_1\n  jumpi\n  revert(0x00, 0x00)\ntag_1:\n  pop\n  dataSize(sub_0)\n  dup1\n  dataOffset(sub_0)\n  0x00\n  codecopy\n  0x00\n  return\nstop\n\nsub_0: assembly {\n        /* \"factoryStorage.sol\":153:369  contract contract_factory{... */\n      mstore(0x40, 0x80)\n      callvalue\n      dup1\n      iszero\n      tag_1\n      jumpi\n      revert(0x00, 0x00)\n    tag_1:\n      pop\n      jumpi(tag_2, lt(calldatasize, 0x04))\n      shr(0xe0, calldataload(0x00))\n      dup1\n      0x4af6b5c2\n      eq\n      tag_3\n      jumpi\n      dup1\n      0x4c62d88c\n      eq\n      tag_4\n      jumpi\n      dup1\n      0x775c300c\n      eq\n      tag_5\n      jumpi\n    tag_2:\n      revert(0x00, 0x00)\n        /* \"factoryStorage.sol\":222:245  skills public contract2 */\n    tag_3:\n      tag_6\n      tag_7\n      jump\t// in\n    tag_6:\n      mload(0x40)\n      tag_8\n      swap2\n      swap1\n      tag_9\n      jump\t// in\n    tag_8:\n      mload(0x40)\n      dup1\n      swap2\n      sub\n      swap1\n      return\n        /* \"factoryStorage.sol\":185:215  simpleStorage public contract1 */\n    tag_4:\n      tag_10\n      tag_11\n      jump\t// in\n    tag_10:\n      mload(0x40)\n      tag_12\n      swap2\n      swap1\n      tag_13\n      jump\t// in\n    tag_12:\n      mload(0x40)\n      dup1\n      swap2\n      sub\n      swap1\n      return\n        /* \"factoryStorage.sol\":254:364  function deploy() public {... */\n    tag_5:\n      tag_14\n      tag_15\n      jump\t// in\n    tag_14:\n      stop\n        /* \"factoryStorage.sol\":222:245  skills public contract2 */\n    tag_7:\n      0x01\n      0x00\n      swap1\n      sload\n      swap1\n      0x0100\n      exp\n      swap1\n      div\n      0xffffffffffffffffffffffffffffffffffffffff\n      and\n      dup2\n      jump\t// out\n        /* \"factoryStorage.sol\":185:215  simpleStorage public contract1 */\n    tag_11:\n      0x00\n      0x00\n      swap1\n      sload\n      swap1\n      0x0100\n      exp\n      swap1\n      div\n      0xffffffffffffffffffffffffffffffffffffffff\n      and\n      dup2\n      jump\t// out\n        /* \"factoryStorage.sol\":254:364  function deploy() public {... */\n    tag_15:\n        /* \"factoryStorage.sol\":302:321  new simpleStorage() */\n      mload(0x40)\n      tag_17\n      swap1\n      tag_18\n      jump\t// in\n    tag_17:\n      mload(0x40)\n      dup1\n      swap2\n      sub\n      swap1\n      0x00\n      create\n      dup1\n      iszero\n      dup1\n      iszero\n      tag_19\n      jumpi\n      returndatacopy(0x00, 0x00, returndatasize)\n      revert(0x00, returndatasize)\n    tag_19:\n      pop\n        /* \"factoryStorage.sol\":290:299  contract1 */\n      0x00\n      0x00\n        /* \"factoryStorage.sol\":290:321  contract1 = new simpleStorage() */\n      0x0100\n      exp\n      dup2\n      sload\n      dup2\n      0xffffffffffffffffffffffffffffffffffffffff\n      mul\n      not\n      and\n      swap1\n      dup4\n      0xffffffffffffffffffffffffffffffffffffffff\n      and\n      mul\n      or\n      swap1\n      sstore\n      pop\n        /* \"factoryStorage.sol\":344:356  new skills() */\n      mload(0x40)\n      tag_20\n      swap1\n      tag_21\n      jump\t// in\n    tag_20:\n      mload(0x40)\n      dup1\n      swap2\n      sub\n      swap1\n      0x00\n      create\n      dup1\n      iszero\n      dup1\n      iszero\n      tag_22\n      jumpi\n      returndatacopy(0x00, 0x00, returndatasize)\n      revert(0x00, returndatasize)\n    tag_22:\n      pop\n        /* \"factoryStorage.sol\":332:341  contract2 */\n      0x01\n      0x00\n        /* \"factoryStorage.sol\":332:356  contract2 = new skills() */\n      0x0100\n      exp\n      dup2\n      sload\n      dup2\n      0xffffffffffffffffffffffffffffffffffffffff\n      mul\n      not\n      and\n      swap1\n      dup4\n      0xffffffffffffffffffffffffffffffffffffffff\n      and\n      mul\n      or\n      swap1\n      sstore\n      pop\n        /* \"factoryStorage.sol\":254:364  function deploy() public {... */\n      jump\t// out\n    tag_18:\n      dataSize(sub_0)\n      dup1\n      dataOffset(sub_0)\n      dup4\n      codecopy\n      add\n      swap1\n      jump\t// out\n    tag_21:\n      dataSize(sub_1)\n      dup1\n      dataOffset(sub_1)\n      dup4\n      codecopy\n      add\n      swap1\n      jump\t// out\n        /* \"#utility.yul\":7:133   */\n    tag_23:\n        /* \"#utility.yul\":44:51   */\n      0x00\n        /* \"#utility.yul\":84:126   */\n      0xffffffffffffffffffffffffffffffffffffffff\n        /* \"#utility.yul\":77:82   */\n      dup3\n        /* \"#utility.yul\":73:127   */\n      and\n        /* \"#utility.yul\":62:127   */\n      swap1\n      pop\n        /* \"#utility.yul\":7:133   */\n      swap2\n      swap1\n      pop\n      jump\t// out\n        /* \"#utility.yul\":139:199   */\n    tag_24:\n        /* \"#utility.yul\":167:170   */\n      0x00\n        /* \"#utility.yul\":188:193   */\n      dup2\n        /* \"#utility.yul\":181:193   */\n      swap1\n      pop\n        /* \"#utility.yul\":139:199   */\n      swap2\n      swap1\n      pop\n      jump\t// out\n        /* \"#utility.yul\":205:347   */\n    tag_25:\n        /* \"#utility.yul\":255:264   */\n      0x00\n        /* \"#utility.yul\":288:341   */\n      tag_35\n        /* \"#utility.yul\":306:340   */\n      tag_36\n        /* \"#utility.yul\":315:339   */\n      tag_37\n        /* \"#utility.yul\":333:338   */\n      dup5\n        /* \"#utility.yul\":315:339   */\n      tag_23\n      jump\t// in\n    tag_37:\n        /* \"#utility.yul\":306:340   */\n      tag_24\n      jump\t// in\n    tag_36:\n        /* \"#utility.yul\":288:341   */\n      tag_23\n      jump\t// in\n    tag_35:\n        /* \"#utility.yul\":275:341   */\n      swap1\n      pop\n        /* \"#utility.yul\":205:347   */\n      swap2\n      swap1\n      pop\n      jump\t// out\n        /* \"#utility.yul\":353:479   */\n    tag_26:\n        /* \"#utility.yul\":403:412   */\n      0x00\n        /* \"#utility.yul\":436:473   */\n      tag_39\n        /* \"#utility.yul\":467:472   */\n      dup3\n        /* \"#utility.yul\":436:473   */\n      tag_25\n      jump\t// in\n    tag_39:\n        /* \"#utility.yul\":423:473   */\n      swap1\n      pop\n        /* \"#utility.yul\":353:479   */\n      swap2\n      swap1\n      pop\n      jump\t// out\n        /* \"#utility.yul\":485:625   */\n    tag_27:\n        /* \"#utility.yul\":549:558   */\n      0x00\n        /* \"#utility.yul\":582:619   */\n      tag_41\n        /* \"#utility.yul\":613:618   */\n      dup3\n        /* \"#utility.yul\":582:619   */\n      tag_26\n      jump\t// in\n    tag_41:\n        /* \"#utility.yul\":569:619   */\n      swap1\n      pop\n        /* \"#utility.yul\":485:625   */\n      swap2\n      swap1\n      pop\n      jump\t// out\n        /* \"#utility.yul\":631:790   */\n    tag_28:\n        /* \"#utility.yul\":732:783   */\n      tag_43\n        /* \"#utility.yul\":777:782   */\n      dup2\n        /* \"#utility.yul\":732:783   */\n      tag_27\n      jump\t// in\n    tag_43:\n        /* \"#utility.yul\":727:730   */\n      dup3\n        /* \"#utility.yul\":720:784   */\n      mstore\n        /* \"#utility.yul\":631:790   */\n      pop\n      pop\n      jump\t// out\n        /* \"#utility.yul\":796:1046   */\n    tag_9:\n        /* \"#utility.yul\":903:907   */\n      0x00\n        /* \"#utility.yul\":941:943   */\n      0x20\n        /* \"#utility.yul\":930:939   */\n      dup3\n        /* \"#utility.yul\":926:944   */\n      add\n        /* \"#utility.yul\":918:944   */\n      swap1\n      pop\n        /* \"#utility.yul\":954:1039   */\n      tag_45\n        /* \"#utility.yul\":1036:1037   */\n      0x00\n        /* \"#utility.yul\":1025:1034   */\n      dup4\n        /* \"#utility.yul\":1021:1038   */\n      add\n        /* \"#utility.yul\":1012:1018   */\n      dup5\n        /* \"#utility.yul\":954:1039   */\n      tag_28\n      jump\t// in\n    tag_45:\n        /* \"#utility.yul\":796:1046   */\n      swap3\n      swap2\n      pop\n      pop\n      jump\t// out\n        /* \"#utility.yul\":1052:1198   */\n    tag_29:\n        /* \"#utility.yul\":1122:1131   */\n      0x00\n        /* \"#utility.yul\":1155:1192   */\n      tag_47\n        /* \"#utility.yul\":1186:1191   */\n      dup3\n        /* \"#utility.yul\":1155:1192   */\n      tag_26\n      jump\t// in\n    tag_47:\n        /* \"#utility.yul\":1142:1192   */\n      swap1\n      pop\n        /* \"#utility.yul\":1052:1198   */\n      swap2\n      swap1\n      pop\n      jump\t// out\n        /* \"#utility.yul\":1204:1375   */\n    tag_30:\n        /* \"#utility.yul\":1311:1368   */\n      tag_49\n        /* \"#utility.yul\":1362:1367   */\n      dup2\n        /* \"#utility.yul\":1311:1368   */\n      tag_29\n      jump\t// in\n    tag_49:\n        /* \"#utility.yul\":1306:1309   */\n      dup3\n        /* \"#utility.yul\":1299:1369   */\n      mstore\n        /* \"#utility.yul\":1204:1375   */\n      pop\n      pop\n      jump\t// out\n        /* \"#utility.yul\":1381:1643   */\n    tag_13:\n        /* \"#utility.yul\":1494:1498   */\n      0x00\n        /* \"#utility.yul\":1532:1534   */\n      0x20\n        /* \"#utility.yul\":1521:1530   */\n      dup3\n        /* \"#utility.yul\":1517:1535   */\n      add\n        /* \"#utility.yul\":1509:1535   */\n      swap1\n      pop\n        /* \"#utility.yul\":1545:1636   */\n      tag_51\n        /* \"#utility.yul\":1633:1634   */\n      0x00\n        /* \"#utility.yul\":1622:1631   */\n      dup4\n        /* \"#utility.yul\":1618:1635   */\n      add\n        /* \"#utility.yul\":1609:1615   */\n      dup5\n        /* \"#utility.yul\":1545:1636   */\n      tag_30\n      jump\t// in\n    tag_51:\n        /* \"#utility.yul\":1381:1643   */\n      swap3\n      swap2\n      pop\n      pop\n      jump\t// out\n    stop\n\n    sub_0: assembly {\n            /* \"arrays02.sol\":60:721  contract simpleStorage{... */\n          mstore(0x40, 0x80)\n          callvalue\n          dup1\n          iszero\n          tag_1\n          jumpi\n          revert(0x00, 0x00)\n        tag_1:\n          pop\n          dataSize(sub_0)\n          dup1\n          dataOffset(sub_0)\n          0x00\n          codecopy\n          0x00\n          return\n        stop\n\n        sub_0: assembly {\n                /* \"arrays02.sol\":60:721  contract simpleStorage{... */\n              mstore(0x40, 0x80)\n              callvalue\n              dup1\n              iszero\n              tag_1\n              jumpi\n              revert(0x00, 0x00)\n            tag_1:\n              pop\n              jumpi(tag_2, lt(calldatasize, 0x04))\n              shr(0xe0, calldataload(0x00))\n              dup1\n              0x0fe5a259\n              eq\n              tag_3\n              jumpi\n              dup1\n              0x373c90d9\n              eq\n              tag_4\n              jumpi\n              dup1\n              0x3f0556b0\n              eq\n              tag_5\n              jumpi\n            tag_2:\n              revert(0x00, 0x00)\n                /* \"arrays02.sol\":443:718  function show2(uint input) view public returns (string memory){ // USE MEMORY AHEAD OF STRING IN ARGUMENT, OTHERWISE IT WILL BE TOTAL ERROR****... */\n            tag_3:\n              tag_6\n              0x04\n              dup1\n              calldatasize\n              sub\n              dup2\n              add\n              swap1\n              tag_7\n              swap2\n              swap1\n              tag_8\n              jump\t// in\n            tag_7:\n              tag_9\n              jump\t// in\n            tag_6:\n              mload(0x40)\n              tag_10\n              swap2\n              swap1\n              tag_11\n              jump\t// in\n            tag_10:\n              mload(0x40)\n              dup1\n              swap2\n              sub\n              swap1\n              return\n                /* \"arrays02.sol\":180:203  info[] public data_list */\n            tag_4:\n              tag_12\n              0x04\n              dup1\n              calldatasize\n              sub\n              dup2\n              add\n              swap1\n              tag_13\n              swap2\n              swap1\n              tag_8\n              jump\t// in\n            tag_13:\n              tag_14\n              jump\t// in\n            tag_12:\n              mload(0x40)\n              tag_15\n              swap4\n              swap3\n              swap2\n              swap1\n              tag_16\n              jump\t// in\n            tag_15:\n              mload(0x40)\n              dup1\n              swap2\n              sub\n              swap1\n              return\n                /* \"arrays02.sol\":213:437  function show(string memory _name, uint _bal, uint _nonce) public{//Infinite gas is being shown bcz string size is indefinite... */\n            tag_5:\n              tag_17\n              0x04\n              dup1\n              calldatasize\n              sub\n              dup2\n              add\n              swap1\n              tag_18\n              swap2\n              swap1\n              tag_19\n              jump\t// in\n            tag_18:\n              tag_20\n              jump\t// in\n            tag_17:\n              stop\n                /* \"arrays02.sol\":443:718  function show2(uint input) view public returns (string memory){ // USE MEMORY AHEAD OF STRING IN ARGUMENT, OTHERWISE IT WILL BE TOTAL ERROR****... */\n            tag_9:\n                /* \"arrays02.sol\":491:504  string memory */\n              0x60\n                /* \"arrays02.sol\":604:613  data_list */\n              0x00\n                /* \"arrays02.sol\":614:619  input */\n              dup3\n                /* \"arrays02.sol\":604:620  data_list[input] */\n              dup2\n              sload\n              dup2\n              lt\n              tag_22\n              jumpi\n              tag_23\n              tag_24\n              jump\t// in\n            tag_23:\n            tag_22:\n              swap1\n              0x00\n              mstore\n              keccak256(0x00, 0x20)\n              swap1\n              0x03\n              mul\n              add\n                /* \"arrays02.sol\":604:625  data_list[input].name */\n              0x00\n              add\n                /* \"arrays02.sol\":596:626  return (data_list[input].name) */\n              dup1\n              sload\n              tag_26\n              swap1\n              tag_27\n              jump\t// in\n            tag_26:\n              dup1\n              0x1f\n              add\n              0x20\n              dup1\n              swap2\n              div\n              mul\n              0x20\n              add\n              mload(0x40)\n              swap1\n              dup2\n              add\n              0x40\n              mstore\n              dup1\n              swap3\n              swap2\n              swap1\n              dup2\n              dup2\n              mstore\n              0x20\n              add\n              dup3\n              dup1\n              sload\n              tag_28\n              swap1\n              tag_27\n              jump\t// in\n            tag_28:\n              dup1\n              iszero\n              tag_29\n              jumpi\n              dup1\n              0x1f\n              lt\n              tag_30\n              jumpi\n              0x0100\n              dup1\n              dup4\n              sload\n              div\n              mul\n              dup4\n              mstore\n              swap2\n              0x20\n              add\n              swap2\n              jump(tag_29)\n            tag_30:\n              dup3\n              add\n              swap2\n              swap1\n              0x00\n              mstore\n              keccak256(0x00, 0x20)\n              swap1\n            tag_31:\n              dup2\n              sload\n              dup2\n              mstore\n              swap1\n              0x01\n              add\n              swap1\n              0x20\n              add\n              dup1\n              dup4\n              gt\n              tag_31\n              jumpi\n              dup3\n              swap1\n              sub\n              0x1f\n              and\n              dup3\n              add\n              swap2\n            tag_29:\n              pop\n              pop\n              pop\n              pop\n              pop\n              swap1\n              pop\n                /* \"arrays02.sol\":443:718  function show2(uint input) view public returns (string memory){ // USE MEMORY AHEAD OF STRING IN ARGUMENT, OTHERWISE IT WILL BE TOTAL ERROR****... */\n              swap2\n              swap1\n              pop\n              jump\t// out\n                /* \"arrays02.sol\":180:203  info[] public data_list */\n            tag_14:\n              0x00\n              dup2\n              dup2\n              sload\n              dup2\n              lt\n              tag_32\n              jumpi\n              0x00\n              dup1\n              revert\n            tag_32:\n              swap1\n              0x00\n              mstore\n              keccak256(0x00, 0x20)\n              swap1\n              0x03\n              mul\n              add\n              0x00\n              swap2\n              pop\n              swap1\n              pop\n              dup1\n              0x00\n              add\n              dup1\n              sload\n              tag_34\n              swap1\n              tag_27\n              jump\t// in\n            tag_34:\n              dup1\n              0x1f\n              add\n              0x20\n              dup1\n              swap2\n              div\n              mul\n              0x20\n              add\n              mload(0x40)\n              swap1\n              dup2\n              add\n              0x40\n              mstore\n              dup1\n              swap3\n              swap2\n              swap1\n              dup2\n              dup2\n              mstore\n              0x20\n              add\n              dup3\n              dup1\n              sload\n              tag_35\n              swap1\n              tag_27\n              jump\t// in\n            tag_35:\n              dup1\n              iszero\n              tag_36\n              jumpi\n              dup1\n              0x1f\n              lt\n              tag_37\n              jumpi\n              0x0100\n              dup1\n              dup4\n              sload\n              div\n              mul\n              dup4\n              mstore\n              swap2\n              0x20\n              add\n              swap2\n              jump(tag_36)\n            tag_37:\n              dup3\n              add\n              swap2\n              swap1\n              0x00\n              mstore\n              keccak256(0x00, 0x20)\n              swap1\n            tag_38:\n              dup2\n              sload\n              dup2\n              mstore\n              swap1\n              0x01\n              add\n              swap1\n              0x20\n              add\n              dup1\n              dup4\n              gt\n              tag_38\n              jumpi\n              dup3\n              swap1\n              sub\n              0x1f\n              and\n              dup3\n              add\n              swap2\n            tag_36:\n              pop\n              pop\n              pop\n              pop\n              pop\n              swap1\n              dup1\n              0x01\n              add\n              sload\n              swap1\n              dup1\n              0x02\n              add\n              sload\n              swap1\n              pop\n              dup4\n              jump\t// out\n                /* \"arrays02.sol\":213:437  function show(string memory _name, uint _bal, uint _nonce) public{//Infinite gas is being shown bcz string size is indefinite... */\n            tag_20:\n                /* \"arrays02.sol\":348:367  info memory newUser */\n              0x00\n                /* \"arrays02.sol\":370:395  info(_name, _bal, _nonce) */\n              mload(0x40)\n              dup1\n              0x60\n              add\n              0x40\n              mstore\n              dup1\n                /* \"arrays02.sol\":375:380  _name */\n              dup6\n                /* \"arrays02.sol\":370:395  info(_name, _bal, _nonce) */\n              dup2\n              mstore\n              0x20\n              add\n                /* \"arrays02.sol\":382:386  _bal */\n              dup5\n                /* \"arrays02.sol\":370:395  info(_name, _bal, _nonce) */\n              dup2\n              mstore\n              0x20\n              add\n                /* \"arrays02.sol\":388:394  _nonce */\n              dup4\n                /* \"arrays02.sol\":370:395  info(_name, _bal, _nonce) */\n              dup2\n              mstore\n              pop\n                /* \"arrays02.sol\":348:395  info memory newUser = info(_name, _bal, _nonce) */\n              swap1\n              pop\n                /* \"arrays02.sol\":406:415  data_list */\n              0x00\n                /* \"arrays02.sol\":421:428  newUser */\n              dup2\n                /* \"arrays02.sol\":406:429  data_list.push(newUser) */\n              swap1\n              dup1\n              0x01\n              dup2\n              sload\n              add\n              dup1\n              dup3\n              sstore\n              dup1\n              swap2\n              pop\n              pop\n              0x01\n              swap1\n              sub\n              swap1\n              0x00\n              mstore\n              keccak256(0x00, 0x20)\n              swap1\n              0x03\n              mul\n              add\n              0x00\n              swap1\n              swap2\n              swap1\n              swap2\n              swap1\n              swap2\n              pop\n              0x00\n              dup3\n              add\n              mload\n              dup2\n              0x00\n              add\n              swap1\n              dup2\n              tag_41\n              swap2\n              swap1\n              tag_42\n              jump\t// in\n            tag_41:\n              pop\n              0x20\n              dup3\n              add\n              mload\n              dup2\n              0x01\n              add\n              sstore\n              0x40\n              dup3\n              add\n              mload\n              dup2\n              0x02\n              add\n              sstore\n              pop\n              pop\n                /* \"arrays02.sol\":278:437  {//Infinite gas is being shown bcz string size is indefinite... */\n              pop\n                /* \"arrays02.sol\":213:437  function show(string memory _name, uint _bal, uint _nonce) public{//Infinite gas is being shown bcz string size is indefinite... */\n              pop\n              pop\n              pop\n              jump\t// out\n                /* \"#utility.yul\":7:82   */\n            tag_43:\n                /* \"#utility.yul\":40:46   */\n              0x00\n                /* \"#utility.yul\":73:75   */\n              0x40\n                /* \"#utility.yul\":67:76   */\n              mload\n                /* \"#utility.yul\":57:76   */\n              swap1\n              pop\n                /* \"#utility.yul\":7:82   */\n              swap1\n              jump\t// out\n                /* \"#utility.yul\":88:205   */\n            tag_44:\n                /* \"#utility.yul\":197:198   */\n              0x00\n                /* \"#utility.yul\":194:195   */\n              0x00\n                /* \"#utility.yul\":187:199   */\n              revert\n                /* \"#utility.yul\":211:328   */\n            tag_45:\n                /* \"#utility.yul\":320:321   */\n              0x00\n                /* \"#utility.yul\":317:318   */\n              0x00\n                /* \"#utility.yul\":310:322   */\n              revert\n                /* \"#utility.yul\":334:411   */\n            tag_46:\n                /* \"#utility.yul\":371:378   */\n              0x00\n                /* \"#utility.yul\":400:405   */\n              dup2\n                /* \"#utility.yul\":389:405   */\n              swap1\n              pop\n                /* \"#utility.yul\":334:411   */\n              swap2\n              swap1\n              pop\n              jump\t// out\n                /* \"#utility.yul\":417:539   */\n            tag_47:\n                /* \"#utility.yul\":490:514   */\n              tag_86\n                /* \"#utility.yul\":508:513   */\n              dup2\n                /* \"#utility.yul\":490:514   */\n              tag_46\n              jump\t// in\n            tag_86:\n                /* \"#utility.yul\":483:488   */\n              dup2\n                /* \"#utility.yul\":480:515   */\n              eq\n                /* \"#utility.yul\":470:533   */\n              tag_87\n              jumpi\n                /* \"#utility.yul\":529:530   */\n              0x00\n                /* \"#utility.yul\":526:527   */\n              0x00\n                /* \"#utility.yul\":519:531   */\n              revert\n                /* \"#utility.yul\":470:533   */\n            tag_87:\n                /* \"#utility.yul\":417:539   */\n              pop\n              jump\t// out\n                /* \"#utility.yul\":545:684   */\n            tag_48:\n                /* \"#utility.yul\":591:596   */\n              0x00\n                /* \"#utility.yul\":629:635   */\n              dup2\n                /* \"#utility.yul\":616:636   */\n              calldataload\n                /* \"#utility.yul\":607:636   */\n              swap1\n              pop\n                /* \"#utility.yul\":645:678   */\n              tag_89\n                /* \"#utility.yul\":672:677   */\n              dup2\n                /* \"#utility.yul\":645:678   */\n              tag_47\n              jump\t// in\n            tag_89:\n                /* \"#utility.yul\":545:684   */\n              swap3\n              swap2\n              pop\n              pop\n              jump\t// out\n                /* \"#utility.yul\":690:1019   */\n            tag_8:\n                /* \"#utility.yul\":749:755   */\n              0x00\n                /* \"#utility.yul\":798:800   */\n              0x20\n                /* \"#utility.yul\":786:795   */\n              dup3\n                /* \"#utility.yul\":777:784   */\n              dup5\n                /* \"#utility.yul\":773:796   */\n              sub\n                /* \"#utility.yul\":769:801   */\n              slt\n                /* \"#utility.yul\":766:885   */\n              iszero\n              tag_91\n              jumpi\n                /* \"#utility.yul\":804:883   */\n              tag_92\n              tag_44\n              jump\t// in\n            tag_92:\n                /* \"#utility.yul\":766:885   */\n            tag_91:\n                /* \"#utility.yul\":924:925   */\n              0x00\n                /* \"#utility.yul\":949:1002   */\n              tag_93\n                /* \"#utility.yul\":994:1001   */\n              dup5\n                /* \"#utility.yul\":985:991   */\n              dup3\n                /* \"#utility.yul\":974:983   */\n              dup6\n                /* \"#utility.yul\":970:992   */\n              add\n                /* \"#utility.yul\":949:1002   */\n              tag_48\n              jump\t// in\n            tag_93:\n                /* \"#utility.yul\":939:1002   */\n              swap2\n              pop\n                /* \"#utility.yul\":895:1012   */\n              pop\n                /* \"#utility.yul\":690:1019   */\n              swap3\n              swap2\n              pop\n              pop\n              jump\t// out\n                /* \"#utility.yul\":1025:1124   */\n            tag_49:\n                /* \"#utility.yul\":1077:1083   */\n              0x00\n                /* \"#utility.yul\":1111:1116   */\n              dup2\n                /* \"#utility.yul\":1105:1117   */\n              mload\n                /* \"#utility.yul\":1095:1117   */\n              swap1\n              pop\n                /* \"#utility.yul\":1025:1124   */\n              swap2\n              swap1\n              pop\n              jump\t// out\n                /* \"#utility.yul\":1130:1299   */\n            tag_50:\n                /* \"#utility.yul\":1214:1225   */\n              0x00\n                /* \"#utility.yul\":1248:1254   */\n              dup3\n                /* \"#utility.yul\":1243:1246   */\n              dup3\n                /* \"#utility.yul\":1236:1255   */\n              mstore\n                /* \"#utility.yul\":1288:1292   */\n              0x20\n                /* \"#utility.yul\":1283:1286   */\n              dup3\n                /* \"#utility.yul\":1279:1293   */\n              add\n                /* \"#utility.yul\":1264:1293   */\n              swap1\n              pop\n                /* \"#utility.yul\":1130:1299   */\n              swap3\n              swap2\n              pop\n              pop\n              jump\t// out\n                /* \"#utility.yul\":1305:1444   */\n            tag_51:\n                /* \"#utility.yul\":1394:1400   */\n              dup3\n                /* \"#utility.yul\":1389:1392   */\n              dup2\n                /* \"#utility.yul\":1384:1387   */\n              dup4\n                /* \"#utility.yul\":1378:1401   */\n              mcopy\n                /* \"#utility.yul\":1435:1436   */\n              0x00\n                /* \"#utility.yul\":1426:1432   */\n              dup4\n                /* \"#utility.yul\":1421:1424   */\n              dup4\n                /* \"#utility.yul\":1417:1433   */\n              add\n                /* \"#utility.yul\":1410:1437   */\n              mstore\n                /* \"#utility.yul\":1305:1444   */\n              pop\n              pop\n              pop\n              jump\t// out\n                /* \"#utility.yul\":1450:1552   */\n            tag_52:\n                /* \"#utility.yul\":1491:1497   */\n              0x00\n                /* \"#utility.yul\":1542:1544   */\n              0x1f\n                /* \"#utility.yul\":1538:1545   */\n              not\n                /* \"#utility.yul\":1533:1535   */\n              0x1f\n                /* \"#utility.yul\":1526:1531   */\n              dup4\n                /* \"#utility.yul\":1522:1536   */\n              add\n                /* \"#utility.yul\":1518:1546   */\n              and\n                /* \"#utility.yul\":1508:1546   */\n              swap1\n              pop\n                /* \"#utility.yul\":1450:1552   */\n              swap2\n              swap1\n              pop\n              jump\t// out\n                /* \"#utility.yul\":1558:1935   */\n            tag_53:\n                /* \"#utility.yul\":1646:1649   */\n              0x00\n                /* \"#utility.yul\":1674:1713   */\n              tag_99\n                /* \"#utility.yul\":1707:1712   */\n              dup3\n                /* \"#utility.yul\":1674:1713   */\n              tag_49\n              jump\t// in\n            tag_99:\n                /* \"#utility.yul\":1729:1800   */\n              tag_100\n                /* \"#utility.yul\":1793:1799   */\n              dup2\n                /* \"#utility.yul\":1788:1791   */\n              dup6\n                /* \"#utility.yul\":1729:1800   */\n              tag_50\n              jump\t// in\n            tag_100:\n                /* \"#utility.yul\":1722:1800   */\n              swap4\n              pop\n                /* \"#utility.yul\":1809:1874   */\n              tag_101\n                /* \"#utility.yul\":1867:1873   */\n              dup2\n                /* \"#utility.yul\":1862:1865   */\n              dup6\n                /* \"#utility.yul\":1855:1859   */\n              0x20\n                /* \"#utility.yul\":1848:1853   */\n              dup7\n                /* \"#utility.yul\":1844:1860   */\n              add\n                /* \"#utility.yul\":1809:1874   */\n              tag_51\n              jump\t// in\n            tag_101:\n                /* \"#utility.yul\":1899:1928   */\n              tag_102\n                /* \"#utility.yul\":1921:1927   */\n              dup2\n                /* \"#utility.yul\":1899:1928   */\n              tag_52\n              jump\t// in\n            tag_102:\n                /* \"#utility.yul\":1894:1897   */\n              dup5\n                /* \"#utility.yul\":1890:1929   */\n              add\n                /* \"#utility.yul\":1883:1929   */\n              swap2\n              pop\n                /* \"#utility.yul\":1650:1935   */\n              pop\n                /* \"#utility.yul\":1558:1935   */\n              swap3\n              swap2\n              pop\n              pop\n              jump\t// out\n                /* \"#utility.yul\":1941:2254   */\n            tag_11:\n                /* \"#utility.yul\":2054:2058   */\n              0x00\n                /* \"#utility.yul\":2092:2094   */\n              0x20\n                /* \"#utility.yul\":2081:2090   */\n              dup3\n                /* \"#utility.yul\":2077:2095   */\n              add\n                /* \"#utility.yul\":2069:2095   */\n              swap1\n              pop\n                /* \"#utility.yul\":2141:2150   */\n              dup2\n                /* \"#utility.yul\":2135:2139   */\n              dup2\n                /* \"#utility.yul\":2131:2151   */\n              sub\n                /* \"#utility.yul\":2127:2128   */\n              0x00\n                /* \"#utility.yul\":2116:2125   */\n              dup4\n                /* \"#utility.yul\":2112:2129   */\n              add\n                /* \"#utility.yul\":2105:2152   */\n              mstore\n                /* \"#utility.yul\":2169:2247   */\n              tag_104\n                /* \"#utility.yul\":2242:2246   */\n              dup2\n                /* \"#utility.yul\":2233:2239   */\n              dup5\n                /* \"#utility.yul\":2169:2247   */\n              tag_53\n              jump\t// in\n            tag_104:\n                /* \"#utility.yul\":2161:2247   */\n              swap1\n              pop\n                /* \"#utility.yul\":1941:2254   */\n              swap3\n              swap2\n              pop\n              pop\n              jump\t// out\n                /* \"#utility.yul\":2260:2378   */\n            tag_54:\n                /* \"#utility.yul\":2347:2371   */\n              tag_106\n                /* \"#utility.yul\":2365:2370   */\n              dup2\n                /* \"#utility.yul\":2347:2371   */\n              tag_46\n              jump\t// in\n            tag_106:\n                /* \"#utility.yul\":2342:2345   */\n              dup3\n                /* \"#utility.yul\":2335:2372   */\n              mstore\n                /* \"#utility.yul\":2260:2378   */\n              pop\n              pop\n              jump\t// out\n                /* \"#utility.yul\":2384:2917   */\n            tag_16:\n                /* \"#utility.yul\":2553:2557   */\n              0x00\n                /* \"#utility.yul\":2591:2593   */\n              0x60\n                /* \"#utility.yul\":2580:2589   */\n              dup3\n                /* \"#utility.yul\":2576:2594   */\n              add\n                /* \"#utility.yul\":2568:2594   */\n              swap1\n              pop\n                /* \"#utility.yul\":2640:2649   */\n              dup2\n                /* \"#utility.yul\":2634:2638   */\n              dup2\n                /* \"#utility.yul\":2630:2650   */\n              sub\n                /* \"#utility.yul\":2626:2627   */\n              0x00\n                /* \"#utility.yul\":2615:2624   */\n              dup4\n                /* \"#utility.yul\":2611:2628   */\n              add\n                /* \"#utility.yul\":2604:2651   */\n              mstore\n                /* \"#utility.yul\":2668:2746   */\n              tag_108\n                /* \"#utility.yul\":2741:2745   */\n              dup2\n                /* \"#utility.yul\":2732:2738   */\n              dup7\n                /* \"#utility.yul\":2668:2746   */\n              tag_53\n              jump\t// in\n            tag_108:\n                /* \"#utility.yul\":2660:2746   */\n              swap1\n              pop\n                /* \"#utility.yul\":2756:2828   */\n              tag_109\n                /* \"#utility.yul\":2824:2826   */\n              0x20\n                /* \"#utility.yul\":2813:2822   */\n              dup4\n                /* \"#utility.yul\":2809:2827   */\n              add\n                /* \"#utility.yul\":2800:2806   */\n              dup6\n                /* \"#utility.yul\":2756:2828   */\n              tag_54\n              jump\t// in\n            tag_109:\n                /* \"#utility.yul\":2838:2910   */\n              tag_110\n                /* \"#utility.yul\":2906:2908   */\n              0x40\n                /* \"#utility.yul\":2895:2904   */\n              dup4\n                /* \"#utility.yul\":2891:2909   */\n              add\n                /* \"#utility.yul\":2882:2888   */\n              dup5\n                /* \"#utility.yul\":2838:2910   */\n              tag_54\n              jump\t// in\n            tag_110:\n                /* \"#utility.yul\":2384:2917   */\n              swap5\n              swap4\n              pop\n              pop\n              pop\n              pop\n              jump\t// out\n                /* \"#utility.yul\":2923:3040   */\n            tag_55:\n                /* \"#utility.yul\":3032:3033   */\n              0x00\n                /* \"#utility.yul\":3029:3030   */\n              0x00\n                /* \"#utility.yul\":3022:3034   */\n              revert\n                /* \"#utility.yul\":3046:3163   */\n            tag_56:\n                /* \"#utility.yul\":3155:3156   */\n              0x00\n                /* \"#utility.yul\":3152:3153   */\n              0x00\n                /* \"#utility.yul\":3145:3157   */\n              revert\n                /* \"#utility.yul\":3169:3349   */\n            tag_57:\n                /* \"#utility.yul\":3217:3294   */\n              0x4e487b7100000000000000000000000000000000000000000000000000000000\n                /* \"#utility.yul\":3214:3215   */\n              0x00\n                /* \"#utility.yul\":3207:3295   */\n              mstore\n                /* \"#utility.yul\":3314:3318   */\n              0x41\n                /* \"#utility.yul\":3311:3312   */\n              0x04\n                /* \"#utility.yul\":3304:3319   */\n              mstore\n                /* \"#utility.yul\":3338:3342   */\n              0x24\n                /* \"#utility.yul\":3335:3336   */\n              0x00\n                /* \"#utility.yul\":3328:3343   */\n              revert\n                /* \"#utility.yul\":3355:3636   */\n            tag_58:\n                /* \"#utility.yul\":3438:3465   */\n              tag_115\n                /* \"#utility.yul\":3460:3464   */\n              dup3\n                /* \"#utility.yul\":3438:3465   */\n              tag_52\n              jump\t// in\n            tag_115:\n                /* \"#utility.yul\":3430:3436   */\n              dup2\n                /* \"#utility.yul\":3426:3466   */\n              add\n                /* \"#utility.yul\":3568:3574   */\n              dup2\n                /* \"#utility.yul\":3556:3566   */\n              dup2\n                /* \"#utility.yul\":3553:3575   */\n              lt\n                /* \"#utility.yul\":3532:3550   */\n              0xffffffffffffffff\n                /* \"#utility.yul\":3520:3530   */\n              dup3\n                /* \"#utility.yul\":3517:3551   */\n              gt\n                /* \"#utility.yul\":3514:3576   */\n              or\n                /* \"#utility.yul\":3511:3599   */\n              iszero\n              tag_116\n              jumpi\n                /* \"#utility.yul\":3579:3597   */\n              tag_117\n              tag_57\n              jump\t// in\n            tag_117:\n                /* \"#utility.yul\":3511:3599   */\n            tag_116:\n                /* \"#utility.yul\":3619:3629   */\n              dup1\n                /* \"#utility.yul\":3615:3617   */\n              0x40\n                /* \"#utility.yul\":3608:3630   */\n              mstore\n                /* \"#utility.yul\":3398:3636   */\n              pop\n                /* \"#utility.yul\":3355:3636   */\n              pop\n              pop\n              jump\t// out\n                /* \"#utility.yul\":3642:3771   */\n            tag_59:\n                /* \"#utility.yul\":3676:3682   */\n              0x00\n                /* \"#utility.yul\":3703:3723   */\n              tag_119\n              tag_43\n              jump\t// in\n            tag_119:\n                /* \"#utility.yul\":3693:3723   */\n              swap1\n              pop\n                /* \"#utility.yul\":3732:3765   */\n              tag_120\n                /* \"#utility.yul\":3760:3764   */\n              dup3\n                /* \"#utility.yul\":3752:3758   */\n              dup3\n                /* \"#utility.yul\":3732:3765   */\n              tag_58\n              jump\t// in\n            tag_120:\n                /* \"#utility.yul\":3642:3771   */\n              swap2\n              swap1\n              pop\n              jump\t// out\n                /* \"#utility.yul\":3777:4085   */\n            tag_60:\n                /* \"#utility.yul\":3839:3843   */\n              0x00\n                /* \"#utility.yul\":3929:3947   */\n              0xffffffffffffffff\n                /* \"#utility.yul\":3921:3927   */\n              dup3\n                /* \"#utility.yul\":3918:3948   */\n              gt\n                /* \"#utility.yul\":3915:3971   */\n              iszero\n              tag_122\n              jumpi\n                /* \"#utility.yul\":3951:3969   */\n              tag_123\n              tag_57\n              jump\t// in\n            tag_123:\n                /* \"#utility.yul\":3915:3971   */\n            tag_122:\n                /* \"#utility.yul\":3989:4018   */\n              tag_124\n                /* \"#utility.yul\":4011:4017   */\n              dup3\n                /* \"#utility.yul\":3989:4018   */\n              tag_52\n              jump\t// in\n            tag_124:\n                /* \"#utility.yul\":3981:4018   */\n              swap1\n              pop\n                /* \"#utility.yul\":4073:4077   */\n              0x20\n                /* \"#utility.yul\":4067:4071   */\n              dup2\n                /* \"#utility.yul\":4063:4078   */\n              add\n                /* \"#utility.yul\":4055:4078   */\n              swap1\n              pop\n                /* \"#utility.yul\":3777:4085   */\n              swap2\n              swap1\n              pop\n              jump\t// out\n                /* \"#utility.yul\":4091:4239   */\n            tag_61:\n                /* \"#utility.yul\":4189:4195   */\n              dup3\n                /* \"#utility.yul\":4184:4187   */\n              dup2\n                /* \"#utility.yul\":4179:4182   */\n              dup4\n                /* \"#utility.yul\":4166:4196   */\n              calldatacopy\n                /* \"#utility.yul\":4230:4231   */\n              0x00\n                /* \"#utility.yul\":4221:4227   */\n              dup4\n                /* \"#utility.yul\":4216:4219   */\n              dup4\n                /* \"#utility.yul\":4212:4228   */\n              add\n                /* \"#utility.yul\":4205:4232   */\n              mstore\n                /* \"#utility.yul\":4091:4239   */\n              pop\n              pop\n              pop\n              jump\t// out\n                /* \"#utility.yul\":4245:4670   */\n            tag_62:\n                /* \"#utility.yul\":4323:4328   */\n              0x00\n                /* \"#utility.yul\":4348:4414   */\n              tag_127\n                /* \"#utility.yul\":4364:4413   */\n              tag_128\n                /* \"#utility.yul\":4406:4412   */\n              dup5\n                /* \"#utility.yul\":4364:4413   */\n              tag_60\n              jump\t// in\n            tag_128:\n                /* \"#utility.yul\":4348:4414   */\n              tag_59\n              jump\t// in\n            tag_127:\n                /* \"#utility.yul\":4339:4414   */\n              swap1\n              pop\n                /* \"#utility.yul\":4437:4443   */\n              dup3\n                /* \"#utility.yul\":4430:4435   */\n              dup2\n                /* \"#utility.yul\":4423:4444   */\n              mstore\n                /* \"#utility.yul\":4475:4479   */\n              0x20\n                /* \"#utility.yul\":4468:4473   */\n              dup2\n                /* \"#utility.yul\":4464:4480   */\n              add\n                /* \"#utility.yul\":4513:4516   */\n              dup5\n                /* \"#utility.yul\":4504:4510   */\n              dup5\n                /* \"#utility.yul\":4499:4502   */\n              dup5\n                /* \"#utility.yul\":4495:4511   */\n              add\n                /* \"#utility.yul\":4492:4517   */\n              gt\n                /* \"#utility.yul\":4489:4601   */\n              iszero\n              tag_129\n              jumpi\n                /* \"#utility.yul\":4520:4599   */\n              tag_130\n              tag_56\n              jump\t// in\n            tag_130:\n                /* \"#utility.yul\":4489:4601   */\n            tag_129:\n                /* \"#utility.yul\":4610:4664   */\n              tag_131\n                /* \"#utility.yul\":4657:4663   */\n              dup5\n                /* \"#utility.yul\":4652:4655   */\n              dup3\n                /* \"#utility.yul\":4647:4650   */\n              dup6\n                /* \"#utility.yul\":4610:4664   */\n              tag_61\n              jump\t// in\n            tag_131:\n                /* \"#utility.yul\":4329:4670   */\n              pop\n                /* \"#utility.yul\":4245:4670   */\n              swap4\n              swap3\n              pop\n              pop\n              pop\n              jump\t// out\n                /* \"#utility.yul\":4690:5030   */\n            tag_63:\n                /* \"#utility.yul\":4746:4751   */\n              0x00\n                /* \"#utility.yul\":4795:4798   */\n              dup3\n                /* \"#utility.yul\":4788:4792   */\n              0x1f\n                /* \"#utility.yul\":4780:4786   */\n              dup4\n                /* \"#utility.yul\":4776:4793   */\n              add\n                /* \"#utility.yul\":4772:4799   */\n              slt\n                /* \"#utility.yul\":4762:4884   */\n              tag_133\n              jumpi\n                /* \"#utility.yul\":4803:4882   */\n              tag_134\n              tag_55\n              jump\t// in\n            tag_134:\n                /* \"#utility.yul\":4762:4884   */\n            tag_133:\n                /* \"#utility.yul\":4920:4926   */\n              dup2\n                /* \"#utility.yul\":4907:4927   */\n              calldataload\n                /* \"#utility.yul\":4945:5024   */\n              tag_135\n                /* \"#utility.yul\":5020:5023   */\n              dup5\n                /* \"#utility.yul\":5012:5018   */\n              dup3\n                /* \"#utility.yul\":5005:5009   */\n              0x20\n                /* \"#utility.yul\":4997:5003   */\n              dup7\n                /* \"#utility.yul\":4993:5010   */\n              add\n                /* \"#utility.yul\":4945:5024   */\n              tag_62\n              jump\t// in\n            tag_135:\n                /* \"#utility.yul\":4936:5024   */\n              swap2\n              pop\n                /* \"#utility.yul\":4752:5030   */\n              pop\n                /* \"#utility.yul\":4690:5030   */\n              swap3\n              swap2\n              pop\n              pop\n              jump\t// out\n                /* \"#utility.yul\":5036:5835   */\n            tag_19:\n                /* \"#utility.yul\":5123:5129   */\n              0x00\n                /* \"#utility.yul\":5131:5137   */\n              0x00\n                /* \"#utility.yul\":5139:5145   */\n              0x00\n                /* \"#utility.yul\":5188:5190   */\n              0x60\n                /* \"#utility.yul\":5176:5185   */\n              dup5\n                /* \"#utility.yul\":5167:5174   */\n              dup7\n                /* \"#utility.yul\":5163:5186   */\n              sub\n                /* \"#utility.yul\":5159:5191   */\n              slt\n                /* \"#utility.yul\":5156:5275   */\n              iszero\n              tag_137\n              jumpi\n                /* \"#utility.yul\":5194:5273   */\n              tag_138\n              tag_44\n              jump\t// in\n            tag_138:\n                /* \"#utility.yul\":5156:5275   */\n            tag_137:\n                /* \"#utility.yul\":5342:5343   */\n              0x00\n                /* \"#utility.yul\":5331:5340   */\n              dup5\n                /* \"#utility.yul\":5327:5344   */\n              add\n                /* \"#utility.yul\":5314:5345   */\n              calldataload\n                /* \"#utility.yul\":5372:5390   */\n              0xffffffffffffffff\n                /* \"#utility.yul\":5364:5370   */\n              dup2\n                /* \"#utility.yul\":5361:5391   */\n              gt\n                /* \"#utility.yul\":5358:5475   */\n              iszero\n              tag_139\n              jumpi\n                /* \"#utility.yul\":5394:5473   */\n              tag_140\n              tag_45\n              jump\t// in\n            tag_140:\n                /* \"#utility.yul\":5358:5475   */\n            tag_139:\n                /* \"#utility.yul\":5499:5562   */\n              tag_141\n                /* \"#utility.yul\":5554:5561   */\n              dup7\n                /* \"#utility.yul\":5545:5551   */\n              dup3\n                /* \"#utility.yul\":5534:5543   */\n              dup8\n                /* \"#utility.yul\":5530:5552   */\n              add\n                /* \"#utility.yul\":5499:5562   */\n              tag_63\n              jump\t// in\n            tag_141:\n                /* \"#utility.yul\":5489:5562   */\n              swap4\n              pop\n                /* \"#utility.yul\":5285:5572   */\n              pop\n                /* \"#utility.yul\":5611:5613   */\n              0x20\n                /* \"#utility.yul\":5637:5690   */\n              tag_142\n                /* \"#utility.yul\":5682:5689   */\n              dup7\n                /* \"#utility.yul\":5673:5679   */\n              dup3\n                /* \"#utility.yul\":5662:5671   */\n              dup8\n                /* \"#utility.yul\":5658:5680   */\n              add\n                /* \"#utility.yul\":5637:5690   */\n              tag_48\n              jump\t// in\n            tag_142:\n                /* \"#utility.yul\":5627:5690   */\n              swap3\n              pop\n                /* \"#utility.yul\":5582:5700   */\n              pop\n                /* \"#utility.yul\":5739:5741   */\n              0x40\n                /* \"#utility.yul\":5765:5818   */\n              tag_143\n                /* \"#utility.yul\":5810:5817   */\n              dup7\n                /* \"#utility.yul\":5801:5807   */\n              dup3\n                /* \"#utility.yul\":5790:5799   */\n              dup8\n                /* \"#utility.yul\":5786:5808   */\n              add\n                /* \"#utility.yul\":5765:5818   */\n              tag_48\n              jump\t// in\n            tag_143:\n                /* \"#utility.yul\":5755:5818   */\n              swap2\n              pop\n                /* \"#utility.yul\":5710:5828   */\n              pop\n                /* \"#utility.yul\":5036:5835   */\n              swap3\n              pop\n              swap3\n              pop\n              swap3\n              jump\t// out\n                /* \"#utility.yul\":5841:6021   */\n            tag_24:\n                /* \"#utility.yul\":5889:5966   */\n              0x4e487b7100000000000000000000000000000000000000000000000000000000\n                /* \"#utility.yul\":5886:5887   */\n              0x00\n                /* \"#utility.yul\":5879:5967   */\n              mstore\n                /* \"#utility.yul\":5986:5990   */\n              0x32\n                /* \"#utility.yul\":5983:5984   */\n              0x04\n                /* \"#utility.yul\":5976:5991   */\n              mstore\n                /* \"#utility.yul\":6010:6014   */\n              0x24\n                /* \"#utility.yul\":6007:6008   */\n              0x00\n                /* \"#utility.yul\":6000:6015   */\n              revert\n                /* \"#utility.yul\":6027:6207   */\n            tag_64:\n                /* \"#utility.yul\":6075:6152   */\n              0x4e487b7100000000000000000000000000000000000000000000000000000000\n                /* \"#utility.yul\":6072:6073   */\n              0x00\n                /* \"#utility.yul\":6065:6153   */\n              mstore\n                /* \"#utility.yul\":6172:6176   */\n              0x22\n                /* \"#utility.yul\":6169:6170   */\n              0x04\n                /* \"#utility.yul\":6162:6177   */\n              mstore\n                /* \"#utility.yul\":6196:6200   */\n              0x24\n                /* \"#utility.yul\":6193:6194   */\n              0x00\n                /* \"#utility.yul\":6186:6201   */\n              revert\n                /* \"#utility.yul\":6213:6533   */\n            tag_27:\n                /* \"#utility.yul\":6257:6263   */\n              0x00\n                /* \"#utility.yul\":6294:6295   */\n              0x02\n                /* \"#utility.yul\":6288:6292   */\n              dup3\n                /* \"#utility.yul\":6284:6296   */\n              div\n                /* \"#utility.yul\":6274:6296   */\n              swap1\n              pop\n                /* \"#utility.yul\":6341:6342   */\n              0x01\n                /* \"#utility.yul\":6335:6339   */\n              dup3\n                /* \"#utility.yul\":6331:6343   */\n              and\n                /* \"#utility.yul\":6362:6380   */\n              dup1\n                /* \"#utility.yul\":6352:6433   */\n              tag_147\n              jumpi\n                /* \"#utility.yul\":6418:6422   */\n              0x7f\n                /* \"#utility.yul\":6410:6416   */\n              dup3\n                /* \"#utility.yul\":6406:6423   */\n              and\n                /* \"#utility.yul\":6396:6423   */\n              swap2\n              pop\n                /* \"#utility.yul\":6352:6433   */\n            tag_147:\n                /* \"#utility.yul\":6480:6482   */\n              0x20\n                /* \"#utility.yul\":6472:6478   */\n              dup3\n                /* \"#utility.yul\":6469:6483   */\n              lt\n                /* \"#utility.yul\":6449:6467   */\n              dup2\n                /* \"#utility.yul\":6446:6484   */\n              sub\n                /* \"#utility.yul\":6443:6527   */\n              tag_148\n              jumpi\n                /* \"#utility.yul\":6499:6517   */\n              tag_149\n              tag_64\n              jump\t// in\n            tag_149:\n                /* \"#utility.yul\":6443:6527   */\n            tag_148:\n                /* \"#utility.yul\":6264:6533   */\n              pop\n                /* \"#utility.yul\":6213:6533   */\n              swap2\n              swap1\n              pop\n              jump\t// out\n                /* \"#utility.yul\":6539:6680   */\n            tag_65:\n                /* \"#utility.yul\":6588:6592   */\n              0x00\n                /* \"#utility.yul\":6611:6614   */\n              dup2\n                /* \"#utility.yul\":6603:6614   */\n              swap1\n              pop\n                /* \"#utility.yul\":6634:6637   */\n              dup2\n                /* \"#utility.yul\":6631:6632   */\n              0x00\n                /* \"#utility.yul\":6624:6638   */\n              mstore\n                /* \"#utility.yul\":6668:6672   */\n              0x20\n                /* \"#utility.yul\":6665:6666   */\n              0x00\n                /* \"#utility.yul\":6655:6673   */\n              keccak256\n                /* \"#utility.yul\":6647:6673   */\n              swap1\n              pop\n                /* \"#utility.yul\":6539:6680   */\n              swap2\n              swap1\n              pop\n              jump\t// out\n                /* \"#utility.yul\":6686:6779   */\n            tag_66:\n                /* \"#utility.yul\":6723:6729   */\n              0x00\n                /* \"#utility.yul\":6770:6772   */\n              0x20\n                /* \"#utility.yul\":6765:6767   */\n              0x1f\n                /* \"#utility.yul\":6758:6763   */\n              dup4\n                /* \"#utility.yul\":6754:6768   */\n              add\n                /* \"#utility.yul\":6750:6773   */\n              div\n                /* \"#utility.yul\":6740:6773   */\n              swap1\n              pop\n                /* \"#utility.yul\":6686:6779   */\n              swap2\n              swap1\n              pop\n              jump\t// out\n                /* \"#utility.yul\":6785:6892   */\n            tag_67:\n                /* \"#utility.yul\":6829:6837   */\n              0x00\n                /* \"#utility.yul\":6879:6884   */\n              dup3\n                /* \"#utility.yul\":6873:6877   */\n              dup3\n                /* \"#utility.yul\":6869:6885   */\n              shl\n                /* \"#utility.yul\":6848:6885   */\n              swap1\n              pop\n                /* \"#utility.yul\":6785:6892   */\n              swap3\n              swap2\n              pop\n              pop\n              jump\t// out\n                /* \"#utility.yul\":6898:7291   */\n            tag_68:\n                /* \"#utility.yul\":6967:6973   */\n              0x00\n                /* \"#utility.yul\":7017:7018   */\n              0x08\n                /* \"#utility.yul\":7005:7015   */\n              dup4\n                /* \"#utility.yul\":7001:7019   */\n              mul\n                /* \"#utility.yul\":7040:7137   */\n              tag_154\n                /* \"#utility.yul\":7070:7136   */\n              0xffffffffffffffffffffffffffffffffffffffffffffffffffffffffffffffff\n                /* \"#utility.yul\":7059:7068   */\n              dup3\n                /* \"#utility.yul\":7040:7137   */\n              tag_67\n              jump\t// in\n            tag_154:\n                /* \"#utility.yul\":7158:7197   */\n              tag_155\n                /* \"#utility.yul\":7188:7196   */\n              dup7\n                /* \"#utility.yul\":7177:7186   */\n              dup4\n                /* \"#utility.yul\":7158:7197   */\n              tag_67\n              jump\t// in\n            tag_155:\n                /* \"#utility.yul\":7146:7197   */\n              swap6\n              pop\n                /* \"#utility.yul\":7230:7234   */\n              dup1\n                /* \"#utility.yul\":7226:7235   */\n              not\n                /* \"#utility.yul\":7219:7224   */\n              dup5\n                /* \"#utility.yul\":7215:7236   */\n              and\n                /* \"#utility.yul\":7206:7236   */\n              swap4\n              pop\n                /* \"#utility.yul\":7279:7283   */\n              dup1\n                /* \"#utility.yul\":7269:7277   */\n              dup7\n                /* \"#utility.yul\":7265:7284   */\n              and\n                /* \"#utility.yul\":7258:7263   */\n              dup5\n                /* \"#utility.yul\":7255:7285   */\n              or\n                /* \"#utility.yul\":7245:7285   */\n              swap3\n              pop\n                /* \"#utility.yul\":6974:7291   */\n              pop\n              pop\n                /* \"#utility.yul\":6898:7291   */\n              swap4\n              swap3\n              pop\n              pop\n              pop\n              jump\t// out\n                /* \"#utility.yul\":7297:7357   */\n            tag_69:\n                /* \"#utility.yul\":7325:7328   */\n              0x00\n                /* \"#utility.yul\":7346:7351   */\n              dup2\n                /* \"#utility.yul\":7339:7351   */\n              swap1\n              pop\n                /* \"#utility.yul\":7297:7357   */\n              swap2\n              swap1\n              pop\n              jump\t// out\n                /* \"#utility.yul\":7363:7505   */\n            tag_70:\n                /* \"#utility.yul\":7413:7422   */\n              0x00\n                /* \"#utility.yul\":7446:7499   */\n              tag_158\n                /* \"#utility.yul\":7464:7498   */\n              tag_159\n                /* \"#utility.yul\":7473:7497   */\n              tag_160\n                /* \"#utility.yul\":7491:7496   */\n              dup5\n                /* \"#utility.yul\":7473:7497   */\n              tag_46\n              jump\t// in\n            tag_160:\n                /* \"#utility.yul\":7464:7498   */\n              tag_69\n              jump\t// in\n            tag_159:\n                /* \"#utility.yul\":7446:7499   */\n              tag_46\n              jump\t// in\n            tag_158:\n                /* \"#utility.yul\":7433:7499   */\n              swap1\n              pop\n                /* \"#utility.yul\":7363:7505   */\n              swap2\n              swap1\n              pop\n              jump\t// out\n                /* \"#utility.yul\":7511:7586   */\n            tag_71:\n                /* \"#utility.yul\":7554:7557   */\n              0x00\n                /* \"#utility.yul\":7575:7580   */\n              dup2\n                /* \"#utility.yul\":7568:7580   */\n              swap1\n              pop\n                /* \"#utility.yul\":7511:7586   */\n              swap2\n              swap1\n              pop\n              jump\t// out\n                /* \"#utility.yul\":7592:7861   */\n            tag_72:\n                /* \"#utility.yul\":7702:7741   */\n              tag_163\n                /* \"#utility.yul\":7733:7740   */\n              dup4\n                /* \"#utility.yul\":7702:7741   */\n              tag_70\n              jump\t// in\n            tag_163:\n                /* \"#utility.yul\":7763:7854   */\n              tag_164\n                /* \"#utility.yul\":7812:7853   */\n              tag_165\n                /* \"#utility.yul\":7836:7852   */\n              dup3\n                /* \"#utility.yul\":7812:7853   */\n              tag_71\n              jump\t// in\n            tag_165:\n                /* \"#utility.yul\":7804:7810   */\n              dup5\n                /* \"#utility.yul\":7797:7801   */\n              dup5\n                /* \"#utility.yul\":7791:7802   */\n              sload\n                /* \"#utility.yul\":7763:7854   */\n              tag_68\n              jump\t// in\n            tag_164:\n                /* \"#utility.yul\":7757:7761   */\n              dup3\n                /* \"#utility.yul\":7750:7855   */\n              sstore\n                /* \"#utility.yul\":7668:7861   */\n              pop\n                /* \"#utility.yul\":7592:7861   */\n              pop\n              pop\n              pop\n              jump\t// out\n                /* \"#utility.yul\":7867:7940   */\n            tag_73:\n                /* \"#utility.yul\":7912:7915   */\n              0x00\n                /* \"#utility.yul\":7933:7934   */\n              0x00\n                /* \"#utility.yul\":7926:7934   */\n              swap1\n              pop\n                /* \"#utility.yul\":7867:7940   */\n              swap1\n              jump\t// out\n                /* \"#utility.yul\":7946:8135   */\n            tag_74:\n                /* \"#utility.yul\":8023:8055   */\n              tag_168\n              tag_73\n              jump\t// in\n            tag_168:\n                /* \"#utility.yul\":8064:8129   */\n              tag_169\n                /* \"#utility.yul\":8122:8128   */\n              dup2\n                /* \"#utility.yul\":8114:8120   */\n              dup5\n                /* \"#utility.yul\":8108:8112   */\n              dup5\n                /* \"#utility.yul\":8064:8129   */\n              tag_72\n              jump\t// in\n            tag_169:\n                /* \"#utility.yul\":7999:8135   */\n              pop\n                /* \"#utility.yul\":7946:8135   */\n              pop\n              pop\n              jump\t// out\n                /* \"#utility.yul\":8141:8327   */\n            tag_75:\n                /* \"#utility.yul\":8201:8321   */\n            tag_171:\n                /* \"#utility.yul\":8218:8221   */\n              dup2\n                /* \"#utility.yul\":8211:8216   */\n              dup2\n                /* \"#utility.yul\":8208:8222   */\n              lt\n                /* \"#utility.yul\":8201:8321   */\n              iszero\n              tag_173\n              jumpi\n                /* \"#utility.yul\":8272:8311   */\n              tag_174\n                /* \"#utility.yul\":8309:8310   */\n              0x00\n                /* \"#utility.yul\":8302:8307   */\n              dup3\n                /* \"#utility.yul\":8272:8311   */\n              tag_74\n              jump\t// in\n            tag_174:\n                /* \"#utility.yul\":8245:8246   */\n              0x01\n                /* \"#utility.yul\":8238:8243   */\n              dup2\n                /* \"#utility.yul\":8234:8247   */\n              add\n                /* \"#utility.yul\":8225:8247   */\n              swap1\n              pop\n                /* \"#utility.yul\":8201:8321   */\n              jump(tag_171)\n            tag_173:\n                /* \"#utility.yul\":8141:8327   */\n              pop\n              pop\n              jump\t// out\n                /* \"#utility.yul\":8333:8876   */\n            tag_76:\n                /* \"#utility.yul\":8434:8436   */\n              0x1f\n                /* \"#utility.yul\":8429:8432   */\n              dup3\n                /* \"#utility.yul\":8426:8437   */\n              gt\n                /* \"#utility.yul\":8423:8869   */\n              iszero\n              tag_176\n              jumpi\n                /* \"#utility.yul\":8468:8506   */\n              tag_177\n                /* \"#utility.yul\":8500:8505   */\n              dup2\n                /* \"#utility.yul\":8468:8506   */\n              tag_65\n              jump\t// in\n            tag_177:\n                /* \"#utility.yul\":8552:8581   */\n              tag_178\n                /* \"#utility.yul\":8570:8580   */\n              dup5\n                /* \"#utility.yul\":8552:8581   */\n              tag_66\n              jump\t// in\n            tag_178:\n                /* \"#utility.yul\":8542:8550   */\n              dup2\n                /* \"#utility.yul\":8538:8582   */\n              add\n                /* \"#utility.yul\":8735:8737   */\n              0x20\n                /* \"#utility.yul\":8723:8733   */\n              dup6\n                /* \"#utility.yul\":8720:8738   */\n              lt\n                /* \"#utility.yul\":8717:8766   */\n              iszero\n              tag_179\n              jumpi\n                /* \"#utility.yul\":8756:8764   */\n              dup2\n                /* \"#utility.yul\":8741:8764   */\n              swap1\n              pop\n                /* \"#utility.yul\":8717:8766   */\n            tag_179:\n                /* \"#utility.yul\":8779:8859   */\n              tag_180\n                /* \"#utility.yul\":8835:8857   */\n              tag_181\n                /* \"#utility.yul\":8853:8856   */\n              dup6\n                /* \"#utility.yul\":8835:8857   */\n              tag_66\n              jump\t// in\n            tag_181:\n                /* \"#utility.yul\":8825:8833   */\n              dup4\n                /* \"#utility.yul\":8821:8858   */\n              add\n                /* \"#utility.yul\":8808:8819   */\n              dup3\n                /* \"#utility.yul\":8779:8859   */\n              tag_75\n              jump\t// in\n            tag_180:\n                /* \"#utility.yul\":8438:8869   */\n              pop\n              pop\n                /* \"#utility.yul\":8423:8869   */\n            tag_176:\n                /* \"#utility.yul\":8333:8876   */\n              pop\n              pop\n              pop\n              jump\t// out\n                /* \"#utility.yul\":8882:8999   */\n            tag_77:\n                /* \"#utility.yul\":8936:8944   */\n              0x00\n                /* \"#utility.yul\":8986:8991   */\n              dup3\n                /* \"#utility.yul\":8980:8984   */\n              dup3\n                /* \"#utility.yul\":8976:8992   */\n              shr\n                /* \"#utility.yul\":8955:8992   */\n              swap1\n              pop\n                /* \"#utility.yul\":8882:8999   */\n              swap3\n              swap2\n              pop\n              pop\n              jump\t// out\n                /* \"#utility.yul\":9005:9174   */\n            tag_78:\n                /* \"#utility.yul\":9049:9055   */\n              0x00\n                /* \"#utility.yul\":9082:9133   */\n              tag_184\n                /* \"#utility.yul\":9130:9131   */\n              0x00\n                /* \"#utility.yul\":9126:9132   */\n              not\n                /* \"#utility.yul\":9118:9123   */\n              dup5\n                /* \"#utility.yul\":9115:9116   */\n              0x08\n                /* \"#utility.yul\":9111:9124   */\n              mul\n                /* \"#utility.yul\":9082:9133   */\n              tag_77\n              jump\t// in\n            tag_184:\n                /* \"#utility.yul\":9078:9134   */\n              not\n                /* \"#utility.yul\":9163:9167   */\n              dup1\n                /* \"#utility.yul\":9157:9161   */\n              dup4\n                /* \"#utility.yul\":9153:9168   */\n              and\n                /* \"#utility.yul\":9143:9168   */\n              swap2\n              pop\n                /* \"#utility.yul\":9056:9174   */\n              pop\n                /* \"#utility.yul\":9005:9174   */\n              swap3\n              swap2\n              pop\n              pop\n              jump\t// out\n                /* \"#utility.yul\":9179:9474   */\n            tag_79:\n                /* \"#utility.yul\":9255:9259   */\n              0x00\n                /* \"#utility.yul\":9401:9430   */\n              tag_186\n                /* \"#utility.yul\":9426:9429   */\n              dup4\n                /* \"#utility.yul\":9420:9424   */\n              dup4\n                /* \"#utility.yul\":9401:9430   */\n              tag_78\n              jump\t// in\n            tag_186:\n                /* \"#utility.yul\":9393:9430   */\n              swap2\n              pop\n                /* \"#utility.yul\":9463:9466   */\n              dup3\n                /* \"#utility.yul\":9460:9461   */\n              0x02\n                /* \"#utility.yul\":9456:9467   */\n              mul\n                /* \"#utility.yul\":9450:9454   */\n              dup3\n                /* \"#utility.yul\":9447:9468   */\n              or\n                /* \"#utility.yul\":9439:9468   */\n              swap1\n              pop\n                /* \"#utility.yul\":9179:9474   */\n              swap3\n              swap2\n              pop\n              pop\n              jump\t// out\n                /* \"#utility.yul\":9479:10874   */\n            tag_42:\n                /* \"#utility.yul\":9596:9633   */\n              tag_188\n                /* \"#utility.yul\":9629:9632   */\n              dup3\n                /* \"#utility.yul\":9596:9633   */\n              tag_49\n              jump\t// in\n            tag_188:\n                /* \"#utility.yul\":9698:9716   */\n              0xffffffffffffffff\n                /* \"#utility.yul\":9690:9696   */\n              dup2\n                /* \"#utility.yul\":9687:9717   */\n              gt\n                /* \"#utility.yul\":9684:9740   */\n              iszero\n              tag_189\n              jumpi\n                /* \"#utility.yul\":9720:9738   */\n              tag_190\n              tag_57\n              jump\t// in\n            tag_190:\n                /* \"#utility.yul\":9684:9740   */\n            tag_189:\n                /* \"#utility.yul\":9764:9802   */\n              tag_191\n                /* \"#utility.yul\":9796:9800   */\n              dup3\n                /* \"#utility.yul\":9790:9801   */\n              sload\n                /* \"#utility.yul\":9764:9802   */\n              tag_27\n              jump\t// in\n            tag_191:\n                /* \"#utility.yul\":9849:9916   */\n              tag_192\n                /* \"#utility.yul\":9909:9915   */\n              dup3\n                /* \"#utility.yul\":9901:9907   */\n              dup3\n                /* \"#utility.yul\":9895:9899   */\n              dup6\n                /* \"#utility.yul\":9849:9916   */\n              tag_76\n              jump\t// in\n            tag_192:\n                /* \"#utility.yul\":9943:9944   */\n              0x00\n                /* \"#utility.yul\":9967:9971   */\n              0x20\n                /* \"#utility.yul\":9954:9971   */\n              swap1\n              pop\n                /* \"#utility.yul\":9999:10001   */\n              0x1f\n                /* \"#utility.yul\":9991:9997   */\n              dup4\n                /* \"#utility.yul\":9988:10002   */\n              gt\n                /* \"#utility.yul\":10016:10017   */\n              0x01\n                /* \"#utility.yul\":10011:10629   */\n              dup2\n              eq\n              tag_194\n              jumpi\n                /* \"#utility.yul\":10673:10674   */\n              0x00\n                /* \"#utility.yul\":10690:10696   */\n              dup5\n                /* \"#utility.yul\":10687:10764   */\n              iszero\n              tag_195\n              jumpi\n                /* \"#utility.yul\":10739:10748   */\n              dup3\n                /* \"#utility.yul\":10734:10737   */\n              dup8\n                /* \"#utility.yul\":10730:10749   */\n              add\n                /* \"#utility.yul\":10724:10750   */\n              mload\n                /* \"#utility.yul\":10715:10750   */\n              swap1\n              pop\n                /* \"#utility.yul\":10687:10764   */\n            tag_195:\n                /* \"#utility.yul\":10790:10857   */\n              tag_196\n                /* \"#utility.yul\":10850:10856   */\n              dup6\n                /* \"#utility.yul\":10843:10848   */\n              dup3\n                /* \"#utility.yul\":10790:10857   */\n              tag_79\n              jump\t// in\n            tag_196:\n                /* \"#utility.yul\":10784:10788   */\n              dup7\n                /* \"#utility.yul\":10777:10858   */\n              sstore\n                /* \"#utility.yul\":10646:10868   */\n              pop\n                /* \"#utility.yul\":9981:10868   */\n              jump(tag_193)\n                /* \"#utility.yul\":10011:10629   */\n            tag_194:\n                /* \"#utility.yul\":10063:10067   */\n              0x1f\n                /* \"#utility.yul\":10059:10068   */\n              not\n                /* \"#utility.yul\":10051:10057   */\n              dup5\n                /* \"#utility.yul\":10047:10069   */\n              and\n                /* \"#utility.yul\":10097:10134   */\n              tag_197\n                /* \"#utility.yul\":10129:10133   */\n              dup7\n                /* \"#utility.yul\":10097:10134   */\n              tag_65\n              jump\t// in\n            tag_197:\n                /* \"#utility.yul\":10156:10157   */\n              0x00\n                /* \"#utility.yul\":10170:10378   */\n            tag_198:\n                /* \"#utility.yul\":10184:10191   */\n              dup3\n                /* \"#utility.yul\":10181:10182   */\n              dup2\n                /* \"#utility.yul\":10178:10192   */\n              lt\n                /* \"#utility.yul\":10170:10378   */\n              iszero\n              tag_200\n              jumpi\n                /* \"#utility.yul\":10263:10272   */\n              dup5\n                /* \"#utility.yul\":10258:10261   */\n              dup10\n                /* \"#utility.yul\":10254:10273   */\n              add\n                /* \"#utility.yul\":10248:10274   */\n              mload\n                /* \"#utility.yul\":10240:10246   */\n              dup3\n                /* \"#utility.yul\":10233:10275   */\n              sstore\n                /* \"#utility.yul\":10314:10315   */\n              0x01\n                /* \"#utility.yul\":10306:10312   */\n              dup3\n                /* \"#utility.yul\":10302:10316   */\n              add\n                /* \"#utility.yul\":10292:10316   */\n              swap2\n              pop\n                /* \"#utility.yul\":10361:10363   */\n              0x20\n                /* \"#utility.yul\":10350:10359   */\n              dup6\n                /* \"#utility.yul\":10346:10364   */\n              add\n                /* \"#utility.yul\":10333:10364   */\n              swap5\n              pop\n                /* \"#utility.yul\":10207:10211   */\n              0x20\n                /* \"#utility.yul\":10204:10205   */\n              dup2\n                /* \"#utility.yul\":10200:10212   */\n              add\n                /* \"#utility.yul\":10195:10212   */\n              swap1\n              pop\n                /* \"#utility.yul\":10170:10378   */\n              jump(tag_198)\n            tag_200:\n                /* \"#utility.yul\":10406:10412   */\n              dup7\n                /* \"#utility.yul\":10397:10404   */\n              dup4\n                /* \"#utility.yul\":10394:10413   */\n              lt\n                /* \"#utility.yul\":10391:10570   */\n              iszero\n              tag_201\n              jumpi\n                /* \"#utility.yul\":10464:10473   */\n              dup5\n                /* \"#utility.yul\":10459:10462   */\n              dup10\n                /* \"#utility.yul\":10455:10474   */\n              add\n                /* \"#utility.yul\":10449:10475   */\n              mload\n                /* \"#utility.yul\":10507:10555   */\n              tag_202\n                /* \"#utility.yul\":10549:10553   */\n              0x1f\n                /* \"#utility.yul\":10541:10547   */\n              dup10\n                /* \"#utility.yul\":10537:10554   */\n              and\n                /* \"#utility.yul\":10526:10535   */\n              dup3\n                /* \"#utility.yul\":10507:10555   */\n              tag_78\n              jump\t// in\n            tag_202:\n                /* \"#utility.yul\":10499:10505   */\n              dup4\n                /* \"#utility.yul\":10492:10556   */\n              sstore\n                /* \"#utility.yul\":10414:10570   */\n              pop\n                /* \"#utility.yul\":10391:10570   */\n            tag_201:\n                /* \"#utility.yul\":10616:10617   */\n              0x01\n                /* \"#utility.yul\":10612:10613   */\n              0x02\n                /* \"#utility.yul\":10604:10610   */\n              dup9\n                /* \"#utility.yul\":10600:10614   */\n              mul\n                /* \"#utility.yul\":10596:10618   */\n              add\n                /* \"#utility.yul\":10590:10594   */\n              dup9\n                /* \"#utility.yul\":10583:10619   */\n              sstore\n                /* \"#utility.yul\":10018:10629   */\n              pop\n              pop\n              pop\n                /* \"#utility.yul\":9981:10868   */\n            tag_193:\n              pop\n                /* \"#utility.yul\":9571:10874   */\n              pop\n              pop\n              pop\n                /* \"#utility.yul\":9479:10874   */\n              pop\n              pop\n              jump\t// out\n\n            auxdata: 0xa2646970667358221220f4380f12e37fc84a4591e4dea62fb4f49f68fa9052247c6f20520a67637ce55064736f6c634300081e0033\n        }\n    }\n\n    sub_1: assembly {\n            /* \"realProject.sol\":467:1065  contract skills{... */\n          mstore(0x40, 0x80)\n            /* \"realProject.sol\":743:744  1 */\n          0x01\n            /* \"realProject.sol\":732:744  uint _id = 1 */\n          0x02\n          sstore\n            /* \"realProject.sol\":467:1065  contract skills{... */\n          callvalue\n          dup1\n          iszero\n          tag_1\n          jumpi\n          revert(0x00, 0x00)\n        tag_1:\n          pop\n          dataSize(sub_0)\n          dup1\n          dataOffset(sub_0)\n          0x00\n          codecopy\n          0x00\n          return\n        stop\n\n        sub_0: assembly {\n                /* \"realProject.sol\":467:1065  contract skills{... */\n              mstore(0x40, 0x80)\n              callvalue\n              dup1\n              iszero\n              tag_1\n              jumpi\n              revert(0x00, 0x00)\n            tag_1:\n              pop\n              jumpi(tag_2, lt(calldatasize, 0x04))\n              shr(0xe0, calldataload(0x00))\n              dup1\n              0x66fdd768\n              eq\n              tag_3\n              jumpi\n              dup1\n              0xac3150b6\n              eq\n              tag_4\n              jumpi\n              dup1\n              0xeea90f15\n              eq\n              tag_5\n              jumpi\n            tag_2:\n              revert(0x00, 0x00)\n                /* \"realProject.sol\":681:725  mapping(uint=>skill_info) public idTODetails */\n            tag_3:\n              tag_6\n              0x04\n              dup1\n              calldatasize\n              sub\n              dup2\n              add\n              swap1\n              tag_7\n              swap2\n              swap1\n              tag_8\n              jump\t// in\n            tag_7:\n              tag_9\n              jump\t// in\n            tag_6:\n              mload(0x40)\n              tag_10\n              swap5\n              swap4\n              swap3\n              swap2\n              swap1\n              tag_11\n              jump\t// in\n            tag_10:\n              mload(0x40)\n              dup1\n              swap2\n              sub\n              swap1\n              return\n                /* \"realProject.sol\":755:1058  function show1(string memory _skillName, uint _difficulty, string memory _personalNote) public{... */\n            tag_4:\n              tag_12\n              0x04\n              dup1\n              calldatasize\n              sub\n              dup2\n              add\n              swap1\n              tag_13\n              swap2\n              swap1\n              tag_14\n              jump\t// in\n            tag_13:\n              tag_15\n              jump\t// in\n            tag_12:\n              stop\n                /* \"realProject.sol\":625:674  mapping(string=>skill_info) public skillToDetails */\n            tag_5:\n              tag_16\n              0x04\n              dup1\n              calldatasize\n              sub\n              dup2\n              add\n              swap1\n              tag_17\n              swap2\n              swap1\n              tag_18\n              jump\t// in\n            tag_17:\n              tag_19\n              jump\t// in\n            tag_16:\n              mload(0x40)\n              tag_20\n              swap5\n              swap4\n              swap3\n              swap2\n              swap1\n              tag_11\n              jump\t// in\n            tag_20:\n              mload(0x40)\n              dup1\n              swap2\n              sub\n              swap1\n              return\n                /* \"realProject.sol\":681:725  mapping(uint=>skill_info) public idTODetails */\n            tag_9:\n              mstore(0x20, 0x01)\n              dup1\n              0x00\n              mstore\n              keccak256(0x00, 0x40)\n              0x00\n              swap2\n              pop\n              swap1\n              pop\n              dup1\n              0x00\n              add\n              dup1\n              sload\n              tag_21\n              swap1\n              tag_22\n              jump\t// in\n            tag_21:\n              dup1\n              0x1f\n              add\n              0x20\n              dup1\n              swap2\n              div\n              mul\n              0x20\n              add\n              mload(0x40)\n              swap1\n              dup2\n              add\n              0x40\n              mstore\n              dup1\n              swap3\n              swap2\n              swap1\n              dup2\n              dup2\n              mstore\n              0x20\n              add\n              dup3\n              dup1\n              sload\n              tag_23\n              swap1\n              tag_22\n              jump\t// in\n            tag_23:\n              dup1\n              iszero\n              tag_24\n              jumpi\n              dup1\n              0x1f\n              lt\n              tag_25\n              jumpi\n              0x0100\n              dup1\n              dup4\n              sload\n              div\n              mul\n              dup4\n              mstore\n              swap2\n              0x20\n              add\n              swap2\n              jump(tag_24)\n            tag_25:\n              dup3\n              add\n              swap2\n              swap1\n              0x00\n              mstore\n              keccak256(0x00, 0x20)\n              swap1\n            tag_26:\n              dup2\n              sload\n              dup2\n              mstore\n              swap1\n              0x01\n              add\n              swap1\n              0x20\n              add\n              dup1\n              dup4\n              gt\n              tag_26\n              jumpi\n              dup3\n              swap1\n              sub\n              0x1f\n              and\n              dup3\n              add\n              swap2\n            tag_24:\n              pop\n              pop\n              pop\n              pop\n              pop\n              swap1\n              dup1\n              0x01\n              add\n              sload\n              swap1\n              dup1\n              0x02\n              add\n              sload\n              swap1\n              dup1\n              0x03\n              add\n              dup1\n              sload\n              tag_27\n              swap1\n              tag_22\n              jump\t// in\n            tag_27:\n              dup1\n              0x1f\n              add\n              0x20\n              dup1\n              swap2\n              div\n              mul\n              0x20\n              add\n              mload(0x40)\n              swap1\n              dup2\n              add\n              0x40\n              mstore\n              dup1\n              swap3\n              swap2\n              swap1\n              dup2\n              dup2\n              mstore\n              0x20\n              add\n              dup3\n              dup1\n              sload\n              tag_28\n              swap1\n              tag_22\n              jump\t// in\n            tag_28:\n              dup1\n              iszero\n              tag_29\n              jumpi\n              dup1\n              0x1f\n              lt\n              tag_30\n              jumpi\n              0x0100\n              dup1\n              dup4\n              sload\n              div\n              mul\n              dup4\n              mstore\n              swap2\n              0x20\n              add\n              swap2\n              jump(tag_29)\n            tag_30:\n              dup3\n              add\n              swap2\n              swap1\n              0x00\n              mstore\n              keccak256(0x00, 0x20)\n              swap1\n            tag_31:\n              dup2\n              sload\n              dup2\n              mstore\n              swap1\n              0x01\n              add\n              swap1\n              0x20\n              add\n              dup1\n              dup4\n              gt\n              tag_31\n              jumpi\n              dup3\n              swap1\n              sub\n              0x1f\n              and\n              dup3\n              add\n              swap2\n            tag_29:\n              pop\n              pop\n              pop\n              pop\n              pop\n              swap1\n              pop\n              dup5\n              jump\t// out\n                /* \"realProject.sol\":755:1058  function show1(string memory _skillName, uint _difficulty, string memory _personalNote) public{... */\n            tag_15:\n                /* \"realProject.sol\":860:886  skill_info memory NewSkill */\n              0x00\n                /* \"realProject.sol\":889:944  skill_info(_skillName, _id, _difficulty, _personalNote) */\n              mload(0x40)\n              dup1\n              0x80\n              add\n              0x40\n              mstore\n              dup1\n                /* \"realProject.sol\":900:910  _skillName */\n              dup6\n                /* \"realProject.sol\":889:944  skill_info(_skillName, _id, _difficulty, _personalNote) */\n              dup2\n              mstore\n              0x20\n              add\n                /* \"realProject.sol\":912:915  _id */\n              sload(0x02)\n                /* \"realProject.sol\":889:944  skill_info(_skillName, _id, _difficulty, _personalNote) */\n              dup2\n              mstore\n              0x20\n              add\n                /* \"realProject.sol\":917:928  _difficulty */\n              dup5\n                /* \"realProject.sol\":889:944  skill_info(_skillName, _id, _difficulty, _personalNote) */\n              dup2\n              mstore\n              0x20\n              add\n                /* \"realProject.sol\":930:943  _personalNote */\n              dup4\n                /* \"realProject.sol\":889:944  skill_info(_skillName, _id, _difficulty, _personalNote) */\n              dup2\n              mstore\n              pop\n                /* \"realProject.sol\":860:944  skill_info memory NewSkill = skill_info(_skillName, _id, _difficulty, _personalNote) */\n              swap1\n              pop\n                /* \"realProject.sol\":984:992  NewSkill */\n              dup1\n                /* \"realProject.sol\":955:969  skillToDetails */\n              0x00\n                /* \"realProject.sol\":970:980  _skillName */\n              dup6\n                /* \"realProject.sol\":955:981  skillToDetails[_skillName] */\n              mload(0x40)\n              tag_33\n              swap2\n              swap1\n              tag_34\n              jump\t// in\n            tag_33:\n              swap1\n              dup2\n              mstore\n              0x20\n              add\n              mload(0x40)\n              dup1\n              swap2\n              sub\n              swap1\n              keccak256\n                /* \"realProject.sol\":955:992  skillToDetails[_skillName] = NewSkill */\n              0x00\n              dup3\n              add\n              mload\n              dup2\n              0x00\n              add\n              swap1\n              dup2\n              tag_35\n              swap2\n              swap1\n              tag_36\n              jump\t// in\n            tag_35:\n              pop\n              0x20\n              dup3\n              add\n              mload\n              dup2\n              0x01\n              add\n              sstore\n              0x40\n              dup3\n              add\n              mload\n              dup2\n              0x02\n              add\n              sstore\n              0x60\n              dup3\n              add\n              mload\n              dup2\n              0x03\n              add\n              swap1\n              dup2\n              tag_37\n              swap2\n              swap1\n              tag_36\n              jump\t// in\n            tag_37:\n              pop\n              swap1\n              pop\n              pop\n                /* \"realProject.sol\":1022:1030  NewSkill */\n              dup1\n                /* \"realProject.sol\":1003:1014  idTODetails */\n              0x01\n                /* \"realProject.sol\":1003:1019  idTODetails[_id] */\n              0x00\n                /* \"realProject.sol\":1015:1018  _id */\n              sload(0x02)\n                /* \"realProject.sol\":1003:1019  idTODetails[_id] */\n              dup2\n              mstore\n              0x20\n              add\n              swap1\n              dup2\n              mstore\n              0x20\n              add\n              0x00\n              keccak256\n                /* \"realProject.sol\":1003:1030  idTODetails[_id] = NewSkill */\n              0x00\n              dup3\n              add\n              mload\n              dup2\n              0x00\n              add\n              swap1\n              dup2\n              tag_38\n              swap2\n              swap1\n              tag_36\n              jump\t// in\n            tag_38:\n              pop\n              0x20\n              dup3\n              add\n              mload\n              dup2\n              0x01\n              add\n              sstore\n              0x40\n              dup3\n              add\n              mload\n              dup2\n              0x02\n              add\n              sstore\n              0x60\n              dup3\n              add\n              mload\n              dup2\n              0x03\n              add\n              swap1\n              dup2\n              tag_39\n              swap2\n              swap1\n              tag_36\n              jump\t// in\n            tag_39:\n              pop\n              swap1\n              pop\n              pop\n                /* \"realProject.sol\":1049:1050  1 */\n              0x01\n                /* \"realProject.sol\":1045:1048  _id */\n              sload(0x02)\n                /* \"realProject.sol\":1045:1050  _id+1 */\n              tag_40\n              swap2\n              swap1\n              tag_41\n              jump\t// in\n            tag_40:\n                /* \"realProject.sol\":1041:1044  _id */\n              0x02\n                /* \"realProject.sol\":1041:1050  _id=_id+1 */\n              dup2\n              swap1\n              sstore\n              pop\n                /* \"realProject.sol\":849:1058  {... */\n              pop\n                /* \"realProject.sol\":755:1058  function show1(string memory _skillName, uint _difficulty, string memory _personalNote) public{... */\n              pop\n              pop\n              pop\n              jump\t// out\n                /* \"realProject.sol\":625:674  mapping(string=>skill_info) public skillToDetails */\n            tag_19:\n              0x00\n              dup2\n              dup1\n              mload\n              0x20\n              dup2\n              add\n              dup3\n              add\n              dup1\n              mload\n              dup5\n              dup3\n              mstore\n              0x20\n              dup4\n              add\n              0x20\n              dup6\n              add\n              keccak256\n              dup2\n              dup4\n              mstore\n              dup1\n              swap6\n              pop\n              pop\n              pop\n              pop\n              pop\n              pop\n              0x00\n              swap2\n              pop\n              swap1\n              pop\n              dup1\n              0x00\n              add\n              dup1\n              sload\n              tag_42\n              swap1\n              tag_22\n              jump\t// in\n            tag_42:\n              dup1\n              0x1f\n              add\n              0x20\n              dup1\n              swap2\n              div\n              mul\n              0x20\n              add\n              mload(0x40)\n              swap1\n              dup2\n              add\n              0x40\n              mstore\n              dup1\n              swap3\n              swap2\n              swap1\n              dup2\n              dup2\n              mstore\n              0x20\n              add\n              dup3\n              dup1\n              sload\n              tag_43\n              swap1\n              tag_22\n              jump\t// in\n            tag_43:\n              dup1\n              iszero\n              tag_44\n              jumpi\n              dup1\n              0x1f\n              lt\n              tag_45\n              jumpi\n              0x0100\n              dup1\n              dup4\n              sload\n              div\n              mul\n              dup4\n              mstore\n              swap2\n              0x20\n              add\n              swap2\n              jump(tag_44)\n            tag_45:\n              dup3\n              add\n              swap2\n              swap1\n              0x00\n              mstore\n              keccak256(0x00, 0x20)\n              swap1\n            tag_46:\n              dup2\n              sload\n              dup2\n              mstore\n              swap1\n              0x01\n              add\n              swap1\n              0x20\n              add\n              dup1\n              dup4\n              gt\n              tag_46\n              jumpi\n              dup3\n              swap1\n              sub\n              0x1f\n              and\n              dup3\n              add\n              swap2\n            tag_44:\n              pop\n              pop\n              pop\n              pop\n              pop\n              swap1\n              dup1\n              0x01\n              add\n              sload\n              swap1\n              dup1\n              0x02\n              add\n              sload\n              swap1\n              dup1\n              0x03\n              add\n              dup1\n              sload\n              tag_47\n              swap1\n              tag_22\n              jump\t// in\n            tag_47:\n              dup1\n              0x1f\n              add\n              0x20\n              dup1\n              swap2\n              div\n              mul\n              0x20\n              add\n              mload(0x40)\n              swap1\n              dup2\n              add\n              0x40\n              mstore\n              dup1\n              swap3\n              swap2\n              swap1\n              dup2\n              dup2\n              mstore\n              0x20\n              add\n              dup3\n              dup1\n              sload\n              tag_48\n              swap1\n              tag_22\n              jump\t// in\n            tag_48:\n              dup1\n              iszero\n              tag_49\n              jumpi\n              dup1\n              0x1f\n              lt\n              tag_50\n              jumpi\n              0x0100\n              dup1\n              dup4\n              sload\n              div\n              mul\n              dup4\n              mstore\n              swap2\n              0x20\n              add\n              swap2\n              jump(tag_49)\n            tag_50:\n              dup3\n              add\n              swap2\n              swap1\n              0x00\n              mstore\n              keccak256(0x00, 0x20)\n              swap1\n            tag_51:\n              dup2\n              sload\n              dup2\n              mstore\n              swap1\n              0x01\n              add\n              swap1\n              0x20\n              add\n              dup1\n              dup4\n              gt\n              tag_51\n              jumpi\n              dup3\n              swap1\n              sub\n              0x1f\n              and\n              dup3\n              add\n              swap2\n            tag_49:\n              pop\n              pop\n              pop\n              pop\n              pop\n              swap1\n              pop\n              dup5\n              jump\t// out\n                /* \"#utility.yul\":7:82   */\n            tag_52:\n                /* \"#utility.yul\":40:46   */\n              0x00\n                /* \"#utility.yul\":73:75   */\n              0x40\n                /* \"#utility.yul\":67:76   */\n              mload\n                /* \"#utility.yul\":57:76   */\n              swap1\n              pop\n                /* \"#utility.yul\":7:82   */\n              swap1\n              jump\t// out\n                /* \"#utility.yul\":88:205   */\n            tag_53:\n                /* \"#utility.yul\":197:198   */\n              0x00\n                /* \"#utility.yul\":194:195   */\n              0x00\n                /* \"#utility.yul\":187:199   */\n              revert\n                /* \"#utility.yul\":211:328   */\n            tag_54:\n                /* \"#utility.yul\":320:321   */\n              0x00\n                /* \"#utility.yul\":317:318   */\n              0x00\n                /* \"#utility.yul\":310:322   */\n              revert\n                /* \"#utility.yul\":334:411   */\n            tag_55:\n                /* \"#utility.yul\":371:378   */\n              0x00\n                /* \"#utility.yul\":400:405   */\n              dup2\n                /* \"#utility.yul\":389:405   */\n              swap1\n              pop\n                /* \"#utility.yul\":334:411   */\n              swap2\n              swap1\n              pop\n              jump\t// out\n                /* \"#utility.yul\":417:539   */\n            tag_56:\n                /* \"#utility.yul\":490:514   */\n              tag_98\n                /* \"#utility.yul\":508:513   */\n              dup2\n                /* \"#utility.yul\":490:514   */\n              tag_55\n              jump\t// in\n            tag_98:\n                /* \"#utility.yul\":483:488   */\n              dup2\n                /* \"#utility.yul\":480:515   */\n              eq\n                /* \"#utility.yul\":470:533   */\n              tag_99\n              jumpi\n                /* \"#utility.yul\":529:530   */\n              0x00\n                /* \"#utility.yul\":526:527   */\n              0x00\n                /* \"#utility.yul\":519:531   */\n              revert\n                /* \"#utility.yul\":470:533   */\n            tag_99:\n                /* \"#utility.yul\":417:539   */\n              pop\n              jump\t// out\n                /* \"#utility.yul\":545:684   */\n            tag_57:\n                /* \"#utility.yul\":591:596   */\n              0x00\n                /* \"#utility.yul\":629:635   */\n              dup2\n                /* \"#utility.yul\":616:636   */\n              calldataload\n                /* \"#utility.yul\":607:636   */\n              swap1\n              pop\n                /* \"#utility.yul\":645:678   */\n              tag_101\n                /* \"#utility.yul\":672:677   */\n              dup2\n                /* \"#utility.yul\":645:678   */\n              tag_56\n              jump\t// in\n            tag_101:\n                /* \"#utility.yul\":545:684   */\n              swap3\n              swap2\n              pop\n              pop\n              jump\t// out\n                /* \"#utility.yul\":690:1019   */\n            tag_8:\n                /* \"#utility.yul\":749:755   */\n              0x00\n                /* \"#utility.yul\":798:800   */\n              0x20\n                /* \"#utility.yul\":786:795   */\n              dup3\n                /* \"#utility.yul\":777:784   */\n              dup5\n                /* \"#utility.yul\":773:796   */\n              sub\n                /* \"#utility.yul\":769:801   */\n              slt\n                /* \"#utility.yul\":766:885   */\n              iszero\n              tag_103\n              jumpi\n                /* \"#utility.yul\":804:883   */\n              tag_104\n              tag_53\n              jump\t// in\n            tag_104:\n                /* \"#utility.yul\":766:885   */\n            tag_103:\n                /* \"#utility.yul\":924:925   */\n              0x00\n                /* \"#utility.yul\":949:1002   */\n              tag_105\n                /* \"#utility.yul\":994:1001   */\n              dup5\n                /* \"#utility.yul\":985:991   */\n              dup3\n                /* \"#utility.yul\":974:983   */\n              dup6\n                /* \"#utility.yul\":970:992   */\n              add\n                /* \"#utility.yul\":949:1002   */\n              tag_57\n              jump\t// in\n            tag_105:\n                /* \"#utility.yul\":939:1002   */\n              swap2\n              pop\n                /* \"#utility.yul\":895:1012   */\n              pop\n                /* \"#utility.yul\":690:1019   */\n              swap3\n              swap2\n              pop\n              pop\n              jump\t// out\n                /* \"#utility.yul\":1025:1124   */\n            tag_58:\n                /* \"#utility.yul\":1077:1083   */\n              0x00\n                /* \"#utility.yul\":1111:1116   */\n              dup2\n                /* \"#utility.yul\":1105:1117   */\n              mload\n                /* \"#utility.yul\":1095:1117   */\n              swap1\n              pop\n                /* \"#utility.yul\":1025:1124   */\n              swap2\n              swap1\n              pop\n              jump\t// out\n                /* \"#utility.yul\":1130:1299   */\n            tag_59:\n                /* \"#utility.yul\":1214:1225   */\n              0x00\n                /* \"#utility.yul\":1248:1254   */\n              dup3\n                /* \"#utility.yul\":1243:1246   */\n              dup3\n                /* \"#utility.yul\":1236:1255   */\n              mstore\n                /* \"#utility.yul\":1288:1292   */\n              0x20\n                /* \"#utility.yul\":1283:1286   */\n              dup3\n                /* \"#utility.yul\":1279:1293   */\n              add\n                /* \"#utility.yul\":1264:1293   */\n              swap1\n              pop\n                /* \"#utility.yul\":1130:1299   */\n              swap3\n              swap2\n              pop\n              pop\n              jump\t// out\n                /* \"#utility.yul\":1305:1444   */\n            tag_60:\n                /* \"#utility.yul\":1394:1400   */\n              dup3\n                /* \"#utility.yul\":1389:1392   */\n              dup2\n                /* \"#utility.yul\":1384:1387   */\n              dup4\n                /* \"#utility.yul\":1378:1401   */\n              mcopy\n                /* \"#utility.yul\":1435:1436   */\n              0x00\n                /* \"#utility.yul\":1426:1432   */\n              dup4\n                /* \"#utility.yul\":1421:1424   */\n              dup4\n                /* \"#utility.yul\":1417:1433   */\n              add\n                /* \"#utility.yul\":1410:1437   */\n              mstore\n                /* \"#utility.yul\":1305:1444   */\n              pop\n              pop\n              pop\n              jump\t// out\n                /* \"#utility.yul\":1450:1552   */\n            tag_61:\n                /* \"#utility.yul\":1491:1497   */\n              0x00\n                /* \"#utility.yul\":1542:1544   */\n              0x1f\n                /* \"#utility.yul\":1538:1545   */\n              not\n                /* \"#utility.yul\":1533:1535   */\n              0x1f\n                /* \"#utility.yul\":1526:1531   */\n              dup4\n                /* \"#utility.yul\":1522:1536   */\n              add\n                /* \"#utility.yul\":1518:1546   */\n              and\n                /* \"#utility.yul\":1508:1546   */\n              swap1\n              pop\n                /* \"#utility.yul\":1450:1552   */\n              swap2\n              swap1\n              pop\n              jump\t// out\n                /* \"#utility.yul\":1558:1935   */\n            tag_62:\n                /* \"#utility.yul\":1646:1649   */\n              0x00\n                /* \"#utility.yul\":1674:1713   */\n              tag_111\n                /* \"#utility.yul\":1707:1712   */\n              dup3\n                /* \"#utility.yul\":1674:1713   */\n              tag_58\n              jump\t// in\n            tag_111:\n                /* \"#utility.yul\":1729:1800   */\n              tag_112\n                /* \"#utility.yul\":1793:1799   */\n              dup2\n                /* \"#utility.yul\":1788:1791   */\n              dup6\n                /* \"#utility.yul\":1729:1800   */\n              tag_59\n              jump\t// in\n            tag_112:\n                /* \"#utility.yul\":1722:1800   */\n              swap4\n              pop\n                /* \"#utility.yul\":1809:1874   */\n              tag_113\n                /* \"#utility.yul\":1867:1873   */\n              dup2\n                /* \"#utility.yul\":1862:1865   */\n              dup6\n                /* \"#utility.yul\":1855:1859   */\n              0x20\n                /* \"#utility.yul\":1848:1853   */\n              dup7\n                /* \"#utility.yul\":1844:1860   */\n              add\n                /* \"#utility.yul\":1809:1874   */\n              tag_60\n              jump\t// in\n            tag_113:\n                /* \"#utility.yul\":1899:1928   */\n              tag_114\n                /* \"#utility.yul\":1921:1927   */\n              dup2\n                /* \"#utility.yul\":1899:1928   */\n              tag_61\n              jump\t// in\n            tag_114:\n                /* \"#utility.yul\":1894:1897   */\n              dup5\n                /* \"#utility.yul\":1890:1929   */\n              add\n                /* \"#utility.yul\":1883:1929   */\n              swap2\n              pop\n                /* \"#utility.yul\":1650:1935   */\n              pop\n                /* \"#utility.yul\":1558:1935   */\n              swap3\n              swap2\n              pop\n              pop\n              jump\t// out\n                /* \"#utility.yul\":1941:2059   */\n            tag_63:\n                /* \"#utility.yul\":2028:2052   */\n              tag_116\n                /* \"#utility.yul\":2046:2051   */\n              dup2\n                /* \"#utility.yul\":2028:2052   */\n              tag_55\n              jump\t// in\n            tag_116:\n                /* \"#utility.yul\":2023:2026   */\n              dup3\n                /* \"#utility.yul\":2016:2053   */\n              mstore\n                /* \"#utility.yul\":1941:2059   */\n              pop\n              pop\n              jump\t// out\n                /* \"#utility.yul\":2065:2800   */\n            tag_11:\n                /* \"#utility.yul\":2282:2286   */\n              0x00\n                /* \"#utility.yul\":2320:2323   */\n              0x80\n                /* \"#utility.yul\":2309:2318   */\n              dup3\n                /* \"#utility.yul\":2305:2324   */\n              add\n                /* \"#utility.yul\":2297:2324   */\n              swap1\n              pop\n                /* \"#utility.yul\":2370:2379   */\n              dup2\n                /* \"#utility.yul\":2364:2368   */\n              dup2\n                /* \"#utility.yul\":2360:2380   */\n              sub\n                /* \"#utility.yul\":2356:2357   */\n              0x00\n                /* \"#utility.yul\":2345:2354   */\n              dup4\n                /* \"#utility.yul\":2341:2358   */\n              add\n                /* \"#utility.yul\":2334:2381   */\n              mstore\n                /* \"#utility.yul\":2398:2476   */\n              tag_118\n                /* \"#utility.yul\":2471:2475   */\n              dup2\n                /* \"#utility.yul\":2462:2468   */\n              dup8\n                /* \"#utility.yul\":2398:2476   */\n              tag_62\n              jump\t// in\n            tag_118:\n                /* \"#utility.yul\":2390:2476   */\n              swap1\n              pop\n                /* \"#utility.yul\":2486:2558   */\n              tag_119\n                /* \"#utility.yul\":2554:2556   */\n              0x20\n                /* \"#utility.yul\":2543:2552   */\n              dup4\n                /* \"#utility.yul\":2539:2557   */\n              add\n                /* \"#utility.yul\":2530:2536   */\n              dup7\n                /* \"#utility.yul\":2486:2558   */\n              tag_63\n              jump\t// in\n            tag_119:\n                /* \"#utility.yul\":2568:2640   */\n              tag_120\n                /* \"#utility.yul\":2636:2638   */\n              0x40\n                /* \"#utility.yul\":2625:2634   */\n              dup4\n                /* \"#utility.yul\":2621:2639   */\n              add\n                /* \"#utility.yul\":2612:2618   */\n              dup6\n                /* \"#utility.yul\":2568:2640   */\n              tag_63\n              jump\t// in\n            tag_120:\n                /* \"#utility.yul\":2687:2696   */\n              dup2\n                /* \"#utility.yul\":2681:2685   */\n              dup2\n                /* \"#utility.yul\":2677:2697   */\n              sub\n                /* \"#utility.yul\":2672:2674   */\n              0x60\n                /* \"#utility.yul\":2661:2670   */\n              dup4\n                /* \"#utility.yul\":2657:2675   */\n              add\n                /* \"#utility.yul\":2650:2698   */\n              mstore\n                /* \"#utility.yul\":2715:2793   */\n              tag_121\n                /* \"#utility.yul\":2788:2792   */\n              dup2\n                /* \"#utility.yul\":2779:2785   */\n              dup5\n                /* \"#utility.yul\":2715:2793   */\n              tag_62\n              jump\t// in\n            tag_121:\n                /* \"#utility.yul\":2707:2793   */\n              swap1\n              pop\n                /* \"#utility.yul\":2065:2800   */\n              swap6\n              swap5\n              pop\n              pop\n              pop\n              pop\n              pop\n              jump\t// out\n                /* \"#utility.yul\":2806:2923   */\n            tag_64:\n                /* \"#utility.yul\":2915:2916   */\n              0x00\n                /* \"#utility.yul\":2912:2913   */\n              0x00\n                /* \"#utility.yul\":2905:2917   */\n              revert\n                /* \"#utility.yul\":2929:3046   */\n            tag_65:\n                /* \"#utility.yul\":3038:3039   */\n              0x00\n                /* \"#utility.yul\":3035:3036   */\n              0x00\n                /* \"#utility.yul\":3028:3040   */\n              revert\n                /* \"#utility.yul\":3052:3232   */\n            tag_66:\n                /* \"#utility.yul\":3100:3177   */\n              0x4e487b7100000000000000000000000000000000000000000000000000000000\n                /* \"#utility.yul\":3097:3098   */\n              0x00\n                /* \"#utility.yul\":3090:3178   */\n              mstore\n                /* \"#utility.yul\":3197:3201   */\n              0x41\n                /* \"#utility.yul\":3194:3195   */\n              0x04\n                /* \"#utility.yul\":3187:3202   */\n              mstore\n                /* \"#utility.yul\":3221:3225   */\n              0x24\n                /* \"#utility.yul\":3218:3219   */\n              0x00\n                /* \"#utility.yul\":3211:3226   */\n              revert\n                /* \"#utility.yul\":3238:3519   */\n            tag_67:\n                /* \"#utility.yul\":3321:3348   */\n              tag_126\n                /* \"#utility.yul\":3343:3347   */\n              dup3\n                /* \"#utility.yul\":3321:3348   */\n              tag_61\n              jump\t// in\n            tag_126:\n                /* \"#utility.yul\":3313:3319   */\n              dup2\n                /* \"#utility.yul\":3309:3349   */\n              add\n                /* \"#utility.yul\":3451:3457   */\n              dup2\n                /* \"#utility.yul\":3439:3449   */\n              dup2\n                /* \"#utility.yul\":3436:3458   */\n              lt\n                /* \"#utility.yul\":3415:3433   */\n              0xffffffffffffffff\n                /* \"#utility.yul\":3403:3413   */\n              dup3\n                /* \"#utility.yul\":3400:3434   */\n              gt\n                /* \"#utility.yul\":3397:3459   */\n              or\n                /* \"#utility.yul\":3394:3482   */\n              iszero\n              tag_127\n              jumpi\n                /* \"#utility.yul\":3462:3480   */\n              tag_128\n              tag_66\n              jump\t// in\n            tag_128:\n                /* \"#utility.yul\":3394:3482   */\n            tag_127:\n                /* \"#utility.yul\":3502:3512   */\n              dup1\n                /* \"#utility.yul\":3498:3500   */\n              0x40\n                /* \"#utility.yul\":3491:3513   */\n              mstore\n                /* \"#utility.yul\":3281:3519   */\n              pop\n                /* \"#utility.yul\":3238:3519   */\n              pop\n              pop\n              jump\t// out\n                /* \"#utility.yul\":3525:3654   */\n            tag_68:\n                /* \"#utility.yul\":3559:3565   */\n              0x00\n                /* \"#utility.yul\":3586:3606   */\n              tag_130\n              tag_52\n              jump\t// in\n            tag_130:\n                /* \"#utility.yul\":3576:3606   */\n              swap1\n              pop\n                /* \"#utility.yul\":3615:3648   */\n              tag_131\n                /* \"#utility.yul\":3643:3647   */\n              dup3\n                /* \"#utility.yul\":3635:3641   */\n              dup3\n                /* \"#utility.yul\":3615:3648   */\n              tag_67\n              jump\t// in\n            tag_131:\n                /* \"#utility.yul\":3525:3654   */\n              swap2\n              swap1\n              pop\n              jump\t// out\n                /* \"#utility.yul\":3660:3968   */\n            tag_69:\n                /* \"#utility.yul\":3722:3726   */\n              0x00\n                /* \"#utility.yul\":3812:3830   */\n              0xffffffffffffffff\n                /* \"#utility.yul\":3804:3810   */\n              dup3\n                /* \"#utility.yul\":3801:3831   */\n              gt\n                /* \"#utility.yul\":3798:3854   */\n              iszero\n              tag_133\n              jumpi\n                /* \"#utility.yul\":3834:3852   */\n              tag_134\n              tag_66\n              jump\t// in\n            tag_134:\n                /* \"#utility.yul\":3798:3854   */\n            tag_133:\n                /* \"#utility.yul\":3872:3901   */\n              tag_135\n                /* \"#utility.yul\":3894:3900   */\n              dup3\n                /* \"#utility.yul\":3872:3901   */\n              tag_61\n              jump\t// in\n            tag_135:\n                /* \"#utility.yul\":3864:3901   */\n              swap1\n              pop\n                /* \"#utility.yul\":3956:3960   */\n              0x20\n                /* \"#utility.yul\":3950:3954   */\n              dup2\n                /* \"#utility.yul\":3946:3961   */\n              add\n                /* \"#utility.yul\":3938:3961   */\n              swap1\n              pop\n                /* \"#utility.yul\":3660:3968   */\n              swap2\n              swap1\n              pop\n              jump\t// out\n                /* \"#utility.yul\":3974:4122   */\n            tag_70:\n                /* \"#utility.yul\":4072:4078   */\n              dup3\n                /* \"#utility.yul\":4067:4070   */\n              dup2\n                /* \"#utility.yul\":4062:4065   */\n              dup4\n                /* \"#utility.yul\":4049:4079   */\n              calldatacopy\n                /* \"#utility.yul\":4113:4114   */\n              0x00\n                /* \"#utility.yul\":4104:4110   */\n              dup4\n                /* \"#utility.yul\":4099:4102   */\n              dup4\n                /* \"#utility.yul\":4095:4111   */\n              add\n                /* \"#utility.yul\":4088:4115   */\n              mstore\n                /* \"#utility.yul\":3974:4122   */\n              pop\n              pop\n              pop\n              jump\t// out\n                /* \"#utility.yul\":4128:4553   */\n            tag_71:\n                /* \"#utility.yul\":4206:4211   */\n              0x00\n                /* \"#utility.yul\":4231:4297   */\n              tag_138\n                /* \"#utility.yul\":4247:4296   */\n              tag_139\n                /* \"#utility.yul\":4289:4295   */\n              dup5\n                /* \"#utility.yul\":4247:4296   */\n              tag_69\n              jump\t// in\n            tag_139:\n                /* \"#utility.yul\":4231:4297   */\n              tag_68\n              jump\t// in\n            tag_138:\n                /* \"#utility.yul\":4222:4297   */\n              swap1\n              pop\n                /* \"#utility.yul\":4320:4326   */\n              dup3\n                /* \"#utility.yul\":4313:4318   */\n              dup2\n                /* \"#utility.yul\":4306:4327   */\n              mstore\n                /* \"#utility.yul\":4358:4362   */\n              0x20\n                /* \"#utility.yul\":4351:4356   */\n              dup2\n                /* \"#utility.yul\":4347:4363   */\n              add\n                /* \"#utility.yul\":4396:4399   */\n              dup5\n                /* \"#utility.yul\":4387:4393   */\n              dup5\n                /* \"#utility.yul\":4382:4385   */\n              dup5\n                /* \"#utility.yul\":4378:4394   */\n              add\n                /* \"#utility.yul\":4375:4400   */\n              gt\n                /* \"#utility.yul\":4372:4484   */\n              iszero\n              tag_140\n              jumpi\n                /* \"#utility.yul\":4403:4482   */\n              tag_141\n              tag_65\n              jump\t// in\n            tag_141:\n                /* \"#utility.yul\":4372:4484   */\n            tag_140:\n                /* \"#utility.yul\":4493:4547   */\n              tag_142\n                /* \"#utility.yul\":4540:4546   */\n              dup5\n                /* \"#utility.yul\":4535:4538   */\n              dup3\n                /* \"#utility.yul\":4530:4533   */\n              dup6\n                /* \"#utility.yul\":4493:4547   */\n              tag_70\n              jump\t// in\n            tag_142:\n                /* \"#utility.yul\":4212:4553   */\n              pop\n                /* \"#utility.yul\":4128:4553   */\n              swap4\n              swap3\n              pop\n              pop\n              pop\n              jump\t// out\n                /* \"#utility.yul\":4573:4913   */\n            tag_72:\n                /* \"#utility.yul\":4629:4634   */\n              0x00\n                /* \"#utility.yul\":4678:4681   */\n              dup3\n                /* \"#utility.yul\":4671:4675   */\n              0x1f\n                /* \"#utility.yul\":4663:4669   */\n              dup4\n                /* \"#utility.yul\":4659:4676   */\n              add\n                /* \"#utility.yul\":4655:4682   */\n              slt\n                /* \"#utility.yul\":4645:4767   */\n              tag_144\n              jumpi\n                /* \"#utility.yul\":4686:4765   */\n              tag_145\n              tag_64\n              jump\t// in\n            tag_145:\n                /* \"#utility.yul\":4645:4767   */\n            tag_144:\n                /* \"#utility.yul\":4803:4809   */\n              dup2\n                /* \"#utility.yul\":4790:4810   */\n              calldataload\n                /* \"#utility.yul\":4828:4907   */\n              tag_146\n                /* \"#utility.yul\":4903:4906   */\n              dup5\n                /* \"#utility.yul\":4895:4901   */\n              dup3\n                /* \"#utility.yul\":4888:4892   */\n              0x20\n                /* \"#utility.yul\":4880:4886   */\n              dup7\n                /* \"#utility.yul\":4876:4893   */\n              add\n                /* \"#utility.yul\":4828:4907   */\n              tag_71\n              jump\t// in\n            tag_146:\n                /* \"#utility.yul\":4819:4907   */\n              swap2\n              pop\n                /* \"#utility.yul\":4635:4913   */\n              pop\n                /* \"#utility.yul\":4573:4913   */\n              swap3\n              swap2\n              pop\n              pop\n              jump\t// out\n                /* \"#utility.yul\":4919:5898   */\n            tag_14:\n                /* \"#utility.yul\":5016:5022   */\n              0x00\n                /* \"#utility.yul\":5024:5030   */\n              0x00\n                /* \"#utility.yul\":5032:5038   */\n              0x00\n                /* \"#utility.yul\":5081:5083   */\n              0x60\n                /* \"#utility.yul\":5069:5078   */\n              dup5\n                /* \"#utility.yul\":5060:5067   */\n              dup7\n                /* \"#utility.yul\":5056:5079   */\n              sub\n                /* \"#utility.yul\":5052:5084   */\n              slt\n                /* \"#utility.yul\":5049:5168   */\n              iszero\n              tag_148\n              jumpi\n                /* \"#utility.yul\":5087:5166   */\n              tag_149\n              tag_53\n              jump\t// in\n            tag_149:\n                /* \"#utility.yul\":5049:5168   */\n            tag_148:\n                /* \"#utility.yul\":5235:5236   */\n              0x00\n                /* \"#utility.yul\":5224:5233   */\n              dup5\n                /* \"#utility.yul\":5220:5237   */\n              add\n                /* \"#utility.yul\":5207:5238   */\n              calldataload\n                /* \"#utility.yul\":5265:5283   */\n              0xffffffffffffffff\n                /* \"#utility.yul\":5257:5263   */\n              dup2\n                /* \"#utility.yul\":5254:5284   */\n              gt\n                /* \"#utility.yul\":5251:5368   */\n              iszero\n              tag_150\n              jumpi\n                /* \"#utility.yul\":5287:5366   */\n              tag_151\n              tag_54\n              jump\t// in\n            tag_151:\n                /* \"#utility.yul\":5251:5368   */\n            tag_150:\n                /* \"#utility.yul\":5392:5455   */\n              tag_152\n                /* \"#utility.yul\":5447:5454   */\n              dup7\n                /* \"#utility.yul\":5438:5444   */\n              dup3\n                /* \"#utility.yul\":5427:5436   */\n              dup8\n                /* \"#utility.yul\":5423:5445   */\n              add\n                /* \"#utility.yul\":5392:5455   */\n              tag_72\n              jump\t// in\n            tag_152:\n                /* \"#utility.yul\":5382:5455   */\n              swap4\n              pop\n                /* \"#utility.yul\":5178:5465   */\n              pop\n                /* \"#utility.yul\":5504:5506   */\n              0x20\n                /* \"#utility.yul\":5530:5583   */\n              tag_153\n                /* \"#utility.yul\":5575:5582   */\n              dup7\n                /* \"#utility.yul\":5566:5572   */\n              dup3\n                /* \"#utility.yul\":5555:5564   */\n              dup8\n                /* \"#utility.yul\":5551:5573   */\n              add\n                /* \"#utility.yul\":5530:5583   */\n              tag_57\n              jump\t// in\n            tag_153:\n                /* \"#utility.yul\":5520:5583   */\n              swap3\n              pop\n                /* \"#utility.yul\":5475:5593   */\n              pop\n                /* \"#utility.yul\":5660:5662   */\n              0x40\n                /* \"#utility.yul\":5649:5658   */\n              dup5\n                /* \"#utility.yul\":5645:5663   */\n              add\n                /* \"#utility.yul\":5632:5664   */\n              calldataload\n                /* \"#utility.yul\":5691:5709   */\n              0xffffffffffffffff\n                /* \"#utility.yul\":5683:5689   */\n              dup2\n                /* \"#utility.yul\":5680:5710   */\n              gt\n                /* \"#utility.yul\":5677:5794   */\n              iszero\n              tag_154\n              jumpi\n                /* \"#utility.yul\":5713:5792   */\n              tag_155\n              tag_54\n              jump\t// in\n            tag_155:\n                /* \"#utility.yul\":5677:5794   */\n            tag_154:\n                /* \"#utility.yul\":5818:5881   */\n              tag_156\n                /* \"#utility.yul\":5873:5880   */\n              dup7\n                /* \"#utility.yul\":5864:5870   */\n              dup3\n                /* \"#utility.yul\":5853:5862   */\n              dup8\n                /* \"#utility.yul\":5849:5871   */\n              add\n                /* \"#utility.yul\":5818:5881   */\n              tag_72\n              jump\t// in\n            tag_156:\n                /* \"#utility.yul\":5808:5881   */\n              swap2\n              pop\n                /* \"#utility.yul\":5603:5891   */\n              pop\n                /* \"#utility.yul\":4919:5898   */\n              swap3\n              pop\n              swap3\n              pop\n              swap3\n              jump\t// out\n                /* \"#utility.yul\":5904:6413   */\n            tag_18:\n                /* \"#utility.yul\":5973:5979   */\n              0x00\n                /* \"#utility.yul\":6022:6024   */\n              0x20\n                /* \"#utility.yul\":6010:6019   */\n              dup3\n                /* \"#utility.yul\":6001:6008   */\n              dup5\n                /* \"#utility.yul\":5997:6020   */\n              sub\n                /* \"#utility.yul\":5993:6025   */\n              slt\n                /* \"#utility.yul\":5990:6109   */\n              iszero\n              tag_158\n              jumpi\n                /* \"#utility.yul\":6028:6107   */\n              tag_159\n              tag_53\n              jump\t// in\n            tag_159:\n                /* \"#utility.yul\":5990:6109   */\n            tag_158:\n                /* \"#utility.yul\":6176:6177   */\n              0x00\n                /* \"#utility.yul\":6165:6174   */\n              dup3\n                /* \"#utility.yul\":6161:6178   */\n              add\n                /* \"#utility.yul\":6148:6179   */\n              calldataload\n                /* \"#utility.yul\":6206:6224   */\n              0xffffffffffffffff\n                /* \"#utility.yul\":6198:6204   */\n              dup2\n                /* \"#utility.yul\":6195:6225   */\n              gt\n                /* \"#utility.yul\":6192:6309   */\n              iszero\n              tag_160\n              jumpi\n                /* \"#utility.yul\":6228:6307   */\n              tag_161\n              tag_54\n              jump\t// in\n            tag_161:\n                /* \"#utility.yul\":6192:6309   */\n            tag_160:\n                /* \"#utility.yul\":6333:6396   */\n              tag_162\n                /* \"#utility.yul\":6388:6395   */\n              dup5\n                /* \"#utility.yul\":6379:6385   */\n              dup3\n                /* \"#utility.yul\":6368:6377   */\n              dup6\n                /* \"#utility.yul\":6364:6386   */\n              add\n                /* \"#utility.yul\":6333:6396   */\n              tag_72\n              jump\t// in\n            tag_162:\n                /* \"#utility.yul\":6323:6396   */\n              swap2\n              pop\n                /* \"#utility.yul\":6119:6406   */\n              pop\n                /* \"#utility.yul\":5904:6413   */\n              swap3\n              swap2\n              pop\n              pop\n              jump\t// out\n                /* \"#utility.yul\":6419:6599   */\n            tag_73:\n                /* \"#utility.yul\":6467:6544   */\n              0x4e487b7100000000000000000000000000000000000000000000000000000000\n                /* \"#utility.yul\":6464:6465   */\n              0x00\n                /* \"#utility.yul\":6457:6545   */\n              mstore\n                /* \"#utility.yul\":6564:6568   */\n              0x22\n                /* \"#utility.yul\":6561:6562   */\n              0x04\n                /* \"#utility.yul\":6554:6569   */\n              mstore\n                /* \"#utility.yul\":6588:6592   */\n              0x24\n                /* \"#utility.yul\":6585:6586   */\n              0x00\n                /* \"#utility.yul\":6578:6593   */\n              revert\n                /* \"#utility.yul\":6605:6925   */\n            tag_22:\n                /* \"#utility.yul\":6649:6655   */\n              0x00\n                /* \"#utility.yul\":6686:6687   */\n              0x02\n                /* \"#utility.yul\":6680:6684   */\n              dup3\n                /* \"#utility.yul\":6676:6688   */\n              div\n                /* \"#utility.yul\":6666:6688   */\n              swap1\n              pop\n                /* \"#utility.yul\":6733:6734   */\n              0x01\n                /* \"#utility.yul\":6727:6731   */\n              dup3\n                /* \"#utility.yul\":6723:6735   */\n              and\n                /* \"#utility.yul\":6754:6772   */\n              dup1\n                /* \"#utility.yul\":6744:6825   */\n              tag_165\n              jumpi\n                /* \"#utility.yul\":6810:6814   */\n              0x7f\n                /* \"#utility.yul\":6802:6808   */\n              dup3\n                /* \"#utility.yul\":6798:6815   */\n              and\n                /* \"#utility.yul\":6788:6815   */\n              swap2\n              pop\n                /* \"#utility.yul\":6744:6825   */\n            tag_165:\n                /* \"#utility.yul\":6872:6874   */\n              0x20\n                /* \"#utility.yul\":6864:6870   */\n              dup3\n                /* \"#utility.yul\":6861:6875   */\n              lt\n                /* \"#utility.yul\":6841:6859   */\n              dup2\n                /* \"#utility.yul\":6838:6876   */\n              sub\n                /* \"#utility.yul\":6835:6919   */\n              tag_166\n              jumpi\n                /* \"#utility.yul\":6891:6909   */\n              tag_167\n              tag_73\n              jump\t// in\n            tag_167:\n                /* \"#utility.yul\":6835:6919   */\n            tag_166:\n                /* \"#utility.yul\":6656:6925   */\n              pop\n                /* \"#utility.yul\":6605:6925   */\n              swap2\n              swap1\n              pop\n              jump\t// out\n                /* \"#utility.yul\":6931:7079   */\n            tag_74:\n                /* \"#utility.yul\":7033:7044   */\n              0x00\n                /* \"#utility.yul\":7070:7073   */\n              dup2\n                /* \"#utility.yul\":7055:7073   */\n              swap1\n              pop\n                /* \"#utility.yul\":6931:7079   */\n              swap3\n              swap2\n              pop\n              pop\n              jump\t// out\n                /* \"#utility.yul\":7085:7475   */\n            tag_75:\n                /* \"#utility.yul\":7191:7194   */\n              0x00\n                /* \"#utility.yul\":7219:7258   */\n              tag_170\n                /* \"#utility.yul\":7252:7257   */\n              dup3\n                /* \"#utility.yul\":7219:7258   */\n              tag_58\n              jump\t// in\n            tag_170:\n                /* \"#utility.yul\":7274:7363   */\n              tag_171\n                /* \"#utility.yul\":7356:7362   */\n              dup2\n                /* \"#utility.yul\":7351:7354   */\n              dup6\n                /* \"#utility.yul\":7274:7363   */\n              tag_74\n              jump\t// in\n            tag_171:\n                /* \"#utility.yul\":7267:7363   */\n              swap4\n              pop\n                /* \"#utility.yul\":7372:7437   */\n              tag_172\n                /* \"#utility.yul\":7430:7436   */\n              dup2\n                /* \"#utility.yul\":7425:7428   */\n              dup6\n                /* \"#utility.yul\":7418:7422   */\n              0x20\n                /* \"#utility.yul\":7411:7416   */\n              dup7\n                /* \"#utility.yul\":7407:7423   */\n              add\n                /* \"#utility.yul\":7372:7437   */\n              tag_60\n              jump\t// in\n            tag_172:\n                /* \"#utility.yul\":7462:7468   */\n              dup1\n                /* \"#utility.yul\":7457:7460   */\n              dup5\n                /* \"#utility.yul\":7453:7469   */\n              add\n                /* \"#utility.yul\":7446:7469   */\n              swap2\n              pop\n                /* \"#utility.yul\":7195:7475   */\n              pop\n                /* \"#utility.yul\":7085:7475   */\n              swap3\n              swap2\n              pop\n              pop\n              jump\t// out\n                /* \"#utility.yul\":7481:7756   */\n            tag_34:\n                /* \"#utility.yul\":7613:7616   */\n              0x00\n                /* \"#utility.yul\":7635:7730   */\n              tag_174\n                /* \"#utility.yul\":7726:7729   */\n              dup3\n                /* \"#utility.yul\":7717:7723   */\n              dup5\n                /* \"#utility.yul\":7635:7730   */\n              tag_75\n              jump\t// in\n            tag_174:\n                /* \"#utility.yul\":7628:7730   */\n              swap2\n              pop\n                /* \"#utility.yul\":7747:7750   */\n              dup2\n                /* \"#utility.yul\":7740:7750   */\n              swap1\n              pop\n                /* \"#utility.yul\":7481:7756   */\n              swap3\n              swap2\n              pop\n              pop\n              jump\t// out\n                /* \"#utility.yul\":7762:7903   */\n            tag_76:\n                /* \"#utility.yul\":7811:7815   */\n              0x00\n                /* \"#utility.yul\":7834:7837   */\n              dup2\n                /* \"#utility.yul\":7826:7837   */\n              swap1\n              pop\n                /* \"#utility.yul\":7857:7860   */\n              dup2\n                /* \"#utility.yul\":7854:7855   */\n              0x00\n                /* \"#utility.yul\":7847:7861   */\n              mstore\n                /* \"#utility.yul\":7891:7895   */\n              0x20\n                /* \"#utility.yul\":7888:7889   */\n              0x00\n                /* \"#utility.yul\":7878:7896   */\n              keccak256\n                /* \"#utility.yul\":7870:7896   */\n              swap1\n              pop\n                /* \"#utility.yul\":7762:7903   */\n              swap2\n              swap1\n              pop\n              jump\t// out\n                /* \"#utility.yul\":7909:8002   */\n            tag_77:\n                /* \"#utility.yul\":7946:7952   */\n              0x00\n                /* \"#utility.yul\":7993:7995   */\n              0x20\n                /* \"#utility.yul\":7988:7990   */\n              0x1f\n                /* \"#utility.yul\":7981:7986   */\n              dup4\n                /* \"#utility.yul\":7977:7991   */\n              add\n                /* \"#utility.yul\":7973:7996   */\n              div\n                /* \"#utility.yul\":7963:7996   */\n              swap1\n              pop\n                /* \"#utility.yul\":7909:8002   */\n              swap2\n              swap1\n              pop\n              jump\t// out\n                /* \"#utility.yul\":8008:8115   */\n            tag_78:\n                /* \"#utility.yul\":8052:8060   */\n              0x00\n                /* \"#utility.yul\":8102:8107   */\n              dup3\n                /* \"#utility.yul\":8096:8100   */\n              dup3\n                /* \"#utility.yul\":8092:8108   */\n              shl\n                /* \"#utility.yul\":8071:8108   */\n              swap1\n              pop\n                /* \"#utility.yul\":8008:8115   */\n              swap3\n              swap2\n              pop\n              pop\n              jump\t// out\n                /* \"#utility.yul\":8121:8514   */\n            tag_79:\n                /* \"#utility.yul\":8190:8196   */\n              0x00\n                /* \"#utility.yul\":8240:8241   */\n              0x08\n                /* \"#utility.yul\":8228:8238   */\n              dup4\n                /* \"#utility.yul\":8224:8242   */\n              mul\n                /* \"#utility.yul\":8263:8360   */\n              tag_179\n                /* \"#utility.yul\":8293:8359   */\n              0xffffffffffffffffffffffffffffffffffffffffffffffffffffffffffffffff\n                /* \"#utility.yul\":8282:8291   */\n              dup3\n                /* \"#utility.yul\":8263:8360   */\n              tag_78\n              jump\t// in\n            tag_179:\n                /* \"#utility.yul\":8381:8420   */\n              tag_180\n                /* \"#utility.yul\":8411:8419   */\n              dup7\n                /* \"#utility.yul\":8400:8409   */\n              dup4\n                /* \"#utility.yul\":8381:8420   */\n              tag_78\n              jump\t// in\n            tag_180:\n                /* \"#utility.yul\":8369:8420   */\n              swap6\n              pop\n                /* \"#utility.yul\":8453:8457   */\n              dup1\n                /* \"#utility.yul\":8449:8458   */\n              not\n                /* \"#utility.yul\":8442:8447   */\n              dup5\n                /* \"#utility.yul\":8438:8459   */\n              and\n                /* \"#utility.yul\":8429:8459   */\n              swap4\n              pop\n                /* \"#utility.yul\":8502:8506   */\n              dup1\n                /* \"#utility.yul\":8492:8500   */\n              dup7\n                /* \"#utility.yul\":8488:8507   */\n              and\n                /* \"#utility.yul\":8481:8486   */\n              dup5\n                /* \"#utility.yul\":8478:8508   */\n              or\n                /* \"#utility.yul\":8468:8508   */\n              swap3\n              pop\n                /* \"#utility.yul\":8197:8514   */\n              pop\n              pop\n                /* \"#utility.yul\":8121:8514   */\n              swap4\n              swap3\n              pop\n              pop\n              pop\n              jump\t// out\n                /* \"#utility.yul\":8520:8580   */\n            tag_80:\n                /* \"#utility.yul\":8548:8551   */\n              0x00\n                /* \"#utility.yul\":8569:8574   */\n              dup2\n                /* \"#utility.yul\":8562:8574   */\n              swap1\n              pop\n                /* \"#utility.yul\":8520:8580   */\n              swap2\n              swap1\n              pop\n              jump\t// out\n                /* \"#utility.yul\":8586:8728   */\n            tag_81:\n                /* \"#utility.yul\":8636:8645   */\n              0x00\n                /* \"#utility.yul\":8669:8722   */\n              tag_183\n                /* \"#utility.yul\":8687:8721   */\n              tag_184\n                /* \"#utility.yul\":8696:8720   */\n              tag_185\n                /* \"#utility.yul\":8714:8719   */\n              dup5\n                /* \"#utility.yul\":8696:8720   */\n              tag_55\n              jump\t// in\n            tag_185:\n                /* \"#utility.yul\":8687:8721   */\n              tag_80\n              jump\t// in\n            tag_184:\n                /* \"#utility.yul\":8669:8722   */\n              tag_55\n              jump\t// in\n            tag_183:\n                /* \"#utility.yul\":8656:8722   */\n              swap1\n              pop\n                /* \"#utility.yul\":8586:8728   */\n              swap2\n              swap1\n              pop\n              jump\t// out\n                /* \"#utility.yul\":8734:8809   */\n            tag_82:\n                /* \"#utility.yul\":8777:8780   */\n              0x00\n                /* \"#utility.yul\":8798:8803   */\n              dup2\n                /* \"#utility.yul\":8791:8803   */\n              swap1\n              pop\n                /* \"#utility.yul\":8734:8809   */\n              swap2\n              swap1\n              pop\n              jump\t// out\n                /* \"#utility.yul\":8815:9084   */\n            tag_83:\n                /* \"#utility.yul\":8925:8964   */\n              tag_188\n                /* \"#utility.yul\":8956:8963   */\n              dup4\n                /* \"#utility.yul\":8925:8964   */\n              tag_81\n              jump\t// in\n            tag_188:\n                /* \"#utility.yul\":8986:9077   */\n              tag_189\n                /* \"#utility.yul\":9035:9076   */\n              tag_190\n                /* \"#utility.yul\":9059:9075   */\n              dup3\n                /* \"#utility.yul\":9035:9076   */\n              tag_82\n              jump\t// in\n            tag_190:\n                /* \"#utility.yul\":9027:9033   */\n              dup5\n                /* \"#utility.yul\":9020:9024   */\n              dup5\n                /* \"#utility.yul\":9014:9025   */\n              sload\n                /* \"#utility.yul\":8986:9077   */\n              tag_79\n              jump\t// in\n            tag_189:\n                /* \"#utility.yul\":8980:8984   */\n              dup3\n                /* \"#utility.yul\":8973:9078   */\n              sstore\n                /* \"#utility.yul\":8891:9084   */\n              pop\n                /* \"#utility.yul\":8815:9084   */\n              pop\n              pop\n              pop\n              jump\t// out\n                /* \"#utility.yul\":9090:9163   */\n            tag_84:\n                /* \"#utility.yul\":9135:9138   */\n              0x00\n                /* \"#utility.yul\":9156:9157   */\n              0x00\n                /* \"#utility.yul\":9149:9157   */\n              swap1\n              pop\n                /* \"#utility.yul\":9090:9163   */\n              swap1\n              jump\t// out\n                /* \"#utility.yul\":9169:9358   */\n            tag_85:\n                /* \"#utility.yul\":9246:9278   */\n              tag_193\n              tag_84\n              jump\t// in\n            tag_193:\n                /* \"#utility.yul\":9287:9352   */\n              tag_194\n                /* \"#utility.yul\":9345:9351   */\n              dup2\n                /* \"#utility.yul\":9337:9343   */\n              dup5\n                /* \"#utility.yul\":9331:9335   */\n              dup5\n                /* \"#utility.yul\":9287:9352   */\n              tag_83\n              jump\t// in\n            tag_194:\n                /* \"#utility.yul\":9222:9358   */\n              pop\n                /* \"#utility.yul\":9169:9358   */\n              pop\n              pop\n              jump\t// out\n                /* \"#utility.yul\":9364:9550   */\n            tag_86:\n                /* \"#utility.yul\":9424:9544   */\n            tag_196:\n                /* \"#utility.yul\":9441:9444   */\n              dup2\n                /* \"#utility.yul\":9434:9439   */\n              dup2\n                /* \"#utility.yul\":9431:9445   */\n              lt\n                /* \"#utility.yul\":9424:9544   */\n              iszero\n              tag_198\n              jumpi\n                /* \"#utility.yul\":9495:9534   */\n              tag_199\n                /* \"#utility.yul\":9532:9533   */\n              0x00\n                /* \"#utility.yul\":9525:9530   */\n              dup3\n                /* \"#utility.yul\":9495:9534   */\n              tag_85\n              jump\t// in\n            tag_199:\n                /* \"#utility.yul\":9468:9469   */\n              0x01\n                /* \"#utility.yul\":9461:9466   */\n              dup2\n                /* \"#utility.yul\":9457:9470   */\n              add\n                /* \"#utility.yul\":9448:9470   */\n              swap1\n              pop\n                /* \"#utility.yul\":9424:9544   */\n              jump(tag_196)\n            tag_198:\n                /* \"#utility.yul\":9364:9550   */\n              pop\n              pop\n              jump\t// out\n                /* \"#utility.yul\":9556:10099   */\n            tag_87:\n                /* \"#utility.yul\":9657:9659   */\n              0x1f\n                /* \"#utility.yul\":9652:9655   */\n              dup3\n                /* \"#utility.yul\":9649:9660   */\n              gt\n                /* \"#utility.yul\":9646:10092   */\n              iszero\n              tag_201\n              jumpi\n                /* \"#utility.yul\":9691:9729   */\n              tag_202\n                /* \"#utility.yul\":9723:9728   */\n              dup2\n                /* \"#utility.yul\":9691:9729   */\n              tag_76\n              jump\t// in\n            tag_202:\n                /* \"#utility.yul\":9775:9804   */\n              tag_203\n                /* \"#utility.yul\":9793:9803   */\n              dup5\n                /* \"#utility.yul\":9775:9804   */\n              tag_77\n              jump\t// in\n            tag_203:\n                /* \"#utility.yul\":9765:9773   */\n              dup2\n                /* \"#utility.yul\":9761:9805   */\n              add\n                /* \"#utility.yul\":9958:9960   */\n              0x20\n                /* \"#utility.yul\":9946:9956   */\n              dup6\n                /* \"#utility.yul\":9943:9961   */\n              lt\n                /* \"#utility.yul\":9940:9989   */\n              iszero\n              tag_204\n              jumpi\n                /* \"#utility.yul\":9979:9987   */\n              dup2\n                /* \"#utility.yul\":9964:9987   */\n              swap1\n              pop\n                /* \"#utility.yul\":9940:9989   */\n            tag_204:\n                /* \"#utility.yul\":10002:10082   */\n              tag_205\n                /* \"#utility.yul\":10058:10080   */\n              tag_206\n                /* \"#utility.yul\":10076:10079   */\n              dup6\n                /* \"#utility.yul\":10058:10080   */\n              tag_77\n              jump\t// in\n            tag_206:\n                /* \"#utility.yul\":10048:10056   */\n              dup4\n                /* \"#utility.yul\":10044:10081   */\n              add\n                /* \"#utility.yul\":10031:10042   */\n              dup3\n                /* \"#utility.yul\":10002:10082   */\n              tag_86\n              jump\t// in\n            tag_205:\n                /* \"#utility.yul\":9661:10092   */\n              pop\n              pop\n                /* \"#utility.yul\":9646:10092   */\n            tag_201:\n                /* \"#utility.yul\":9556:10099   */\n              pop\n              pop\n              pop\n              jump\t// out\n                /* \"#utility.yul\":10105:10222   */\n            tag_88:\n                /* \"#utility.yul\":10159:10167   */\n              0x00\n                /* \"#utility.yul\":10209:10214   */\n              dup3\n                /* \"#utility.yul\":10203:10207   */\n              dup3\n                /* \"#utility.yul\":10199:10215   */\n              shr\n                /* \"#utility.yul\":10178:10215   */\n              swap1\n              pop\n                /* \"#utility.yul\":10105:10222   */\n              swap3\n              swap2\n              pop\n              pop\n              jump\t// out\n                /* \"#utility.yul\":10228:10397   */\n            tag_89:\n                /* \"#utility.yul\":10272:10278   */\n              0x00\n                /* \"#utility.yul\":10305:10356   */\n              tag_209\n                /* \"#utility.yul\":10353:10354   */\n              0x00\n                /* \"#utility.yul\":10349:10355   */\n              not\n                /* \"#utility.yul\":10341:10346   */\n              dup5\n                /* \"#utility.yul\":10338:10339   */\n              0x08\n                /* \"#utility.yul\":10334:10347   */\n              mul\n                /* \"#utility.yul\":10305:10356   */\n              tag_88\n              jump\t// in\n            tag_209:\n                /* \"#utility.yul\":10301:10357   */\n              not\n                /* \"#utility.yul\":10386:10390   */\n              dup1\n                /* \"#utility.yul\":10380:10384   */\n              dup4\n                /* \"#utility.yul\":10376:10391   */\n              and\n                /* \"#utility.yul\":10366:10391   */\n              swap2\n              pop\n                /* \"#utility.yul\":10279:10397   */\n              pop\n                /* \"#utility.yul\":10228:10397   */\n              swap3\n              swap2\n              pop\n              pop\n              jump\t// out\n                /* \"#utility.yul\":10402:10697   */\n            tag_90:\n                /* \"#utility.yul\":10478:10482   */\n              0x00\n                /* \"#utility.yul\":10624:10653   */\n              tag_211\n                /* \"#utility.yul\":10649:10652   */\n              dup4\n                /* \"#utility.yul\":10643:10647   */\n              dup4\n                /* \"#utility.yul\":10624:10653   */\n              tag_89\n              jump\t// in\n            tag_211:\n                /* \"#utility.yul\":10616:10653   */\n              swap2\n              pop\n                /* \"#utility.yul\":10686:10689   */\n              dup3\n                /* \"#utility.yul\":10683:10684   */\n              0x02\n                /* \"#utility.yul\":10679:10690   */\n              mul\n                /* \"#utility.yul\":10673:10677   */\n              dup3\n                /* \"#utility.yul\":10670:10691   */\n              or\n                /* \"#utility.yul\":10662:10691   */\n              swap1\n              pop\n                /* \"#utility.yul\":10402:10697   */\n              swap3\n              swap2\n              pop\n              pop\n              jump\t// out\n                /* \"#utility.yul\":10702:12097   */\n            tag_36:\n                /* \"#utility.yul\":10819:10856   */\n              tag_213\n                /* \"#utility.yul\":10852:10855   */\n              dup3\n                /* \"#utility.yul\":10819:10856   */\n              tag_58\n              jump\t// in\n            tag_213:\n                /* \"#utility.yul\":10921:10939   */\n              0xffffffffffffffff\n                /* \"#utility.yul\":10913:10919   */\n              dup2\n                /* \"#utility.yul\":10910:10940   */\n              gt\n                /* \"#utility.yul\":10907:10963   */\n              iszero\n              tag_214\n              jumpi\n                /* \"#utility.yul\":10943:10961   */\n              tag_215\n              tag_66\n              jump\t// in\n            tag_215:\n                /* \"#utility.yul\":10907:10963   */\n            tag_214:\n                /* \"#utility.yul\":10987:11025   */\n              tag_216\n                /* \"#utility.yul\":11019:11023   */\n              dup3\n                /* \"#utility.yul\":11013:11024   */\n              sload\n                /* \"#utility.yul\":10987:11025   */\n              tag_22\n              jump\t// in\n            tag_216:\n                /* \"#utility.yul\":11072:11139   */\n              tag_217\n                /* \"#utility.yul\":11132:11138   */\n              dup3\n                /* \"#utility.yul\":11124:11130   */\n              dup3\n                /* \"#utility.yul\":11118:11122   */\n              dup6\n                /* \"#utility.yul\":11072:11139   */\n              tag_87\n              jump\t// in\n            tag_217:\n                /* \"#utility.yul\":11166:11167   */\n              0x00\n                /* \"#utility.yul\":11190:11194   */\n              0x20\n                /* \"#utility.yul\":11177:11194   */\n              swap1\n              pop\n                /* \"#utility.yul\":11222:11224   */\n              0x1f\n                /* \"#utility.yul\":11214:11220   */\n              dup4\n                /* \"#utility.yul\":11211:11225   */\n              gt\n                /* \"#utility.yul\":11239:11240   */\n              0x01\n                /* \"#utility.yul\":11234:11852   */\n              dup2\n              eq\n              tag_219\n              jumpi\n                /* \"#utility.yul\":11896:11897   */\n              0x00\n                /* \"#utility.yul\":11913:11919   */\n              dup5\n                /* \"#utility.yul\":11910:11987   */\n              iszero\n              tag_220\n              jumpi\n                /* \"#utility.yul\":11962:11971   */\n              dup3\n                /* \"#utility.yul\":11957:11960   */\n              dup8\n                /* \"#utility.yul\":11953:11972   */\n              add\n                /* \"#utility.yul\":11947:11973   */\n              mload\n                /* \"#utility.yul\":11938:11973   */\n              swap1\n              pop\n                /* \"#utility.yul\":11910:11987   */\n            tag_220:\n                /* \"#utility.yul\":12013:12080   */\n              tag_221\n                /* \"#utility.yul\":12073:12079   */\n              dup6\n                /* \"#utility.yul\":12066:12071   */\n              dup3\n                /* \"#utility.yul\":12013:12080   */\n              tag_90\n              jump\t// in\n            tag_221:\n                /* \"#utility.yul\":12007:12011   */\n              dup7\n                /* \"#utility.yul\":12000:12081   */\n              sstore\n                /* \"#utility.yul\":11869:12091   */\n              pop\n                /* \"#utility.yul\":11204:12091   */\n              jump(tag_218)\n                /* \"#utility.yul\":11234:11852   */\n            tag_219:\n                /* \"#utility.yul\":11286:11290   */\n              0x1f\n                /* \"#utility.yul\":11282:11291   */\n              not\n                /* \"#utility.yul\":11274:11280   */\n              dup5\n                /* \"#utility.yul\":11270:11292   */\n              and\n                /* \"#utility.yul\":11320:11357   */\n              tag_222\n                /* \"#utility.yul\":11352:11356   */\n              dup7\n                /* \"#utility.yul\":11320:11357   */\n              tag_76\n              jump\t// in\n            tag_222:\n                /* \"#utility.yul\":11379:11380   */\n              0x00\n                /* \"#utility.yul\":11393:11601   */\n            tag_223:\n                /* \"#utility.yul\":11407:11414   */\n              dup3\n                /* \"#utility.yul\":11404:11405   */\n              dup2\n                /* \"#utility.yul\":11401:11415   */\n              lt\n                /* \"#utility.yul\":11393:11601   */\n              iszero\n              tag_225\n              jumpi\n                /* \"#utility.yul\":11486:11495   */\n              dup5\n                /* \"#utility.yul\":11481:11484   */\n              dup10\n                /* \"#utility.yul\":11477:11496   */\n              add\n                /* \"#utility.yul\":11471:11497   */\n              mload\n                /* \"#utility.yul\":11463:11469   */\n              dup3\n                /* \"#utility.yul\":11456:11498   */\n              sstore\n                /* \"#utility.yul\":11537:11538   */\n              0x01\n                /* \"#utility.yul\":11529:11535   */\n              dup3\n                /* \"#utility.yul\":11525:11539   */\n              add\n                /* \"#utility.yul\":11515:11539   */\n              swap2\n              pop\n                /* \"#utility.yul\":11584:11586   */\n              0x20\n                /* \"#utility.yul\":11573:11582   */\n              dup6\n                /* \"#utility.yul\":11569:11587   */\n              add\n                /* \"#utility.yul\":11556:11587   */\n              swap5\n              pop\n                /* \"#utility.yul\":11430:11434   */\n              0x20\n                /* \"#utility.yul\":11427:11428   */\n              dup2\n                /* \"#utility.yul\":11423:11435   */\n              add\n                /* \"#utility.yul\":11418:11435   */\n              swap1\n              pop\n                /* \"#utility.yul\":11393:11601   */\n              jump(tag_223)\n            tag_225:\n                /* \"#utility.yul\":11629:11635   */\n              dup7\n                /* \"#utility.yul\":11620:11627   */\n              dup4\n                /* \"#utility.yul\":11617:11636   */\n              lt\n                /* \"#utility.yul\":11614:11793   */\n              iszero\n              tag_226\n              jumpi\n                /* \"#utility.yul\":11687:11696   */\n              dup5\n                /* \"#utility.yul\":11682:11685   */\n              dup10\n                /* \"#utility.yul\":11678:11697   */\n              add\n                /* \"#utility.yul\":11672:11698   */\n              mload\n                /* \"#utility.yul\":11730:11778   */\n              tag_227\n                /* \"#utility.yul\":11772:11776   */\n              0x1f\n                /* \"#utility.yul\":11764:11770   */\n              dup10\n                /* \"#utility.yul\":11760:11777   */\n              and\n                /* \"#utility.yul\":11749:11758   */\n              dup3\n                /* \"#utility.yul\":11730:11778   */\n              tag_89\n              jump\t// in\n            tag_227:\n                /* \"#utility.yul\":11722:11728   */\n              dup4\n                /* \"#utility.yul\":11715:11779   */\n              sstore\n                /* \"#utility.yul\":11637:11793   */\n              pop\n                /* \"#utility.yul\":11614:11793   */\n            tag_226:\n                /* \"#utility.yul\":11839:11840   */\n              0x01\n                /* \"#utility.yul\":11835:11836   */\n              0x02\n                /* \"#utility.yul\":11827:11833   */\n              dup9\n                /* \"#utility.yul\":11823:11837   */\n              mul\n                /* \"#utility.yul\":11819:11841   */\n              add\n                /* \"#utility.yul\":11813:11817   */\n              dup9\n                /* \"#utility.yul\":11806:11842   */\n              sstore\n                /* \"#utility.yul\":11241:11852   */\n              pop\n              pop\n              pop\n                /* \"#utility.yul\":11204:12091   */\n            tag_218:\n              pop\n                /* \"#utility.yul\":10794:12097   */\n              pop\n              pop\n              pop\n                /* \"#utility.yul\":10702:12097   */\n              pop\n              pop\n              jump\t// out\n                /* \"#utility.yul\":12103:12283   */\n            tag_91:\n                /* \"#utility.yul\":12151:12228   */\n              0x4e487b7100000000000000000000000000000000000000000000000000000000\n                /* \"#utility.yul\":12148:12149   */\n              0x00\n                /* \"#utility.yul\":12141:12229   */\n              mstore\n                /* \"#utility.yul\":12248:12252   */\n              0x11\n                /* \"#utility.yul\":12245:12246   */\n              0x04\n                /* \"#utility.yul\":12238:12253   */\n              mstore\n                /* \"#utility.yul\":12272:12276   */\n              0x24\n                /* \"#utility.yul\":12269:12270   */\n              0x00\n                /* \"#utility.yul\":12262:12277   */\n              revert\n                /* \"#utility.yul\":12289:12480   */\n            tag_41:\n                /* \"#utility.yul\":12329:12332   */\n              0x00\n                /* \"#utility.yul\":12348:12368   */\n              tag_230\n                /* \"#utility.yul\":12366:12367   */\n              dup3\n                /* \"#utility.yul\":12348:12368   */\n              tag_55\n              jump\t// in\n            tag_230:\n                /* \"#utility.yul\":12343:12368   */\n              swap2\n              pop\n                /* \"#utility.yul\":12382:12402   */\n              tag_231\n                /* \"#utility.yul\":12400:12401   */\n              dup4\n                /* \"#utility.yul\":12382:12402   */\n              tag_55\n              jump\t// in\n            tag_231:\n                /* \"#utility.yul\":12377:12402   */\n              swap3\n              pop\n                /* \"#utility.yul\":12425:12426   */\n              dup3\n                /* \"#utility.yul\":12422:12423   */\n              dup3\n                /* \"#utility.yul\":12418:12427   */\n              add\n                /* \"#utility.yul\":12411:12427   */\n              swap1\n              pop\n                /* \"#utility.yul\":12446:12449   */\n              dup1\n                /* \"#utility.yul\":12443:12444   */\n              dup3\n                /* \"#utility.yul\":12440:12450   */\n              gt\n                /* \"#utility.yul\":12437:12473   */\n              iszero\n              tag_232\n              jumpi\n                /* \"#utility.yul\":12453:12471   */\n              tag_233\n              tag_91\n              jump\t// in\n            tag_233:\n                /* \"#utility.yul\":12437:12473   */\n            tag_232:\n                /* \"#utility.yul\":12289:12480   */\n              swap3\n              swap2\n              pop\n              pop\n              jump\t// out\n\n            auxdata: 0xa2646970667358221220f97ba1ba757c4e5e69b35b216b2ed6ee8c086d290a85690def0ec4f29f3991a864736f6c634300081e0033\n        }\n    }\n\n    auxdata: 0xa264697066735822122004704ffd5dd1ed18bf721833b854cbf580dc88095925aeae787513dd7b5799de64736f6c634300081e0033\n}\n",
				"bytecode": {
					"linkReferences": {},
					"object": "6080604052348015600e575f5ffd5b506116d68061001c5f395ff3fe608060405234801561000f575f5ffd5b506004361061003f575f3560e01c80634af6b5c2146100435780634c62d88c14610061578063775c300c1461007f575b5f5ffd5b61004b610089565b6040516100589190610231565b60405180910390f35b6100696100ae565b604051610076919061026a565b60405180910390f35b6100876100d2565b005b60015f9054906101000a900473ffffffffffffffffffffffffffffffffffffffff1681565b5f5f9054906101000a900473ffffffffffffffffffffffffffffffffffffffff1681565b6040516100de9061019d565b604051809103905ff0801580156100f7573d5f5f3e3d5ffd5b505f5f6101000a81548173ffffffffffffffffffffffffffffffffffffffff021916908373ffffffffffffffffffffffffffffffffffffffff160217905550604051610142906101aa565b604051809103905ff08015801561015b573d5f5f3e3d5ffd5b5060015f6101000a81548173ffffffffffffffffffffffffffffffffffffffff021916908373ffffffffffffffffffffffffffffffffffffffff160217905550565b6108cf8061028483390190565b610b4e80610b5383390190565b5f73ffffffffffffffffffffffffffffffffffffffff82169050919050565b5f819050919050565b5f6101f96101f46101ef846101b7565b6101d6565b6101b7565b9050919050565b5f61020a826101df565b9050919050565b5f61021b82610200565b9050919050565b61022b81610211565b82525050565b5f6020820190506102445f830184610222565b92915050565b5f61025482610200565b9050919050565b6102648161024a565b82525050565b5f60208201905061027d5f83018461025b565b9291505056fe6080604052348015600e575f5ffd5b506108b38061001c5f395ff3fe608060405234801561000f575f5ffd5b506004361061003f575f3560e01c80630fe5a25914610043578063373c90d9146100735780633f0556b0146100a5575b5f5ffd5b61005d600480360381019061005891906102e6565b6100c1565b60405161006a9190610381565b60405180910390f35b61008d600480360381019061008891906102e6565b610172565b60405161009c939291906103b0565b60405180910390f35b6100bf60048036038101906100ba9190610518565b61022c565b005b60605f82815481106100d6576100d5610584565b5b905f5260205f2090600302015f0180546100ef906105de565b80601f016020809104026020016040519081016040528092919081815260200182805461011b906105de565b80156101665780601f1061013d57610100808354040283529160200191610166565b820191905f5260205f20905b81548152906001019060200180831161014957829003601f168201915b50505050509050919050565b5f8181548110610180575f80fd5b905f5260205f2090600302015f91509050805f01805461019f906105de565b80601f01602080910402602001604051908101604052809291908181526020018280546101cb906105de565b80156102165780601f106101ed57610100808354040283529160200191610216565b820191905f5260205f20905b8154815290600101906020018083116101f957829003601f168201915b5050505050908060010154908060020154905083565b5f60405180606001604052808581526020018481526020018381525090505f81908060018154018082558091505060019003905f5260205f2090600302015f909190919091505f820151815f01908161028591906107ae565b506020820151816001015560408201518160020155505050505050565b5f604051905090565b5f5ffd5b5f5ffd5b5f819050919050565b6102c5816102b3565b81146102cf575f5ffd5b50565b5f813590506102e0816102bc565b92915050565b5f602082840312156102fb576102fa6102ab565b5b5f610308848285016102d2565b91505092915050565b5f81519050919050565b5f82825260208201905092915050565b8281835e5f83830152505050565b5f601f19601f8301169050919050565b5f61035382610311565b61035d818561031b565b935061036d81856020860161032b565b61037681610339565b840191505092915050565b5f6020820190508181035f8301526103998184610349565b905092915050565b6103aa816102b3565b82525050565b5f6060820190508181035f8301526103c88186610349565b90506103d760208301856103a1565b6103e460408301846103a1565b949350505050565b5f5ffd5b5f5ffd5b7f4e487b71000000000000000000000000000000000000000000000000000000005f52604160045260245ffd5b61042a82610339565b810181811067ffffffffffffffff82111715610449576104486103f4565b5b80604052505050565b5f61045b6102a2565b90506104678282610421565b919050565b5f67ffffffffffffffff821115610486576104856103f4565b5b61048f82610339565b9050602081019050919050565b828183375f83830152505050565b5f6104bc6104b78461046c565b610452565b9050828152602081018484840111156104d8576104d76103f0565b5b6104e384828561049c565b509392505050565b5f82601f8301126104ff576104fe6103ec565b5b813561050f8482602086016104aa565b91505092915050565b5f5f5f6060848603121561052f5761052e6102ab565b5b5f84013567ffffffffffffffff81111561054c5761054b6102af565b5b610558868287016104eb565b9350506020610569868287016102d2565b925050604061057a868287016102d2565b9150509250925092565b7f4e487b71000000000000000000000000000000000000000000000000000000005f52603260045260245ffd5b7f4e487b71000000000000000000000000000000000000000000000000000000005f52602260045260245ffd5b5f60028204905060018216806105f557607f821691505b602082108103610608576106076105b1565b5b50919050565b5f819050815f5260205f209050919050565b5f6020601f8301049050919050565b5f82821b905092915050565b5f6008830261066a7fffffffffffffffffffffffffffffffffffffffffffffffffffffffffffffffff8261062f565b610674868361062f565b95508019841693508086168417925050509392505050565b5f819050919050565b5f6106af6106aa6106a5846102b3565b61068c565b6102b3565b9050919050565b5f819050919050565b6106c883610695565b6106dc6106d4826106b6565b84845461063b565b825550505050565b5f5f905090565b6106f36106e4565b6106fe8184846106bf565b505050565b5b81811015610721576107165f826106eb565b600181019050610704565b5050565b601f821115610766576107378161060e565b61074084610620565b8101602085101561074f578190505b61076361075b85610620565b830182610703565b50505b505050565b5f82821c905092915050565b5f6107865f198460080261076b565b1980831691505092915050565b5f61079e8383610777565b9150826002028217905092915050565b6107b782610311565b67ffffffffffffffff8111156107d0576107cf6103f4565b5b6107da82546105de565b6107e5828285610725565b5f60209050601f831160018114610816575f8415610804578287015190505b61080e8582610793565b865550610875565b601f1984166108248661060e565b5f5b8281101561084b57848901518255600182019150602085019450602081019050610826565b868310156108685784890151610864601f891682610777565b8355505b6001600288020188555050505b50505050505056fea2646970667358221220f4380f12e37fc84a4591e4dea62fb4f49f68fa9052247c6f20520a67637ce55064736f6c634300081e0033608060405260016002553480156013575f5ffd5b50610b2d806100215f395ff3fe608060405234801561000f575f5ffd5b506004361061003f575f3560e01c806366fdd76814610043578063ac3150b614610076578063eea90f1514610092575b5f5ffd5b61005d60048036038101906100589190610485565b6100c5565b60405161006d949392919061052f565b60405180910390f35b610090600480360381019061008b91906106ac565b6101fd565b005b6100ac60048036038101906100a79190610734565b6102f2565b6040516100bc949392919061052f565b60405180910390f35b6001602052805f5260405f205f91509050805f0180546100e4906107a8565b80601f0160208091040260200160405190810160405280929190818152602001828054610110906107a8565b801561015b5780601f106101325761010080835404028352916020019161015b565b820191905f5260205f20905b81548152906001019060200180831161013e57829003601f168201915b50505050509080600101549080600201549080600301805461017c906107a8565b80601f01602080910402602001604051908101604052809291908181526020018280546101a8906107a8565b80156101f35780601f106101ca576101008083540402835291602001916101f3565b820191905f5260205f20905b8154815290600101906020018083116101d657829003601f168201915b5050505050905084565b5f60405180608001604052808581526020016002548152602001848152602001838152509050805f856040516102339190610812565b90815260200160405180910390205f820151815f01908161025491906109c8565b506020820151816001015560408201518160020155606082015181600301908161027e91906109c8565b509050508060015f60025481526020019081526020015f205f820151815f0190816102a991906109c8565b50602082015181600101556040820151816002015560608201518160030190816102d391906109c8565b5090505060016002546102e69190610ac4565b60028190555050505050565b5f818051602081018201805184825260208301602085012081835280955050505050505f91509050805f018054610328906107a8565b80601f0160208091040260200160405190810160405280929190818152602001828054610354906107a8565b801561039f5780601f106103765761010080835404028352916020019161039f565b820191905f5260205f20905b81548152906001019060200180831161038257829003601f168201915b5050505050908060010154908060020154908060030180546103c0906107a8565b80601f01602080910402602001604051908101604052809291908181526020018280546103ec906107a8565b80156104375780601f1061040e57610100808354040283529160200191610437565b820191905f5260205f20905b81548152906001019060200180831161041a57829003601f168201915b5050505050905084565b5f604051905090565b5f5ffd5b5f5ffd5b5f819050919050565b61046481610452565b811461046e575f5ffd5b50565b5f8135905061047f8161045b565b92915050565b5f6020828403121561049a5761049961044a565b5b5f6104a784828501610471565b91505092915050565b5f81519050919050565b5f82825260208201905092915050565b8281835e5f83830152505050565b5f601f19601f8301169050919050565b5f6104f2826104b0565b6104fc81856104ba565b935061050c8185602086016104ca565b610515816104d8565b840191505092915050565b61052981610452565b82525050565b5f6080820190508181035f83015261054781876104e8565b90506105566020830186610520565b6105636040830185610520565b818103606083015261057581846104e8565b905095945050505050565b5f5ffd5b5f5ffd5b7f4e487b71000000000000000000000000000000000000000000000000000000005f52604160045260245ffd5b6105be826104d8565b810181811067ffffffffffffffff821117156105dd576105dc610588565b5b80604052505050565b5f6105ef610441565b90506105fb82826105b5565b919050565b5f67ffffffffffffffff82111561061a57610619610588565b5b610623826104d8565b9050602081019050919050565b828183375f83830152505050565b5f61065061064b84610600565b6105e6565b90508281526020810184848401111561066c5761066b610584565b5b610677848285610630565b509392505050565b5f82601f83011261069357610692610580565b5b81356106a384826020860161063e565b91505092915050565b5f5f5f606084860312156106c3576106c261044a565b5b5f84013567ffffffffffffffff8111156106e0576106df61044e565b5b6106ec8682870161067f565b93505060206106fd86828701610471565b925050604084013567ffffffffffffffff81111561071e5761071d61044e565b5b61072a8682870161067f565b9150509250925092565b5f602082840312156107495761074861044a565b5b5f82013567ffffffffffffffff8111156107665761076561044e565b5b6107728482850161067f565b91505092915050565b7f4e487b71000000000000000000000000000000000000000000000000000000005f52602260045260245ffd5b5f60028204905060018216806107bf57607f821691505b6020821081036107d2576107d161077b565b5b50919050565b5f81905092915050565b5f6107ec826104b0565b6107f681856107d8565b93506108068185602086016104ca565b80840191505092915050565b5f61081d82846107e2565b915081905092915050565b5f819050815f5260205f209050919050565b5f6020601f8301049050919050565b5f82821b905092915050565b5f600883026108847fffffffffffffffffffffffffffffffffffffffffffffffffffffffffffffffff82610849565b61088e8683610849565b95508019841693508086168417925050509392505050565b5f819050919050565b5f6108c96108c46108bf84610452565b6108a6565b610452565b9050919050565b5f819050919050565b6108e2836108af565b6108f66108ee826108d0565b848454610855565b825550505050565b5f5f905090565b61090d6108fe565b6109188184846108d9565b505050565b5b8181101561093b576109305f82610905565b60018101905061091e565b5050565b601f8211156109805761095181610828565b61095a8461083a565b81016020851015610969578190505b61097d6109758561083a565b83018261091d565b50505b505050565b5f82821c905092915050565b5f6109a05f1984600802610985565b1980831691505092915050565b5f6109b88383610991565b9150826002028217905092915050565b6109d1826104b0565b67ffffffffffffffff8111156109ea576109e9610588565b5b6109f482546107a8565b6109ff82828561093f565b5f60209050601f831160018114610a30575f8415610a1e578287015190505b610a2885826109ad565b865550610a8f565b601f198416610a3e86610828565b5f5b82811015610a6557848901518255600182019150602085019450602081019050610a40565b86831015610a825784890151610a7e601f891682610991565b8355505b6001600288020188555050505b505050505050565b7f4e487b71000000000000000000000000000000000000000000000000000000005f52601160045260245ffd5b5f610ace82610452565b9150610ad983610452565b9250828201905080821115610af157610af0610a97565b5b9291505056fea2646970667358221220f97ba1ba757c4e5e69b35b216b2ed6ee8c086d290a85690def0ec4f29f3991a864736f6c634300081e0033a264697066735822122004704ffd5dd1ed18bf721833b854cbf580dc88095925aeae787513dd7b5799de64736f6c634300081e0033",
					"opcodes": "PUSH1 0x80 PUSH1 0x40 MSTORE CALLVALUE DUP1 ISZERO PUSH1 0xE JUMPI PUSH0 PUSH0 REVERT JUMPDEST POP PUSH2 0x16D6 DUP1 PUSH2 0x1C PUSH0 CODECOPY PUSH0 RETURN INVALID PUSH1 0x80 PUSH1 0x40 MSTORE CALLVALUE DUP1 ISZERO PUSH2 0xF JUMPI PUSH0 PUSH0 REVERT JUMPDEST POP PUSH1 0x4 CALLDATASIZE LT PUSH2 0x3F JUMPI PUSH0 CALLDATALOAD PUSH1 0xE0 SHR DUP1 PUSH4 0x4AF6B5C2 EQ PUSH2 0x43 JUMPI DUP1 PUSH4 0x4C62D88C EQ PUSH2 0x61 JUMPI DUP1 PUSH4 0x775C300C EQ PUSH2 0x7F JUMPI JUMPDEST PUSH0 PUSH0 REVERT JUMPDEST PUSH2 0x4B PUSH2 0x89 JUMP JUMPDEST PUSH1 0x40 MLOAD PUSH2 0x58 SWAP2 SWAP1 PUSH2 0x231 JUMP JUMPDEST PUSH1 0x40 MLOAD DUP1 SWAP2 SUB SWAP1 RETURN JUMPDEST PUSH2 0x69 PUSH2 0xAE JUMP JUMPDEST PUSH1 0x40 MLOAD PUSH2 0x76 SWAP2 SWAP1 PUSH2 0x26A JUMP JUMPDEST PUSH1 0x40 MLOAD DUP1 SWAP2 SUB SWAP1 RETURN JUMPDEST PUSH2 0x87 PUSH2 0xD2 JUMP JUMPDEST STOP JUMPDEST PUSH1 0x1 PUSH0 SWAP1 SLOAD SWAP1 PUSH2 0x100 EXP SWAP1 DIV PUSH20 0xFFFFFFFFFFFFFFFFFFFFFFFFFFFFFFFFFFFFFFFF AND DUP2 JUMP JUMPDEST PUSH0 PUSH0 SWAP1 SLOAD SWAP1 PUSH2 0x100 EXP SWAP1 DIV PUSH20 0xFFFFFFFFFFFFFFFFFFFFFFFFFFFFFFFFFFFFFFFF AND DUP2 JUMP JUMPDEST PUSH1 0x40 MLOAD PUSH2 0xDE SWAP1 PUSH2 0x19D JUMP JUMPDEST PUSH1 0x40 MLOAD DUP1 SWAP2 SUB SWAP1 PUSH0 CREATE DUP1 ISZERO DUP1 ISZERO PUSH2 0xF7 JUMPI RETURNDATASIZE PUSH0 PUSH0 RETURNDATACOPY RETURNDATASIZE PUSH0 REVERT JUMPDEST POP PUSH0 PUSH0 PUSH2 0x100 EXP DUP2 SLOAD DUP2 PUSH20 0xFFFFFFFFFFFFFFFFFFFFFFFFFFFFFFFFFFFFFFFF MUL NOT AND SWAP1 DUP4 PUSH20 0xFFFFFFFFFFFFFFFFFFFFFFFFFFFFFFFFFFFFFFFF AND MUL OR SWAP1 SSTORE POP PUSH1 0x40 MLOAD PUSH2 0x142 SWAP1 PUSH2 0x1AA JUMP JUMPDEST PUSH1 0x40 MLOAD DUP1 SWAP2 SUB SWAP1 PUSH0 CREATE DUP1 ISZERO DUP1 ISZERO PUSH2 0x15B JUMPI RETURNDATASIZE PUSH0 PUSH0 RETURNDATACOPY RETURNDATASIZE PUSH0 REVERT JUMPDEST POP PUSH1 0x1 PUSH0 PUSH2 0x100 EXP DUP2 SLOAD DUP2 PUSH20 0xFFFFFFFFFFFFFFFFFFFFFFFFFFFFFFFFFFFFFFFF MUL NOT AND SWAP1 DUP4 PUSH20 0xFFFFFFFFFFFFFFFFFFFFFFFFFFFFFFFFFFFFFFFF AND MUL OR SWAP1 SSTORE POP JUMP JUMPDEST PUSH2 0x8CF DUP1 PUSH2 0x284 DUP4 CODECOPY ADD SWAP1 JUMP JUMPDEST PUSH2 0xB4E DUP1 PUSH2 0xB53 DUP4 CODECOPY ADD SWAP1 JUMP JUMPDEST PUSH0 PUSH20 0xFFFFFFFFFFFFFFFFFFFFFFFFFFFFFFFFFFFFFFFF DUP3 AND SWAP1 POP SWAP2 SWAP1 POP JUMP JUMPDEST PUSH0 DUP2 SWAP1 POP SWAP2 SWAP1 POP JUMP JUMPDEST PUSH0 PUSH2 0x1F9 PUSH2 0x1F4 PUSH2 0x1EF DUP5 PUSH2 0x1B7 JUMP JUMPDEST PUSH2 0x1D6 JUMP JUMPDEST PUSH2 0x1B7 JUMP JUMPDEST SWAP1 POP SWAP2 SWAP1 POP JUMP JUMPDEST PUSH0 PUSH2 0x20A DUP3 PUSH2 0x1DF JUMP JUMPDEST SWAP1 POP SWAP2 SWAP1 POP JUMP JUMPDEST PUSH0 PUSH2 0x21B DUP3 PUSH2 0x200 JUMP JUMPDEST SWAP1 POP SWAP2 SWAP1 POP JUMP JUMPDEST PUSH2 0x22B DUP2 PUSH2 0x211 JUMP JUMPDEST DUP3 MSTORE POP POP JUMP JUMPDEST PUSH0 PUSH1 0x20 DUP3 ADD SWAP1 POP PUSH2 0x244 PUSH0 DUP4 ADD DUP5 PUSH2 0x222 JUMP JUMPDEST SWAP3 SWAP2 POP POP JUMP JUMPDEST PUSH0 PUSH2 0x254 DUP3 PUSH2 0x200 JUMP JUMPDEST SWAP1 POP SWAP2 SWAP1 POP JUMP JUMPDEST PUSH2 0x264 DUP2 PUSH2 0x24A JUMP JUMPDEST DUP3 MSTORE POP POP JUMP JUMPDEST PUSH0 PUSH1 0x20 DUP3 ADD SWAP1 POP PUSH2 0x27D PUSH0 DUP4 ADD DUP5 PUSH2 0x25B JUMP JUMPDEST SWAP3 SWAP2 POP POP JUMP INVALID PUSH1 0x80 PUSH1 0x40 MSTORE CALLVALUE DUP1 ISZERO PUSH1 0xE JUMPI PUSH0 PUSH0 REVERT JUMPDEST POP PUSH2 0x8B3 DUP1 PUSH2 0x1C PUSH0 CODECOPY PUSH0 RETURN INVALID PUSH1 0x80 PUSH1 0x40 MSTORE CALLVALUE DUP1 ISZERO PUSH2 0xF JUMPI PUSH0 PUSH0 REVERT JUMPDEST POP PUSH1 0x4 CALLDATASIZE LT PUSH2 0x3F JUMPI PUSH0 CALLDATALOAD PUSH1 0xE0 SHR DUP1 PUSH4 0xFE5A259 EQ PUSH2 0x43 JUMPI DUP1 PUSH4 0x373C90D9 EQ PUSH2 0x73 JUMPI DUP1 PUSH4 0x3F0556B0 EQ PUSH2 0xA5 JUMPI JUMPDEST PUSH0 PUSH0 REVERT JUMPDEST PUSH2 0x5D PUSH1 0x4 DUP1 CALLDATASIZE SUB DUP2 ADD SWAP1 PUSH2 0x58 SWAP2 SWAP1 PUSH2 0x2E6 JUMP JUMPDEST PUSH2 0xC1 JUMP JUMPDEST PUSH1 0x40 MLOAD PUSH2 0x6A SWAP2 SWAP1 PUSH2 0x381 JUMP JUMPDEST PUSH1 0x40 MLOAD DUP1 SWAP2 SUB SWAP1 RETURN JUMPDEST PUSH2 0x8D PUSH1 0x4 DUP1 CALLDATASIZE SUB DUP2 ADD SWAP1 PUSH2 0x88 SWAP2 SWAP1 PUSH2 0x2E6 JUMP JUMPDEST PUSH2 0x172 JUMP JUMPDEST PUSH1 0x40 MLOAD PUSH2 0x9C SWAP4 SWAP3 SWAP2 SWAP1 PUSH2 0x3B0 JUMP JUMPDEST PUSH1 0x40 MLOAD DUP1 SWAP2 SUB SWAP1 RETURN JUMPDEST PUSH2 0xBF PUSH1 0x4 DUP1 CALLDATASIZE SUB DUP2 ADD SWAP1 PUSH2 0xBA SWAP2 SWAP1 PUSH2 0x518 JUMP JUMPDEST PUSH2 0x22C JUMP JUMPDEST STOP JUMPDEST PUSH1 0x60 PUSH0 DUP3 DUP2 SLOAD DUP2 LT PUSH2 0xD6 JUMPI PUSH2 0xD5 PUSH2 0x584 JUMP JUMPDEST JUMPDEST SWAP1 PUSH0 MSTORE PUSH1 0x20 PUSH0 KECCAK256 SWAP1 PUSH1 0x3 MUL ADD PUSH0 ADD DUP1 SLOAD PUSH2 0xEF SWAP1 PUSH2 0x5DE JUMP JUMPDEST DUP1 PUSH1 0x1F ADD PUSH1 0x20 DUP1 SWAP2 DIV MUL PUSH1 0x20 ADD PUSH1 0x40 MLOAD SWAP1 DUP2 ADD PUSH1 0x40 MSTORE DUP1 SWAP3 SWAP2 SWAP1 DUP2 DUP2 MSTORE PUSH1 0x20 ADD DUP3 DUP1 SLOAD PUSH2 0x11B SWAP1 PUSH2 0x5DE JUMP JUMPDEST DUP1 ISZERO PUSH2 0x166 JUMPI DUP1 PUSH1 0x1F LT PUSH2 0x13D JUMPI PUSH2 0x100 DUP1 DUP4 SLOAD DIV MUL DUP4 MSTORE SWAP2 PUSH1 0x20 ADD SWAP2 PUSH2 0x166 JUMP JUMPDEST DUP3 ADD SWAP2 SWAP1 PUSH0 MSTORE PUSH1 0x20 PUSH0 KECCAK256 SWAP1 JUMPDEST DUP2 SLOAD DUP2 MSTORE SWAP1 PUSH1 0x1 ADD SWAP1 PUSH1 0x20 ADD DUP1 DUP4 GT PUSH2 0x149 JUMPI DUP3 SWAP1 SUB PUSH1 0x1F AND DUP3 ADD SWAP2 JUMPDEST POP POP POP POP POP SWAP1 POP SWAP2 SWAP1 POP JUMP JUMPDEST PUSH0 DUP2 DUP2 SLOAD DUP2 LT PUSH2 0x180 JUMPI PUSH0 DUP1 REVERT JUMPDEST SWAP1 PUSH0 MSTORE PUSH1 0x20 PUSH0 KECCAK256 SWAP1 PUSH1 0x3 MUL ADD PUSH0 SWAP2 POP SWAP1 POP DUP1 PUSH0 ADD DUP1 SLOAD PUSH2 0x19F SWAP1 PUSH2 0x5DE JUMP JUMPDEST DUP1 PUSH1 0x1F ADD PUSH1 0x20 DUP1 SWAP2 DIV MUL PUSH1 0x20 ADD PUSH1 0x40 MLOAD SWAP1 DUP2 ADD PUSH1 0x40 MSTORE DUP1 SWAP3 SWAP2 SWAP1 DUP2 DUP2 MSTORE PUSH1 0x20 ADD DUP3 DUP1 SLOAD PUSH2 0x1CB SWAP1 PUSH2 0x5DE JUMP JUMPDEST DUP1 ISZERO PUSH2 0x216 JUMPI DUP1 PUSH1 0x1F LT PUSH2 0x1ED JUMPI PUSH2 0x100 DUP1 DUP4 SLOAD DIV MUL DUP4 MSTORE SWAP2 PUSH1 0x20 ADD SWAP2 PUSH2 0x216 JUMP JUMPDEST DUP3 ADD SWAP2 SWAP1 PUSH0 MSTORE PUSH1 0x20 PUSH0 KECCAK256 SWAP1 JUMPDEST DUP2 SLOAD DUP2 MSTORE SWAP1 PUSH1 0x1 ADD SWAP1 PUSH1 0x20 ADD DUP1 DUP4 GT PUSH2 0x1F9 JUMPI DUP3 SWAP1 SUB PUSH1 0x1F AND DUP3 ADD SWAP2 JUMPDEST POP POP POP POP POP SWAP1 DUP1 PUSH1 0x1 ADD SLOAD SWAP1 DUP1 PUSH1 0x2 ADD SLOAD SWAP1 POP DUP4 JUMP JUMPDEST PUSH0 PUSH1 0x40 MLOAD DUP1 PUSH1 0x60 ADD PUSH1 0x40 MSTORE DUP1 DUP6 DUP2 MSTORE PUSH1 0x20 ADD DUP5 DUP2 MSTORE PUSH1 0x20 ADD DUP4 DUP2 MSTORE POP SWAP1 POP PUSH0 DUP2 SWAP1 DUP1 PUSH1 0x1 DUP2 SLOAD ADD DUP1 DUP3 SSTORE DUP1 SWAP2 POP POP PUSH1 0x1 SWAP1 SUB SWAP1 PUSH0 MSTORE PUSH1 0x20 PUSH0 KECCAK256 SWAP1 PUSH1 0x3 MUL ADD PUSH0 SWAP1 SWAP2 SWAP1 SWAP2 SWAP1 SWAP2 POP PUSH0 DUP3 ADD MLOAD DUP2 PUSH0 ADD SWAP1 DUP2 PUSH2 0x285 SWAP2 SWAP1 PUSH2 0x7AE JUMP JUMPDEST POP PUSH1 0x20 DUP3 ADD MLOAD DUP2 PUSH1 0x1 ADD SSTORE PUSH1 0x40 DUP3 ADD MLOAD DUP2 PUSH1 0x2 ADD SSTORE POP POP POP POP POP POP JUMP JUMPDEST PUSH0 PUSH1 0x40 MLOAD SWAP1 POP SWAP1 JUMP JUMPDEST PUSH0 PUSH0 REVERT JUMPDEST PUSH0 PUSH0 REVERT JUMPDEST PUSH0 DUP2 SWAP1 POP SWAP2 SWAP1 POP JUMP JUMPDEST PUSH2 0x2C5 DUP2 PUSH2 0x2B3 JUMP JUMPDEST DUP2 EQ PUSH2 0x2CF JUMPI PUSH0 PUSH0 REVERT JUMPDEST POP JUMP JUMPDEST PUSH0 DUP2 CALLDATALOAD SWAP1 POP PUSH2 0x2E0 DUP2 PUSH2 0x2BC JUMP JUMPDEST SWAP3 SWAP2 POP POP JUMP JUMPDEST PUSH0 PUSH1 0x20 DUP3 DUP5 SUB SLT ISZERO PUSH2 0x2FB JUMPI PUSH2 0x2FA PUSH2 0x2AB JUMP JUMPDEST JUMPDEST PUSH0 PUSH2 0x308 DUP5 DUP3 DUP6 ADD PUSH2 0x2D2 JUMP JUMPDEST SWAP2 POP POP SWAP3 SWAP2 POP POP JUMP JUMPDEST PUSH0 DUP2 MLOAD SWAP1 POP SWAP2 SWAP1 POP JUMP JUMPDEST PUSH0 DUP3 DUP3 MSTORE PUSH1 0x20 DUP3 ADD SWAP1 POP SWAP3 SWAP2 POP POP JUMP JUMPDEST DUP3 DUP2 DUP4 MCOPY PUSH0 DUP4 DUP4 ADD MSTORE POP POP POP JUMP JUMPDEST PUSH0 PUSH1 0x1F NOT PUSH1 0x1F DUP4 ADD AND SWAP1 POP SWAP2 SWAP1 POP JUMP JUMPDEST PUSH0 PUSH2 0x353 DUP3 PUSH2 0x311 JUMP JUMPDEST PUSH2 0x35D DUP2 DUP6 PUSH2 0x31B JUMP JUMPDEST SWAP4 POP PUSH2 0x36D DUP2 DUP6 PUSH1 0x20 DUP7 ADD PUSH2 0x32B JUMP JUMPDEST PUSH2 0x376 DUP2 PUSH2 0x339 JUMP JUMPDEST DUP5 ADD SWAP2 POP POP SWAP3 SWAP2 POP POP JUMP JUMPDEST PUSH0 PUSH1 0x20 DUP3 ADD SWAP1 POP DUP2 DUP2 SUB PUSH0 DUP4 ADD MSTORE PUSH2 0x399 DUP2 DUP5 PUSH2 0x349 JUMP JUMPDEST SWAP1 POP SWAP3 SWAP2 POP POP JUMP JUMPDEST PUSH2 0x3AA DUP2 PUSH2 0x2B3 JUMP JUMPDEST DUP3 MSTORE POP POP JUMP JUMPDEST PUSH0 PUSH1 0x60 DUP3 ADD SWAP1 POP DUP2 DUP2 SUB PUSH0 DUP4 ADD MSTORE PUSH2 0x3C8 DUP2 DUP7 PUSH2 0x349 JUMP JUMPDEST SWAP1 POP PUSH2 0x3D7 PUSH1 0x20 DUP4 ADD DUP6 PUSH2 0x3A1 JUMP JUMPDEST PUSH2 0x3E4 PUSH1 0x40 DUP4 ADD DUP5 PUSH2 0x3A1 JUMP JUMPDEST SWAP5 SWAP4 POP POP POP POP JUMP JUMPDEST PUSH0 PUSH0 REVERT JUMPDEST PUSH0 PUSH0 REVERT JUMPDEST PUSH32 0x4E487B7100000000000000000000000000000000000000000000000000000000 PUSH0 MSTORE PUSH1 0x41 PUSH1 0x4 MSTORE PUSH1 0x24 PUSH0 REVERT JUMPDEST PUSH2 0x42A DUP3 PUSH2 0x339 JUMP JUMPDEST DUP2 ADD DUP2 DUP2 LT PUSH8 0xFFFFFFFFFFFFFFFF DUP3 GT OR ISZERO PUSH2 0x449 JUMPI PUSH2 0x448 PUSH2 0x3F4 JUMP JUMPDEST JUMPDEST DUP1 PUSH1 0x40 MSTORE POP POP POP JUMP JUMPDEST PUSH0 PUSH2 0x45B PUSH2 0x2A2 JUMP JUMPDEST SWAP1 POP PUSH2 0x467 DUP3 DUP3 PUSH2 0x421 JUMP JUMPDEST SWAP2 SWAP1 POP JUMP JUMPDEST PUSH0 PUSH8 0xFFFFFFFFFFFFFFFF DUP3 GT ISZERO PUSH2 0x486 JUMPI PUSH2 0x485 PUSH2 0x3F4 JUMP JUMPDEST JUMPDEST PUSH2 0x48F DUP3 PUSH2 0x339 JUMP JUMPDEST SWAP1 POP PUSH1 0x20 DUP2 ADD SWAP1 POP SWAP2 SWAP1 POP JUMP JUMPDEST DUP3 DUP2 DUP4 CALLDATACOPY PUSH0 DUP4 DUP4 ADD MSTORE POP POP POP JUMP JUMPDEST PUSH0 PUSH2 0x4BC PUSH2 0x4B7 DUP5 PUSH2 0x46C JUMP JUMPDEST PUSH2 0x452 JUMP JUMPDEST SWAP1 POP DUP3 DUP2 MSTORE PUSH1 0x20 DUP2 ADD DUP5 DUP5 DUP5 ADD GT ISZERO PUSH2 0x4D8 JUMPI PUSH2 0x4D7 PUSH2 0x3F0 JUMP JUMPDEST JUMPDEST PUSH2 0x4E3 DUP5 DUP3 DUP6 PUSH2 0x49C JUMP JUMPDEST POP SWAP4 SWAP3 POP POP POP JUMP JUMPDEST PUSH0 DUP3 PUSH1 0x1F DUP4 ADD SLT PUSH2 0x4FF JUMPI PUSH2 0x4FE PUSH2 0x3EC JUMP JUMPDEST JUMPDEST DUP2 CALLDATALOAD PUSH2 0x50F DUP5 DUP3 PUSH1 0x20 DUP7 ADD PUSH2 0x4AA JUMP JUMPDEST SWAP2 POP POP SWAP3 SWAP2 POP POP JUMP JUMPDEST PUSH0 PUSH0 PUSH0 PUSH1 0x60 DUP5 DUP7 SUB SLT ISZERO PUSH2 0x52F JUMPI PUSH2 0x52E PUSH2 0x2AB JUMP JUMPDEST JUMPDEST PUSH0 DUP5 ADD CALLDATALOAD PUSH8 0xFFFFFFFFFFFFFFFF DUP2 GT ISZERO PUSH2 0x54C JUMPI PUSH2 0x54B PUSH2 0x2AF JUMP JUMPDEST JUMPDEST PUSH2 0x558 DUP7 DUP3 DUP8 ADD PUSH2 0x4EB JUMP JUMPDEST SWAP4 POP POP PUSH1 0x20 PUSH2 0x569 DUP7 DUP3 DUP8 ADD PUSH2 0x2D2 JUMP JUMPDEST SWAP3 POP POP PUSH1 0x40 PUSH2 0x57A DUP7 DUP3 DUP8 ADD PUSH2 0x2D2 JUMP JUMPDEST SWAP2 POP POP SWAP3 POP SWAP3 POP SWAP3 JUMP JUMPDEST PUSH32 0x4E487B7100000000000000000000000000000000000000000000000000000000 PUSH0 MSTORE PUSH1 0x32 PUSH1 0x4 MSTORE PUSH1 0x24 PUSH0 REVERT JUMPDEST PUSH32 0x4E487B7100000000000000000000000000000000000000000000000000000000 PUSH0 MSTORE PUSH1 0x22 PUSH1 0x4 MSTORE PUSH1 0x24 PUSH0 REVERT JUMPDEST PUSH0 PUSH1 0x2 DUP3 DIV SWAP1 POP PUSH1 0x1 DUP3 AND DUP1 PUSH2 0x5F5 JUMPI PUSH1 0x7F DUP3 AND SWAP2 POP JUMPDEST PUSH1 0x20 DUP3 LT DUP2 SUB PUSH2 0x608 JUMPI PUSH2 0x607 PUSH2 0x5B1 JUMP JUMPDEST JUMPDEST POP SWAP2 SWAP1 POP JUMP JUMPDEST PUSH0 DUP2 SWAP1 POP DUP2 PUSH0 MSTORE PUSH1 0x20 PUSH0 KECCAK256 SWAP1 POP SWAP2 SWAP1 POP JUMP JUMPDEST PUSH0 PUSH1 0x20 PUSH1 0x1F DUP4 ADD DIV SWAP1 POP SWAP2 SWAP1 POP JUMP JUMPDEST PUSH0 DUP3 DUP3 SHL SWAP1 POP SWAP3 SWAP2 POP POP JUMP JUMPDEST PUSH0 PUSH1 0x8 DUP4 MUL PUSH2 0x66A PUSH32 0xFFFFFFFFFFFFFFFFFFFFFFFFFFFFFFFFFFFFFFFFFFFFFFFFFFFFFFFFFFFFFFFF DUP3 PUSH2 0x62F JUMP JUMPDEST PUSH2 0x674 DUP7 DUP4 PUSH2 0x62F JUMP JUMPDEST SWAP6 POP DUP1 NOT DUP5 AND SWAP4 POP DUP1 DUP7 AND DUP5 OR SWAP3 POP POP POP SWAP4 SWAP3 POP POP POP JUMP JUMPDEST PUSH0 DUP2 SWAP1 POP SWAP2 SWAP1 POP JUMP JUMPDEST PUSH0 PUSH2 0x6AF PUSH2 0x6AA PUSH2 0x6A5 DUP5 PUSH2 0x2B3 JUMP JUMPDEST PUSH2 0x68C JUMP JUMPDEST PUSH2 0x2B3 JUMP JUMPDEST SWAP1 POP SWAP2 SWAP1 POP JUMP JUMPDEST PUSH0 DUP2 SWAP1 POP SWAP2 SWAP1 POP JUMP JUMPDEST PUSH2 0x6C8 DUP4 PUSH2 0x695 JUMP JUMPDEST PUSH2 0x6DC PUSH2 0x6D4 DUP3 PUSH2 0x6B6 JUMP JUMPDEST DUP5 DUP5 SLOAD PUSH2 0x63B JUMP JUMPDEST DUP3 SSTORE POP POP POP POP JUMP JUMPDEST PUSH0 PUSH0 SWAP1 POP SWAP1 JUMP JUMPDEST PUSH2 0x6F3 PUSH2 0x6E4 JUMP JUMPDEST PUSH2 0x6FE DUP2 DUP5 DUP5 PUSH2 0x6BF JUMP JUMPDEST POP POP POP JUMP JUMPDEST JUMPDEST DUP2 DUP2 LT ISZERO PUSH2 0x721 JUMPI PUSH2 0x716 PUSH0 DUP3 PUSH2 0x6EB JUMP JUMPDEST PUSH1 0x1 DUP2 ADD SWAP1 POP PUSH2 0x704 JUMP JUMPDEST POP POP JUMP JUMPDEST PUSH1 0x1F DUP3 GT ISZERO PUSH2 0x766 JUMPI PUSH2 0x737 DUP2 PUSH2 0x60E JUMP JUMPDEST PUSH2 0x740 DUP5 PUSH2 0x620 JUMP JUMPDEST DUP2 ADD PUSH1 0x20 DUP6 LT ISZERO PUSH2 0x74F JUMPI DUP2 SWAP1 POP JUMPDEST PUSH2 0x763 PUSH2 0x75B DUP6 PUSH2 0x620 JUMP JUMPDEST DUP4 ADD DUP3 PUSH2 0x703 JUMP JUMPDEST POP POP JUMPDEST POP POP POP JUMP JUMPDEST PUSH0 DUP3 DUP3 SHR SWAP1 POP SWAP3 SWAP2 POP POP JUMP JUMPDEST PUSH0 PUSH2 0x786 PUSH0 NOT DUP5 PUSH1 0x8 MUL PUSH2 0x76B JUMP JUMPDEST NOT DUP1 DUP4 AND SWAP2 POP POP SWAP3 SWAP2 POP POP JUMP JUMPDEST PUSH0 PUSH2 0x79E DUP4 DUP4 PUSH2 0x777 JUMP JUMPDEST SWAP2 POP DUP3 PUSH1 0x2 MUL DUP3 OR SWAP1 POP SWAP3 SWAP2 POP POP JUMP JUMPDEST PUSH2 0x7B7 DUP3 PUSH2 0x311 JUMP JUMPDEST PUSH8 0xFFFFFFFFFFFFFFFF DUP2 GT ISZERO PUSH2 0x7D0 JUMPI PUSH2 0x7CF PUSH2 0x3F4 JUMP JUMPDEST JUMPDEST PUSH2 0x7DA DUP3 SLOAD PUSH2 0x5DE JUMP JUMPDEST PUSH2 0x7E5 DUP3 DUP3 DUP6 PUSH2 0x725 JUMP JUMPDEST PUSH0 PUSH1 0x20 SWAP1 POP PUSH1 0x1F DUP4 GT PUSH1 0x1 DUP2 EQ PUSH2 0x816 JUMPI PUSH0 DUP5 ISZERO PUSH2 0x804 JUMPI DUP3 DUP8 ADD MLOAD SWAP1 POP JUMPDEST PUSH2 0x80E DUP6 DUP3 PUSH2 0x793 JUMP JUMPDEST DUP7 SSTORE POP PUSH2 0x875 JUMP JUMPDEST PUSH1 0x1F NOT DUP5 AND PUSH2 0x824 DUP7 PUSH2 0x60E JUMP JUMPDEST PUSH0 JUMPDEST DUP3 DUP2 LT ISZERO PUSH2 0x84B JUMPI DUP5 DUP10 ADD MLOAD DUP3 SSTORE PUSH1 0x1 DUP3 ADD SWAP2 POP PUSH1 0x20 DUP6 ADD SWAP5 POP PUSH1 0x20 DUP2 ADD SWAP1 POP PUSH2 0x826 JUMP JUMPDEST DUP7 DUP4 LT ISZERO PUSH2 0x868 JUMPI DUP5 DUP10 ADD MLOAD PUSH2 0x864 PUSH1 0x1F DUP10 AND DUP3 PUSH2 0x777 JUMP JUMPDEST DUP4 SSTORE POP JUMPDEST PUSH1 0x1 PUSH1 0x2 DUP9 MUL ADD DUP9 SSTORE POP POP POP JUMPDEST POP POP POP POP POP POP JUMP INVALID LOG2 PUSH5 0x6970667358 0x22 SLT KECCAK256 DELEGATECALL CODESIZE 0xF SLT CALLF 0x7FC8 BLOBBASEFEE GASLIMIT SWAP2 RETF 0xDE 0xA6 0x2F 0xB4 DELEGATECALL SWAP16 PUSH9 0xFA9052247C6F20520A PUSH8 0x637CE55064736F6C PUSH4 0x4300081E STOP CALLER PUSH1 0x80 PUSH1 0x40 MSTORE PUSH1 0x1 PUSH1 0x2 SSTORE CALLVALUE DUP1 ISZERO PUSH1 0x13 JUMPI PUSH0 PUSH0 REVERT JUMPDEST POP PUSH2 0xB2D DUP1 PUSH2 0x21 PUSH0 CODECOPY PUSH0 RETURN INVALID PUSH1 0x80 PUSH1 0x40 MSTORE CALLVALUE DUP1 ISZERO PUSH2 0xF JUMPI PUSH0 PUSH0 REVERT JUMPDEST POP PUSH1 0x4 CALLDATASIZE LT PUSH2 0x3F JUMPI PUSH0 CALLDATALOAD PUSH1 0xE0 SHR DUP1 PUSH4 0x66FDD768 EQ PUSH2 0x43 JUMPI DUP1 PUSH4 0xAC3150B6 EQ PUSH2 0x76 JUMPI DUP1 PUSH4 0xEEA90F15 EQ PUSH2 0x92 JUMPI JUMPDEST PUSH0 PUSH0 REVERT JUMPDEST PUSH2 0x5D PUSH1 0x4 DUP1 CALLDATASIZE SUB DUP2 ADD SWAP1 PUSH2 0x58 SWAP2 SWAP1 PUSH2 0x485 JUMP JUMPDEST PUSH2 0xC5 JUMP JUMPDEST PUSH1 0x40 MLOAD PUSH2 0x6D SWAP5 SWAP4 SWAP3 SWAP2 SWAP1 PUSH2 0x52F JUMP JUMPDEST PUSH1 0x40 MLOAD DUP1 SWAP2 SUB SWAP1 RETURN JUMPDEST PUSH2 0x90 PUSH1 0x4 DUP1 CALLDATASIZE SUB DUP2 ADD SWAP1 PUSH2 0x8B SWAP2 SWAP1 PUSH2 0x6AC JUMP JUMPDEST PUSH2 0x1FD JUMP JUMPDEST STOP JUMPDEST PUSH2 0xAC PUSH1 0x4 DUP1 CALLDATASIZE SUB DUP2 ADD SWAP1 PUSH2 0xA7 SWAP2 SWAP1 PUSH2 0x734 JUMP JUMPDEST PUSH2 0x2F2 JUMP JUMPDEST PUSH1 0x40 MLOAD PUSH2 0xBC SWAP5 SWAP4 SWAP3 SWAP2 SWAP1 PUSH2 0x52F JUMP JUMPDEST PUSH1 0x40 MLOAD DUP1 SWAP2 SUB SWAP1 RETURN JUMPDEST PUSH1 0x1 PUSH1 0x20 MSTORE DUP1 PUSH0 MSTORE PUSH1 0x40 PUSH0 KECCAK256 PUSH0 SWAP2 POP SWAP1 POP DUP1 PUSH0 ADD DUP1 SLOAD PUSH2 0xE4 SWAP1 PUSH2 0x7A8 JUMP JUMPDEST DUP1 PUSH1 0x1F ADD PUSH1 0x20 DUP1 SWAP2 DIV MUL PUSH1 0x20 ADD PUSH1 0x40 MLOAD SWAP1 DUP2 ADD PUSH1 0x40 MSTORE DUP1 SWAP3 SWAP2 SWAP1 DUP2 DUP2 MSTORE PUSH1 0x20 ADD DUP3 DUP1 SLOAD PUSH2 0x110 SWAP1 PUSH2 0x7A8 JUMP JUMPDEST DUP1 ISZERO PUSH2 0x15B JUMPI DUP1 PUSH1 0x1F LT PUSH2 0x132 JUMPI PUSH2 0x100 DUP1 DUP4 SLOAD DIV MUL DUP4 MSTORE SWAP2 PUSH1 0x20 ADD SWAP2 PUSH2 0x15B JUMP JUMPDEST DUP3 ADD SWAP2 SWAP1 PUSH0 MSTORE PUSH1 0x20 PUSH0 KECCAK256 SWAP1 JUMPDEST DUP2 SLOAD DUP2 MSTORE SWAP1 PUSH1 0x1 ADD SWAP1 PUSH1 0x20 ADD DUP1 DUP4 GT PUSH2 0x13E JUMPI DUP3 SWAP1 SUB PUSH1 0x1F AND DUP3 ADD SWAP2 JUMPDEST POP POP POP POP POP SWAP1 DUP1 PUSH1 0x1 ADD SLOAD SWAP1 DUP1 PUSH1 0x2 ADD SLOAD SWAP1 DUP1 PUSH1 0x3 ADD DUP1 SLOAD PUSH2 0x17C SWAP1 PUSH2 0x7A8 JUMP JUMPDEST DUP1 PUSH1 0x1F ADD PUSH1 0x20 DUP1 SWAP2 DIV MUL PUSH1 0x20 ADD PUSH1 0x40 MLOAD SWAP1 DUP2 ADD PUSH1 0x40 MSTORE DUP1 SWAP3 SWAP2 SWAP1 DUP2 DUP2 MSTORE PUSH1 0x20 ADD DUP3 DUP1 SLOAD PUSH2 0x1A8 SWAP1 PUSH2 0x7A8 JUMP JUMPDEST DUP1 ISZERO PUSH2 0x1F3 JUMPI DUP1 PUSH1 0x1F LT PUSH2 0x1CA JUMPI PUSH2 0x100 DUP1 DUP4 SLOAD DIV MUL DUP4 MSTORE SWAP2 PUSH1 0x20 ADD SWAP2 PUSH2 0x1F3 JUMP JUMPDEST DUP3 ADD SWAP2 SWAP1 PUSH0 MSTORE PUSH1 0x20 PUSH0 KECCAK256 SWAP1 JUMPDEST DUP2 SLOAD DUP2 MSTORE SWAP1 PUSH1 0x1 ADD SWAP1 PUSH1 0x20 ADD DUP1 DUP4 GT PUSH2 0x1D6 JUMPI DUP3 SWAP1 SUB PUSH1 0x1F AND DUP3 ADD SWAP2 JUMPDEST POP POP POP POP POP SWAP1 POP DUP5 JUMP JUMPDEST PUSH0 PUSH1 0x40 MLOAD DUP1 PUSH1 0x80 ADD PUSH1 0x40 MSTORE DUP1 DUP6 DUP2 MSTORE PUSH1 0x20 ADD PUSH1 0x2 SLOAD DUP2 MSTORE PUSH1 0x20 ADD DUP5 DUP2 MSTORE PUSH1 0x20 ADD DUP4 DUP2 MSTORE POP SWAP1 POP DUP1 PUSH0 DUP6 PUSH1 0x40 MLOAD PUSH2 0x233 SWAP2 SWAP1 PUSH2 0x812 JUMP JUMPDEST SWAP1 DUP2 MSTORE PUSH1 0x20 ADD PUSH1 0x40 MLOAD DUP1 SWAP2 SUB SWAP1 KECCAK256 PUSH0 DUP3 ADD MLOAD DUP2 PUSH0 ADD SWAP1 DUP2 PUSH2 0x254 SWAP2 SWAP1 PUSH2 0x9C8 JUMP JUMPDEST POP PUSH1 0x20 DUP3 ADD MLOAD DUP2 PUSH1 0x1 ADD SSTORE PUSH1 0x40 DUP3 ADD MLOAD DUP2 PUSH1 0x2 ADD SSTORE PUSH1 0x60 DUP3 ADD MLOAD DUP2 PUSH1 0x3 ADD SWAP1 DUP2 PUSH2 0x27E SWAP2 SWAP1 PUSH2 0x9C8 JUMP JUMPDEST POP SWAP1 POP POP DUP1 PUSH1 0x1 PUSH0 PUSH1 0x2 SLOAD DUP2 MSTORE PUSH1 0x20 ADD SWAP1 DUP2 MSTORE PUSH1 0x20 ADD PUSH0 KECCAK256 PUSH0 DUP3 ADD MLOAD DUP2 PUSH0 ADD SWAP1 DUP2 PUSH2 0x2A9 SWAP2 SWAP1 PUSH2 0x9C8 JUMP JUMPDEST POP PUSH1 0x20 DUP3 ADD MLOAD DUP2 PUSH1 0x1 ADD SSTORE PUSH1 0x40 DUP3 ADD MLOAD DUP2 PUSH1 0x2 ADD SSTORE PUSH1 0x60 DUP3 ADD MLOAD DUP2 PUSH1 0x3 ADD SWAP1 DUP2 PUSH2 0x2D3 SWAP2 SWAP1 PUSH2 0x9C8 JUMP JUMPDEST POP SWAP1 POP POP PUSH1 0x1 PUSH1 0x2 SLOAD PUSH2 0x2E6 SWAP2 SWAP1 PUSH2 0xAC4 JUMP JUMPDEST PUSH1 0x2 DUP2 SWAP1 SSTORE POP POP POP POP POP JUMP JUMPDEST PUSH0 DUP2 DUP1 MLOAD PUSH1 0x20 DUP2 ADD DUP3 ADD DUP1 MLOAD DUP5 DUP3 MSTORE PUSH1 0x20 DUP4 ADD PUSH1 0x20 DUP6 ADD KECCAK256 DUP2 DUP4 MSTORE DUP1 SWAP6 POP POP POP POP POP POP PUSH0 SWAP2 POP SWAP1 POP DUP1 PUSH0 ADD DUP1 SLOAD PUSH2 0x328 SWAP1 PUSH2 0x7A8 JUMP JUMPDEST DUP1 PUSH1 0x1F ADD PUSH1 0x20 DUP1 SWAP2 DIV MUL PUSH1 0x20 ADD PUSH1 0x40 MLOAD SWAP1 DUP2 ADD PUSH1 0x40 MSTORE DUP1 SWAP3 SWAP2 SWAP1 DUP2 DUP2 MSTORE PUSH1 0x20 ADD DUP3 DUP1 SLOAD PUSH2 0x354 SWAP1 PUSH2 0x7A8 JUMP JUMPDEST DUP1 ISZERO PUSH2 0x39F JUMPI DUP1 PUSH1 0x1F LT PUSH2 0x376 JUMPI PUSH2 0x100 DUP1 DUP4 SLOAD DIV MUL DUP4 MSTORE SWAP2 PUSH1 0x20 ADD SWAP2 PUSH2 0x39F JUMP JUMPDEST DUP3 ADD SWAP2 SWAP1 PUSH0 MSTORE PUSH1 0x20 PUSH0 KECCAK256 SWAP1 JUMPDEST DUP2 SLOAD DUP2 MSTORE SWAP1 PUSH1 0x1 ADD SWAP1 PUSH1 0x20 ADD DUP1 DUP4 GT PUSH2 0x382 JUMPI DUP3 SWAP1 SUB PUSH1 0x1F AND DUP3 ADD SWAP2 JUMPDEST POP POP POP POP POP SWAP1 DUP1 PUSH1 0x1 ADD SLOAD SWAP1 DUP1 PUSH1 0x2 ADD SLOAD SWAP1 DUP1 PUSH1 0x3 ADD DUP1 SLOAD PUSH2 0x3C0 SWAP1 PUSH2 0x7A8 JUMP JUMPDEST DUP1 PUSH1 0x1F ADD PUSH1 0x20 DUP1 SWAP2 DIV MUL PUSH1 0x20 ADD PUSH1 0x40 MLOAD SWAP1 DUP2 ADD PUSH1 0x40 MSTORE DUP1 SWAP3 SWAP2 SWAP1 DUP2 DUP2 MSTORE PUSH1 0x20 ADD DUP3 DUP1 SLOAD PUSH2 0x3EC SWAP1 PUSH2 0x7A8 JUMP JUMPDEST DUP1 ISZERO PUSH2 0x437 JUMPI DUP1 PUSH1 0x1F LT PUSH2 0x40E JUMPI PUSH2 0x100 DUP1 DUP4 SLOAD DIV MUL DUP4 MSTORE SWAP2 PUSH1 0x20 ADD SWAP2 PUSH2 0x437 JUMP JUMPDEST DUP3 ADD SWAP2 SWAP1 PUSH0 MSTORE PUSH1 0x20 PUSH0 KECCAK256 SWAP1 JUMPDEST DUP2 SLOAD DUP2 MSTORE SWAP1 PUSH1 0x1 ADD SWAP1 PUSH1 0x20 ADD DUP1 DUP4 GT PUSH2 0x41A JUMPI DUP3 SWAP1 SUB PUSH1 0x1F AND DUP3 ADD SWAP2 JUMPDEST POP POP POP POP POP SWAP1 POP DUP5 JUMP JUMPDEST PUSH0 PUSH1 0x40 MLOAD SWAP1 POP SWAP1 JUMP JUMPDEST PUSH0 PUSH0 REVERT JUMPDEST PUSH0 PUSH0 REVERT JUMPDEST PUSH0 DUP2 SWAP1 POP SWAP2 SWAP1 POP JUMP JUMPDEST PUSH2 0x464 DUP2 PUSH2 0x452 JUMP JUMPDEST DUP2 EQ PUSH2 0x46E JUMPI PUSH0 PUSH0 REVERT JUMPDEST POP JUMP JUMPDEST PUSH0 DUP2 CALLDATALOAD SWAP1 POP PUSH2 0x47F DUP2 PUSH2 0x45B JUMP JUMPDEST SWAP3 SWAP2 POP POP JUMP JUMPDEST PUSH0 PUSH1 0x20 DUP3 DUP5 SUB SLT ISZERO PUSH2 0x49A JUMPI PUSH2 0x499 PUSH2 0x44A JUMP JUMPDEST JUMPDEST PUSH0 PUSH2 0x4A7 DUP5 DUP3 DUP6 ADD PUSH2 0x471 JUMP JUMPDEST SWAP2 POP POP SWAP3 SWAP2 POP POP JUMP JUMPDEST PUSH0 DUP2 MLOAD SWAP1 POP SWAP2 SWAP1 POP JUMP JUMPDEST PUSH0 DUP3 DUP3 MSTORE PUSH1 0x20 DUP3 ADD SWAP1 POP SWAP3 SWAP2 POP POP JUMP JUMPDEST DUP3 DUP2 DUP4 MCOPY PUSH0 DUP4 DUP4 ADD MSTORE POP POP POP JUMP JUMPDEST PUSH0 PUSH1 0x1F NOT PUSH1 0x1F DUP4 ADD AND SWAP1 POP SWAP2 SWAP1 POP JUMP JUMPDEST PUSH0 PUSH2 0x4F2 DUP3 PUSH2 0x4B0 JUMP JUMPDEST PUSH2 0x4FC DUP2 DUP6 PUSH2 0x4BA JUMP JUMPDEST SWAP4 POP PUSH2 0x50C DUP2 DUP6 PUSH1 0x20 DUP7 ADD PUSH2 0x4CA JUMP JUMPDEST PUSH2 0x515 DUP2 PUSH2 0x4D8 JUMP JUMPDEST DUP5 ADD SWAP2 POP POP SWAP3 SWAP2 POP POP JUMP JUMPDEST PUSH2 0x529 DUP2 PUSH2 0x452 JUMP JUMPDEST DUP3 MSTORE POP POP JUMP JUMPDEST PUSH0 PUSH1 0x80 DUP3 ADD SWAP1 POP DUP2 DUP2 SUB PUSH0 DUP4 ADD MSTORE PUSH2 0x547 DUP2 DUP8 PUSH2 0x4E8 JUMP JUMPDEST SWAP1 POP PUSH2 0x556 PUSH1 0x20 DUP4 ADD DUP7 PUSH2 0x520 JUMP JUMPDEST PUSH2 0x563 PUSH1 0x40 DUP4 ADD DUP6 PUSH2 0x520 JUMP JUMPDEST DUP2 DUP2 SUB PUSH1 0x60 DUP4 ADD MSTORE PUSH2 0x575 DUP2 DUP5 PUSH2 0x4E8 JUMP JUMPDEST SWAP1 POP SWAP6 SWAP5 POP POP POP POP POP JUMP JUMPDEST PUSH0 PUSH0 REVERT JUMPDEST PUSH0 PUSH0 REVERT JUMPDEST PUSH32 0x4E487B7100000000000000000000000000000000000000000000000000000000 PUSH0 MSTORE PUSH1 0x41 PUSH1 0x4 MSTORE PUSH1 0x24 PUSH0 REVERT JUMPDEST PUSH2 0x5BE DUP3 PUSH2 0x4D8 JUMP JUMPDEST DUP2 ADD DUP2 DUP2 LT PUSH8 0xFFFFFFFFFFFFFFFF DUP3 GT OR ISZERO PUSH2 0x5DD JUMPI PUSH2 0x5DC PUSH2 0x588 JUMP JUMPDEST JUMPDEST DUP1 PUSH1 0x40 MSTORE POP POP POP JUMP JUMPDEST PUSH0 PUSH2 0x5EF PUSH2 0x441 JUMP JUMPDEST SWAP1 POP PUSH2 0x5FB DUP3 DUP3 PUSH2 0x5B5 JUMP JUMPDEST SWAP2 SWAP1 POP JUMP JUMPDEST PUSH0 PUSH8 0xFFFFFFFFFFFFFFFF DUP3 GT ISZERO PUSH2 0x61A JUMPI PUSH2 0x619 PUSH2 0x588 JUMP JUMPDEST JUMPDEST PUSH2 0x623 DUP3 PUSH2 0x4D8 JUMP JUMPDEST SWAP1 POP PUSH1 0x20 DUP2 ADD SWAP1 POP SWAP2 SWAP1 POP JUMP JUMPDEST DUP3 DUP2 DUP4 CALLDATACOPY PUSH0 DUP4 DUP4 ADD MSTORE POP POP POP JUMP JUMPDEST PUSH0 PUSH2 0x650 PUSH2 0x64B DUP5 PUSH2 0x600 JUMP JUMPDEST PUSH2 0x5E6 JUMP JUMPDEST SWAP1 POP DUP3 DUP2 MSTORE PUSH1 0x20 DUP2 ADD DUP5 DUP5 DUP5 ADD GT ISZERO PUSH2 0x66C JUMPI PUSH2 0x66B PUSH2 0x584 JUMP JUMPDEST JUMPDEST PUSH2 0x677 DUP5 DUP3 DUP6 PUSH2 0x630 JUMP JUMPDEST POP SWAP4 SWAP3 POP POP POP JUMP JUMPDEST PUSH0 DUP3 PUSH1 0x1F DUP4 ADD SLT PUSH2 0x693 JUMPI PUSH2 0x692 PUSH2 0x580 JUMP JUMPDEST JUMPDEST DUP2 CALLDATALOAD PUSH2 0x6A3 DUP5 DUP3 PUSH1 0x20 DUP7 ADD PUSH2 0x63E JUMP JUMPDEST SWAP2 POP POP SWAP3 SWAP2 POP POP JUMP JUMPDEST PUSH0 PUSH0 PUSH0 PUSH1 0x60 DUP5 DUP7 SUB SLT ISZERO PUSH2 0x6C3 JUMPI PUSH2 0x6C2 PUSH2 0x44A JUMP JUMPDEST JUMPDEST PUSH0 DUP5 ADD CALLDATALOAD PUSH8 0xFFFFFFFFFFFFFFFF DUP2 GT ISZERO PUSH2 0x6E0 JUMPI PUSH2 0x6DF PUSH2 0x44E JUMP JUMPDEST JUMPDEST PUSH2 0x6EC DUP7 DUP3 DUP8 ADD PUSH2 0x67F JUMP JUMPDEST SWAP4 POP POP PUSH1 0x20 PUSH2 0x6FD DUP7 DUP3 DUP8 ADD PUSH2 0x471 JUMP JUMPDEST SWAP3 POP POP PUSH1 0x40 DUP5 ADD CALLDATALOAD PUSH8 0xFFFFFFFFFFFFFFFF DUP2 GT ISZERO PUSH2 0x71E JUMPI PUSH2 0x71D PUSH2 0x44E JUMP JUMPDEST JUMPDEST PUSH2 0x72A DUP7 DUP3 DUP8 ADD PUSH2 0x67F JUMP JUMPDEST SWAP2 POP POP SWAP3 POP SWAP3 POP SWAP3 JUMP JUMPDEST PUSH0 PUSH1 0x20 DUP3 DUP5 SUB SLT ISZERO PUSH2 0x749 JUMPI PUSH2 0x748 PUSH2 0x44A JUMP JUMPDEST JUMPDEST PUSH0 DUP3 ADD CALLDATALOAD PUSH8 0xFFFFFFFFFFFFFFFF DUP2 GT ISZERO PUSH2 0x766 JUMPI PUSH2 0x765 PUSH2 0x44E JUMP JUMPDEST JUMPDEST PUSH2 0x772 DUP5 DUP3 DUP6 ADD PUSH2 0x67F JUMP JUMPDEST SWAP2 POP POP SWAP3 SWAP2 POP POP JUMP JUMPDEST PUSH32 0x4E487B7100000000000000000000000000000000000000000000000000000000 PUSH0 MSTORE PUSH1 0x22 PUSH1 0x4 MSTORE PUSH1 0x24 PUSH0 REVERT JUMPDEST PUSH0 PUSH1 0x2 DUP3 DIV SWAP1 POP PUSH1 0x1 DUP3 AND DUP1 PUSH2 0x7BF JUMPI PUSH1 0x7F DUP3 AND SWAP2 POP JUMPDEST PUSH1 0x20 DUP3 LT DUP2 SUB PUSH2 0x7D2 JUMPI PUSH2 0x7D1 PUSH2 0x77B JUMP JUMPDEST JUMPDEST POP SWAP2 SWAP1 POP JUMP JUMPDEST PUSH0 DUP2 SWAP1 POP SWAP3 SWAP2 POP POP JUMP JUMPDEST PUSH0 PUSH2 0x7EC DUP3 PUSH2 0x4B0 JUMP JUMPDEST PUSH2 0x7F6 DUP2 DUP6 PUSH2 0x7D8 JUMP JUMPDEST SWAP4 POP PUSH2 0x806 DUP2 DUP6 PUSH1 0x20 DUP7 ADD PUSH2 0x4CA JUMP JUMPDEST DUP1 DUP5 ADD SWAP2 POP POP SWAP3 SWAP2 POP POP JUMP JUMPDEST PUSH0 PUSH2 0x81D DUP3 DUP5 PUSH2 0x7E2 JUMP JUMPDEST SWAP2 POP DUP2 SWAP1 POP SWAP3 SWAP2 POP POP JUMP JUMPDEST PUSH0 DUP2 SWAP1 POP DUP2 PUSH0 MSTORE PUSH1 0x20 PUSH0 KECCAK256 SWAP1 POP SWAP2 SWAP1 POP JUMP JUMPDEST PUSH0 PUSH1 0x20 PUSH1 0x1F DUP4 ADD DIV SWAP1 POP SWAP2 SWAP1 POP JUMP JUMPDEST PUSH0 DUP3 DUP3 SHL SWAP1 POP SWAP3 SWAP2 POP POP JUMP JUMPDEST PUSH0 PUSH1 0x8 DUP4 MUL PUSH2 0x884 PUSH32 0xFFFFFFFFFFFFFFFFFFFFFFFFFFFFFFFFFFFFFFFFFFFFFFFFFFFFFFFFFFFFFFFF DUP3 PUSH2 0x849 JUMP JUMPDEST PUSH2 0x88E DUP7 DUP4 PUSH2 0x849 JUMP JUMPDEST SWAP6 POP DUP1 NOT DUP5 AND SWAP4 POP DUP1 DUP7 AND DUP5 OR SWAP3 POP POP POP SWAP4 SWAP3 POP POP POP JUMP JUMPDEST PUSH0 DUP2 SWAP1 POP SWAP2 SWAP1 POP JUMP JUMPDEST PUSH0 PUSH2 0x8C9 PUSH2 0x8C4 PUSH2 0x8BF DUP5 PUSH2 0x452 JUMP JUMPDEST PUSH2 0x8A6 JUMP JUMPDEST PUSH2 0x452 JUMP JUMPDEST SWAP1 POP SWAP2 SWAP1 POP JUMP JUMPDEST PUSH0 DUP2 SWAP1 POP SWAP2 SWAP1 POP JUMP JUMPDEST PUSH2 0x8E2 DUP4 PUSH2 0x8AF JUMP JUMPDEST PUSH2 0x8F6 PUSH2 0x8EE DUP3 PUSH2 0x8D0 JUMP JUMPDEST DUP5 DUP5 SLOAD PUSH2 0x855 JUMP JUMPDEST DUP3 SSTORE POP POP POP POP JUMP JUMPDEST PUSH0 PUSH0 SWAP1 POP SWAP1 JUMP JUMPDEST PUSH2 0x90D PUSH2 0x8FE JUMP JUMPDEST PUSH2 0x918 DUP2 DUP5 DUP5 PUSH2 0x8D9 JUMP JUMPDEST POP POP POP JUMP JUMPDEST JUMPDEST DUP2 DUP2 LT ISZERO PUSH2 0x93B JUMPI PUSH2 0x930 PUSH0 DUP3 PUSH2 0x905 JUMP JUMPDEST PUSH1 0x1 DUP2 ADD SWAP1 POP PUSH2 0x91E JUMP JUMPDEST POP POP JUMP JUMPDEST PUSH1 0x1F DUP3 GT ISZERO PUSH2 0x980 JUMPI PUSH2 0x951 DUP2 PUSH2 0x828 JUMP JUMPDEST PUSH2 0x95A DUP5 PUSH2 0x83A JUMP JUMPDEST DUP2 ADD PUSH1 0x20 DUP6 LT ISZERO PUSH2 0x969 JUMPI DUP2 SWAP1 POP JUMPDEST PUSH2 0x97D PUSH2 0x975 DUP6 PUSH2 0x83A JUMP JUMPDEST DUP4 ADD DUP3 PUSH2 0x91D JUMP JUMPDEST POP POP JUMPDEST POP POP POP JUMP JUMPDEST PUSH0 DUP3 DUP3 SHR SWAP1 POP SWAP3 SWAP2 POP POP JUMP JUMPDEST PUSH0 PUSH2 0x9A0 PUSH0 NOT DUP5 PUSH1 0x8 MUL PUSH2 0x985 JUMP JUMPDEST NOT DUP1 DUP4 AND SWAP2 POP POP SWAP3 SWAP2 POP POP JUMP JUMPDEST PUSH0 PUSH2 0x9B8 DUP4 DUP4 PUSH2 0x991 JUMP JUMPDEST SWAP2 POP DUP3 PUSH1 0x2 MUL DUP3 OR SWAP1 POP SWAP3 SWAP2 POP POP JUMP JUMPDEST PUSH2 0x9D1 DUP3 PUSH2 0x4B0 JUMP JUMPDEST PUSH8 0xFFFFFFFFFFFFFFFF DUP2 GT ISZERO PUSH2 0x9EA JUMPI PUSH2 0x9E9 PUSH2 0x588 JUMP JUMPDEST JUMPDEST PUSH2 0x9F4 DUP3 SLOAD PUSH2 0x7A8 JUMP JUMPDEST PUSH2 0x9FF DUP3 DUP3 DUP6 PUSH2 0x93F JUMP JUMPDEST PUSH0 PUSH1 0x20 SWAP1 POP PUSH1 0x1F DUP4 GT PUSH1 0x1 DUP2 EQ PUSH2 0xA30 JUMPI PUSH0 DUP5 ISZERO PUSH2 0xA1E JUMPI DUP3 DUP8 ADD MLOAD SWAP1 POP JUMPDEST PUSH2 0xA28 DUP6 DUP3 PUSH2 0x9AD JUMP JUMPDEST DUP7 SSTORE POP PUSH2 0xA8F JUMP JUMPDEST PUSH1 0x1F NOT DUP5 AND PUSH2 0xA3E DUP7 PUSH2 0x828 JUMP JUMPDEST PUSH0 JUMPDEST DUP3 DUP2 LT ISZERO PUSH2 0xA65 JUMPI DUP5 DUP10 ADD MLOAD DUP3 SSTORE PUSH1 0x1 DUP3 ADD SWAP2 POP PUSH1 0x20 DUP6 ADD SWAP5 POP PUSH1 0x20 DUP2 ADD SWAP1 POP PUSH2 0xA40 JUMP JUMPDEST DUP7 DUP4 LT ISZERO PUSH2 0xA82 JUMPI DUP5 DUP10 ADD MLOAD PUSH2 0xA7E PUSH1 0x1F DUP10 AND DUP3 PUSH2 0x991 JUMP JUMPDEST DUP4 SSTORE POP JUMPDEST PUSH1 0x1 PUSH1 0x2 DUP9 MUL ADD DUP9 SSTORE POP POP POP JUMPDEST POP POP POP POP POP POP JUMP JUMPDEST PUSH32 0x4E487B7100000000000000000000000000000000000000000000000000000000 PUSH0 MSTORE PUSH1 0x11 PUSH1 0x4 MSTORE PUSH1 0x24 PUSH0 REVERT JUMPDEST PUSH0 PUSH2 0xACE DUP3 PUSH2 0x452 JUMP JUMPDEST SWAP2 POP PUSH2 0xAD9 DUP4 PUSH2 0x452 JUMP JUMPDEST SWAP3 POP DUP3 DUP3 ADD SWAP1 POP DUP1 DUP3 GT ISZERO PUSH2 0xAF1 JUMPI PUSH2 0xAF0 PUSH2 0xA97 JUMP JUMPDEST JUMPDEST SWAP3 SWAP2 POP POP JUMP INVALID LOG2 PUSH5 0x6970667358 0x22 SLT KECCAK256 EXTDELEGATECALL PUSH28 0xA1BA757C4E5E69B35B216B2ED6EE8C086D290A85690DEF0EC4F29F39 SWAP2 0xA8 PUSH5 0x736F6C6343 STOP ADDMOD 0x1E STOP CALLER LOG2 PUSH5 0x6970667358 0x22 SLT KECCAK256 DIV PUSH17 0x4FFD5DD1ED18BF721833B854CBF580DC88 MULMOD MSIZE 0x25 0xAE 0xAE PUSH25 0x7513DD7B5799DE64736F6C634300081E003300000000000000 "
				},
				"gasEstimates": {
					"creation": {
						"codeDepositCost": "1169200",
						"executionCost": "1212",
						"totalCost": "1170412"
					},
					"external": {
						"contract1()": "infinite",
						"contract2()": "infinite",
						"deploy()": "infinite"
					}
				},
				"methodIdentifiers": {
					"contract1()": "4c62d88c",
					"contract2()": "4af6b5c2",
					"deploy()": "775c300c"
				}
			},
			"storageLayout": {
				"storage": [
					{
						"astId": 61,
						"contract": "factoryStorage.sol:contract_factory",
						"label": "contract1",
						"offset": 0,
						"slot": "0",
						"type": "t_contract(simpleStorage)52"
					},
					{
						"astId": 64,
						"contract": "factoryStorage.sol:contract_factory",
						"label": "contract2",
						"offset": 0,
						"slot": "1",
						"type": "t_contract(skills)146"
					}
				],
				"types": {
					"t_contract(simpleStorage)52": {
						"encoding": "inplace",
						"label": "contract simpleStorage",
						"numberOfBytes": "20"
					},
					"t_contract(skills)146": {
						"encoding": "inplace",
						"label": "contract skills",
						"numberOfBytes": "20"
					}
				}
			},
			"userdoc": {
				"kind": "user",
				"methods": {},
				"version": 1
			}
		}
	}
}